{
	"DegeneratorStaking.sol": {
		"DegeneratorStaking": {
			"abi": [
				{
					"inputs": [
						{
							"internalType": "address",
							"name": "_multiSigAddress",
							"type": "address"
						},
						{
							"internalType": "address",
							"name": "_tokenAddress",
							"type": "address"
						},
						{
							"internalType": "uint256",
							"name": "_minimumStakeAmount",
							"type": "uint256"
						},
						{
							"internalType": "uint256",
							"name": "_rewardBlackoutPeriod",
							"type": "uint256"
						}
					],
					"stateMutability": "nonpayable",
					"type": "constructor"
				},
				{
					"anonymous": false,
					"inputs": [
						{
							"indexed": true,
							"internalType": "address",
							"name": "staker",
							"type": "address"
						},
						{
							"indexed": false,
							"internalType": "uint256",
							"name": "amount",
							"type": "uint256"
						},
						{
							"indexed": false,
							"internalType": "uint256",
							"name": "blockStaked",
							"type": "uint256"
						}
					],
					"name": "degeneratorStaked",
					"type": "event"
				},
				{
					"anonymous": false,
					"inputs": [
						{
							"indexed": true,
							"internalType": "address",
							"name": "staker",
							"type": "address"
						},
						{
							"indexed": false,
							"internalType": "uint256",
							"name": "amount",
							"type": "uint256"
						}
					],
					"name": "degeneratorWithdrawn",
					"type": "event"
				},
				{
					"inputs": [
						{
							"internalType": "address",
							"name": "",
							"type": "address"
						},
						{
							"internalType": "address",
							"name": "",
							"type": "address"
						}
					],
					"name": "addressWithdrewERC20Reward",
					"outputs": [
						{
							"internalType": "bool",
							"name": "",
							"type": "bool"
						}
					],
					"stateMutability": "view",
					"type": "function"
				},
				{
					"inputs": [],
					"name": "degeneratorStakers",
					"outputs": [
						{
							"internalType": "uint256",
							"name": "",
							"type": "uint256"
						}
					],
					"stateMutability": "view",
					"type": "function"
				},
				{
					"inputs": [],
					"name": "degeneratorStakingPool",
					"outputs": [
						{
							"internalType": "uint256",
							"name": "",
							"type": "uint256"
						}
					],
					"stateMutability": "view",
					"type": "function"
				},
				{
					"inputs": [
						{
							"internalType": "address",
							"name": "",
							"type": "address"
						}
					],
					"name": "erc20Supplies",
					"outputs": [
						{
							"internalType": "uint256",
							"name": "poolSupply",
							"type": "uint256"
						},
						{
							"internalType": "uint256",
							"name": "blockSupplied",
							"type": "uint256"
						},
						{
							"internalType": "uint256",
							"name": "remainingPoolSupply",
							"type": "uint256"
						},
						{
							"internalType": "uint256",
							"name": "degeneratorPoolSizeAtTime",
							"type": "uint256"
						},
						{
							"internalType": "bool",
							"name": "registered",
							"type": "bool"
						}
					],
					"stateMutability": "view",
					"type": "function"
				},
				{
					"inputs": [],
					"name": "factory",
					"outputs": [
						{
							"internalType": "contract IFairLaunchFactoryV1",
							"name": "",
							"type": "address"
						}
					],
					"stateMutability": "view",
					"type": "function"
				},
				{
					"inputs": [
						{
							"internalType": "address",
							"name": "_tokenAddress",
							"type": "address"
						},
						{
							"internalType": "address",
							"name": "_account",
							"type": "address"
						}
					],
					"name": "getTokenEligibility",
					"outputs": [
						{
							"internalType": "bool",
							"name": "",
							"type": "bool"
						}
					],
					"stateMutability": "view",
					"type": "function"
				},
				{
					"inputs": [
						{
							"internalType": "address",
							"name": "_tokenAddress",
							"type": "address"
						},
						{
							"internalType": "address",
							"name": "_account",
							"type": "address"
						}
					],
					"name": "getTokenReward",
					"outputs": [
						{
							"internalType": "uint256",
							"name": "",
							"type": "uint256"
						}
					],
					"stateMutability": "view",
					"type": "function"
				},
				{
					"inputs": [],
					"name": "minimumStakeAmount",
					"outputs": [
						{
							"internalType": "uint256",
							"name": "",
							"type": "uint256"
						}
					],
					"stateMutability": "view",
					"type": "function"
				},
				{
					"inputs": [],
					"name": "multiSigAddress",
					"outputs": [
						{
							"internalType": "address",
							"name": "",
							"type": "address"
						}
					],
					"stateMutability": "view",
					"type": "function"
				},
				{
					"inputs": [
						{
							"internalType": "address",
							"name": "_tokenAddress",
							"type": "address"
						},
						{
							"internalType": "uint256",
							"name": "_poolSupply",
							"type": "uint256"
						}
					],
					"name": "registerERC20Supply",
					"outputs": [],
					"stateMutability": "nonpayable",
					"type": "function"
				},
				{
					"inputs": [],
					"name": "rewardBlackoutPeriod",
					"outputs": [
						{
							"internalType": "uint256",
							"name": "",
							"type": "uint256"
						}
					],
					"stateMutability": "view",
					"type": "function"
				},
				{
					"inputs": [
						{
							"internalType": "uint256",
							"name": "_amount",
							"type": "uint256"
						}
					],
					"name": "setMinimumStakeAmount",
					"outputs": [],
					"stateMutability": "nonpayable",
					"type": "function"
				},
				{
					"inputs": [
						{
							"internalType": "uint256",
							"name": "_length",
							"type": "uint256"
						}
					],
					"name": "setRewardBlackoutPeriod",
					"outputs": [],
					"stateMutability": "nonpayable",
					"type": "function"
				},
				{
					"inputs": [
						{
							"internalType": "uint256",
							"name": "_amount",
							"type": "uint256"
						}
					],
					"name": "stakeDegnerator",
					"outputs": [],
					"stateMutability": "nonpayable",
					"type": "function"
				},
				{
					"inputs": [],
					"name": "stakingOpen",
					"outputs": [
						{
							"internalType": "bool",
							"name": "",
							"type": "bool"
						}
					],
					"stateMutability": "view",
					"type": "function"
				},
				{
					"inputs": [],
					"name": "tokenAddress",
					"outputs": [
						{
							"internalType": "address",
							"name": "",
							"type": "address"
						}
					],
					"stateMutability": "view",
					"type": "function"
				},
				{
					"inputs": [],
					"name": "withdrawDegenerator",
					"outputs": [],
					"stateMutability": "nonpayable",
					"type": "function"
				},
				{
					"inputs": [
						{
							"internalType": "address[]",
							"name": "_tokenAddresses",
							"type": "address[]"
						}
					],
					"name": "withdrawRewards",
					"outputs": [],
					"stateMutability": "nonpayable",
					"type": "function"
				}
			],
			"devdoc": {
				"kind": "dev",
				"methods": {},
				"version": 1
			},
			"evm": {
				"assembly": "    /* \"DegeneratorStaking.sol\":424:5856  contract DegeneratorStaking is Context, ReentrancyGuard {... */\n  mstore(0x40, 0x80)\n    /* \"DegeneratorStaking.sol\":1917:2301  constructor( address _multiSigAddress , address _tokenAddress, uint256 _minimumStakeAmount, uint256 _rewardBlackoutPeriod) {... */\n  callvalue\n  dup1\n  iszero\n  tag_1\n  jumpi\n  0x00\n  dup1\n  revert\ntag_1:\n  pop\n  mload(0x40)\n  sub(codesize, bytecodeSize)\n  dup1\n  bytecodeSize\n  dup4\n  codecopy\n  dup2\n  add\n  0x40\n  dup2\n  swap1\n  mstore\n  tag_2\n  swap2\n  tag_3\n  jump\t// in\ntag_2:\n    /* \"@openzeppelin/contracts/security/ReentrancyGuard.sol\":1716:1717  1 */\n  0x01\n    /* \"@openzeppelin/contracts/security/ReentrancyGuard.sol\":1821:1828  _status */\n  0x00\n    /* \"@openzeppelin/contracts/security/ReentrancyGuard.sol\":1821:1843  _status = _NOT_ENTERED */\n  dup2\n  dup2\n  sstore\n    /* \"DegeneratorStaking.sol\":2050:2084  multiSigAddress = _multiSigAddress */\n  dup2\n  sload\n  not(sub(shl(0xa0, 0x01), 0x01))\n  swap1\n  dup2\n  and\n  sub(shl(0xa0, 0x01), 0x01)\n  swap8\n  dup9\n  and\n  or\n  swap1\n  swap3\n  sstore\n    /* \"DegeneratorStaking.sol\":2094:2106  tokenAddress */\n  0x02\n    /* \"DegeneratorStaking.sol\":2094:2122  tokenAddress = _tokenAddress */\n  dup1\n  sload\n  swap1\n  swap3\n  and\n  swap5\n  swap1\n  swap6\n  and\n  swap4\n  swap1\n  swap4\n  or\n  swap1\n  swap3\n  sstore\n    /* \"DegeneratorStaking.sol\":2132:2152  rewardBlackoutPeriod */\n  0x04\n    /* \"DegeneratorStaking.sol\":2132:2176  rewardBlackoutPeriod = _rewardBlackoutPeriod */\n  swap2\n  swap1\n  swap2\n  sstore\n    /* \"DegeneratorStaking.sol\":2186:2204  minimumStakeAmount */\n  0x03\n    /* \"DegeneratorStaking.sol\":2186:2226  minimumStakeAmount = _minimumStakeAmount */\n  sstore\n    /* \"DegeneratorStaking.sol\":2236:2258  degeneratorStakingPool */\n  0x06\n    /* \"DegeneratorStaking.sol\":2236:2262  degeneratorStakingPool = 0 */\n  dup2\n  swap1\n  sstore\n    /* \"DegeneratorStaking.sol\":2272:2290  degeneratorStakers */\n  0x07\n    /* \"DegeneratorStaking.sol\":2272:2294  degeneratorStakers = 0 */\n  sstore\n    /* \"DegeneratorStaking.sol\":424:5856  contract DegeneratorStaking is Context, ReentrancyGuard {... */\n  jump(tag_10)\n    /* \"#utility.yul\":14:191   */\ntag_9:\n    /* \"#utility.yul\":93:106   */\n  dup1\n  mload\n  sub(shl(0xa0, 0x01), 0x01)\n    /* \"#utility.yul\":135:166   */\n  dup2\n  and\n    /* \"#utility.yul\":125:167   */\n  dup2\n  eq\n    /* \"#utility.yul\":115:185   */\n  tag_12\n  jumpi\n    /* \"#utility.yul\":181:182   */\n  0x00\n    /* \"#utility.yul\":178:179   */\n  dup1\n    /* \"#utility.yul\":171:183   */\n  revert\n    /* \"#utility.yul\":115:185   */\ntag_12:\n    /* \"#utility.yul\":14:191   */\n  swap2\n  swap1\n  pop\n  jump\t// out\n    /* \"#utility.yul\":196:612   */\ntag_3:\n    /* \"#utility.yul\":293:299   */\n  0x00\n    /* \"#utility.yul\":301:307   */\n  dup1\n    /* \"#utility.yul\":309:315   */\n  0x00\n    /* \"#utility.yul\":317:323   */\n  dup1\n    /* \"#utility.yul\":370:373   */\n  0x80\n    /* \"#utility.yul\":358:367   */\n  dup6\n    /* \"#utility.yul\":349:356   */\n  dup8\n    /* \"#utility.yul\":345:368   */\n  sub\n    /* \"#utility.yul\":341:374   */\n  slt\n    /* \"#utility.yul\":338:391   */\n  iszero\n  tag_14\n  jumpi\n    /* \"#utility.yul\":387:388   */\n  0x00\n    /* \"#utility.yul\":384:385   */\n  dup1\n    /* \"#utility.yul\":377:389   */\n  revert\n    /* \"#utility.yul\":338:391   */\ntag_14:\n    /* \"#utility.yul\":410:450   */\n  tag_15\n    /* \"#utility.yul\":440:449   */\n  dup6\n    /* \"#utility.yul\":410:450   */\n  tag_9\n  jump\t// in\ntag_15:\n    /* \"#utility.yul\":400:450   */\n  swap4\n  pop\n    /* \"#utility.yul\":469:518   */\n  tag_16\n    /* \"#utility.yul\":514:516   */\n  0x20\n    /* \"#utility.yul\":503:512   */\n  dup7\n    /* \"#utility.yul\":499:517   */\n  add\n    /* \"#utility.yul\":469:518   */\n  tag_9\n  jump\t// in\ntag_16:\n    /* \"#utility.yul\":558:560   */\n  0x40\n    /* \"#utility.yul\":543:561   */\n  dup7\n  add\n    /* \"#utility.yul\":537:562   */\n  mload\n    /* \"#utility.yul\":602:604   */\n  0x60\n    /* \"#utility.yul\":587:605   */\n  swap1\n  swap7\n  add\n    /* \"#utility.yul\":581:606   */\n  mload\n    /* \"#utility.yul\":196:612   */\n  swap5\n  swap8\n    /* \"#utility.yul\":459:518   */\n  swap1\n  swap7\n  pop\n    /* \"#utility.yul\":196:612   */\n  swap3\n  pop\n  pop\n  pop\n  jump\t// out\ntag_10:\n    /* \"DegeneratorStaking.sol\":424:5856  contract DegeneratorStaking is Context, ReentrancyGuard {... */\n  dataSize(sub_0)\n  dup1\n  dataOffset(sub_0)\n  0x00\n  codecopy\n  0x00\n  return\nstop\n\nsub_0: assembly {\n        /* \"DegeneratorStaking.sol\":424:5856  contract DegeneratorStaking is Context, ReentrancyGuard {... */\n      mstore(0x40, 0x80)\n      callvalue\n      dup1\n      iszero\n      tag_1\n      jumpi\n      0x00\n      dup1\n      revert\n    tag_1:\n      pop\n      jumpi(tag_2, lt(calldatasize, 0x04))\n      shr(0xe0, calldataload(0x00))\n      dup1\n      0x9b29d215\n      gt\n      tag_21\n      jumpi\n      dup1\n      0xa164959d\n      gt\n      tag_22\n      jumpi\n      dup1\n      0xa164959d\n      eq\n      tag_16\n      jumpi\n      dup1\n      0xacde6597\n      eq\n      tag_17\n      jumpi\n      dup1\n      0xad5a402b\n      eq\n      tag_18\n      jumpi\n      dup1\n      0xc45a0155\n      eq\n      tag_19\n      jumpi\n      dup1\n      0xcaf10b57\n      eq\n      tag_20\n      jumpi\n      0x00\n      dup1\n      revert\n    tag_22:\n      dup1\n      0x9b29d215\n      eq\n      tag_12\n      jumpi\n      dup1\n      0x9d76ea58\n      eq\n      tag_13\n      jumpi\n      dup1\n      0x9f8932f4\n      eq\n      tag_14\n      jumpi\n      dup1\n      0xa163beea\n      eq\n      tag_15\n      jumpi\n      0x00\n      dup1\n      revert\n    tag_21:\n      dup1\n      0x609c878a\n      gt\n      tag_23\n      jumpi\n      dup1\n      0x609c878a\n      eq\n      tag_7\n      jumpi\n      dup1\n      0x62d76d06\n      eq\n      tag_8\n      jumpi\n      dup1\n      0x6b036f45\n      eq\n      tag_9\n      jumpi\n      dup1\n      0x8167ee72\n      eq\n      tag_10\n      jumpi\n      dup1\n      0x95adb5ad\n      eq\n      tag_11\n      jumpi\n      0x00\n      dup1\n      revert\n    tag_23:\n      dup1\n      0x0d29fcd4\n      eq\n      tag_3\n      jumpi\n      dup1\n      0x1516def7\n      eq\n      tag_4\n      jumpi\n      dup1\n      0x38760298\n      eq\n      tag_5\n      jumpi\n      dup1\n      0x41fee557\n      eq\n      tag_6\n      jumpi\n    tag_2:\n      0x00\n      dup1\n      revert\n        /* \"DegeneratorStaking.sol\":5555:5699  function setMinimumStakeAmount(uint256 _amount) public multiSigOnly {... */\n    tag_3:\n      tag_24\n      tag_25\n      calldatasize\n      0x04\n      tag_26\n      jump\t// in\n    tag_25:\n      tag_27\n      jump\t// in\n    tag_24:\n      stop\n        /* \"DegeneratorStaking.sol\":486:516  address public multiSigAddress */\n    tag_4:\n      sload(0x01)\n      tag_28\n      swap1\n      sub(shl(0xa0, 0x01), 0x01)\n      and\n      dup2\n      jump\n    tag_28:\n      mload(0x40)\n      sub(shl(0xa0, 0x01), 0x01)\n        /* \"#utility.yul\":363:395   */\n      swap1\n      swap2\n      and\n        /* \"#utility.yul\":345:396   */\n      dup2\n      mstore\n        /* \"#utility.yul\":333:335   */\n      0x20\n        /* \"#utility.yul\":318:336   */\n      add\n        /* \"DegeneratorStaking.sol\":486:516  address public multiSigAddress */\n    tag_30:\n      mload(0x40)\n      dup1\n      swap2\n      sub\n      swap1\n      return\n        /* \"DegeneratorStaking.sol\":760:783  bool public stakingOpen */\n    tag_5:\n      sload(0x08)\n      tag_32\n      swap1\n      0xff\n      and\n      dup2\n      jump\n    tag_32:\n      mload(0x40)\n        /* \"#utility.yul\":572:586   */\n      swap1\n      iszero\n        /* \"#utility.yul\":565:587   */\n      iszero\n        /* \"#utility.yul\":547:588   */\n      dup2\n      mstore\n        /* \"#utility.yul\":535:537   */\n      0x20\n        /* \"#utility.yul\":520:538   */\n      add\n        /* \"DegeneratorStaking.sol\":760:783  bool public stakingOpen */\n      tag_30\n        /* \"#utility.yul\":407:594   */\n      jump\n        /* \"DegeneratorStaking.sol\":2307:2953  function stakeDegnerator(uint256 _amount) public nonReentrant {... */\n    tag_6:\n      tag_24\n      tag_37\n      calldatasize\n      0x04\n      tag_26\n      jump\t// in\n    tag_37:\n      tag_38\n      jump\t// in\n        /* \"DegeneratorStaking.sol\":1669:1747  mapping(address => mapping(address => bool)) public addressWithdrewERC20Reward */\n    tag_7:\n      tag_32\n      tag_40\n      calldatasize\n      0x04\n      tag_41\n      jump\t// in\n    tag_40:\n      0x0b\n      0x20\n      swap1\n      dup2\n      mstore\n      0x00\n      swap3\n      dup4\n      mstore\n      0x40\n      dup1\n      dup5\n      keccak256\n      swap1\n      swap2\n      mstore\n      swap1\n      dup3\n      mstore\n      swap1\n      keccak256\n      sload\n      0xff\n      and\n      dup2\n      jump\n        /* \"DegeneratorStaking.sol\":4243:4806  function withdrawRewards(address[] calldata _tokenAddresses) public onlyStaker nonReentrant {... */\n    tag_8:\n      tag_24\n      tag_45\n      calldatasize\n      0x04\n      tag_46\n      jump\t// in\n    tag_45:\n      tag_47\n      jump\t// in\n        /* \"DegeneratorStaking.sol\":555:588  uint256 public minimumStakeAmount */\n    tag_9:\n      tag_48\n      sload(0x03)\n      dup2\n      jump\n    tag_48:\n      mload(0x40)\n        /* \"#utility.yul\":1808:1833   */\n      swap1\n      dup2\n      mstore\n        /* \"#utility.yul\":1796:1798   */\n      0x20\n        /* \"#utility.yul\":1781:1799   */\n      add\n        /* \"DegeneratorStaking.sol\":555:588  uint256 public minimumStakeAmount */\n      tag_30\n        /* \"#utility.yul\":1662:1839   */\n      jump\n        /* \"DegeneratorStaking.sol\":3700:4232  function registerERC20Supply(address _tokenAddress, uint256 _poolSupply) public nonReentrant {... */\n    tag_10:\n      tag_24\n      tag_53\n      calldatasize\n      0x04\n      tag_54\n      jump\t// in\n    tag_53:\n      tag_55\n      jump\t// in\n        /* \"DegeneratorStaking.sol\":2959:3694  function withdrawDegenerator() public nonReentrant {... */\n    tag_11:\n      tag_24\n      tag_57\n      jump\t// in\n        /* \"DegeneratorStaking.sol\":5705:5853  function setRewardBlackoutPeriod(uint256 _length) public multiSigOnly {... */\n    tag_12:\n      tag_24\n      tag_59\n      calldatasize\n      0x04\n      tag_26\n      jump\t// in\n    tag_59:\n      tag_60\n      jump\t// in\n        /* \"DegeneratorStaking.sol\":522:549  address public tokenAddress */\n    tag_13:\n      sload(0x02)\n      tag_28\n      swap1\n      sub(shl(0xa0, 0x01), 0x01)\n      and\n      dup2\n      jump\n        /* \"DegeneratorStaking.sol\":594:629  uint256 public rewardBlackoutPeriod */\n    tag_14:\n      tag_48\n      sload(0x04)\n      dup2\n      jump\n        /* \"DegeneratorStaking.sol\":720:753  uint256 public degeneratorStakers */\n    tag_15:\n      tag_48\n      sload(0x07)\n      dup2\n      jump\n        /* \"DegeneratorStaking.sol\":5101:5549  function getTokenReward(address _tokenAddress, address _account) public view returns(uint256) {... */\n    tag_16:\n      tag_48\n      tag_71\n      calldatasize\n      0x04\n      tag_41\n      jump\t// in\n    tag_71:\n      tag_72\n      jump\t// in\n        /* \"DegeneratorStaking.sol\":4812:5095  function getTokenEligibility(address _tokenAddress, address _account) public view returns(bool) {... */\n    tag_17:\n      tag_32\n      tag_75\n      calldatasize\n      0x04\n      tag_41\n      jump\t// in\n    tag_75:\n      tag_76\n      jump\t// in\n        /* \"DegeneratorStaking.sol\":677:714  uint256 public degeneratorStakingPool */\n    tag_18:\n      tag_48\n      sload(0x06)\n      dup2\n      jump\n        /* \"DegeneratorStaking.sol\":635:670  IFairLaunchFactoryV1 public factory */\n    tag_19:\n      sload(0x05)\n      tag_28\n      swap1\n      sub(shl(0xa0, 0x01), 0x01)\n      and\n      dup2\n      jump\n        /* \"DegeneratorStaking.sol\":1611:1663  mapping(address => ERC20Supply) public erc20Supplies */\n    tag_20:\n      tag_85\n      tag_86\n      calldatasize\n      0x04\n      tag_87\n      jump\t// in\n    tag_86:\n      mstore(0x20, 0x0a)\n      0x00\n      swap1\n      dup2\n      mstore\n      0x40\n      swap1\n      keccak256\n      dup1\n      sload\n      0x01\n      dup3\n      add\n      sload\n      0x02\n      dup4\n      add\n      sload\n      0x03\n      dup5\n      add\n      sload\n      0x04\n      swap1\n      swap5\n      add\n      sload\n      swap3\n      swap4\n      swap2\n      swap3\n      swap1\n      swap2\n      swap1\n      0xff\n      and\n      dup6\n      jump\n    tag_85:\n      0x40\n      dup1\n      mload\n        /* \"#utility.yul\":2784:2809   */\n      swap6\n      dup7\n      mstore\n        /* \"#utility.yul\":2840:2842   */\n      0x20\n        /* \"#utility.yul\":2825:2843   */\n      dup7\n      add\n        /* \"#utility.yul\":2818:2852   */\n      swap5\n      swap1\n      swap5\n      mstore\n        /* \"#utility.yul\":2868:2886   */\n      swap3\n      dup5\n      add\n        /* \"#utility.yul\":2861:2895   */\n      swap2\n      swap1\n      swap2\n      mstore\n        /* \"#utility.yul\":2926:2928   */\n      0x60\n        /* \"#utility.yul\":2911:2929   */\n      dup4\n      add\n        /* \"#utility.yul\":2904:2938   */\n      mstore\n        /* \"#utility.yul\":2982:2996   */\n      iszero\n        /* \"#utility.yul\":2975:2997   */\n      iszero\n        /* \"#utility.yul\":2969:2972   */\n      0x80\n        /* \"#utility.yul\":2954:2973   */\n      dup3\n      add\n        /* \"#utility.yul\":2947:2998   */\n      mstore\n        /* \"#utility.yul\":2771:2774   */\n      0xa0\n        /* \"#utility.yul\":2756:2775   */\n      add\n        /* \"DegeneratorStaking.sol\":1611:1663  mapping(address => ERC20Supply) public erc20Supplies */\n      tag_30\n        /* \"#utility.yul\":2531:3004   */\n      jump\n        /* \"DegeneratorStaking.sol\":5555:5699  function setMinimumStakeAmount(uint256 _amount) public multiSigOnly {... */\n    tag_27:\n        /* \"DegeneratorStaking.sol\":1105:1120  multiSigAddress */\n      and(sub(shl(0xa0, 0x01), 0x01), sload(0x01))\n        /* \"DegeneratorStaking.sol\":1091:1101  msg.sender */\n      caller\n        /* \"DegeneratorStaking.sol\":1091:1120  msg.sender == multiSigAddress */\n      eq\n        /* \"DegeneratorStaking.sol\":1083:1169  require(msg.sender == multiSigAddress, \"Only multiSig address can call this function\") */\n      tag_92\n      jumpi\n      mload(0x40)\n      shl(0xe5, 0x461bcd)\n      dup2\n      mstore\n      0x04\n      add\n      tag_93\n      swap1\n      tag_94\n      jump\t// in\n    tag_93:\n      mload(0x40)\n      dup1\n      swap2\n      sub\n      swap1\n      revert\n    tag_92:\n        /* \"DegeneratorStaking.sol\":5651:5652  0 */\n      0x00\n        /* \"DegeneratorStaking.sol\":5641:5648  _amount */\n      dup2\n        /* \"DegeneratorStaking.sol\":5641:5652  _amount > 0 */\n      gt\n        /* \"DegeneratorStaking.sol\":5633:5653  require(_amount > 0) */\n      tag_96\n      jumpi\n      0x00\n      dup1\n      revert\n    tag_96:\n        /* \"DegeneratorStaking.sol\":5664:5682  minimumStakeAmount */\n      0x03\n        /* \"DegeneratorStaking.sol\":5664:5692  minimumStakeAmount = _amount */\n      sstore\n        /* \"DegeneratorStaking.sol\":5555:5699  function setMinimumStakeAmount(uint256 _amount) public multiSigOnly {... */\n      jump\t// out\n        /* \"DegeneratorStaking.sol\":2307:2953  function stakeDegnerator(uint256 _amount) public nonReentrant {... */\n    tag_38:\n        /* \"@openzeppelin/contracts/security/ReentrancyGuard.sol\":2261:2282  _nonReentrantBefore() */\n      tag_98\n        /* \"@openzeppelin/contracts/security/ReentrancyGuard.sol\":2261:2280  _nonReentrantBefore */\n      tag_99\n        /* \"@openzeppelin/contracts/security/ReentrancyGuard.sol\":2261:2282  _nonReentrantBefore() */\n      jump\t// in\n    tag_98:\n        /* \"DegeneratorStaking.sol\":2401:2413  tokenAddress */\n      sload(0x02)\n        /* \"DegeneratorStaking.sol\":2432:2443  stakingOpen */\n      sload(0x08)\n      sub(shl(0xa0, 0x01), 0x01)\n        /* \"DegeneratorStaking.sol\":2401:2413  tokenAddress */\n      swap1\n      swap2\n      and\n      swap1\n        /* \"DegeneratorStaking.sol\":2432:2443  stakingOpen */\n      0xff\n      and\n        /* \"DegeneratorStaking.sol\":2424:2444  require(stakingOpen) */\n      tag_101\n      jumpi\n      0x00\n      dup1\n      revert\n    tag_101:\n        /* \"DegeneratorStaking.sol\":2472:2490  minimumStakeAmount */\n      sload(0x03)\n        /* \"DegeneratorStaking.sol\":2462:2469  _amount */\n      dup3\n        /* \"DegeneratorStaking.sol\":2462:2490  _amount > minimumStakeAmount */\n      gt\n        /* \"DegeneratorStaking.sol\":2454:2527  require(_amount > minimumStakeAmount, \"Amount must be greater than zero\") */\n      tag_102\n      jumpi\n      mload(0x40)\n      shl(0xe5, 0x461bcd)\n      dup2\n      mstore\n        /* \"#utility.yul\":3624:3626   */\n      0x20\n        /* \"DegeneratorStaking.sol\":2454:2527  require(_amount > minimumStakeAmount, \"Amount must be greater than zero\") */\n      0x04\n      dup3\n      add\n        /* \"#utility.yul\":3606:3627   */\n      dup2\n      swap1\n      mstore\n        /* \"#utility.yul\":3643:3661   */\n      0x24\n      dup3\n      add\n        /* \"#utility.yul\":3636:3666   */\n      mstore\n        /* \"#utility.yul\":3702:3736   */\n      0x416d6f756e74206d7573742062652067726561746572207468616e207a65726f\n        /* \"#utility.yul\":3682:3700   */\n      0x44\n      dup3\n      add\n        /* \"#utility.yul\":3675:3737   */\n      mstore\n        /* \"#utility.yul\":3754:3772   */\n      0x64\n      add\n        /* \"DegeneratorStaking.sol\":2454:2527  require(_amount > minimumStakeAmount, \"Amount must be greater than zero\") */\n      tag_93\n        /* \"#utility.yul\":3422:3778   */\n      jump\n        /* \"DegeneratorStaking.sol\":2454:2527  require(_amount > minimumStakeAmount, \"Amount must be greater than zero\") */\n    tag_102:\n      sub(shl(0xa0, 0x01), 0x01)\n        /* \"DegeneratorStaking.sol\":2545:2563  token.transferFrom */\n      dup2\n      and\n      0x23b872dd\n        /* \"@openzeppelin/contracts/utils/Context.sol\":735:745  msg.sender */\n      caller\n        /* \"DegeneratorStaking.sol\":2545:2601  token.transferFrom(_msgSender(), address(this), _amount) */\n      mload(0x40)\n      not(sub(shl(0xe0, 0x01), 0x01))\n      0xe0\n      dup5\n      swap1\n      shl\n      and\n      dup2\n      mstore\n      sub(shl(0xa0, 0x01), 0x01)\n        /* \"#utility.yul\":4041:4056   */\n      swap1\n      swap2\n      and\n        /* \"DegeneratorStaking.sol\":2545:2601  token.transferFrom(_msgSender(), address(this), _amount) */\n      0x04\n      dup3\n      add\n        /* \"#utility.yul\":4023:4057   */\n      mstore\n        /* \"DegeneratorStaking.sol\":2586:2590  this */\n      address\n        /* \"#utility.yul\":4073:4091   */\n      0x24\n      dup3\n      add\n        /* \"#utility.yul\":4066:4109   */\n      mstore\n        /* \"#utility.yul\":4125:4143   */\n      0x44\n      dup2\n      add\n        /* \"#utility.yul\":4118:4152   */\n      dup6\n      swap1\n      mstore\n        /* \"#utility.yul\":3958:3976   */\n      0x64\n      add\n        /* \"DegeneratorStaking.sol\":2545:2601  token.transferFrom(_msgSender(), address(this), _amount) */\n      0x20\n      mload(0x40)\n      dup1\n      dup4\n      sub\n      dup2\n      0x00\n      dup8\n      gas\n      call\n      iszero\n      dup1\n      iszero\n      tag_110\n      jumpi\n      returndatasize\n      0x00\n      dup1\n      returndatacopy\n      revert(0x00, returndatasize)\n    tag_110:\n      pop\n      pop\n      pop\n      pop\n      mload(0x40)\n      returndatasize\n      not(0x1f)\n      0x1f\n      dup3\n      add\n      and\n      dup3\n      add\n      dup1\n      0x40\n      mstore\n      pop\n      dup2\n      add\n      swap1\n      tag_111\n      swap2\n      swap1\n      tag_112\n      jump\t// in\n    tag_111:\n        /* \"DegeneratorStaking.sol\":2537:2621  require(token.transferFrom(_msgSender(), address(this), _amount), \"Transfer failed\") */\n      tag_113\n      jumpi\n      mload(0x40)\n      shl(0xe5, 0x461bcd)\n      dup2\n      mstore\n        /* \"#utility.yul\":4647:4649   */\n      0x20\n        /* \"DegeneratorStaking.sol\":2537:2621  require(token.transferFrom(_msgSender(), address(this), _amount), \"Transfer failed\") */\n      0x04\n      dup3\n      add\n        /* \"#utility.yul\":4629:4650   */\n      mstore\n        /* \"#utility.yul\":4686:4688   */\n      0x0f\n        /* \"#utility.yul\":4666:4684   */\n      0x24\n      dup3\n      add\n        /* \"#utility.yul\":4659:4689   */\n      mstore\n      shl(0x8a, 0x151c985b9cd9995c8819985a5b1959)\n        /* \"#utility.yul\":4705:4723   */\n      0x44\n      dup3\n      add\n        /* \"#utility.yul\":4698:4743   */\n      mstore\n        /* \"#utility.yul\":4760:4778   */\n      0x64\n      add\n        /* \"DegeneratorStaking.sol\":2537:2621  require(token.transferFrom(_msgSender(), address(this), _amount), \"Transfer failed\") */\n      tag_93\n        /* \"#utility.yul\":4445:4784   */\n      jump\n        /* \"DegeneratorStaking.sol\":2537:2621  require(token.transferFrom(_msgSender(), address(this), _amount), \"Transfer failed\") */\n    tag_113:\n        /* \"@openzeppelin/contracts/utils/Context.sol\":735:745  msg.sender */\n      caller\n        /* \"DegeneratorStaking.sol\":2640:2666  addressStake[_msgSender()] */\n      0x00\n      swap1\n      dup2\n      mstore\n        /* \"DegeneratorStaking.sol\":2640:2652  addressStake */\n      0x09\n        /* \"DegeneratorStaking.sol\":2640:2666  addressStake[_msgSender()] */\n      0x20\n      mstore\n      0x40\n      swap1\n      keccak256\n        /* \"DegeneratorStaking.sol\":2640:2680  addressStake[_msgSender()].activeDeposit */\n      0x02\n      add\n      sload\n      0x0100\n      swap1\n      div\n      0xff\n      and\n        /* \"DegeneratorStaking.sol\":2639:2680  !addressStake[_msgSender()].activeDeposit */\n      iszero\n        /* \"DegeneratorStaking.sol\":2631:2681  require(!addressStake[_msgSender()].activeDeposit) */\n      tag_117\n      jumpi\n      0x00\n      dup1\n      revert\n    tag_117:\n        /* \"@openzeppelin/contracts/utils/Context.sol\":735:745  msg.sender */\n      caller\n        /* \"DegeneratorStaking.sol\":2692:2718  addressStake[_msgSender()] */\n      0x00\n      swap1\n      dup2\n      mstore\n        /* \"DegeneratorStaking.sol\":2692:2704  addressStake */\n      0x09\n        /* \"DegeneratorStaking.sol\":2692:2718  addressStake[_msgSender()] */\n      0x20\n      mstore\n      0x40\n      dup2\n      keccak256\n        /* \"DegeneratorStaking.sol\":2692:2736  addressStake[_msgSender()].amount += _amount */\n      dup1\n      sload\n        /* \"DegeneratorStaking.sol\":2729:2736  _amount */\n      dup5\n      swap3\n        /* \"DegeneratorStaking.sol\":2692:2718  addressStake[_msgSender()] */\n      swap1\n        /* \"DegeneratorStaking.sol\":2692:2736  addressStake[_msgSender()].amount += _amount */\n      tag_119\n      swap1\n        /* \"DegeneratorStaking.sol\":2729:2736  _amount */\n      dup5\n      swap1\n        /* \"DegeneratorStaking.sol\":2692:2736  addressStake[_msgSender()].amount += _amount */\n      tag_120\n      jump\t// in\n    tag_119:\n      swap1\n      swap2\n      sstore\n      pop\n      pop\n        /* \"@openzeppelin/contracts/utils/Context.sol\":735:745  msg.sender */\n      caller\n        /* \"DegeneratorStaking.sol\":2746:2772  addressStake[_msgSender()] */\n      0x00\n      swap1\n      dup2\n      mstore\n        /* \"DegeneratorStaking.sol\":2746:2758  addressStake */\n      0x09\n        /* \"DegeneratorStaking.sol\":2746:2772  addressStake[_msgSender()] */\n      0x20\n      mstore\n      0x40\n      dup2\n      keccak256\n        /* \"DegeneratorStaking.sol\":2787:2799  block.number */\n      number\n        /* \"DegeneratorStaking.sol\":2746:2784  addressStake[_msgSender()].blockStaked */\n      0x01\n      swap1\n      swap2\n      add\n        /* \"DegeneratorStaking.sol\":2746:2799  addressStake[_msgSender()].blockStaked = block.number */\n      sstore\n        /* \"DegeneratorStaking.sol\":2809:2831  degeneratorStakingPool */\n      0x06\n        /* \"DegeneratorStaking.sol\":2809:2842  degeneratorStakingPool += _amount */\n      dup1\n      sload\n        /* \"DegeneratorStaking.sol\":2835:2842  _amount */\n      dup5\n      swap3\n        /* \"DegeneratorStaking.sol\":2746:2772  addressStake[_msgSender()] */\n      swap1\n        /* \"DegeneratorStaking.sol\":2809:2842  degeneratorStakingPool += _amount */\n      tag_122\n      swap1\n        /* \"DegeneratorStaking.sol\":2835:2842  _amount */\n      dup5\n      swap1\n        /* \"DegeneratorStaking.sol\":2809:2842  degeneratorStakingPool += _amount */\n      tag_120\n      jump\t// in\n    tag_122:\n      swap3\n      pop\n      pop\n      dup2\n      swap1\n      sstore\n      pop\n        /* \"DegeneratorStaking.sol\":2874:2875  1 */\n      0x01\n        /* \"DegeneratorStaking.sol\":2852:2870  degeneratorStakers */\n      0x07\n      0x00\n        /* \"DegeneratorStaking.sol\":2852:2875  degeneratorStakers += 1 */\n      dup3\n      dup3\n      sload\n      tag_123\n      swap2\n      swap1\n      tag_120\n      jump\t// in\n    tag_123:\n      swap1\n      swap2\n      sstore\n      pop\n      pop\n        /* \"DegeneratorStaking.sol\":2891:2945  degeneratorStaked(_msgSender(), _amount, block.number) */\n      0x40\n      dup1\n      mload\n        /* \"#utility.yul\":5225:5250   */\n      dup4\n      dup2\n      mstore\n        /* \"DegeneratorStaking.sol\":2932:2944  block.number */\n      number\n        /* \"#utility.yul\":5281:5283   */\n      0x20\n        /* \"#utility.yul\":5266:5284   */\n      dup3\n      add\n        /* \"#utility.yul\":5259:5293   */\n      mstore\n        /* \"@openzeppelin/contracts/utils/Context.sol\":735:745  msg.sender */\n      caller\n      swap2\n        /* \"DegeneratorStaking.sol\":2891:2945  degeneratorStaked(_msgSender(), _amount, block.number) */\n      0x0ae860169ef88b6e5a084a54675af932ac7be23de4abd34a1d99a5a8402a17cc\n      swap2\n        /* \"#utility.yul\":5198:5216   */\n      add\n        /* \"DegeneratorStaking.sol\":2891:2945  degeneratorStaked(_msgSender(), _amount, block.number) */\n      mload(0x40)\n      dup1\n      swap2\n      sub\n      swap1\n      log2\n        /* \"DegeneratorStaking.sol\":2369:2953  {... */\n      pop\n        /* \"@openzeppelin/contracts/security/ReentrancyGuard.sol\":2303:2323  _nonReentrantAfter() */\n      tag_127\n        /* \"@openzeppelin/contracts/security/ReentrancyGuard.sol\":1716:1717  1 */\n      0x01\n        /* \"@openzeppelin/contracts/security/ReentrancyGuard.sol\":2809:2816  _status */\n      0x00\n        /* \"@openzeppelin/contracts/security/ReentrancyGuard.sol\":2809:2831  _status = _NOT_ENTERED */\n      sstore\n        /* \"@openzeppelin/contracts/security/ReentrancyGuard.sol\":2629:2838  function _nonReentrantAfter() private {... */\n      jump\n        /* \"@openzeppelin/contracts/security/ReentrancyGuard.sol\":2303:2323  _nonReentrantAfter() */\n    tag_127:\n        /* \"DegeneratorStaking.sol\":2307:2953  function stakeDegnerator(uint256 _amount) public nonReentrant {... */\n      pop\n      jump\t// out\n        /* \"DegeneratorStaking.sol\":4243:4806  function withdrawRewards(address[] calldata _tokenAddresses) public onlyStaker nonReentrant {... */\n    tag_47:\n        /* \"DegeneratorStaking.sol\":847:857  msg.sender */\n      caller\n        /* \"DegeneratorStaking.sol\":834:858  addressStake[msg.sender] */\n      0x00\n      swap1\n      dup2\n      mstore\n        /* \"DegeneratorStaking.sol\":834:846  addressStake */\n      0x09\n        /* \"DegeneratorStaking.sol\":834:858  addressStake[msg.sender] */\n      0x20\n      mstore\n      0x40\n      swap1\n      keccak256\n        /* \"DegeneratorStaking.sol\":834:872  addressStake[msg.sender].activeDeposit */\n      0x02\n      add\n      sload\n      0x0100\n      swap1\n      div\n      0xff\n      and\n        /* \"DegeneratorStaking.sol\":826:873  require(addressStake[msg.sender].activeDeposit) */\n      tag_130\n      jumpi\n      0x00\n      dup1\n      revert\n    tag_130:\n        /* \"@openzeppelin/contracts/security/ReentrancyGuard.sol\":2261:2282  _nonReentrantBefore() */\n      tag_132\n        /* \"@openzeppelin/contracts/security/ReentrancyGuard.sol\":2261:2280  _nonReentrantBefore */\n      tag_99\n        /* \"@openzeppelin/contracts/security/ReentrancyGuard.sol\":2261:2282  _nonReentrantBefore() */\n      jump\t// in\n    tag_132:\n        /* \"DegeneratorStaking.sol\":4350:4359  uint256 i */\n      0x00\n        /* \"DegeneratorStaking.sol\":4345:4800  for (uint256 i = 0; i < _tokenAddresses.length; i++) {... */\n    tag_134:\n        /* \"DegeneratorStaking.sol\":4365:4391  i < _tokenAddresses.length */\n      dup2\n      dup2\n      lt\n        /* \"DegeneratorStaking.sol\":4345:4800  for (uint256 i = 0; i < _tokenAddresses.length; i++) {... */\n      iszero\n      tag_135\n      jumpi\n        /* \"DegeneratorStaking.sol\":4420:4471  getTokenEligibility(_tokenAddresses[i], msg.sender) */\n      tag_137\n        /* \"DegeneratorStaking.sol\":4440:4455  _tokenAddresses */\n      dup4\n      dup4\n        /* \"DegeneratorStaking.sol\":4456:4457  i */\n      dup4\n        /* \"DegeneratorStaking.sol\":4440:4458  _tokenAddresses[i] */\n      dup2\n      dup2\n      lt\n      tag_139\n      jumpi\n      tag_139\n      tag_140\n      jump\t// in\n    tag_139:\n      swap1\n      pop\n      0x20\n      mul\n      add\n      0x20\n      dup2\n      add\n      swap1\n      tag_141\n      swap2\n      swap1\n      tag_87\n      jump\t// in\n    tag_141:\n        /* \"DegeneratorStaking.sol\":4460:4470  msg.sender */\n      caller\n        /* \"DegeneratorStaking.sol\":4420:4439  getTokenEligibility */\n      tag_76\n        /* \"DegeneratorStaking.sol\":4420:4471  getTokenEligibility(_tokenAddresses[i], msg.sender) */\n      jump\t// in\n    tag_137:\n        /* \"DegeneratorStaking.sol\":4412:4472  require(getTokenEligibility(_tokenAddresses[i], msg.sender)) */\n      tag_142\n      jumpi\n      0x00\n      dup1\n      revert\n    tag_142:\n        /* \"DegeneratorStaking.sol\":4495:4521  addressWithdrewERC20Reward */\n      0x0b\n        /* \"DegeneratorStaking.sol\":4495:4541  addressWithdrewERC20Reward[_tokenAddresses[i]] */\n      0x00\n        /* \"DegeneratorStaking.sol\":4522:4537  _tokenAddresses */\n      dup5\n      dup5\n        /* \"DegeneratorStaking.sol\":4538:4539  i */\n      dup5\n        /* \"DegeneratorStaking.sol\":4522:4540  _tokenAddresses[i] */\n      dup2\n      dup2\n      lt\n      tag_144\n      jumpi\n      tag_144\n      tag_140\n      jump\t// in\n    tag_144:\n      swap1\n      pop\n      0x20\n      mul\n      add\n      0x20\n      dup2\n      add\n      swap1\n      tag_145\n      swap2\n      swap1\n      tag_87\n      jump\t// in\n    tag_145:\n      sub(shl(0xa0, 0x01), 0x01)\n        /* \"DegeneratorStaking.sol\":4495:4541  addressWithdrewERC20Reward[_tokenAddresses[i]] */\n      and\n      dup2\n      mstore\n      0x20\n      dup1\n      dup3\n      add\n      swap3\n      swap1\n      swap3\n      mstore\n      0x40\n      swap1\n      dup2\n      add\n      0x00\n      swap1\n      dup2\n      keccak256\n        /* \"DegeneratorStaking.sol\":4542:4552  msg.sender */\n      caller\n        /* \"DegeneratorStaking.sol\":4495:4553  addressWithdrewERC20Reward[_tokenAddresses[i]][msg.sender] */\n      dup3\n      mstore\n      swap1\n      swap3\n      mstore\n      swap1\n      keccak256\n      sload\n      0xff\n      and\n        /* \"DegeneratorStaking.sol\":4494:4553  !addressWithdrewERC20Reward[_tokenAddresses[i]][msg.sender] */\n      iszero\n        /* \"DegeneratorStaking.sol\":4486:4554  require(!addressWithdrewERC20Reward[_tokenAddresses[i]][msg.sender]) */\n      tag_146\n      jumpi\n      0x00\n      dup1\n      revert\n    tag_146:\n        /* \"DegeneratorStaking.sol\":4568:4587  uint256 tokenReward */\n      0x00\n        /* \"DegeneratorStaking.sol\":4590:4636  getTokenReward(_tokenAddresses[i], msg.sender) */\n      tag_147\n        /* \"DegeneratorStaking.sol\":4605:4620  _tokenAddresses */\n      dup5\n      dup5\n        /* \"DegeneratorStaking.sol\":4621:4622  i */\n      dup5\n        /* \"DegeneratorStaking.sol\":4605:4623  _tokenAddresses[i] */\n      dup2\n      dup2\n      lt\n      tag_149\n      jumpi\n      tag_149\n      tag_140\n      jump\t// in\n    tag_149:\n      swap1\n      pop\n      0x20\n      mul\n      add\n      0x20\n      dup2\n      add\n      swap1\n      tag_150\n      swap2\n      swap1\n      tag_87\n      jump\t// in\n    tag_150:\n        /* \"DegeneratorStaking.sol\":4625:4635  msg.sender */\n      caller\n        /* \"DegeneratorStaking.sol\":4590:4604  getTokenReward */\n      tag_72\n        /* \"DegeneratorStaking.sol\":4590:4636  getTokenReward(_tokenAddresses[i], msg.sender) */\n      jump\t// in\n    tag_147:\n        /* \"DegeneratorStaking.sol\":4568:4636  uint256 tokenReward = getTokenReward(_tokenAddresses[i], msg.sender) */\n      swap1\n      pop\n        /* \"DegeneratorStaking.sol\":4711:4715  true */\n      0x01\n        /* \"DegeneratorStaking.sol\":4650:4676  addressWithdrewERC20Reward */\n      0x0b\n        /* \"DegeneratorStaking.sol\":4650:4696  addressWithdrewERC20Reward[_tokenAddresses[i]] */\n      0x00\n        /* \"DegeneratorStaking.sol\":4677:4692  _tokenAddresses */\n      dup7\n      dup7\n        /* \"DegeneratorStaking.sol\":4693:4694  i */\n      dup7\n        /* \"DegeneratorStaking.sol\":4677:4695  _tokenAddresses[i] */\n      dup2\n      dup2\n      lt\n      tag_152\n      jumpi\n      tag_152\n      tag_140\n      jump\t// in\n    tag_152:\n      swap1\n      pop\n      0x20\n      mul\n      add\n      0x20\n      dup2\n      add\n      swap1\n      tag_153\n      swap2\n      swap1\n      tag_87\n      jump\t// in\n    tag_153:\n      sub(shl(0xa0, 0x01), 0x01)\n        /* \"DegeneratorStaking.sol\":4650:4696  addressWithdrewERC20Reward[_tokenAddresses[i]] */\n      and\n      dup2\n      mstore\n      0x20\n      dup1\n      dup3\n      add\n      swap3\n      swap1\n      swap3\n      mstore\n      0x40\n      swap1\n      dup2\n      add\n      0x00\n      swap1\n      dup2\n      keccak256\n        /* \"DegeneratorStaking.sol\":4697:4707  msg.sender */\n      caller\n        /* \"DegeneratorStaking.sol\":4650:4708  addressWithdrewERC20Reward[_tokenAddresses[i]][msg.sender] */\n      dup3\n      mstore\n      swap1\n      swap3\n      mstore\n      swap1\n      keccak256\n        /* \"DegeneratorStaking.sol\":4650:4715  addressWithdrewERC20Reward[_tokenAddresses[i]][msg.sender] = true */\n      dup1\n      sload\n      not(0xff)\n      and\n      swap2\n      iszero\n      iszero\n      swap2\n      swap1\n      swap2\n      or\n      swap1\n      sstore\n        /* \"DegeneratorStaking.sol\":4736:4751  _tokenAddresses */\n      dup4\n      dup4\n        /* \"DegeneratorStaking.sol\":4752:4753  i */\n      dup4\n        /* \"DegeneratorStaking.sol\":4736:4754  _tokenAddresses[i] */\n      dup2\n      dup2\n      lt\n      tag_155\n      jumpi\n      tag_155\n      tag_140\n      jump\t// in\n    tag_155:\n      swap1\n      pop\n      0x20\n      mul\n      add\n      0x20\n      dup2\n      add\n      swap1\n      tag_156\n      swap2\n      swap1\n      tag_87\n      jump\t// in\n    tag_156:\n        /* \"DegeneratorStaking.sol\":4729:4789  IERC20(_tokenAddresses[i]).transfer(msg.sender, tokenReward) */\n      mload(0x40)\n      shl(0xe0, 0xa9059cbb)\n      dup2\n      mstore\n        /* \"DegeneratorStaking.sol\":4765:4775  msg.sender */\n      caller\n        /* \"DegeneratorStaking.sol\":4729:4789  IERC20(_tokenAddresses[i]).transfer(msg.sender, tokenReward) */\n      0x04\n      dup3\n      add\n        /* \"#utility.yul\":5610:5661   */\n      mstore\n        /* \"#utility.yul\":5677:5695   */\n      0x24\n      dup2\n      add\n        /* \"#utility.yul\":5670:5704   */\n      dup4\n      swap1\n      mstore\n      sub(shl(0xa0, 0x01), 0x01)\n        /* \"DegeneratorStaking.sol\":4729:4764  IERC20(_tokenAddresses[i]).transfer */\n      swap2\n      swap1\n      swap2\n      and\n      swap1\n      0xa9059cbb\n      swap1\n        /* \"#utility.yul\":5583:5601   */\n      0x44\n      add\n        /* \"DegeneratorStaking.sol\":4729:4789  IERC20(_tokenAddresses[i]).transfer(msg.sender, tokenReward) */\n      0x20\n      mload(0x40)\n      dup1\n      dup4\n      sub\n      dup2\n      0x00\n      dup8\n      gas\n      call\n      iszero\n      dup1\n      iszero\n      tag_160\n      jumpi\n      returndatasize\n      0x00\n      dup1\n      returndatacopy\n      revert(0x00, returndatasize)\n    tag_160:\n      pop\n      pop\n      pop\n      pop\n      mload(0x40)\n      returndatasize\n      not(0x1f)\n      0x1f\n      dup3\n      add\n      and\n      dup3\n      add\n      dup1\n      0x40\n      mstore\n      pop\n      dup2\n      add\n      swap1\n      tag_161\n      swap2\n      swap1\n      tag_112\n      jump\t// in\n    tag_161:\n      pop\n      pop\n        /* \"DegeneratorStaking.sol\":4393:4396  i++ */\n      0x01\n      add\n        /* \"DegeneratorStaking.sol\":4345:4800  for (uint256 i = 0; i < _tokenAddresses.length; i++) {... */\n      jump(tag_134)\n    tag_135:\n      pop\n        /* \"@openzeppelin/contracts/security/ReentrancyGuard.sol\":2303:2323  _nonReentrantAfter() */\n      tag_162\n        /* \"@openzeppelin/contracts/security/ReentrancyGuard.sol\":1716:1717  1 */\n      0x01\n        /* \"@openzeppelin/contracts/security/ReentrancyGuard.sol\":2809:2816  _status */\n      0x00\n        /* \"@openzeppelin/contracts/security/ReentrancyGuard.sol\":2809:2831  _status = _NOT_ENTERED */\n      sstore\n        /* \"@openzeppelin/contracts/security/ReentrancyGuard.sol\":2629:2838  function _nonReentrantAfter() private {... */\n      jump\n        /* \"@openzeppelin/contracts/security/ReentrancyGuard.sol\":2303:2323  _nonReentrantAfter() */\n    tag_162:\n        /* \"DegeneratorStaking.sol\":4243:4806  function withdrawRewards(address[] calldata _tokenAddresses) public onlyStaker nonReentrant {... */\n      pop\n      pop\n      jump\t// out\n        /* \"DegeneratorStaking.sol\":3700:4232  function registerERC20Supply(address _tokenAddress, uint256 _poolSupply) public nonReentrant {... */\n    tag_55:\n        /* \"@openzeppelin/contracts/security/ReentrancyGuard.sol\":2261:2282  _nonReentrantBefore() */\n      tag_164\n        /* \"@openzeppelin/contracts/security/ReentrancyGuard.sol\":2261:2280  _nonReentrantBefore */\n      tag_99\n        /* \"@openzeppelin/contracts/security/ReentrancyGuard.sol\":2261:2282  _nonReentrantBefore() */\n      jump\t// in\n    tag_164:\n        /* \"DegeneratorStaking.sol\":3811:3857  IERC20(_tokenAddress).balanceOf(address(this)) */\n      mload(0x40)\n      shl(0xe0, 0x70a08231)\n      dup2\n      mstore\n        /* \"DegeneratorStaking.sol\":3851:3855  this */\n      address\n        /* \"DegeneratorStaking.sol\":3811:3857  IERC20(_tokenAddress).balanceOf(address(this)) */\n      0x04\n      dup3\n      add\n        /* \"#utility.yul\":345:396   */\n      mstore\n        /* \"DegeneratorStaking.sol\":3861:3872  _poolSupply */\n      dup2\n      swap1\n      sub(shl(0xa0, 0x01), 0x01)\n        /* \"DegeneratorStaking.sol\":3811:3842  IERC20(_tokenAddress).balanceOf */\n      dup5\n      and\n      swap1\n      0x70a08231\n      swap1\n        /* \"#utility.yul\":318:336   */\n      0x24\n      add\n        /* \"DegeneratorStaking.sol\":3811:3857  IERC20(_tokenAddress).balanceOf(address(this)) */\n      0x20\n      mload(0x40)\n      dup1\n      dup4\n      sub\n      dup2\n      dup7\n      gas\n      staticcall\n      iszero\n      dup1\n      iszero\n      tag_168\n      jumpi\n      returndatasize\n      0x00\n      dup1\n      returndatacopy\n      revert(0x00, returndatasize)\n    tag_168:\n      pop\n      pop\n      pop\n      pop\n      mload(0x40)\n      returndatasize\n      not(0x1f)\n      0x1f\n      dup3\n      add\n      and\n      dup3\n      add\n      dup1\n      0x40\n      mstore\n      pop\n      dup2\n      add\n      swap1\n      tag_169\n      swap2\n      swap1\n      tag_170\n      jump\t// in\n    tag_169:\n        /* \"DegeneratorStaking.sol\":3811:3872  IERC20(_tokenAddress).balanceOf(address(this)) == _poolSupply */\n      eq\n        /* \"DegeneratorStaking.sol\":3803:3873  require(IERC20(_tokenAddress).balanceOf(address(this)) == _poolSupply) */\n      tag_171\n      jumpi\n      0x00\n      dup1\n      revert\n    tag_171:\n      sub(shl(0xa0, 0x01), 0x01)\n        /* \"DegeneratorStaking.sol\":3892:3920  erc20Supplies[_tokenAddress] */\n      dup3\n      and\n      0x00\n      swap1\n      dup2\n      mstore\n        /* \"DegeneratorStaking.sol\":3892:3905  erc20Supplies */\n      0x0a\n        /* \"DegeneratorStaking.sol\":3892:3920  erc20Supplies[_tokenAddress] */\n      0x20\n      mstore\n      0x40\n      swap1\n      keccak256\n        /* \"DegeneratorStaking.sol\":3892:3931  erc20Supplies[_tokenAddress].registered */\n      0x04\n      add\n      sload\n      0xff\n      and\n        /* \"DegeneratorStaking.sol\":3891:3931  !erc20Supplies[_tokenAddress].registered */\n      iszero\n        /* \"DegeneratorStaking.sol\":3883:3932  require(!erc20Supplies[_tokenAddress].registered) */\n      tag_172\n      jumpi\n      0x00\n      dup1\n      revert\n    tag_172:\n      sub(shl(0xa0, 0x01), 0x01)\n        /* \"DegeneratorStaking.sol\":3942:3970  erc20Supplies[_tokenAddress] */\n      dup3\n      and\n      0x00\n      swap1\n      dup2\n      mstore\n        /* \"DegeneratorStaking.sol\":3942:3955  erc20Supplies */\n      0x0a\n        /* \"DegeneratorStaking.sol\":3942:3970  erc20Supplies[_tokenAddress] */\n      0x20\n      mstore\n      0x40\n      swap1\n      keccak256\n        /* \"DegeneratorStaking.sol\":3987:3999  block.number */\n      number\n        /* \"DegeneratorStaking.sol\":3942:3984  erc20Supplies[_tokenAddress].blockSupplied */\n      0x01\n      dup3\n      add\n        /* \"DegeneratorStaking.sol\":3942:3999  erc20Supplies[_tokenAddress].blockSupplied = block.number */\n      sstore\n        /* \"DegeneratorStaking.sol\":4009:4062  erc20Supplies[_tokenAddress].poolSupply = _poolSupply */\n      dup2\n      dup2\n      sstore\n        /* \"DegeneratorStaking.sol\":4073:4121  erc20Supplies[_tokenAddress].remainingPoolSupply */\n      0x02\n      dup2\n      add\n        /* \"DegeneratorStaking.sol\":4073:4135  erc20Supplies[_tokenAddress].remainingPoolSupply = _poolSupply */\n      dup3\n      swap1\n      sstore\n        /* \"DegeneratorStaking.sol\":4203:4225  degeneratorStakingPool */\n      sload(0x06)\n        /* \"DegeneratorStaking.sol\":4146:4200  erc20Supplies[_tokenAddress].degeneratorPoolSizeAtTime */\n      0x03\n      swap1\n      swap2\n      add\n        /* \"DegeneratorStaking.sol\":4146:4225  erc20Supplies[_tokenAddress].degeneratorPoolSizeAtTime = degeneratorStakingPool */\n      sstore\n        /* \"@openzeppelin/contracts/security/ReentrancyGuard.sol\":2303:2323  _nonReentrantAfter() */\n      tag_162\n        /* \"@openzeppelin/contracts/security/ReentrancyGuard.sol\":1716:1717  1 */\n      0x01\n        /* \"@openzeppelin/contracts/security/ReentrancyGuard.sol\":2809:2816  _status */\n      0x00\n        /* \"@openzeppelin/contracts/security/ReentrancyGuard.sol\":2809:2831  _status = _NOT_ENTERED */\n      sstore\n        /* \"@openzeppelin/contracts/security/ReentrancyGuard.sol\":2629:2838  function _nonReentrantAfter() private {... */\n      jump\n        /* \"DegeneratorStaking.sol\":2959:3694  function withdrawDegenerator() public nonReentrant {... */\n    tag_57:\n        /* \"@openzeppelin/contracts/security/ReentrancyGuard.sol\":2261:2282  _nonReentrantBefore() */\n      tag_175\n        /* \"@openzeppelin/contracts/security/ReentrancyGuard.sol\":2261:2280  _nonReentrantBefore */\n      tag_99\n        /* \"@openzeppelin/contracts/security/ReentrancyGuard.sol\":2261:2282  _nonReentrantBefore() */\n      jump\t// in\n    tag_175:\n        /* \"@openzeppelin/contracts/utils/Context.sol\":735:745  msg.sender */\n      caller\n        /* \"DegeneratorStaking.sol\":3064:3065  0 */\n      0x00\n        /* \"DegeneratorStaking.sol\":3028:3054  addressStake[_msgSender()] */\n      swap1\n      dup2\n      mstore\n        /* \"DegeneratorStaking.sol\":3028:3040  addressStake */\n      0x09\n        /* \"DegeneratorStaking.sol\":3028:3054  addressStake[_msgSender()] */\n      0x20\n      mstore\n      0x40\n      swap1\n      keccak256\n        /* \"DegeneratorStaking.sol\":3028:3061  addressStake[_msgSender()].amount */\n      sload\n        /* \"DegeneratorStaking.sol\":3020:3084  require(addressStake[_msgSender()].amount > 0, \"No stake found\") */\n      tag_178\n      jumpi\n      mload(0x40)\n      shl(0xe5, 0x461bcd)\n      dup2\n      mstore\n        /* \"#utility.yul\":6106:6108   */\n      0x20\n        /* \"DegeneratorStaking.sol\":3020:3084  require(addressStake[_msgSender()].amount > 0, \"No stake found\") */\n      0x04\n      dup3\n      add\n        /* \"#utility.yul\":6088:6109   */\n      mstore\n        /* \"#utility.yul\":6145:6147   */\n      0x0e\n        /* \"#utility.yul\":6125:6143   */\n      0x24\n      dup3\n      add\n        /* \"#utility.yul\":6118:6148   */\n      mstore\n      shl(0x92, 0x139bc81cdd185ad948199bdd5b99)\n        /* \"#utility.yul\":6164:6182   */\n      0x44\n      dup3\n      add\n        /* \"#utility.yul\":6157:6201   */\n      mstore\n        /* \"#utility.yul\":6218:6236   */\n      0x64\n      add\n        /* \"DegeneratorStaking.sol\":3020:3084  require(addressStake[_msgSender()].amount > 0, \"No stake found\") */\n      tag_93\n        /* \"#utility.yul\":5904:6242   */\n      jump\n        /* \"DegeneratorStaking.sol\":3020:3084  require(addressStake[_msgSender()].amount > 0, \"No stake found\") */\n    tag_178:\n        /* \"@openzeppelin/contracts/utils/Context.sol\":735:745  msg.sender */\n      caller\n        /* \"DegeneratorStaking.sol\":3103:3129  addressStake[_msgSender()] */\n      0x00\n      swap1\n      dup2\n      mstore\n        /* \"DegeneratorStaking.sol\":3103:3115  addressStake */\n      0x09\n        /* \"DegeneratorStaking.sol\":3103:3129  addressStake[_msgSender()] */\n      0x20\n      mstore\n      0x40\n      swap1\n      keccak256\n        /* \"DegeneratorStaking.sol\":3103:3139  addressStake[_msgSender()].withdrawn */\n      0x02\n      add\n      sload\n      0xff\n      and\n        /* \"DegeneratorStaking.sol\":3102:3139  !addressStake[_msgSender()].withdrawn */\n      iszero\n        /* \"DegeneratorStaking.sol\":3094:3167  require(!addressStake[_msgSender()].withdrawn, \"Stake already withdrawn\") */\n      tag_182\n      jumpi\n      mload(0x40)\n      shl(0xe5, 0x461bcd)\n      dup2\n      mstore\n        /* \"#utility.yul\":6449:6451   */\n      0x20\n        /* \"DegeneratorStaking.sol\":3094:3167  require(!addressStake[_msgSender()].withdrawn, \"Stake already withdrawn\") */\n      0x04\n      dup3\n      add\n        /* \"#utility.yul\":6431:6452   */\n      mstore\n        /* \"#utility.yul\":6488:6490   */\n      0x17\n        /* \"#utility.yul\":6468:6486   */\n      0x24\n      dup3\n      add\n        /* \"#utility.yul\":6461:6491   */\n      mstore\n        /* \"#utility.yul\":6527:6552   */\n      0x5374616b6520616c72656164792077697468647261776e000000000000000000\n        /* \"#utility.yul\":6507:6525   */\n      0x44\n      dup3\n      add\n        /* \"#utility.yul\":6500:6553   */\n      mstore\n        /* \"#utility.yul\":6570:6588   */\n      0x64\n      add\n        /* \"DegeneratorStaking.sol\":3094:3167  require(!addressStake[_msgSender()].withdrawn, \"Stake already withdrawn\") */\n      tag_93\n        /* \"#utility.yul\":6247:6594   */\n      jump\n        /* \"DegeneratorStaking.sol\":3094:3167  require(!addressStake[_msgSender()].withdrawn, \"Stake already withdrawn\") */\n    tag_182:\n        /* \"DegeneratorStaking.sol\":3199:3211  tokenAddress */\n      0x02\n      dup1\n      sload\n        /* \"@openzeppelin/contracts/utils/Context.sol\":735:745  msg.sender */\n      caller\n        /* \"DegeneratorStaking.sol\":3177:3189  IERC20 token */\n      0x00\n        /* \"DegeneratorStaking.sol\":3239:3265  addressStake[_msgSender()] */\n      dup2\n      dup2\n      mstore\n        /* \"DegeneratorStaking.sol\":3239:3251  addressStake */\n      0x09\n        /* \"DegeneratorStaking.sol\":3239:3265  addressStake[_msgSender()] */\n      0x20\n      swap1\n      dup2\n      mstore\n      0x40\n      dup1\n      dup4\n      keccak256\n        /* \"DegeneratorStaking.sol\":3239:3272  addressStake[_msgSender()].amount */\n      dup1\n      sload\n        /* \"DegeneratorStaking.sol\":3282:3318  addressStake[_msgSender()].withdrawn */\n      swap7\n      add\n        /* \"DegeneratorStaking.sol\":3282:3325  addressStake[_msgSender()].withdrawn = true */\n      dup1\n      sload\n      not(0xffff)\n        /* \"DegeneratorStaking.sol\":3335:3383  addressStake[_msgSender()].activeDeposit = false */\n      and\n        /* \"DegeneratorStaking.sol\":3321:3325  true */\n      0x01\n        /* \"DegeneratorStaking.sol\":3335:3383  addressStake[_msgSender()].activeDeposit = false */\n      or\n      swap1\n      sstore\n        /* \"DegeneratorStaking.sol\":3402:3438  token.transfer(_msgSender(), amount) */\n      dup1\n      mload\n      shl(0xe0, 0xa9059cbb)\n      dup2\n      mstore\n      0x04\n      dup2\n      add\n        /* \"#utility.yul\":5610:5661   */\n      swap5\n      swap1\n      swap5\n      mstore\n        /* \"#utility.yul\":5677:5695   */\n      0x24\n      dup5\n      add\n        /* \"#utility.yul\":5670:5704   */\n      dup7\n      swap1\n      mstore\n        /* \"DegeneratorStaking.sol\":3402:3438  token.transfer(_msgSender(), amount) */\n      mload\n      sub(shl(0xa0, 0x01), 0x01)\n        /* \"DegeneratorStaking.sol\":3199:3211  tokenAddress */\n      swap1\n      swap5\n      and\n      swap5\n        /* \"DegeneratorStaking.sol\":3239:3272  addressStake[_msgSender()].amount */\n      swap4\n        /* \"DegeneratorStaking.sol\":3199:3211  tokenAddress */\n      dup6\n      swap4\n        /* \"DegeneratorStaking.sol\":3402:3416  token.transfer */\n      0xa9059cbb\n      swap4\n        /* \"#utility.yul\":5583:5601   */\n      0x44\n      dup1\n      dup4\n      add\n      swap5\n        /* \"DegeneratorStaking.sol\":3239:3265  addressStake[_msgSender()] */\n      swap4\n        /* \"DegeneratorStaking.sol\":3402:3438  token.transfer(_msgSender(), amount) */\n      swap3\n      dup4\n      swap1\n      sub\n      add\n      swap1\n      dup3\n      swap1\n        /* \"DegeneratorStaking.sol\":3199:3211  tokenAddress */\n      dup8\n        /* \"DegeneratorStaking.sol\":3402:3438  token.transfer(_msgSender(), amount) */\n      gas\n      call\n      iszero\n      dup1\n      iszero\n      tag_191\n      jumpi\n      returndatasize\n      0x00\n      dup1\n      returndatacopy\n      revert(0x00, returndatasize)\n    tag_191:\n      pop\n      pop\n      pop\n      pop\n      mload(0x40)\n      returndatasize\n      not(0x1f)\n      0x1f\n      dup3\n      add\n      and\n      dup3\n      add\n      dup1\n      0x40\n      mstore\n      pop\n      dup2\n      add\n      swap1\n      tag_192\n      swap2\n      swap1\n      tag_112\n      jump\t// in\n    tag_192:\n        /* \"DegeneratorStaking.sol\":3394:3458  require(token.transfer(_msgSender(), amount), \"Transfer failed\") */\n      tag_193\n      jumpi\n      mload(0x40)\n      shl(0xe5, 0x461bcd)\n      dup2\n      mstore\n        /* \"#utility.yul\":4647:4649   */\n      0x20\n        /* \"DegeneratorStaking.sol\":3394:3458  require(token.transfer(_msgSender(), amount), \"Transfer failed\") */\n      0x04\n      dup3\n      add\n        /* \"#utility.yul\":4629:4650   */\n      mstore\n        /* \"#utility.yul\":4686:4688   */\n      0x0f\n        /* \"#utility.yul\":4666:4684   */\n      0x24\n      dup3\n      add\n        /* \"#utility.yul\":4659:4689   */\n      mstore\n      shl(0x8a, 0x151c985b9cd9995c8819985a5b1959)\n        /* \"#utility.yul\":4705:4723   */\n      0x44\n      dup3\n      add\n        /* \"#utility.yul\":4698:4743   */\n      mstore\n        /* \"#utility.yul\":4760:4778   */\n      0x64\n      add\n        /* \"DegeneratorStaking.sol\":3394:3458  require(token.transfer(_msgSender(), amount), \"Transfer failed\") */\n      tag_93\n        /* \"#utility.yul\":4445:4784   */\n      jump\n        /* \"DegeneratorStaking.sol\":3394:3458  require(token.transfer(_msgSender(), amount), \"Transfer failed\") */\n    tag_193:\n        /* \"DegeneratorStaking.sol\":3494:3500  amount */\n      dup1\n        /* \"DegeneratorStaking.sol\":3468:3490  degeneratorStakingPool */\n      0x06\n      0x00\n        /* \"DegeneratorStaking.sol\":3468:3500  degeneratorStakingPool -= amount */\n      dup3\n      dup3\n      sload\n      tag_195\n      swap2\n      swap1\n      tag_196\n      jump\t// in\n    tag_195:\n      swap3\n      pop\n      pop\n      dup2\n      swap1\n      sstore\n      pop\n        /* \"DegeneratorStaking.sol\":3532:3533  1 */\n      0x01\n        /* \"DegeneratorStaking.sol\":3510:3528  degeneratorStakers */\n      0x07\n      0x00\n        /* \"DegeneratorStaking.sol\":3510:3533  degeneratorStakers -= 1 */\n      dup3\n      dup3\n      sload\n      tag_197\n      swap2\n      swap1\n      tag_196\n      jump\t// in\n    tag_197:\n      swap1\n      swap2\n      sstore\n      pop\n      pop\n        /* \"DegeneratorStaking.sol\":3556:3566  msg.sender */\n      caller\n        /* \"DegeneratorStaking.sol\":3577:3578  0 */\n      0x00\n        /* \"DegeneratorStaking.sol\":3543:3567  addressStake[msg.sender] */\n      swap1\n      dup2\n      mstore\n        /* \"DegeneratorStaking.sol\":3543:3555  addressStake */\n      0x09\n        /* \"DegeneratorStaking.sol\":3543:3567  addressStake[msg.sender] */\n      0x20\n      dup2\n      swap1\n      mstore\n      0x40\n      dup3\n      keccak256\n        /* \"DegeneratorStaking.sol\":3543:3578  addressStake[msg.sender].amount = 0 */\n      dup3\n      swap1\n      sstore\n        /* \"DegeneratorStaking.sol\":3577:3578  0 */\n      dup2\n        /* \"DegeneratorStaking.sol\":3601:3613  _msgSender() */\n      tag_198\n        /* \"@openzeppelin/contracts/utils/Context.sol\":735:745  msg.sender */\n      caller\n      swap1\n        /* \"@openzeppelin/contracts/utils/Context.sol\":656:752  function _msgSender() internal view virtual returns (address) {... */\n      jump\n        /* \"DegeneratorStaking.sol\":3601:3613  _msgSender() */\n    tag_198:\n      sub(shl(0xa0, 0x01), 0x01)\n        /* \"DegeneratorStaking.sol\":3588:3614  addressStake[_msgSender()] */\n      and\n      dup2\n      mstore\n      0x20\n      dup2\n      add\n      swap2\n      swap1\n      swap2\n      mstore\n      0x40\n      add\n      0x00\n      keccak256\n        /* \"DegeneratorStaking.sol\":3588:3626  addressStake[_msgSender()].blockStaked */\n      0x01\n      add\n        /* \"DegeneratorStaking.sol\":3588:3630  addressStake[_msgSender()].blockStaked = 0 */\n      sstore\n        /* \"@openzeppelin/contracts/utils/Context.sol\":735:745  msg.sender */\n      caller\n      sub(shl(0xa0, 0x01), 0x01)\n        /* \"DegeneratorStaking.sol\":3645:3687  degeneratorWithdrawn(_msgSender(), amount) */\n      and\n      0x14eed693e6d30152612ee94c12df593a490178621d3730e516b012e064eeef8f\n        /* \"DegeneratorStaking.sol\":3680:3686  amount */\n      dup3\n        /* \"DegeneratorStaking.sol\":3645:3687  degeneratorWithdrawn(_msgSender(), amount) */\n      mload(0x40)\n      tag_200\n      swap2\n        /* \"#utility.yul\":1808:1833   */\n      dup2\n      mstore\n        /* \"#utility.yul\":1796:1798   */\n      0x20\n        /* \"#utility.yul\":1781:1799   */\n      add\n      swap1\n        /* \"#utility.yul\":1662:1839   */\n      jump\n        /* \"DegeneratorStaking.sol\":3645:3687  degeneratorWithdrawn(_msgSender(), amount) */\n    tag_200:\n      mload(0x40)\n      dup1\n      swap2\n      sub\n      swap1\n      log2\n        /* \"DegeneratorStaking.sol\":3010:3694  {... */\n      pop\n      pop\n        /* \"@openzeppelin/contracts/security/ReentrancyGuard.sol\":2303:2323  _nonReentrantAfter() */\n      tag_201\n        /* \"@openzeppelin/contracts/security/ReentrancyGuard.sol\":1716:1717  1 */\n      0x01\n        /* \"@openzeppelin/contracts/security/ReentrancyGuard.sol\":2809:2816  _status */\n      0x00\n        /* \"@openzeppelin/contracts/security/ReentrancyGuard.sol\":2809:2831  _status = _NOT_ENTERED */\n      sstore\n        /* \"@openzeppelin/contracts/security/ReentrancyGuard.sol\":2629:2838  function _nonReentrantAfter() private {... */\n      jump\n        /* \"@openzeppelin/contracts/security/ReentrancyGuard.sol\":2303:2323  _nonReentrantAfter() */\n    tag_201:\n        /* \"DegeneratorStaking.sol\":2959:3694  function withdrawDegenerator() public nonReentrant {... */\n      jump\t// out\n        /* \"DegeneratorStaking.sol\":5705:5853  function setRewardBlackoutPeriod(uint256 _length) public multiSigOnly {... */\n    tag_60:\n        /* \"DegeneratorStaking.sol\":1105:1120  multiSigAddress */\n      and(sub(shl(0xa0, 0x01), 0x01), sload(0x01))\n        /* \"DegeneratorStaking.sol\":1091:1101  msg.sender */\n      caller\n        /* \"DegeneratorStaking.sol\":1091:1120  msg.sender == multiSigAddress */\n      eq\n        /* \"DegeneratorStaking.sol\":1083:1169  require(msg.sender == multiSigAddress, \"Only multiSig address can call this function\") */\n      tag_203\n      jumpi\n      mload(0x40)\n      shl(0xe5, 0x461bcd)\n      dup2\n      mstore\n      0x04\n      add\n      tag_93\n      swap1\n      tag_94\n      jump\t// in\n    tag_203:\n        /* \"DegeneratorStaking.sol\":5803:5804  0 */\n      0x00\n        /* \"DegeneratorStaking.sol\":5793:5800  _length */\n      dup2\n        /* \"DegeneratorStaking.sol\":5793:5804  _length > 0 */\n      gt\n        /* \"DegeneratorStaking.sol\":5785:5805  require(_length > 0) */\n      tag_206\n      jumpi\n      0x00\n      dup1\n      revert\n    tag_206:\n        /* \"DegeneratorStaking.sol\":5816:5836  rewardBlackoutPeriod */\n      0x04\n        /* \"DegeneratorStaking.sol\":5816:5846  rewardBlackoutPeriod = _length */\n      sstore\n        /* \"DegeneratorStaking.sol\":5705:5853  function setRewardBlackoutPeriod(uint256 _length) public multiSigOnly {... */\n      jump\t// out\n        /* \"DegeneratorStaking.sol\":5101:5549  function getTokenReward(address _tokenAddress, address _account) public view returns(uint256) {... */\n    tag_72:\n        /* \"DegeneratorStaking.sol\":5186:5193  uint256 */\n      0x00\n        /* \"DegeneratorStaking.sol\":5213:5257  getTokenEligibility(_tokenAddress, _account) */\n      tag_208\n        /* \"DegeneratorStaking.sol\":5233:5246  _tokenAddress */\n      dup4\n        /* \"DegeneratorStaking.sol\":5248:5256  _account */\n      dup4\n        /* \"DegeneratorStaking.sol\":5213:5232  getTokenEligibility */\n      tag_76\n        /* \"DegeneratorStaking.sol\":5213:5257  getTokenEligibility(_tokenAddress, _account) */\n      jump\t// in\n    tag_208:\n        /* \"DegeneratorStaking.sol\":5205:5258  require(getTokenEligibility(_tokenAddress, _account)) */\n      tag_209\n      jumpi\n      0x00\n      dup1\n      revert\n    tag_209:\n      sub(shl(0xa0, 0x01), 0x01)\n        /* \"DegeneratorStaking.sol\":5289:5317  erc20Supplies[_tokenAddress] */\n      dup1\n      dup5\n      and\n        /* \"DegeneratorStaking.sol\":5268:5286  uint256 poolSupply */\n      0x00\n        /* \"DegeneratorStaking.sol\":5289:5317  erc20Supplies[_tokenAddress] */\n      swap1\n      dup2\n      mstore\n        /* \"DegeneratorStaking.sol\":5289:5302  erc20Supplies */\n      0x0a\n        /* \"DegeneratorStaking.sol\":5289:5317  erc20Supplies[_tokenAddress] */\n      0x20\n      swap1\n      dup2\n      mstore\n      0x40\n      dup1\n      dup4\n      keccak256\n        /* \"DegeneratorStaking.sol\":5289:5328  erc20Supplies[_tokenAddress].poolSupply */\n      dup1\n      sload\n        /* \"DegeneratorStaking.sol\":5398:5452  erc20Supplies[_tokenAddress].degeneratorPoolSizeAtTime */\n      0x03\n      swap1\n      swap2\n      add\n      sload\n        /* \"DegeneratorStaking.sol\":5366:5388  addressStake[_account] */\n      swap5\n      dup8\n      and\n      dup5\n      mstore\n        /* \"DegeneratorStaking.sol\":5366:5378  addressStake */\n      0x09\n        /* \"DegeneratorStaking.sol\":5366:5388  addressStake[_account] */\n      swap1\n      swap3\n      mstore\n      dup3\n      keccak256\n        /* \"DegeneratorStaking.sol\":5366:5395  addressStake[_account].amount */\n      sload\n        /* \"DegeneratorStaking.sol\":5289:5328  erc20Supplies[_tokenAddress].poolSupply */\n      swap1\n      swap3\n        /* \"DegeneratorStaking.sol\":5366:5452  addressStake[_account].amount / erc20Supplies[_tokenAddress].degeneratorPoolSizeAtTime */\n      tag_210\n      swap2\n      tag_211\n      jump\t// in\n    tag_210:\n        /* \"DegeneratorStaking.sol\":5338:5452  uint256 poolPortionAtTime = addressStake[_account].amount / erc20Supplies[_tokenAddress].degeneratorPoolSizeAtTime */\n      swap1\n      pop\n        /* \"DegeneratorStaking.sol\":5462:5481  uint256 tokenReward */\n      0x00\n        /* \"DegeneratorStaking.sol\":5484:5514  poolPortionAtTime * poolSupply */\n      tag_212\n        /* \"DegeneratorStaking.sol\":5504:5514  poolSupply */\n      dup4\n        /* \"DegeneratorStaking.sol\":5338:5452  uint256 poolPortionAtTime = addressStake[_account].amount / erc20Supplies[_tokenAddress].degeneratorPoolSizeAtTime */\n      dup4\n        /* \"DegeneratorStaking.sol\":5484:5514  poolPortionAtTime * poolSupply */\n      tag_213\n      jump\t// in\n    tag_212:\n        /* \"DegeneratorStaking.sol\":5462:5514  uint256 tokenReward = poolPortionAtTime * poolSupply */\n      swap4\n      pop\n      pop\n      pop\n      pop\n        /* \"DegeneratorStaking.sol\":5101:5549  function getTokenReward(address _tokenAddress, address _account) public view returns(uint256) {... */\n    tag_207:\n      swap3\n      swap2\n      pop\n      pop\n      jump\t// out\n        /* \"DegeneratorStaking.sol\":4812:5095  function getTokenEligibility(address _tokenAddress, address _account) public view returns(bool) {... */\n    tag_76:\n      sub(shl(0xa0, 0x01), 0x01)\n        /* \"DegeneratorStaking.sol\":4926:4954  erc20Supplies[_tokenAddress] */\n      dup3\n      and\n        /* \"DegeneratorStaking.sol\":4902:4906  bool */\n      0x00\n        /* \"DegeneratorStaking.sol\":4926:4954  erc20Supplies[_tokenAddress] */\n      swap1\n      dup2\n      mstore\n        /* \"DegeneratorStaking.sol\":4926:4939  erc20Supplies */\n      0x0a\n        /* \"DegeneratorStaking.sol\":4926:4954  erc20Supplies[_tokenAddress] */\n      0x20\n      mstore\n      0x40\n      dup2\n      keccak256\n        /* \"DegeneratorStaking.sol\":4926:4965  erc20Supplies[_tokenAddress].registered */\n      0x04\n      add\n      sload\n      0xff\n      and\n        /* \"DegeneratorStaking.sol\":4918:4966  require(erc20Supplies[_tokenAddress].registered) */\n      tag_215\n      jumpi\n      0x00\n      dup1\n      revert\n    tag_215:\n      sub(shl(0xa0, 0x01), 0x01)\n        /* \"DegeneratorStaking.sol\":5046:5074  erc20Supplies[_tokenAddress] */\n      dup1\n      dup5\n      and\n      0x00\n      swap1\n      dup2\n      mstore\n        /* \"DegeneratorStaking.sol\":5046:5059  erc20Supplies */\n      0x0a\n        /* \"DegeneratorStaking.sol\":5046:5074  erc20Supplies[_tokenAddress] */\n      0x20\n      swap1\n      dup2\n      mstore\n      0x40\n      dup1\n      dup4\n      keccak256\n        /* \"DegeneratorStaking.sol\":5046:5088  erc20Supplies[_tokenAddress].blockSupplied */\n      0x01\n      swap1\n      dup2\n      add\n      sload\n        /* \"DegeneratorStaking.sol\":5021:5041  rewardBlackoutPeriod */\n      sload(0x04)\n        /* \"DegeneratorStaking.sol\":4984:5006  addressStake[_account] */\n      swap6\n      dup9\n      and\n      dup6\n      mstore\n        /* \"DegeneratorStaking.sol\":4984:4996  addressStake */\n      0x09\n        /* \"DegeneratorStaking.sol\":4984:5006  addressStake[_account] */\n      swap1\n      swap4\n      mstore\n      swap3\n      keccak256\n        /* \"DegeneratorStaking.sol\":4984:5018  addressStake[_account].blockStaked */\n      swap1\n      swap2\n      add\n      sload\n        /* \"DegeneratorStaking.sol\":5046:5088  erc20Supplies[_tokenAddress].blockSupplied */\n      swap1\n      swap2\n        /* \"DegeneratorStaking.sol\":4984:5041  addressStake[_account].blockStaked + rewardBlackoutPeriod */\n      tag_216\n      swap2\n      tag_120\n      jump\t// in\n    tag_216:\n        /* \"DegeneratorStaking.sol\":4983:5088  (addressStake[_account].blockStaked + rewardBlackoutPeriod) <= erc20Supplies[_tokenAddress].blockSupplied */\n      gt\n      iszero\n      swap4\n        /* \"DegeneratorStaking.sol\":4812:5095  function getTokenEligibility(address _tokenAddress, address _account) public view returns(bool) {... */\n      swap3\n      pop\n      pop\n      pop\n      jump\t// out\n        /* \"@openzeppelin/contracts/security/ReentrancyGuard.sol\":2336:2623  function _nonReentrantBefore() private {... */\n    tag_99:\n        /* \"@openzeppelin/contracts/security/ReentrancyGuard.sol\":1759:1760  2 */\n      0x02\n        /* \"@openzeppelin/contracts/security/ReentrancyGuard.sol\":2468:2475  _status */\n      sload(0x00)\n        /* \"@openzeppelin/contracts/security/ReentrancyGuard.sol\":2468:2487  _status != _ENTERED */\n      sub\n        /* \"@openzeppelin/contracts/security/ReentrancyGuard.sol\":2460:2523  require(_status != _ENTERED, \"ReentrancyGuard: reentrant call\") */\n      tag_218\n      jumpi\n      mload(0x40)\n      shl(0xe5, 0x461bcd)\n      dup2\n      mstore\n        /* \"#utility.yul\":7329:7331   */\n      0x20\n        /* \"@openzeppelin/contracts/security/ReentrancyGuard.sol\":2460:2523  require(_status != _ENTERED, \"ReentrancyGuard: reentrant call\") */\n      0x04\n      dup3\n      add\n        /* \"#utility.yul\":7311:7332   */\n      mstore\n        /* \"#utility.yul\":7368:7370   */\n      0x1f\n        /* \"#utility.yul\":7348:7366   */\n      0x24\n      dup3\n      add\n        /* \"#utility.yul\":7341:7371   */\n      mstore\n        /* \"#utility.yul\":7407:7440   */\n      0x5265656e7472616e637947756172643a207265656e7472616e742063616c6c00\n        /* \"#utility.yul\":7387:7405   */\n      0x44\n      dup3\n      add\n        /* \"#utility.yul\":7380:7441   */\n      mstore\n        /* \"#utility.yul\":7458:7476   */\n      0x64\n      add\n        /* \"@openzeppelin/contracts/security/ReentrancyGuard.sol\":2460:2523  require(_status != _ENTERED, \"ReentrancyGuard: reentrant call\") */\n      tag_93\n        /* \"#utility.yul\":7127:7482   */\n      jump\n        /* \"@openzeppelin/contracts/security/ReentrancyGuard.sol\":2460:2523  require(_status != _ENTERED, \"ReentrancyGuard: reentrant call\") */\n    tag_218:\n        /* \"@openzeppelin/contracts/security/ReentrancyGuard.sol\":1759:1760  2 */\n      0x02\n        /* \"@openzeppelin/contracts/security/ReentrancyGuard.sol\":2598:2605  _status */\n      0x00\n        /* \"@openzeppelin/contracts/security/ReentrancyGuard.sol\":2598:2616  _status = _ENTERED */\n      sstore\n        /* \"@openzeppelin/contracts/security/ReentrancyGuard.sol\":2336:2623  function _nonReentrantBefore() private {... */\n      jump\t// out\n        /* \"#utility.yul\":14:194   */\n    tag_26:\n        /* \"#utility.yul\":73:79   */\n      0x00\n        /* \"#utility.yul\":126:128   */\n      0x20\n        /* \"#utility.yul\":114:123   */\n      dup3\n        /* \"#utility.yul\":105:112   */\n      dup5\n        /* \"#utility.yul\":101:124   */\n      sub\n        /* \"#utility.yul\":97:129   */\n      slt\n        /* \"#utility.yul\":94:146   */\n      iszero\n      tag_227\n      jumpi\n        /* \"#utility.yul\":142:143   */\n      0x00\n        /* \"#utility.yul\":139:140   */\n      dup1\n        /* \"#utility.yul\":132:144   */\n      revert\n        /* \"#utility.yul\":94:146   */\n    tag_227:\n      pop\n        /* \"#utility.yul\":165:188   */\n      calldataload\n      swap2\n        /* \"#utility.yul\":14:194   */\n      swap1\n      pop\n      jump\t// out\n        /* \"#utility.yul\":599:772   */\n    tag_223:\n        /* \"#utility.yul\":667:687   */\n      dup1\n      calldataload\n      sub(shl(0xa0, 0x01), 0x01)\n        /* \"#utility.yul\":716:747   */\n      dup2\n      and\n        /* \"#utility.yul\":706:748   */\n      dup2\n      eq\n        /* \"#utility.yul\":696:766   */\n      tag_231\n      jumpi\n        /* \"#utility.yul\":762:763   */\n      0x00\n        /* \"#utility.yul\":759:760   */\n      dup1\n        /* \"#utility.yul\":752:764   */\n      revert\n        /* \"#utility.yul\":696:766   */\n    tag_231:\n        /* \"#utility.yul\":599:772   */\n      swap2\n      swap1\n      pop\n      jump\t// out\n        /* \"#utility.yul\":777:1037   */\n    tag_41:\n        /* \"#utility.yul\":845:851   */\n      0x00\n        /* \"#utility.yul\":853:859   */\n      dup1\n        /* \"#utility.yul\":906:908   */\n      0x40\n        /* \"#utility.yul\":894:903   */\n      dup4\n        /* \"#utility.yul\":885:892   */\n      dup6\n        /* \"#utility.yul\":881:904   */\n      sub\n        /* \"#utility.yul\":877:909   */\n      slt\n        /* \"#utility.yul\":874:926   */\n      iszero\n      tag_233\n      jumpi\n        /* \"#utility.yul\":922:923   */\n      0x00\n        /* \"#utility.yul\":919:920   */\n      dup1\n        /* \"#utility.yul\":912:924   */\n      revert\n        /* \"#utility.yul\":874:926   */\n    tag_233:\n        /* \"#utility.yul\":945:974   */\n      tag_234\n        /* \"#utility.yul\":964:973   */\n      dup4\n        /* \"#utility.yul\":945:974   */\n      tag_223\n      jump\t// in\n    tag_234:\n        /* \"#utility.yul\":935:974   */\n      swap2\n      pop\n        /* \"#utility.yul\":993:1031   */\n      tag_235\n        /* \"#utility.yul\":1027:1029   */\n      0x20\n        /* \"#utility.yul\":1016:1025   */\n      dup5\n        /* \"#utility.yul\":1012:1030   */\n      add\n        /* \"#utility.yul\":993:1031   */\n      tag_223\n      jump\t// in\n    tag_235:\n        /* \"#utility.yul\":983:1031   */\n      swap1\n      pop\n        /* \"#utility.yul\":777:1037   */\n      swap3\n      pop\n      swap3\n      swap1\n      pop\n      jump\t// out\n        /* \"#utility.yul\":1042:1657   */\n    tag_46:\n        /* \"#utility.yul\":1128:1134   */\n      0x00\n        /* \"#utility.yul\":1136:1142   */\n      dup1\n        /* \"#utility.yul\":1189:1191   */\n      0x20\n        /* \"#utility.yul\":1177:1186   */\n      dup4\n        /* \"#utility.yul\":1168:1175   */\n      dup6\n        /* \"#utility.yul\":1164:1187   */\n      sub\n        /* \"#utility.yul\":1160:1192   */\n      slt\n        /* \"#utility.yul\":1157:1209   */\n      iszero\n      tag_237\n      jumpi\n        /* \"#utility.yul\":1205:1206   */\n      0x00\n        /* \"#utility.yul\":1202:1203   */\n      dup1\n        /* \"#utility.yul\":1195:1207   */\n      revert\n        /* \"#utility.yul\":1157:1209   */\n    tag_237:\n        /* \"#utility.yul\":1245:1254   */\n      dup3\n        /* \"#utility.yul\":1232:1255   */\n      calldataload\n        /* \"#utility.yul\":1274:1292   */\n      0xffffffffffffffff\n        /* \"#utility.yul\":1315:1317   */\n      dup1\n        /* \"#utility.yul\":1307:1313   */\n      dup3\n        /* \"#utility.yul\":1304:1318   */\n      gt\n        /* \"#utility.yul\":1301:1335   */\n      iszero\n      tag_238\n      jumpi\n        /* \"#utility.yul\":1331:1332   */\n      0x00\n        /* \"#utility.yul\":1328:1329   */\n      dup1\n        /* \"#utility.yul\":1321:1333   */\n      revert\n        /* \"#utility.yul\":1301:1335   */\n    tag_238:\n        /* \"#utility.yul\":1369:1375   */\n      dup2\n        /* \"#utility.yul\":1358:1367   */\n      dup6\n        /* \"#utility.yul\":1354:1376   */\n      add\n        /* \"#utility.yul\":1344:1376   */\n      swap2\n      pop\n        /* \"#utility.yul\":1414:1421   */\n      dup6\n        /* \"#utility.yul\":1407:1411   */\n      0x1f\n        /* \"#utility.yul\":1403:1405   */\n      dup4\n        /* \"#utility.yul\":1399:1412   */\n      add\n        /* \"#utility.yul\":1395:1422   */\n      slt\n        /* \"#utility.yul\":1385:1440   */\n      tag_239\n      jumpi\n        /* \"#utility.yul\":1436:1437   */\n      0x00\n        /* \"#utility.yul\":1433:1434   */\n      dup1\n        /* \"#utility.yul\":1426:1438   */\n      revert\n        /* \"#utility.yul\":1385:1440   */\n    tag_239:\n        /* \"#utility.yul\":1476:1478   */\n      dup2\n        /* \"#utility.yul\":1463:1479   */\n      calldataload\n        /* \"#utility.yul\":1502:1504   */\n      dup2\n        /* \"#utility.yul\":1494:1500   */\n      dup2\n        /* \"#utility.yul\":1491:1505   */\n      gt\n        /* \"#utility.yul\":1488:1522   */\n      iszero\n      tag_240\n      jumpi\n        /* \"#utility.yul\":1518:1519   */\n      0x00\n        /* \"#utility.yul\":1515:1516   */\n      dup1\n        /* \"#utility.yul\":1508:1520   */\n      revert\n        /* \"#utility.yul\":1488:1522   */\n    tag_240:\n        /* \"#utility.yul\":1571:1578   */\n      dup7\n        /* \"#utility.yul\":1566:1568   */\n      0x20\n        /* \"#utility.yul\":1556:1562   */\n      dup3\n        /* \"#utility.yul\":1553:1554   */\n      0x05\n        /* \"#utility.yul\":1549:1563   */\n      shl\n        /* \"#utility.yul\":1545:1547   */\n      dup6\n        /* \"#utility.yul\":1541:1564   */\n      add\n        /* \"#utility.yul\":1537:1569   */\n      add\n        /* \"#utility.yul\":1534:1579   */\n      gt\n        /* \"#utility.yul\":1531:1596   */\n      iszero\n      tag_241\n      jumpi\n        /* \"#utility.yul\":1592:1593   */\n      0x00\n        /* \"#utility.yul\":1589:1590   */\n      dup1\n        /* \"#utility.yul\":1582:1594   */\n      revert\n        /* \"#utility.yul\":1531:1596   */\n    tag_241:\n        /* \"#utility.yul\":1623:1625   */\n      0x20\n        /* \"#utility.yul\":1615:1626   */\n      swap3\n      swap1\n      swap3\n      add\n      swap7\n        /* \"#utility.yul\":1645:1651   */\n      swap2\n      swap6\n      pop\n        /* \"#utility.yul\":1042:1657   */\n      swap1\n      swap4\n      pop\n      pop\n      pop\n      pop\n      jump\t// out\n        /* \"#utility.yul\":1844:2098   */\n    tag_54:\n        /* \"#utility.yul\":1912:1918   */\n      0x00\n        /* \"#utility.yul\":1920:1926   */\n      dup1\n        /* \"#utility.yul\":1973:1975   */\n      0x40\n        /* \"#utility.yul\":1961:1970   */\n      dup4\n        /* \"#utility.yul\":1952:1959   */\n      dup6\n        /* \"#utility.yul\":1948:1971   */\n      sub\n        /* \"#utility.yul\":1944:1976   */\n      slt\n        /* \"#utility.yul\":1941:1993   */\n      iszero\n      tag_244\n      jumpi\n        /* \"#utility.yul\":1989:1990   */\n      0x00\n        /* \"#utility.yul\":1986:1987   */\n      dup1\n        /* \"#utility.yul\":1979:1991   */\n      revert\n        /* \"#utility.yul\":1941:1993   */\n    tag_244:\n        /* \"#utility.yul\":2012:2041   */\n      tag_245\n        /* \"#utility.yul\":2031:2040   */\n      dup4\n        /* \"#utility.yul\":2012:2041   */\n      tag_223\n      jump\t// in\n    tag_245:\n        /* \"#utility.yul\":2002:2041   */\n      swap5\n        /* \"#utility.yul\":2088:2090   */\n      0x20\n        /* \"#utility.yul\":2073:2091   */\n      swap4\n      swap1\n      swap4\n      add\n        /* \"#utility.yul\":2060:2092   */\n      calldataload\n      swap4\n      pop\n      pop\n      pop\n        /* \"#utility.yul\":1844:2098   */\n      jump\t// out\n        /* \"#utility.yul\":2340:2526   */\n    tag_87:\n        /* \"#utility.yul\":2399:2405   */\n      0x00\n        /* \"#utility.yul\":2452:2454   */\n      0x20\n        /* \"#utility.yul\":2440:2449   */\n      dup3\n        /* \"#utility.yul\":2431:2438   */\n      dup5\n        /* \"#utility.yul\":2427:2450   */\n      sub\n        /* \"#utility.yul\":2423:2455   */\n      slt\n        /* \"#utility.yul\":2420:2472   */\n      iszero\n      tag_248\n      jumpi\n        /* \"#utility.yul\":2468:2469   */\n      0x00\n        /* \"#utility.yul\":2465:2466   */\n      dup1\n        /* \"#utility.yul\":2458:2470   */\n      revert\n        /* \"#utility.yul\":2420:2472   */\n    tag_248:\n        /* \"#utility.yul\":2491:2520   */\n      tag_249\n        /* \"#utility.yul\":2510:2519   */\n      dup3\n        /* \"#utility.yul\":2491:2520   */\n      tag_223\n      jump\t// in\n    tag_249:\n        /* \"#utility.yul\":2481:2520   */\n      swap4\n        /* \"#utility.yul\":2340:2526   */\n      swap3\n      pop\n      pop\n      pop\n      jump\t// out\n        /* \"#utility.yul\":3009:3417   */\n    tag_94:\n        /* \"#utility.yul\":3211:3213   */\n      0x20\n        /* \"#utility.yul\":3193:3214   */\n      dup1\n      dup3\n      mstore\n        /* \"#utility.yul\":3250:3252   */\n      0x2c\n        /* \"#utility.yul\":3230:3248   */\n      swap1\n      dup3\n      add\n        /* \"#utility.yul\":3223:3253   */\n      mstore\n        /* \"#utility.yul\":3289:3323   */\n      0x4f6e6c79206d756c746953696720616464726573732063616e2063616c6c2074\n        /* \"#utility.yul\":3284:3286   */\n      0x40\n        /* \"#utility.yul\":3269:3287   */\n      dup3\n      add\n        /* \"#utility.yul\":3262:3324   */\n      mstore\n      shl(0xa1, 0x3434b990333ab731ba34b7b7)\n        /* \"#utility.yul\":3355:3357   */\n      0x60\n        /* \"#utility.yul\":3340:3358   */\n      dup3\n      add\n        /* \"#utility.yul\":3333:3375   */\n      mstore\n        /* \"#utility.yul\":3407:3410   */\n      0x80\n        /* \"#utility.yul\":3392:3411   */\n      add\n      swap1\n        /* \"#utility.yul\":3009:3417   */\n      jump\t// out\n        /* \"#utility.yul\":4163:4440   */\n    tag_112:\n        /* \"#utility.yul\":4230:4236   */\n      0x00\n        /* \"#utility.yul\":4283:4285   */\n      0x20\n        /* \"#utility.yul\":4271:4280   */\n      dup3\n        /* \"#utility.yul\":4262:4269   */\n      dup5\n        /* \"#utility.yul\":4258:4281   */\n      sub\n        /* \"#utility.yul\":4254:4286   */\n      slt\n        /* \"#utility.yul\":4251:4303   */\n      iszero\n      tag_255\n      jumpi\n        /* \"#utility.yul\":4299:4300   */\n      0x00\n        /* \"#utility.yul\":4296:4297   */\n      dup1\n        /* \"#utility.yul\":4289:4301   */\n      revert\n        /* \"#utility.yul\":4251:4303   */\n    tag_255:\n        /* \"#utility.yul\":4331:4340   */\n      dup2\n        /* \"#utility.yul\":4325:4341   */\n      mload\n        /* \"#utility.yul\":4384:4389   */\n      dup1\n        /* \"#utility.yul\":4377:4390   */\n      iszero\n        /* \"#utility.yul\":4370:4391   */\n      iszero\n        /* \"#utility.yul\":4363:4368   */\n      dup2\n        /* \"#utility.yul\":4360:4392   */\n      eq\n        /* \"#utility.yul\":4350:4410   */\n      tag_249\n      jumpi\n        /* \"#utility.yul\":4406:4407   */\n      0x00\n        /* \"#utility.yul\":4403:4404   */\n      dup1\n        /* \"#utility.yul\":4396:4408   */\n      revert\n        /* \"#utility.yul\":4789:4916   */\n    tag_224:\n        /* \"#utility.yul\":4850:4860   */\n      0x4e487b71\n        /* \"#utility.yul\":4845:4848   */\n      0xe0\n        /* \"#utility.yul\":4841:4861   */\n      shl\n        /* \"#utility.yul\":4838:4839   */\n      0x00\n        /* \"#utility.yul\":4831:4862   */\n      mstore\n        /* \"#utility.yul\":4881:4885   */\n      0x11\n        /* \"#utility.yul\":4878:4879   */\n      0x04\n        /* \"#utility.yul\":4871:4886   */\n      mstore\n        /* \"#utility.yul\":4905:4909   */\n      0x24\n        /* \"#utility.yul\":4902:4903   */\n      0x00\n        /* \"#utility.yul\":4895:4910   */\n      revert\n        /* \"#utility.yul\":4921:5046   */\n    tag_120:\n        /* \"#utility.yul\":4986:4995   */\n      dup1\n      dup3\n      add\n        /* \"#utility.yul\":5007:5017   */\n      dup1\n      dup3\n      gt\n        /* \"#utility.yul\":5004:5040   */\n      iszero\n      tag_207\n      jumpi\n        /* \"#utility.yul\":5020:5038   */\n      tag_207\n      tag_224\n      jump\t// in\n        /* \"#utility.yul\":5304:5431   */\n    tag_140:\n        /* \"#utility.yul\":5365:5375   */\n      0x4e487b71\n        /* \"#utility.yul\":5360:5363   */\n      0xe0\n        /* \"#utility.yul\":5356:5376   */\n      shl\n        /* \"#utility.yul\":5353:5354   */\n      0x00\n        /* \"#utility.yul\":5346:5377   */\n      mstore\n        /* \"#utility.yul\":5396:5400   */\n      0x32\n        /* \"#utility.yul\":5393:5394   */\n      0x04\n        /* \"#utility.yul\":5386:5401   */\n      mstore\n        /* \"#utility.yul\":5420:5424   */\n      0x24\n        /* \"#utility.yul\":5417:5418   */\n      0x00\n        /* \"#utility.yul\":5410:5425   */\n      revert\n        /* \"#utility.yul\":5715:5899   */\n    tag_170:\n        /* \"#utility.yul\":5785:5791   */\n      0x00\n        /* \"#utility.yul\":5838:5840   */\n      0x20\n        /* \"#utility.yul\":5826:5835   */\n      dup3\n        /* \"#utility.yul\":5817:5824   */\n      dup5\n        /* \"#utility.yul\":5813:5836   */\n      sub\n        /* \"#utility.yul\":5809:5841   */\n      slt\n        /* \"#utility.yul\":5806:5858   */\n      iszero\n      tag_266\n      jumpi\n        /* \"#utility.yul\":5854:5855   */\n      0x00\n        /* \"#utility.yul\":5851:5852   */\n      dup1\n        /* \"#utility.yul\":5844:5856   */\n      revert\n        /* \"#utility.yul\":5806:5858   */\n    tag_266:\n      pop\n        /* \"#utility.yul\":5877:5893   */\n      mload\n      swap2\n        /* \"#utility.yul\":5715:5899   */\n      swap1\n      pop\n      jump\t// out\n        /* \"#utility.yul\":6599:6727   */\n    tag_196:\n        /* \"#utility.yul\":6666:6675   */\n      dup2\n      dup2\n      sub\n        /* \"#utility.yul\":6687:6698   */\n      dup2\n      dup2\n      gt\n        /* \"#utility.yul\":6684:6721   */\n      iszero\n      tag_207\n      jumpi\n        /* \"#utility.yul\":6701:6719   */\n      tag_207\n      tag_224\n      jump\t// in\n        /* \"#utility.yul\":6732:6949   */\n    tag_211:\n        /* \"#utility.yul\":6772:6773   */\n      0x00\n        /* \"#utility.yul\":6798:6799   */\n      dup3\n        /* \"#utility.yul\":6788:6920   */\n      tag_273\n      jumpi\n        /* \"#utility.yul\":6842:6852   */\n      0x4e487b71\n        /* \"#utility.yul\":6837:6840   */\n      0xe0\n        /* \"#utility.yul\":6833:6853   */\n      shl\n        /* \"#utility.yul\":6830:6831   */\n      0x00\n        /* \"#utility.yul\":6823:6854   */\n      mstore\n        /* \"#utility.yul\":6877:6881   */\n      0x12\n        /* \"#utility.yul\":6874:6875   */\n      0x04\n        /* \"#utility.yul\":6867:6882   */\n      mstore\n        /* \"#utility.yul\":6905:6909   */\n      0x24\n        /* \"#utility.yul\":6902:6903   */\n      0x00\n        /* \"#utility.yul\":6895:6910   */\n      revert\n        /* \"#utility.yul\":6788:6920   */\n    tag_273:\n      pop\n        /* \"#utility.yul\":6934:6943   */\n      div\n      swap1\n        /* \"#utility.yul\":6732:6949   */\n      jump\t// out\n        /* \"#utility.yul\":6954:7122   */\n    tag_213:\n        /* \"#utility.yul\":7027:7036   */\n      dup1\n      dup3\n      mul\n        /* \"#utility.yul\":7058:7067   */\n      dup2\n      iszero\n        /* \"#utility.yul\":7075:7090   */\n      dup3\n      dup3\n      div\n        /* \"#utility.yul\":7069:7091   */\n      dup5\n      eq\n        /* \"#utility.yul\":7055:7092   */\n      or\n        /* \"#utility.yul\":7045:7116   */\n      tag_207\n      jumpi\n        /* \"#utility.yul\":7096:7114   */\n      tag_207\n      tag_224\n      jump\t// in\n\n    auxdata: 0xa26469706673582212207b8007d07bab1c03cf8c4e83ae29b887f584d48386ce68e25fb70e86f4ce605764736f6c63430008190033\n}\n",
				"bytecode": {
					"linkReferences": {},
					"object": "6080604052348015600e575f80fd5b50604051610ee7380380610ee7833981016040819052602b91608f565b60015f81815581546001600160a01b03199081166001600160a01b0397881617909255600280549092169490951693909317909255600491909155600355600681905560075560ca565b80516001600160a01b0381168114608a575f80fd5b919050565b5f805f806080858703121560a1575f80fd5b60a8856075565b935060b4602086016075565b6040860151606090960151949790965092505050565b610e10806100d75f395ff3fe608060405234801561000f575f80fd5b5060043610610111575f3560e01c80639b29d2151161009e578063a164959d1161006e578063a164959d14610234578063acde659714610247578063ad5a402b1461025a578063c45a015514610263578063caf10b5714610276575f80fd5b80639b29d215146101fc5780639d76ea581461020f5780639f8932f414610222578063a163beea1461022b575f80fd5b8063609c878a116100e4578063609c878a1461018a57806362d76d06146101b75780636b036f45146101ca5780638167ee72146101e157806395adb5ad146101f4575f80fd5b80630d29fcd4146101155780631516def71461012a578063387602981461015a57806341fee55714610177575b5f80fd5b610128610123366004610bba565b6102df565b005b60015461013d906001600160a01b031681565b6040516001600160a01b0390911681526020015b60405180910390f35b6008546101679060ff1681565b6040519015158152602001610151565b610128610185366004610bba565b610322565b610167610198366004610bec565b600b60209081525f928352604080842090915290825290205460ff1681565b6101286101c5366004610c1d565b61052c565b6101d360035481565b604051908152602001610151565b6101286101ef366004610c8c565b610736565b61012861080f565b61012861020a366004610bba565b610a54565b60025461013d906001600160a01b031681565b6101d360045481565b6101d360075481565b6101d3610242366004610bec565b610a8e565b610167610255366004610bec565b610af5565b6101d360065481565b60055461013d906001600160a01b031681565b6102b5610284366004610cb4565b600a6020525f9081526040902080546001820154600283015460038401546004909401549293919290919060ff1685565b6040805195865260208601949094529284019190915260608301521515608082015260a001610151565b6001546001600160a01b031633146103125760405162461bcd60e51b815260040161030990610cd4565b60405180910390fd5b5f811161031d575f80fd5b600355565b61032a610b63565b6002546008546001600160a01b039091169060ff16610347575f80fd5b60035482116103985760405162461bcd60e51b815260206004820181905260248201527f416d6f756e74206d7573742062652067726561746572207468616e207a65726f6044820152606401610309565b6001600160a01b0381166323b872dd336040516001600160e01b031960e084901b1681526001600160a01b039091166004820152306024820152604481018590526064016020604051808303815f875af11580156103f8573d5f803e3d5ffd5b505050506040513d601f19601f8201168201806040525081019061041c9190610d20565b61045a5760405162461bcd60e51b815260206004820152600f60248201526e151c985b9cd9995c8819985a5b1959608a1b6044820152606401610309565b335f90815260096020526040902060020154610100900460ff161561047d575f80fd5b335f908152600960205260408120805484929061049b908490610d53565b9091555050335f90815260096020526040812043600190910155600680548492906104c7908490610d53565b92505081905550600160075f8282546104e09190610d53565b90915550506040805183815243602082015233917f0ae860169ef88b6e5a084a54675af932ac7be23de4abd34a1d99a5a8402a17cc910160405180910390a25061052960015f55565b50565b335f90815260096020526040902060020154610100900460ff1661054e575f80fd5b610556610b63565b5f5b818110156107285761059083838381811061057557610575610d66565b905060200201602081019061058a9190610cb4565b33610af5565b610598575f80fd5b600b5f8484848181106105ad576105ad610d66565b90506020020160208101906105c29190610cb4565b6001600160a01b0316815260208082019290925260409081015f90812033825290925290205460ff16156105f4575f80fd5b5f61062584848481811061060a5761060a610d66565b905060200201602081019061061f9190610cb4565b33610a8e565b90506001600b5f86868681811061063e5761063e610d66565b90506020020160208101906106539190610cb4565b6001600160a01b0316815260208082019290925260409081015f9081203382529092529020805460ff191691151591909117905583838381811061069957610699610d66565b90506020020160208101906106ae9190610cb4565b60405163a9059cbb60e01b8152336004820152602481018390526001600160a01b03919091169063a9059cbb906044016020604051808303815f875af11580156106fa573d5f803e3d5ffd5b505050506040513d601f19601f8201168201806040525081019061071e9190610d20565b5050600101610558565b5061073260015f55565b5050565b61073e610b63565b6040516370a0823160e01b815230600482015281906001600160a01b038416906370a0823190602401602060405180830381865afa158015610782573d5f803e3d5ffd5b505050506040513d601f19601f820116820180604052508101906107a69190610d7a565b146107af575f80fd5b6001600160a01b0382165f908152600a602052604090206004015460ff16156107d6575f80fd5b6001600160a01b0382165f908152600a602052604090204360018201558181556002810182905560065460039091015561073260015f55565b610817610b63565b335f908152600960205260409020546108635760405162461bcd60e51b815260206004820152600e60248201526d139bc81cdd185ad948199bdd5b9960921b6044820152606401610309565b335f9081526009602052604090206002015460ff16156108c55760405162461bcd60e51b815260206004820152601760248201527f5374616b6520616c72656164792077697468647261776e0000000000000000006044820152606401610309565b60028054335f81815260096020908152604080832080549601805461ffff19166001179055805163a9059cbb60e01b8152600481019490945260248401869052516001600160a01b039094169493859363a9059cbb93604480830194939283900301908290875af115801561093c573d5f803e3d5ffd5b505050506040513d601f19601f820116820180604052508101906109609190610d20565b61099e5760405162461bcd60e51b815260206004820152600f60248201526e151c985b9cd9995c8819985a5b1959608a1b6044820152606401610309565b8060065f8282546109af9190610d91565b92505081905550600160075f8282546109c89190610d91565b9091555050335f9081526009602081905260408220829055816109e83390565b6001600160a01b0316815260208101919091526040015f2060010155336001600160a01b03167f14eed693e6d30152612ee94c12df593a490178621d3730e516b012e064eeef8f82604051610a3f91815260200190565b60405180910390a25050610a5260015f55565b565b6001546001600160a01b03163314610a7e5760405162461bcd60e51b815260040161030990610cd4565b5f8111610a89575f80fd5b600455565b5f610a998383610af5565b610aa1575f80fd5b6001600160a01b038084165f908152600a602090815260408083208054600390910154948716845260099092528220549092610adc91610da4565b90505f610ae98383610dc3565b93505050505b92915050565b6001600160a01b0382165f908152600a602052604081206004015460ff16610b1b575f80fd5b6001600160a01b038084165f908152600a60209081526040808320600190810154600454958816855260099093529220909101549091610b5a91610d53565b11159392505050565b60025f5403610bb45760405162461bcd60e51b815260206004820152601f60248201527f5265656e7472616e637947756172643a207265656e7472616e742063616c6c006044820152606401610309565b60025f55565b5f60208284031215610bca575f80fd5b5035919050565b80356001600160a01b0381168114610be7575f80fd5b919050565b5f8060408385031215610bfd575f80fd5b610c0683610bd1565b9150610c1460208401610bd1565b90509250929050565b5f8060208385031215610c2e575f80fd5b823567ffffffffffffffff80821115610c45575f80fd5b818501915085601f830112610c58575f80fd5b813581811115610c66575f80fd5b8660208260051b8501011115610c7a575f80fd5b60209290920196919550909350505050565b5f8060408385031215610c9d575f80fd5b610ca683610bd1565b946020939093013593505050565b5f60208284031215610cc4575f80fd5b610ccd82610bd1565b9392505050565b6020808252602c908201527f4f6e6c79206d756c746953696720616464726573732063616e2063616c6c207460408201526b3434b990333ab731ba34b7b760a11b606082015260800190565b5f60208284031215610d30575f80fd5b81518015158114610ccd575f80fd5b634e487b7160e01b5f52601160045260245ffd5b80820180821115610aef57610aef610d3f565b634e487b7160e01b5f52603260045260245ffd5b5f60208284031215610d8a575f80fd5b5051919050565b81810381811115610aef57610aef610d3f565b5f82610dbe57634e487b7160e01b5f52601260045260245ffd5b500490565b8082028115828204841417610aef57610aef610d3f56fea26469706673582212207b8007d07bab1c03cf8c4e83ae29b887f584d48386ce68e25fb70e86f4ce605764736f6c63430008190033",
					"opcodes": "PUSH1 0x80 PUSH1 0x40 MSTORE CALLVALUE DUP1 ISZERO PUSH1 0xE JUMPI PUSH0 DUP1 REVERT JUMPDEST POP PUSH1 0x40 MLOAD PUSH2 0xEE7 CODESIZE SUB DUP1 PUSH2 0xEE7 DUP4 CODECOPY DUP2 ADD PUSH1 0x40 DUP2 SWAP1 MSTORE PUSH1 0x2B SWAP2 PUSH1 0x8F JUMP JUMPDEST PUSH1 0x1 PUSH0 DUP2 DUP2 SSTORE DUP2 SLOAD PUSH1 0x1 PUSH1 0x1 PUSH1 0xA0 SHL SUB NOT SWAP1 DUP2 AND PUSH1 0x1 PUSH1 0x1 PUSH1 0xA0 SHL SUB SWAP8 DUP9 AND OR SWAP1 SWAP3 SSTORE PUSH1 0x2 DUP1 SLOAD SWAP1 SWAP3 AND SWAP5 SWAP1 SWAP6 AND SWAP4 SWAP1 SWAP4 OR SWAP1 SWAP3 SSTORE PUSH1 0x4 SWAP2 SWAP1 SWAP2 SSTORE PUSH1 0x3 SSTORE PUSH1 0x6 DUP2 SWAP1 SSTORE PUSH1 0x7 SSTORE PUSH1 0xCA JUMP JUMPDEST DUP1 MLOAD PUSH1 0x1 PUSH1 0x1 PUSH1 0xA0 SHL SUB DUP2 AND DUP2 EQ PUSH1 0x8A JUMPI PUSH0 DUP1 REVERT JUMPDEST SWAP2 SWAP1 POP JUMP JUMPDEST PUSH0 DUP1 PUSH0 DUP1 PUSH1 0x80 DUP6 DUP8 SUB SLT ISZERO PUSH1 0xA1 JUMPI PUSH0 DUP1 REVERT JUMPDEST PUSH1 0xA8 DUP6 PUSH1 0x75 JUMP JUMPDEST SWAP4 POP PUSH1 0xB4 PUSH1 0x20 DUP7 ADD PUSH1 0x75 JUMP JUMPDEST PUSH1 0x40 DUP7 ADD MLOAD PUSH1 0x60 SWAP1 SWAP7 ADD MLOAD SWAP5 SWAP8 SWAP1 SWAP7 POP SWAP3 POP POP POP JUMP JUMPDEST PUSH2 0xE10 DUP1 PUSH2 0xD7 PUSH0 CODECOPY PUSH0 RETURN INVALID PUSH1 0x80 PUSH1 0x40 MSTORE CALLVALUE DUP1 ISZERO PUSH2 0xF JUMPI PUSH0 DUP1 REVERT JUMPDEST POP PUSH1 0x4 CALLDATASIZE LT PUSH2 0x111 JUMPI PUSH0 CALLDATALOAD PUSH1 0xE0 SHR DUP1 PUSH4 0x9B29D215 GT PUSH2 0x9E JUMPI DUP1 PUSH4 0xA164959D GT PUSH2 0x6E JUMPI DUP1 PUSH4 0xA164959D EQ PUSH2 0x234 JUMPI DUP1 PUSH4 0xACDE6597 EQ PUSH2 0x247 JUMPI DUP1 PUSH4 0xAD5A402B EQ PUSH2 0x25A JUMPI DUP1 PUSH4 0xC45A0155 EQ PUSH2 0x263 JUMPI DUP1 PUSH4 0xCAF10B57 EQ PUSH2 0x276 JUMPI PUSH0 DUP1 REVERT JUMPDEST DUP1 PUSH4 0x9B29D215 EQ PUSH2 0x1FC JUMPI DUP1 PUSH4 0x9D76EA58 EQ PUSH2 0x20F JUMPI DUP1 PUSH4 0x9F8932F4 EQ PUSH2 0x222 JUMPI DUP1 PUSH4 0xA163BEEA EQ PUSH2 0x22B JUMPI PUSH0 DUP1 REVERT JUMPDEST DUP1 PUSH4 0x609C878A GT PUSH2 0xE4 JUMPI DUP1 PUSH4 0x609C878A EQ PUSH2 0x18A JUMPI DUP1 PUSH4 0x62D76D06 EQ PUSH2 0x1B7 JUMPI DUP1 PUSH4 0x6B036F45 EQ PUSH2 0x1CA JUMPI DUP1 PUSH4 0x8167EE72 EQ PUSH2 0x1E1 JUMPI DUP1 PUSH4 0x95ADB5AD EQ PUSH2 0x1F4 JUMPI PUSH0 DUP1 REVERT JUMPDEST DUP1 PUSH4 0xD29FCD4 EQ PUSH2 0x115 JUMPI DUP1 PUSH4 0x1516DEF7 EQ PUSH2 0x12A JUMPI DUP1 PUSH4 0x38760298 EQ PUSH2 0x15A JUMPI DUP1 PUSH4 0x41FEE557 EQ PUSH2 0x177 JUMPI JUMPDEST PUSH0 DUP1 REVERT JUMPDEST PUSH2 0x128 PUSH2 0x123 CALLDATASIZE PUSH1 0x4 PUSH2 0xBBA JUMP JUMPDEST PUSH2 0x2DF JUMP JUMPDEST STOP JUMPDEST PUSH1 0x1 SLOAD PUSH2 0x13D SWAP1 PUSH1 0x1 PUSH1 0x1 PUSH1 0xA0 SHL SUB AND DUP2 JUMP JUMPDEST PUSH1 0x40 MLOAD PUSH1 0x1 PUSH1 0x1 PUSH1 0xA0 SHL SUB SWAP1 SWAP2 AND DUP2 MSTORE PUSH1 0x20 ADD JUMPDEST PUSH1 0x40 MLOAD DUP1 SWAP2 SUB SWAP1 RETURN JUMPDEST PUSH1 0x8 SLOAD PUSH2 0x167 SWAP1 PUSH1 0xFF AND DUP2 JUMP JUMPDEST PUSH1 0x40 MLOAD SWAP1 ISZERO ISZERO DUP2 MSTORE PUSH1 0x20 ADD PUSH2 0x151 JUMP JUMPDEST PUSH2 0x128 PUSH2 0x185 CALLDATASIZE PUSH1 0x4 PUSH2 0xBBA JUMP JUMPDEST PUSH2 0x322 JUMP JUMPDEST PUSH2 0x167 PUSH2 0x198 CALLDATASIZE PUSH1 0x4 PUSH2 0xBEC JUMP JUMPDEST PUSH1 0xB PUSH1 0x20 SWAP1 DUP2 MSTORE PUSH0 SWAP3 DUP4 MSTORE PUSH1 0x40 DUP1 DUP5 KECCAK256 SWAP1 SWAP2 MSTORE SWAP1 DUP3 MSTORE SWAP1 KECCAK256 SLOAD PUSH1 0xFF AND DUP2 JUMP JUMPDEST PUSH2 0x128 PUSH2 0x1C5 CALLDATASIZE PUSH1 0x4 PUSH2 0xC1D JUMP JUMPDEST PUSH2 0x52C JUMP JUMPDEST PUSH2 0x1D3 PUSH1 0x3 SLOAD DUP2 JUMP JUMPDEST PUSH1 0x40 MLOAD SWAP1 DUP2 MSTORE PUSH1 0x20 ADD PUSH2 0x151 JUMP JUMPDEST PUSH2 0x128 PUSH2 0x1EF CALLDATASIZE PUSH1 0x4 PUSH2 0xC8C JUMP JUMPDEST PUSH2 0x736 JUMP JUMPDEST PUSH2 0x128 PUSH2 0x80F JUMP JUMPDEST PUSH2 0x128 PUSH2 0x20A CALLDATASIZE PUSH1 0x4 PUSH2 0xBBA JUMP JUMPDEST PUSH2 0xA54 JUMP JUMPDEST PUSH1 0x2 SLOAD PUSH2 0x13D SWAP1 PUSH1 0x1 PUSH1 0x1 PUSH1 0xA0 SHL SUB AND DUP2 JUMP JUMPDEST PUSH2 0x1D3 PUSH1 0x4 SLOAD DUP2 JUMP JUMPDEST PUSH2 0x1D3 PUSH1 0x7 SLOAD DUP2 JUMP JUMPDEST PUSH2 0x1D3 PUSH2 0x242 CALLDATASIZE PUSH1 0x4 PUSH2 0xBEC JUMP JUMPDEST PUSH2 0xA8E JUMP JUMPDEST PUSH2 0x167 PUSH2 0x255 CALLDATASIZE PUSH1 0x4 PUSH2 0xBEC JUMP JUMPDEST PUSH2 0xAF5 JUMP JUMPDEST PUSH2 0x1D3 PUSH1 0x6 SLOAD DUP2 JUMP JUMPDEST PUSH1 0x5 SLOAD PUSH2 0x13D SWAP1 PUSH1 0x1 PUSH1 0x1 PUSH1 0xA0 SHL SUB AND DUP2 JUMP JUMPDEST PUSH2 0x2B5 PUSH2 0x284 CALLDATASIZE PUSH1 0x4 PUSH2 0xCB4 JUMP JUMPDEST PUSH1 0xA PUSH1 0x20 MSTORE PUSH0 SWAP1 DUP2 MSTORE PUSH1 0x40 SWAP1 KECCAK256 DUP1 SLOAD PUSH1 0x1 DUP3 ADD SLOAD PUSH1 0x2 DUP4 ADD SLOAD PUSH1 0x3 DUP5 ADD SLOAD PUSH1 0x4 SWAP1 SWAP5 ADD SLOAD SWAP3 SWAP4 SWAP2 SWAP3 SWAP1 SWAP2 SWAP1 PUSH1 0xFF AND DUP6 JUMP JUMPDEST PUSH1 0x40 DUP1 MLOAD SWAP6 DUP7 MSTORE PUSH1 0x20 DUP7 ADD SWAP5 SWAP1 SWAP5 MSTORE SWAP3 DUP5 ADD SWAP2 SWAP1 SWAP2 MSTORE PUSH1 0x60 DUP4 ADD MSTORE ISZERO ISZERO PUSH1 0x80 DUP3 ADD MSTORE PUSH1 0xA0 ADD PUSH2 0x151 JUMP JUMPDEST PUSH1 0x1 SLOAD PUSH1 0x1 PUSH1 0x1 PUSH1 0xA0 SHL SUB AND CALLER EQ PUSH2 0x312 JUMPI PUSH1 0x40 MLOAD PUSH3 0x461BCD PUSH1 0xE5 SHL DUP2 MSTORE PUSH1 0x4 ADD PUSH2 0x309 SWAP1 PUSH2 0xCD4 JUMP JUMPDEST PUSH1 0x40 MLOAD DUP1 SWAP2 SUB SWAP1 REVERT JUMPDEST PUSH0 DUP2 GT PUSH2 0x31D JUMPI PUSH0 DUP1 REVERT JUMPDEST PUSH1 0x3 SSTORE JUMP JUMPDEST PUSH2 0x32A PUSH2 0xB63 JUMP JUMPDEST PUSH1 0x2 SLOAD PUSH1 0x8 SLOAD PUSH1 0x1 PUSH1 0x1 PUSH1 0xA0 SHL SUB SWAP1 SWAP2 AND SWAP1 PUSH1 0xFF AND PUSH2 0x347 JUMPI PUSH0 DUP1 REVERT JUMPDEST PUSH1 0x3 SLOAD DUP3 GT PUSH2 0x398 JUMPI PUSH1 0x40 MLOAD PUSH3 0x461BCD PUSH1 0xE5 SHL DUP2 MSTORE PUSH1 0x20 PUSH1 0x4 DUP3 ADD DUP2 SWAP1 MSTORE PUSH1 0x24 DUP3 ADD MSTORE PUSH32 0x416D6F756E74206D7573742062652067726561746572207468616E207A65726F PUSH1 0x44 DUP3 ADD MSTORE PUSH1 0x64 ADD PUSH2 0x309 JUMP JUMPDEST PUSH1 0x1 PUSH1 0x1 PUSH1 0xA0 SHL SUB DUP2 AND PUSH4 0x23B872DD CALLER PUSH1 0x40 MLOAD PUSH1 0x1 PUSH1 0x1 PUSH1 0xE0 SHL SUB NOT PUSH1 0xE0 DUP5 SWAP1 SHL AND DUP2 MSTORE PUSH1 0x1 PUSH1 0x1 PUSH1 0xA0 SHL SUB SWAP1 SWAP2 AND PUSH1 0x4 DUP3 ADD MSTORE ADDRESS PUSH1 0x24 DUP3 ADD MSTORE PUSH1 0x44 DUP2 ADD DUP6 SWAP1 MSTORE PUSH1 0x64 ADD PUSH1 0x20 PUSH1 0x40 MLOAD DUP1 DUP4 SUB DUP2 PUSH0 DUP8 GAS CALL ISZERO DUP1 ISZERO PUSH2 0x3F8 JUMPI RETURNDATASIZE PUSH0 DUP1 RETURNDATACOPY RETURNDATASIZE PUSH0 REVERT JUMPDEST POP POP POP POP PUSH1 0x40 MLOAD RETURNDATASIZE PUSH1 0x1F NOT PUSH1 0x1F DUP3 ADD AND DUP3 ADD DUP1 PUSH1 0x40 MSTORE POP DUP2 ADD SWAP1 PUSH2 0x41C SWAP2 SWAP1 PUSH2 0xD20 JUMP JUMPDEST PUSH2 0x45A JUMPI PUSH1 0x40 MLOAD PUSH3 0x461BCD PUSH1 0xE5 SHL DUP2 MSTORE PUSH1 0x20 PUSH1 0x4 DUP3 ADD MSTORE PUSH1 0xF PUSH1 0x24 DUP3 ADD MSTORE PUSH15 0x151C985B9CD9995C8819985A5B1959 PUSH1 0x8A SHL PUSH1 0x44 DUP3 ADD MSTORE PUSH1 0x64 ADD PUSH2 0x309 JUMP JUMPDEST CALLER PUSH0 SWAP1 DUP2 MSTORE PUSH1 0x9 PUSH1 0x20 MSTORE PUSH1 0x40 SWAP1 KECCAK256 PUSH1 0x2 ADD SLOAD PUSH2 0x100 SWAP1 DIV PUSH1 0xFF AND ISZERO PUSH2 0x47D JUMPI PUSH0 DUP1 REVERT JUMPDEST CALLER PUSH0 SWAP1 DUP2 MSTORE PUSH1 0x9 PUSH1 0x20 MSTORE PUSH1 0x40 DUP2 KECCAK256 DUP1 SLOAD DUP5 SWAP3 SWAP1 PUSH2 0x49B SWAP1 DUP5 SWAP1 PUSH2 0xD53 JUMP JUMPDEST SWAP1 SWAP2 SSTORE POP POP CALLER PUSH0 SWAP1 DUP2 MSTORE PUSH1 0x9 PUSH1 0x20 MSTORE PUSH1 0x40 DUP2 KECCAK256 NUMBER PUSH1 0x1 SWAP1 SWAP2 ADD SSTORE PUSH1 0x6 DUP1 SLOAD DUP5 SWAP3 SWAP1 PUSH2 0x4C7 SWAP1 DUP5 SWAP1 PUSH2 0xD53 JUMP JUMPDEST SWAP3 POP POP DUP2 SWAP1 SSTORE POP PUSH1 0x1 PUSH1 0x7 PUSH0 DUP3 DUP3 SLOAD PUSH2 0x4E0 SWAP2 SWAP1 PUSH2 0xD53 JUMP JUMPDEST SWAP1 SWAP2 SSTORE POP POP PUSH1 0x40 DUP1 MLOAD DUP4 DUP2 MSTORE NUMBER PUSH1 0x20 DUP3 ADD MSTORE CALLER SWAP2 PUSH32 0xAE860169EF88B6E5A084A54675AF932AC7BE23DE4ABD34A1D99A5A8402A17CC SWAP2 ADD PUSH1 0x40 MLOAD DUP1 SWAP2 SUB SWAP1 LOG2 POP PUSH2 0x529 PUSH1 0x1 PUSH0 SSTORE JUMP JUMPDEST POP JUMP JUMPDEST CALLER PUSH0 SWAP1 DUP2 MSTORE PUSH1 0x9 PUSH1 0x20 MSTORE PUSH1 0x40 SWAP1 KECCAK256 PUSH1 0x2 ADD SLOAD PUSH2 0x100 SWAP1 DIV PUSH1 0xFF AND PUSH2 0x54E JUMPI PUSH0 DUP1 REVERT JUMPDEST PUSH2 0x556 PUSH2 0xB63 JUMP JUMPDEST PUSH0 JUMPDEST DUP2 DUP2 LT ISZERO PUSH2 0x728 JUMPI PUSH2 0x590 DUP4 DUP4 DUP4 DUP2 DUP2 LT PUSH2 0x575 JUMPI PUSH2 0x575 PUSH2 0xD66 JUMP JUMPDEST SWAP1 POP PUSH1 0x20 MUL ADD PUSH1 0x20 DUP2 ADD SWAP1 PUSH2 0x58A SWAP2 SWAP1 PUSH2 0xCB4 JUMP JUMPDEST CALLER PUSH2 0xAF5 JUMP JUMPDEST PUSH2 0x598 JUMPI PUSH0 DUP1 REVERT JUMPDEST PUSH1 0xB PUSH0 DUP5 DUP5 DUP5 DUP2 DUP2 LT PUSH2 0x5AD JUMPI PUSH2 0x5AD PUSH2 0xD66 JUMP JUMPDEST SWAP1 POP PUSH1 0x20 MUL ADD PUSH1 0x20 DUP2 ADD SWAP1 PUSH2 0x5C2 SWAP2 SWAP1 PUSH2 0xCB4 JUMP JUMPDEST PUSH1 0x1 PUSH1 0x1 PUSH1 0xA0 SHL SUB AND DUP2 MSTORE PUSH1 0x20 DUP1 DUP3 ADD SWAP3 SWAP1 SWAP3 MSTORE PUSH1 0x40 SWAP1 DUP2 ADD PUSH0 SWAP1 DUP2 KECCAK256 CALLER DUP3 MSTORE SWAP1 SWAP3 MSTORE SWAP1 KECCAK256 SLOAD PUSH1 0xFF AND ISZERO PUSH2 0x5F4 JUMPI PUSH0 DUP1 REVERT JUMPDEST PUSH0 PUSH2 0x625 DUP5 DUP5 DUP5 DUP2 DUP2 LT PUSH2 0x60A JUMPI PUSH2 0x60A PUSH2 0xD66 JUMP JUMPDEST SWAP1 POP PUSH1 0x20 MUL ADD PUSH1 0x20 DUP2 ADD SWAP1 PUSH2 0x61F SWAP2 SWAP1 PUSH2 0xCB4 JUMP JUMPDEST CALLER PUSH2 0xA8E JUMP JUMPDEST SWAP1 POP PUSH1 0x1 PUSH1 0xB PUSH0 DUP7 DUP7 DUP7 DUP2 DUP2 LT PUSH2 0x63E JUMPI PUSH2 0x63E PUSH2 0xD66 JUMP JUMPDEST SWAP1 POP PUSH1 0x20 MUL ADD PUSH1 0x20 DUP2 ADD SWAP1 PUSH2 0x653 SWAP2 SWAP1 PUSH2 0xCB4 JUMP JUMPDEST PUSH1 0x1 PUSH1 0x1 PUSH1 0xA0 SHL SUB AND DUP2 MSTORE PUSH1 0x20 DUP1 DUP3 ADD SWAP3 SWAP1 SWAP3 MSTORE PUSH1 0x40 SWAP1 DUP2 ADD PUSH0 SWAP1 DUP2 KECCAK256 CALLER DUP3 MSTORE SWAP1 SWAP3 MSTORE SWAP1 KECCAK256 DUP1 SLOAD PUSH1 0xFF NOT AND SWAP2 ISZERO ISZERO SWAP2 SWAP1 SWAP2 OR SWAP1 SSTORE DUP4 DUP4 DUP4 DUP2 DUP2 LT PUSH2 0x699 JUMPI PUSH2 0x699 PUSH2 0xD66 JUMP JUMPDEST SWAP1 POP PUSH1 0x20 MUL ADD PUSH1 0x20 DUP2 ADD SWAP1 PUSH2 0x6AE SWAP2 SWAP1 PUSH2 0xCB4 JUMP JUMPDEST PUSH1 0x40 MLOAD PUSH4 0xA9059CBB PUSH1 0xE0 SHL DUP2 MSTORE CALLER PUSH1 0x4 DUP3 ADD MSTORE PUSH1 0x24 DUP2 ADD DUP4 SWAP1 MSTORE PUSH1 0x1 PUSH1 0x1 PUSH1 0xA0 SHL SUB SWAP2 SWAP1 SWAP2 AND SWAP1 PUSH4 0xA9059CBB SWAP1 PUSH1 0x44 ADD PUSH1 0x20 PUSH1 0x40 MLOAD DUP1 DUP4 SUB DUP2 PUSH0 DUP8 GAS CALL ISZERO DUP1 ISZERO PUSH2 0x6FA JUMPI RETURNDATASIZE PUSH0 DUP1 RETURNDATACOPY RETURNDATASIZE PUSH0 REVERT JUMPDEST POP POP POP POP PUSH1 0x40 MLOAD RETURNDATASIZE PUSH1 0x1F NOT PUSH1 0x1F DUP3 ADD AND DUP3 ADD DUP1 PUSH1 0x40 MSTORE POP DUP2 ADD SWAP1 PUSH2 0x71E SWAP2 SWAP1 PUSH2 0xD20 JUMP JUMPDEST POP POP PUSH1 0x1 ADD PUSH2 0x558 JUMP JUMPDEST POP PUSH2 0x732 PUSH1 0x1 PUSH0 SSTORE JUMP JUMPDEST POP POP JUMP JUMPDEST PUSH2 0x73E PUSH2 0xB63 JUMP JUMPDEST PUSH1 0x40 MLOAD PUSH4 0x70A08231 PUSH1 0xE0 SHL DUP2 MSTORE ADDRESS PUSH1 0x4 DUP3 ADD MSTORE DUP2 SWAP1 PUSH1 0x1 PUSH1 0x1 PUSH1 0xA0 SHL SUB DUP5 AND SWAP1 PUSH4 0x70A08231 SWAP1 PUSH1 0x24 ADD PUSH1 0x20 PUSH1 0x40 MLOAD DUP1 DUP4 SUB DUP2 DUP7 GAS STATICCALL ISZERO DUP1 ISZERO PUSH2 0x782 JUMPI RETURNDATASIZE PUSH0 DUP1 RETURNDATACOPY RETURNDATASIZE PUSH0 REVERT JUMPDEST POP POP POP POP PUSH1 0x40 MLOAD RETURNDATASIZE PUSH1 0x1F NOT PUSH1 0x1F DUP3 ADD AND DUP3 ADD DUP1 PUSH1 0x40 MSTORE POP DUP2 ADD SWAP1 PUSH2 0x7A6 SWAP2 SWAP1 PUSH2 0xD7A JUMP JUMPDEST EQ PUSH2 0x7AF JUMPI PUSH0 DUP1 REVERT JUMPDEST PUSH1 0x1 PUSH1 0x1 PUSH1 0xA0 SHL SUB DUP3 AND PUSH0 SWAP1 DUP2 MSTORE PUSH1 0xA PUSH1 0x20 MSTORE PUSH1 0x40 SWAP1 KECCAK256 PUSH1 0x4 ADD SLOAD PUSH1 0xFF AND ISZERO PUSH2 0x7D6 JUMPI PUSH0 DUP1 REVERT JUMPDEST PUSH1 0x1 PUSH1 0x1 PUSH1 0xA0 SHL SUB DUP3 AND PUSH0 SWAP1 DUP2 MSTORE PUSH1 0xA PUSH1 0x20 MSTORE PUSH1 0x40 SWAP1 KECCAK256 NUMBER PUSH1 0x1 DUP3 ADD SSTORE DUP2 DUP2 SSTORE PUSH1 0x2 DUP2 ADD DUP3 SWAP1 SSTORE PUSH1 0x6 SLOAD PUSH1 0x3 SWAP1 SWAP2 ADD SSTORE PUSH2 0x732 PUSH1 0x1 PUSH0 SSTORE JUMP JUMPDEST PUSH2 0x817 PUSH2 0xB63 JUMP JUMPDEST CALLER PUSH0 SWAP1 DUP2 MSTORE PUSH1 0x9 PUSH1 0x20 MSTORE PUSH1 0x40 SWAP1 KECCAK256 SLOAD PUSH2 0x863 JUMPI PUSH1 0x40 MLOAD PUSH3 0x461BCD PUSH1 0xE5 SHL DUP2 MSTORE PUSH1 0x20 PUSH1 0x4 DUP3 ADD MSTORE PUSH1 0xE PUSH1 0x24 DUP3 ADD MSTORE PUSH14 0x139BC81CDD185AD948199BDD5B99 PUSH1 0x92 SHL PUSH1 0x44 DUP3 ADD MSTORE PUSH1 0x64 ADD PUSH2 0x309 JUMP JUMPDEST CALLER PUSH0 SWAP1 DUP2 MSTORE PUSH1 0x9 PUSH1 0x20 MSTORE PUSH1 0x40 SWAP1 KECCAK256 PUSH1 0x2 ADD SLOAD PUSH1 0xFF AND ISZERO PUSH2 0x8C5 JUMPI PUSH1 0x40 MLOAD PUSH3 0x461BCD PUSH1 0xE5 SHL DUP2 MSTORE PUSH1 0x20 PUSH1 0x4 DUP3 ADD MSTORE PUSH1 0x17 PUSH1 0x24 DUP3 ADD MSTORE PUSH32 0x5374616B6520616C72656164792077697468647261776E000000000000000000 PUSH1 0x44 DUP3 ADD MSTORE PUSH1 0x64 ADD PUSH2 0x309 JUMP JUMPDEST PUSH1 0x2 DUP1 SLOAD CALLER PUSH0 DUP2 DUP2 MSTORE PUSH1 0x9 PUSH1 0x20 SWAP1 DUP2 MSTORE PUSH1 0x40 DUP1 DUP4 KECCAK256 DUP1 SLOAD SWAP7 ADD DUP1 SLOAD PUSH2 0xFFFF NOT AND PUSH1 0x1 OR SWAP1 SSTORE DUP1 MLOAD PUSH4 0xA9059CBB PUSH1 0xE0 SHL DUP2 MSTORE PUSH1 0x4 DUP2 ADD SWAP5 SWAP1 SWAP5 MSTORE PUSH1 0x24 DUP5 ADD DUP7 SWAP1 MSTORE MLOAD PUSH1 0x1 PUSH1 0x1 PUSH1 0xA0 SHL SUB SWAP1 SWAP5 AND SWAP5 SWAP4 DUP6 SWAP4 PUSH4 0xA9059CBB SWAP4 PUSH1 0x44 DUP1 DUP4 ADD SWAP5 SWAP4 SWAP3 DUP4 SWAP1 SUB ADD SWAP1 DUP3 SWAP1 DUP8 GAS CALL ISZERO DUP1 ISZERO PUSH2 0x93C JUMPI RETURNDATASIZE PUSH0 DUP1 RETURNDATACOPY RETURNDATASIZE PUSH0 REVERT JUMPDEST POP POP POP POP PUSH1 0x40 MLOAD RETURNDATASIZE PUSH1 0x1F NOT PUSH1 0x1F DUP3 ADD AND DUP3 ADD DUP1 PUSH1 0x40 MSTORE POP DUP2 ADD SWAP1 PUSH2 0x960 SWAP2 SWAP1 PUSH2 0xD20 JUMP JUMPDEST PUSH2 0x99E JUMPI PUSH1 0x40 MLOAD PUSH3 0x461BCD PUSH1 0xE5 SHL DUP2 MSTORE PUSH1 0x20 PUSH1 0x4 DUP3 ADD MSTORE PUSH1 0xF PUSH1 0x24 DUP3 ADD MSTORE PUSH15 0x151C985B9CD9995C8819985A5B1959 PUSH1 0x8A SHL PUSH1 0x44 DUP3 ADD MSTORE PUSH1 0x64 ADD PUSH2 0x309 JUMP JUMPDEST DUP1 PUSH1 0x6 PUSH0 DUP3 DUP3 SLOAD PUSH2 0x9AF SWAP2 SWAP1 PUSH2 0xD91 JUMP JUMPDEST SWAP3 POP POP DUP2 SWAP1 SSTORE POP PUSH1 0x1 PUSH1 0x7 PUSH0 DUP3 DUP3 SLOAD PUSH2 0x9C8 SWAP2 SWAP1 PUSH2 0xD91 JUMP JUMPDEST SWAP1 SWAP2 SSTORE POP POP CALLER PUSH0 SWAP1 DUP2 MSTORE PUSH1 0x9 PUSH1 0x20 DUP2 SWAP1 MSTORE PUSH1 0x40 DUP3 KECCAK256 DUP3 SWAP1 SSTORE DUP2 PUSH2 0x9E8 CALLER SWAP1 JUMP JUMPDEST PUSH1 0x1 PUSH1 0x1 PUSH1 0xA0 SHL SUB AND DUP2 MSTORE PUSH1 0x20 DUP2 ADD SWAP2 SWAP1 SWAP2 MSTORE PUSH1 0x40 ADD PUSH0 KECCAK256 PUSH1 0x1 ADD SSTORE CALLER PUSH1 0x1 PUSH1 0x1 PUSH1 0xA0 SHL SUB AND PUSH32 0x14EED693E6D30152612EE94C12DF593A490178621D3730E516B012E064EEEF8F DUP3 PUSH1 0x40 MLOAD PUSH2 0xA3F SWAP2 DUP2 MSTORE PUSH1 0x20 ADD SWAP1 JUMP JUMPDEST PUSH1 0x40 MLOAD DUP1 SWAP2 SUB SWAP1 LOG2 POP POP PUSH2 0xA52 PUSH1 0x1 PUSH0 SSTORE JUMP JUMPDEST JUMP JUMPDEST PUSH1 0x1 SLOAD PUSH1 0x1 PUSH1 0x1 PUSH1 0xA0 SHL SUB AND CALLER EQ PUSH2 0xA7E JUMPI PUSH1 0x40 MLOAD PUSH3 0x461BCD PUSH1 0xE5 SHL DUP2 MSTORE PUSH1 0x4 ADD PUSH2 0x309 SWAP1 PUSH2 0xCD4 JUMP JUMPDEST PUSH0 DUP2 GT PUSH2 0xA89 JUMPI PUSH0 DUP1 REVERT JUMPDEST PUSH1 0x4 SSTORE JUMP JUMPDEST PUSH0 PUSH2 0xA99 DUP4 DUP4 PUSH2 0xAF5 JUMP JUMPDEST PUSH2 0xAA1 JUMPI PUSH0 DUP1 REVERT JUMPDEST PUSH1 0x1 PUSH1 0x1 PUSH1 0xA0 SHL SUB DUP1 DUP5 AND PUSH0 SWAP1 DUP2 MSTORE PUSH1 0xA PUSH1 0x20 SWAP1 DUP2 MSTORE PUSH1 0x40 DUP1 DUP4 KECCAK256 DUP1 SLOAD PUSH1 0x3 SWAP1 SWAP2 ADD SLOAD SWAP5 DUP8 AND DUP5 MSTORE PUSH1 0x9 SWAP1 SWAP3 MSTORE DUP3 KECCAK256 SLOAD SWAP1 SWAP3 PUSH2 0xADC SWAP2 PUSH2 0xDA4 JUMP JUMPDEST SWAP1 POP PUSH0 PUSH2 0xAE9 DUP4 DUP4 PUSH2 0xDC3 JUMP JUMPDEST SWAP4 POP POP POP POP JUMPDEST SWAP3 SWAP2 POP POP JUMP JUMPDEST PUSH1 0x1 PUSH1 0x1 PUSH1 0xA0 SHL SUB DUP3 AND PUSH0 SWAP1 DUP2 MSTORE PUSH1 0xA PUSH1 0x20 MSTORE PUSH1 0x40 DUP2 KECCAK256 PUSH1 0x4 ADD SLOAD PUSH1 0xFF AND PUSH2 0xB1B JUMPI PUSH0 DUP1 REVERT JUMPDEST PUSH1 0x1 PUSH1 0x1 PUSH1 0xA0 SHL SUB DUP1 DUP5 AND PUSH0 SWAP1 DUP2 MSTORE PUSH1 0xA PUSH1 0x20 SWAP1 DUP2 MSTORE PUSH1 0x40 DUP1 DUP4 KECCAK256 PUSH1 0x1 SWAP1 DUP2 ADD SLOAD PUSH1 0x4 SLOAD SWAP6 DUP9 AND DUP6 MSTORE PUSH1 0x9 SWAP1 SWAP4 MSTORE SWAP3 KECCAK256 SWAP1 SWAP2 ADD SLOAD SWAP1 SWAP2 PUSH2 0xB5A SWAP2 PUSH2 0xD53 JUMP JUMPDEST GT ISZERO SWAP4 SWAP3 POP POP POP JUMP JUMPDEST PUSH1 0x2 PUSH0 SLOAD SUB PUSH2 0xBB4 JUMPI PUSH1 0x40 MLOAD PUSH3 0x461BCD PUSH1 0xE5 SHL DUP2 MSTORE PUSH1 0x20 PUSH1 0x4 DUP3 ADD MSTORE PUSH1 0x1F PUSH1 0x24 DUP3 ADD MSTORE PUSH32 0x5265656E7472616E637947756172643A207265656E7472616E742063616C6C00 PUSH1 0x44 DUP3 ADD MSTORE PUSH1 0x64 ADD PUSH2 0x309 JUMP JUMPDEST PUSH1 0x2 PUSH0 SSTORE JUMP JUMPDEST PUSH0 PUSH1 0x20 DUP3 DUP5 SUB SLT ISZERO PUSH2 0xBCA JUMPI PUSH0 DUP1 REVERT JUMPDEST POP CALLDATALOAD SWAP2 SWAP1 POP JUMP JUMPDEST DUP1 CALLDATALOAD PUSH1 0x1 PUSH1 0x1 PUSH1 0xA0 SHL SUB DUP2 AND DUP2 EQ PUSH2 0xBE7 JUMPI PUSH0 DUP1 REVERT JUMPDEST SWAP2 SWAP1 POP JUMP JUMPDEST PUSH0 DUP1 PUSH1 0x40 DUP4 DUP6 SUB SLT ISZERO PUSH2 0xBFD JUMPI PUSH0 DUP1 REVERT JUMPDEST PUSH2 0xC06 DUP4 PUSH2 0xBD1 JUMP JUMPDEST SWAP2 POP PUSH2 0xC14 PUSH1 0x20 DUP5 ADD PUSH2 0xBD1 JUMP JUMPDEST SWAP1 POP SWAP3 POP SWAP3 SWAP1 POP JUMP JUMPDEST PUSH0 DUP1 PUSH1 0x20 DUP4 DUP6 SUB SLT ISZERO PUSH2 0xC2E JUMPI PUSH0 DUP1 REVERT JUMPDEST DUP3 CALLDATALOAD PUSH8 0xFFFFFFFFFFFFFFFF DUP1 DUP3 GT ISZERO PUSH2 0xC45 JUMPI PUSH0 DUP1 REVERT JUMPDEST DUP2 DUP6 ADD SWAP2 POP DUP6 PUSH1 0x1F DUP4 ADD SLT PUSH2 0xC58 JUMPI PUSH0 DUP1 REVERT JUMPDEST DUP2 CALLDATALOAD DUP2 DUP2 GT ISZERO PUSH2 0xC66 JUMPI PUSH0 DUP1 REVERT JUMPDEST DUP7 PUSH1 0x20 DUP3 PUSH1 0x5 SHL DUP6 ADD ADD GT ISZERO PUSH2 0xC7A JUMPI PUSH0 DUP1 REVERT JUMPDEST PUSH1 0x20 SWAP3 SWAP1 SWAP3 ADD SWAP7 SWAP2 SWAP6 POP SWAP1 SWAP4 POP POP POP POP JUMP JUMPDEST PUSH0 DUP1 PUSH1 0x40 DUP4 DUP6 SUB SLT ISZERO PUSH2 0xC9D JUMPI PUSH0 DUP1 REVERT JUMPDEST PUSH2 0xCA6 DUP4 PUSH2 0xBD1 JUMP JUMPDEST SWAP5 PUSH1 0x20 SWAP4 SWAP1 SWAP4 ADD CALLDATALOAD SWAP4 POP POP POP JUMP JUMPDEST PUSH0 PUSH1 0x20 DUP3 DUP5 SUB SLT ISZERO PUSH2 0xCC4 JUMPI PUSH0 DUP1 REVERT JUMPDEST PUSH2 0xCCD DUP3 PUSH2 0xBD1 JUMP JUMPDEST SWAP4 SWAP3 POP POP POP JUMP JUMPDEST PUSH1 0x20 DUP1 DUP3 MSTORE PUSH1 0x2C SWAP1 DUP3 ADD MSTORE PUSH32 0x4F6E6C79206D756C746953696720616464726573732063616E2063616C6C2074 PUSH1 0x40 DUP3 ADD MSTORE PUSH12 0x3434B990333AB731BA34B7B7 PUSH1 0xA1 SHL PUSH1 0x60 DUP3 ADD MSTORE PUSH1 0x80 ADD SWAP1 JUMP JUMPDEST PUSH0 PUSH1 0x20 DUP3 DUP5 SUB SLT ISZERO PUSH2 0xD30 JUMPI PUSH0 DUP1 REVERT JUMPDEST DUP2 MLOAD DUP1 ISZERO ISZERO DUP2 EQ PUSH2 0xCCD JUMPI PUSH0 DUP1 REVERT JUMPDEST PUSH4 0x4E487B71 PUSH1 0xE0 SHL PUSH0 MSTORE PUSH1 0x11 PUSH1 0x4 MSTORE PUSH1 0x24 PUSH0 REVERT JUMPDEST DUP1 DUP3 ADD DUP1 DUP3 GT ISZERO PUSH2 0xAEF JUMPI PUSH2 0xAEF PUSH2 0xD3F JUMP JUMPDEST PUSH4 0x4E487B71 PUSH1 0xE0 SHL PUSH0 MSTORE PUSH1 0x32 PUSH1 0x4 MSTORE PUSH1 0x24 PUSH0 REVERT JUMPDEST PUSH0 PUSH1 0x20 DUP3 DUP5 SUB SLT ISZERO PUSH2 0xD8A JUMPI PUSH0 DUP1 REVERT JUMPDEST POP MLOAD SWAP2 SWAP1 POP JUMP JUMPDEST DUP2 DUP2 SUB DUP2 DUP2 GT ISZERO PUSH2 0xAEF JUMPI PUSH2 0xAEF PUSH2 0xD3F JUMP JUMPDEST PUSH0 DUP3 PUSH2 0xDBE JUMPI PUSH4 0x4E487B71 PUSH1 0xE0 SHL PUSH0 MSTORE PUSH1 0x12 PUSH1 0x4 MSTORE PUSH1 0x24 PUSH0 REVERT JUMPDEST POP DIV SWAP1 JUMP JUMPDEST DUP1 DUP3 MUL DUP2 ISZERO DUP3 DUP3 DIV DUP5 EQ OR PUSH2 0xAEF JUMPI PUSH2 0xAEF PUSH2 0xD3F JUMP INVALID LOG2 PUSH5 0x6970667358 0x22 SLT KECCAK256 PUSH28 0x8007D07BAB1C03CF8C4E83AE29B887F584D48386CE68E25FB70E86F4 0xCE PUSH1 0x57 PUSH5 0x736F6C6343 STOP ADDMOD NOT STOP CALLER "
				},
				"gasEstimates": {
					"creation": {
						"codeDepositCost": "720000",
						"executionCost": "infinite",
						"totalCost": "infinite"
					},
					"external": {
						"addressWithdrewERC20Reward(address,address)": "infinite",
						"degeneratorStakers()": "2383",
						"degeneratorStakingPool()": "2360",
						"erc20Supplies(address)": "11182",
						"factory()": "2413",
						"getTokenEligibility(address,address)": "infinite",
						"getTokenReward(address,address)": "infinite",
						"minimumStakeAmount()": "2361",
						"multiSigAddress()": "2371",
						"registerERC20Supply(address,uint256)": "infinite",
						"rewardBlackoutPeriod()": "2361",
						"setMinimumStakeAmount(uint256)": "24508",
						"setRewardBlackoutPeriod(uint256)": "24507",
						"stakeDegnerator(uint256)": "infinite",
						"stakingOpen()": "2377",
						"tokenAddress()": "2370",
						"withdrawDegenerator()": "infinite",
						"withdrawRewards(address[])": "infinite"
					}
				},
				"methodIdentifiers": {
					"addressWithdrewERC20Reward(address,address)": "609c878a",
					"degeneratorStakers()": "a163beea",
					"degeneratorStakingPool()": "ad5a402b",
					"erc20Supplies(address)": "caf10b57",
					"factory()": "c45a0155",
					"getTokenEligibility(address,address)": "acde6597",
					"getTokenReward(address,address)": "a164959d",
					"minimumStakeAmount()": "6b036f45",
					"multiSigAddress()": "1516def7",
					"registerERC20Supply(address,uint256)": "8167ee72",
					"rewardBlackoutPeriod()": "9f8932f4",
					"setMinimumStakeAmount(uint256)": "0d29fcd4",
					"setRewardBlackoutPeriod(uint256)": "9b29d215",
					"stakeDegnerator(uint256)": "41fee557",
					"stakingOpen()": "38760298",
					"tokenAddress()": "9d76ea58",
					"withdrawDegenerator()": "95adb5ad",
					"withdrawRewards(address[])": "62d76d06"
				}
			},
			"storageLayout": {
				"storage": [
					{
						"astId": 158,
						"contract": "DegeneratorStaking.sol:DegeneratorStaking",
						"label": "_status",
						"offset": 0,
						"slot": "0",
						"type": "t_uint256"
					},
					{
						"astId": 333,
						"contract": "DegeneratorStaking.sol:DegeneratorStaking",
						"label": "multiSigAddress",
						"offset": 0,
						"slot": "1",
						"type": "t_address"
					},
					{
						"astId": 335,
						"contract": "DegeneratorStaking.sol:DegeneratorStaking",
						"label": "tokenAddress",
						"offset": 0,
						"slot": "2",
						"type": "t_address"
					},
					{
						"astId": 337,
						"contract": "DegeneratorStaking.sol:DegeneratorStaking",
						"label": "minimumStakeAmount",
						"offset": 0,
						"slot": "3",
						"type": "t_uint256"
					},
					{
						"astId": 339,
						"contract": "DegeneratorStaking.sol:DegeneratorStaking",
						"label": "rewardBlackoutPeriod",
						"offset": 0,
						"slot": "4",
						"type": "t_uint256"
					},
					{
						"astId": 342,
						"contract": "DegeneratorStaking.sol:DegeneratorStaking",
						"label": "factory",
						"offset": 0,
						"slot": "5",
						"type": "t_contract(IFairLaunchFactoryV1)1073"
					},
					{
						"astId": 344,
						"contract": "DegeneratorStaking.sol:DegeneratorStaking",
						"label": "degeneratorStakingPool",
						"offset": 0,
						"slot": "6",
						"type": "t_uint256"
					},
					{
						"astId": 346,
						"contract": "DegeneratorStaking.sol:DegeneratorStaking",
						"label": "degeneratorStakers",
						"offset": 0,
						"slot": "7",
						"type": "t_uint256"
					},
					{
						"astId": 348,
						"contract": "DegeneratorStaking.sol:DegeneratorStaking",
						"label": "stakingOpen",
						"offset": 0,
						"slot": "8",
						"type": "t_bool"
					},
					{
						"astId": 411,
						"contract": "DegeneratorStaking.sol:DegeneratorStaking",
						"label": "addressStake",
						"offset": 0,
						"slot": "9",
						"type": "t_mapping(t_address,t_struct(Stake)395_storage)"
					},
					{
						"astId": 416,
						"contract": "DegeneratorStaking.sol:DegeneratorStaking",
						"label": "erc20Supplies",
						"offset": 0,
						"slot": "10",
						"type": "t_mapping(t_address,t_struct(ERC20Supply)406_storage)"
					},
					{
						"astId": 422,
						"contract": "DegeneratorStaking.sol:DegeneratorStaking",
						"label": "addressWithdrewERC20Reward",
						"offset": 0,
						"slot": "11",
						"type": "t_mapping(t_address,t_mapping(t_address,t_bool))"
					}
				],
				"types": {
					"t_address": {
						"encoding": "inplace",
						"label": "address",
						"numberOfBytes": "20"
					},
					"t_bool": {
						"encoding": "inplace",
						"label": "bool",
						"numberOfBytes": "1"
					},
					"t_contract(IFairLaunchFactoryV1)1073": {
						"encoding": "inplace",
						"label": "contract IFairLaunchFactoryV1",
						"numberOfBytes": "20"
					},
					"t_mapping(t_address,t_bool)": {
						"encoding": "mapping",
						"key": "t_address",
						"label": "mapping(address => bool)",
						"numberOfBytes": "32",
						"value": "t_bool"
					},
					"t_mapping(t_address,t_mapping(t_address,t_bool))": {
						"encoding": "mapping",
						"key": "t_address",
						"label": "mapping(address => mapping(address => bool))",
						"numberOfBytes": "32",
						"value": "t_mapping(t_address,t_bool)"
					},
					"t_mapping(t_address,t_struct(ERC20Supply)406_storage)": {
						"encoding": "mapping",
						"key": "t_address",
						"label": "mapping(address => struct DegeneratorStaking.ERC20Supply)",
						"numberOfBytes": "32",
						"value": "t_struct(ERC20Supply)406_storage"
					},
					"t_mapping(t_address,t_struct(Stake)395_storage)": {
						"encoding": "mapping",
						"key": "t_address",
						"label": "mapping(address => struct DegeneratorStaking.Stake)",
						"numberOfBytes": "32",
						"value": "t_struct(Stake)395_storage"
					},
					"t_struct(ERC20Supply)406_storage": {
						"encoding": "inplace",
						"label": "struct DegeneratorStaking.ERC20Supply",
						"members": [
							{
								"astId": 397,
								"contract": "DegeneratorStaking.sol:DegeneratorStaking",
								"label": "poolSupply",
								"offset": 0,
								"slot": "0",
								"type": "t_uint256"
							},
							{
								"astId": 399,
								"contract": "DegeneratorStaking.sol:DegeneratorStaking",
								"label": "blockSupplied",
								"offset": 0,
								"slot": "1",
								"type": "t_uint256"
							},
							{
								"astId": 401,
								"contract": "DegeneratorStaking.sol:DegeneratorStaking",
								"label": "remainingPoolSupply",
								"offset": 0,
								"slot": "2",
								"type": "t_uint256"
							},
							{
								"astId": 403,
								"contract": "DegeneratorStaking.sol:DegeneratorStaking",
								"label": "degeneratorPoolSizeAtTime",
								"offset": 0,
								"slot": "3",
								"type": "t_uint256"
							},
							{
								"astId": 405,
								"contract": "DegeneratorStaking.sol:DegeneratorStaking",
								"label": "registered",
								"offset": 0,
								"slot": "4",
								"type": "t_bool"
							}
						],
						"numberOfBytes": "160"
					},
					"t_struct(Stake)395_storage": {
						"encoding": "inplace",
						"label": "struct DegeneratorStaking.Stake",
						"members": [
							{
								"astId": 388,
								"contract": "DegeneratorStaking.sol:DegeneratorStaking",
								"label": "amount",
								"offset": 0,
								"slot": "0",
								"type": "t_uint256"
							},
							{
								"astId": 390,
								"contract": "DegeneratorStaking.sol:DegeneratorStaking",
								"label": "blockStaked",
								"offset": 0,
								"slot": "1",
								"type": "t_uint256"
							},
							{
								"astId": 392,
								"contract": "DegeneratorStaking.sol:DegeneratorStaking",
								"label": "withdrawn",
								"offset": 0,
								"slot": "2",
								"type": "t_bool"
							},
							{
								"astId": 394,
								"contract": "DegeneratorStaking.sol:DegeneratorStaking",
								"label": "activeDeposit",
								"offset": 1,
								"slot": "2",
								"type": "t_bool"
							}
						],
						"numberOfBytes": "96"
					},
					"t_uint256": {
						"encoding": "inplace",
						"label": "uint256",
						"numberOfBytes": "32"
					}
				}
			},
			"userdoc": {
				"kind": "user",
				"methods": {},
				"version": 1
			}
		}
	}
}