{
	"StakingContract.sol": {
		"DegeneratorStaking": {
			"abi": [
				{
					"inputs": [
						{
							"internalType": "address",
							"name": "_factoryAddress",
							"type": "address"
						},
						{
							"internalType": "address",
							"name": "_multiSigAddress",
							"type": "address"
						},
						{
							"internalType": "address",
							"name": "_tokenAddress",
							"type": "address"
						},
						{
							"internalType": "uint256",
							"name": "_minimumStakeAmount",
							"type": "uint256"
						},
						{
							"internalType": "uint256",
							"name": "_rewardBlackoutPeriod",
							"type": "uint256"
						}
					],
					"stateMutability": "nonpayable",
					"type": "constructor"
				},
				{
					"anonymous": false,
					"inputs": [
						{
							"indexed": true,
							"internalType": "address",
							"name": "staker",
							"type": "address"
						},
						{
							"indexed": false,
							"internalType": "uint256",
							"name": "amount",
							"type": "uint256"
						},
						{
							"indexed": false,
							"internalType": "uint256",
							"name": "blockStaked",
							"type": "uint256"
						}
					],
					"name": "degeneratorStaked",
					"type": "event"
				},
				{
					"anonymous": false,
					"inputs": [
						{
							"indexed": true,
							"internalType": "address",
							"name": "staker",
							"type": "address"
						},
						{
							"indexed": false,
							"internalType": "uint256",
							"name": "amount",
							"type": "uint256"
						}
					],
					"name": "degeneratorWithdrawn",
					"type": "event"
				},
				{
					"inputs": [
						{
							"internalType": "address",
							"name": "",
							"type": "address"
						},
						{
							"internalType": "address",
							"name": "",
							"type": "address"
						}
					],
					"name": "addressWithdrewERC20Reward",
					"outputs": [
						{
							"internalType": "bool",
							"name": "",
							"type": "bool"
						}
					],
					"stateMutability": "view",
					"type": "function"
				},
				{
					"inputs": [],
					"name": "degeneratorStakers",
					"outputs": [
						{
							"internalType": "uint256",
							"name": "",
							"type": "uint256"
						}
					],
					"stateMutability": "view",
					"type": "function"
				},
				{
					"inputs": [],
					"name": "degeneratorStakingPool",
					"outputs": [
						{
							"internalType": "uint256",
							"name": "",
							"type": "uint256"
						}
					],
					"stateMutability": "view",
					"type": "function"
				},
				{
					"inputs": [
						{
							"internalType": "address",
							"name": "",
							"type": "address"
						}
					],
					"name": "erc20Supplies",
					"outputs": [
						{
							"internalType": "uint256",
							"name": "poolSupply",
							"type": "uint256"
						},
						{
							"internalType": "uint256",
							"name": "blockSupplied",
							"type": "uint256"
						},
						{
							"internalType": "uint256",
							"name": "remainingPoolSupply",
							"type": "uint256"
						},
						{
							"internalType": "uint256",
							"name": "degeneratorPoolSizeAtTime",
							"type": "uint256"
						},
						{
							"internalType": "bool",
							"name": "registered",
							"type": "bool"
						}
					],
					"stateMutability": "view",
					"type": "function"
				},
				{
					"inputs": [],
					"name": "factory",
					"outputs": [
						{
							"internalType": "contract IFairLaunchFactoryV1",
							"name": "",
							"type": "address"
						}
					],
					"stateMutability": "view",
					"type": "function"
				},
				{
					"inputs": [],
					"name": "factoryAddress",
					"outputs": [
						{
							"internalType": "address",
							"name": "",
							"type": "address"
						}
					],
					"stateMutability": "view",
					"type": "function"
				},
				{
					"inputs": [
						{
							"internalType": "address",
							"name": "_tokenAddress",
							"type": "address"
						},
						{
							"internalType": "address",
							"name": "_account",
							"type": "address"
						}
					],
					"name": "getTokenEligibility",
					"outputs": [
						{
							"internalType": "bool",
							"name": "",
							"type": "bool"
						}
					],
					"stateMutability": "view",
					"type": "function"
				},
				{
					"inputs": [
						{
							"internalType": "address",
							"name": "_tokenAddress",
							"type": "address"
						},
						{
							"internalType": "address",
							"name": "_account",
							"type": "address"
						}
					],
					"name": "getTokenReward",
					"outputs": [
						{
							"internalType": "uint256",
							"name": "",
							"type": "uint256"
						}
					],
					"stateMutability": "view",
					"type": "function"
				},
				{
					"inputs": [],
					"name": "minimumStakeAmount",
					"outputs": [
						{
							"internalType": "uint256",
							"name": "",
							"type": "uint256"
						}
					],
					"stateMutability": "view",
					"type": "function"
				},
				{
					"inputs": [],
					"name": "multiSigAddress",
					"outputs": [
						{
							"internalType": "address",
							"name": "",
							"type": "address"
						}
					],
					"stateMutability": "view",
					"type": "function"
				},
				{
					"inputs": [
						{
							"internalType": "address",
							"name": "_tokenAddress",
							"type": "address"
						},
						{
							"internalType": "uint256",
							"name": "_poolSupply",
							"type": "uint256"
						}
					],
					"name": "registerERC20Supply",
					"outputs": [],
					"stateMutability": "nonpayable",
					"type": "function"
				},
				{
					"inputs": [],
					"name": "rewardBlackoutPeriod",
					"outputs": [
						{
							"internalType": "uint256",
							"name": "",
							"type": "uint256"
						}
					],
					"stateMutability": "view",
					"type": "function"
				},
				{
					"inputs": [
						{
							"internalType": "uint256",
							"name": "_amount",
							"type": "uint256"
						}
					],
					"name": "setMinimumStakeAmount",
					"outputs": [],
					"stateMutability": "nonpayable",
					"type": "function"
				},
				{
					"inputs": [
						{
							"internalType": "uint256",
							"name": "_length",
							"type": "uint256"
						}
					],
					"name": "setRewardBlackoutPeriod",
					"outputs": [],
					"stateMutability": "nonpayable",
					"type": "function"
				},
				{
					"inputs": [
						{
							"internalType": "uint256",
							"name": "_amount",
							"type": "uint256"
						}
					],
					"name": "stakeDegnerator",
					"outputs": [],
					"stateMutability": "nonpayable",
					"type": "function"
				},
				{
					"inputs": [],
					"name": "tokenAddress",
					"outputs": [
						{
							"internalType": "address",
							"name": "",
							"type": "address"
						}
					],
					"stateMutability": "view",
					"type": "function"
				},
				{
					"inputs": [],
					"name": "withdrawDegenerator",
					"outputs": [],
					"stateMutability": "nonpayable",
					"type": "function"
				},
				{
					"inputs": [
						{
							"internalType": "address[]",
							"name": "_tokenAddresses",
							"type": "address[]"
						}
					],
					"name": "withdrawRewards",
					"outputs": [],
					"stateMutability": "nonpayable",
					"type": "function"
				}
			],
			"devdoc": {
				"kind": "dev",
				"methods": {},
				"version": 1
			},
			"evm": {
				"assembly": "    /* \"StakingContract.sol\":424:5897  contract DegeneratorStaking is Context, ReentrancyGuard {... */\n  mstore(0x40, 0x80)\n    /* \"StakingContract.sol\":1922:2372  constructor(address _factoryAddress, address _multiSigAddress , address _tokenAddress, uint256 _minimumStakeAmount, uint256 _rewardBlackoutPeriod) {... */\n  callvalue\n  dup1\n  iszero\n  tag_1\n  jumpi\n  0x00\n  dup1\n  revert\ntag_1:\n  pop\n  mload(0x40)\n  sub(codesize, bytecodeSize)\n  dup1\n  bytecodeSize\n  dup4\n  codecopy\n  dup2\n  add\n  0x40\n  dup2\n  swap1\n  mstore\n  tag_2\n  swap2\n  tag_3\n  jump\t// in\ntag_2:\n    /* \"@openzeppelin/contracts/security/ReentrancyGuard.sol\":1716:1717  1 */\n  0x01\n    /* \"@openzeppelin/contracts/security/ReentrancyGuard.sol\":1821:1828  _status */\n  0x00\n    /* \"@openzeppelin/contracts/security/ReentrancyGuard.sol\":1821:1843  _status = _NOT_ENTERED */\n  dup2\n  dup2\n  sstore\n    /* \"StakingContract.sol\":2079:2111  factoryAddress = _factoryAddress */\n  dup2\n  sload\n  sub(shl(0xa0, 0x01), 0x01)\n  swap8\n  dup9\n  and\n  not(sub(shl(0xa0, 0x01), 0x01))\n  swap2\n  dup3\n  and\n  or\n  swap1\n  swap3\n  sstore\n    /* \"StakingContract.sol\":2121:2136  multiSigAddress */\n  0x02\n    /* \"StakingContract.sol\":2121:2155  multiSigAddress = _multiSigAddress */\n  dup1\n  sload\n  swap7\n  dup9\n  and\n  swap7\n  dup4\n  and\n  swap7\n  swap1\n  swap7\n  or\n  swap1\n  swap6\n  sstore\n    /* \"StakingContract.sol\":2165:2177  tokenAddress */\n  0x03\n    /* \"StakingContract.sol\":2165:2193  tokenAddress = _tokenAddress */\n  dup1\n  sload\n  swap5\n  swap1\n  swap7\n  and\n  swap4\n  and\n  swap3\n  swap1\n  swap3\n  or\n  swap1\n  swap4\n  sstore\n    /* \"StakingContract.sol\":2203:2223  rewardBlackoutPeriod */\n  0x05\n    /* \"StakingContract.sol\":2203:2247  rewardBlackoutPeriod = _rewardBlackoutPeriod */\n  sstore\n    /* \"StakingContract.sol\":2257:2275  minimumStakeAmount */\n  0x04\n    /* \"StakingContract.sol\":2257:2297  minimumStakeAmount = _minimumStakeAmount */\n  swap2\n  swap1\n  swap2\n  sstore\n    /* \"StakingContract.sol\":2307:2329  degeneratorStakingPool */\n  0x07\n    /* \"StakingContract.sol\":2307:2333  degeneratorStakingPool = 0 */\n  dup2\n  swap1\n  sstore\n    /* \"StakingContract.sol\":2343:2361  degeneratorStakers */\n  0x08\n    /* \"StakingContract.sol\":2343:2365  degeneratorStakers = 0 */\n  sstore\n    /* \"StakingContract.sol\":424:5897  contract DegeneratorStaking is Context, ReentrancyGuard {... */\n  jump(tag_10)\n    /* \"#utility.yul\":14:191   */\ntag_9:\n    /* \"#utility.yul\":93:106   */\n  dup1\n  mload\n  sub(shl(0xa0, 0x01), 0x01)\n    /* \"#utility.yul\":135:166   */\n  dup2\n  and\n    /* \"#utility.yul\":125:167   */\n  dup2\n  eq\n    /* \"#utility.yul\":115:185   */\n  tag_12\n  jumpi\n    /* \"#utility.yul\":181:182   */\n  0x00\n    /* \"#utility.yul\":178:179   */\n  dup1\n    /* \"#utility.yul\":171:183   */\n  revert\n    /* \"#utility.yul\":115:185   */\ntag_12:\n    /* \"#utility.yul\":14:191   */\n  swap2\n  swap1\n  pop\n  jump\t// out\n    /* \"#utility.yul\":196:698   */\ntag_3:\n    /* \"#utility.yul\":302:308   */\n  0x00\n    /* \"#utility.yul\":310:316   */\n  dup1\n    /* \"#utility.yul\":318:324   */\n  0x00\n    /* \"#utility.yul\":326:332   */\n  dup1\n    /* \"#utility.yul\":334:340   */\n  0x00\n    /* \"#utility.yul\":387:390   */\n  0xa0\n    /* \"#utility.yul\":375:384   */\n  dup7\n    /* \"#utility.yul\":366:373   */\n  dup9\n    /* \"#utility.yul\":362:385   */\n  sub\n    /* \"#utility.yul\":358:391   */\n  slt\n    /* \"#utility.yul\":355:408   */\n  iszero\n  tag_14\n  jumpi\n    /* \"#utility.yul\":404:405   */\n  0x00\n    /* \"#utility.yul\":401:402   */\n  dup1\n    /* \"#utility.yul\":394:406   */\n  revert\n    /* \"#utility.yul\":355:408   */\ntag_14:\n    /* \"#utility.yul\":427:467   */\n  tag_15\n    /* \"#utility.yul\":457:466   */\n  dup7\n    /* \"#utility.yul\":427:467   */\n  tag_9\n  jump\t// in\ntag_15:\n    /* \"#utility.yul\":417:467   */\n  swap5\n  pop\n    /* \"#utility.yul\":486:535   */\n  tag_16\n    /* \"#utility.yul\":531:533   */\n  0x20\n    /* \"#utility.yul\":520:529   */\n  dup8\n    /* \"#utility.yul\":516:534   */\n  add\n    /* \"#utility.yul\":486:535   */\n  tag_9\n  jump\t// in\ntag_16:\n    /* \"#utility.yul\":476:535   */\n  swap4\n  pop\n    /* \"#utility.yul\":554:603   */\n  tag_17\n    /* \"#utility.yul\":599:601   */\n  0x40\n    /* \"#utility.yul\":588:597   */\n  dup8\n    /* \"#utility.yul\":584:602   */\n  add\n    /* \"#utility.yul\":554:603   */\n  tag_9\n  jump\t// in\ntag_17:\n    /* \"#utility.yul\":643:645   */\n  0x60\n    /* \"#utility.yul\":628:646   */\n  dup8\n  add\n    /* \"#utility.yul\":622:647   */\n  mload\n    /* \"#utility.yul\":687:690   */\n  0x80\n    /* \"#utility.yul\":672:691   */\n  swap1\n  swap8\n  add\n    /* \"#utility.yul\":666:692   */\n  mload\n    /* \"#utility.yul\":196:698   */\n  swap6\n  swap9\n  swap5\n  swap8\n  pop\n    /* \"#utility.yul\":544:603   */\n  swap6\n    /* \"#utility.yul\":622:647   */\n  swap5\n    /* \"#utility.yul\":666:692   */\n  swap4\n    /* \"#utility.yul\":196:698   */\n  swap3\n  pop\n  pop\n  pop\n  jump\t// out\ntag_10:\n    /* \"StakingContract.sol\":424:5897  contract DegeneratorStaking is Context, ReentrancyGuard {... */\n  dataSize(sub_0)\n  dup1\n  dataOffset(sub_0)\n  0x00\n  codecopy\n  0x00\n  return\nstop\n\nsub_0: assembly {\n        /* \"StakingContract.sol\":424:5897  contract DegeneratorStaking is Context, ReentrancyGuard {... */\n      mstore(0x40, 0x80)\n      callvalue\n      dup1\n      iszero\n      tag_1\n      jumpi\n      0x00\n      dup1\n      revert\n    tag_1:\n      pop\n      jumpi(tag_2, lt(calldatasize, 0x04))\n      shr(0xe0, calldataload(0x00))\n      dup1\n      0x9b29d215\n      gt\n      tag_21\n      jumpi\n      dup1\n      0xa164959d\n      gt\n      tag_22\n      jumpi\n      dup1\n      0xa164959d\n      eq\n      tag_16\n      jumpi\n      dup1\n      0xacde6597\n      eq\n      tag_17\n      jumpi\n      dup1\n      0xad5a402b\n      eq\n      tag_18\n      jumpi\n      dup1\n      0xc45a0155\n      eq\n      tag_19\n      jumpi\n      dup1\n      0xcaf10b57\n      eq\n      tag_20\n      jumpi\n      0x00\n      dup1\n      revert\n    tag_22:\n      dup1\n      0x9b29d215\n      eq\n      tag_12\n      jumpi\n      dup1\n      0x9d76ea58\n      eq\n      tag_13\n      jumpi\n      dup1\n      0x9f8932f4\n      eq\n      tag_14\n      jumpi\n      dup1\n      0xa163beea\n      eq\n      tag_15\n      jumpi\n      0x00\n      dup1\n      revert\n    tag_21:\n      dup1\n      0x62d76d06\n      gt\n      tag_23\n      jumpi\n      dup1\n      0x62d76d06\n      eq\n      tag_7\n      jumpi\n      dup1\n      0x6b036f45\n      eq\n      tag_8\n      jumpi\n      dup1\n      0x8167ee72\n      eq\n      tag_9\n      jumpi\n      dup1\n      0x95adb5ad\n      eq\n      tag_10\n      jumpi\n      dup1\n      0x966dae0e\n      eq\n      tag_11\n      jumpi\n      0x00\n      dup1\n      revert\n    tag_23:\n      dup1\n      0x0d29fcd4\n      eq\n      tag_3\n      jumpi\n      dup1\n      0x1516def7\n      eq\n      tag_4\n      jumpi\n      dup1\n      0x41fee557\n      eq\n      tag_5\n      jumpi\n      dup1\n      0x609c878a\n      eq\n      tag_6\n      jumpi\n    tag_2:\n      0x00\n      dup1\n      revert\n        /* \"StakingContract.sol\":5596:5740  function setMinimumStakeAmount(uint256 _amount) public multiSigOnly {... */\n    tag_3:\n      tag_24\n      tag_25\n      calldatasize\n      0x04\n      tag_26\n      jump\t// in\n    tag_25:\n      tag_27\n      jump\t// in\n    tag_24:\n      stop\n        /* \"StakingContract.sol\":521:551  address public multiSigAddress */\n    tag_4:\n      sload(0x02)\n      tag_28\n      swap1\n      sub(shl(0xa0, 0x01), 0x01)\n      and\n      dup2\n      jump\n    tag_28:\n      mload(0x40)\n      sub(shl(0xa0, 0x01), 0x01)\n        /* \"#utility.yul\":363:395   */\n      swap1\n      swap2\n      and\n        /* \"#utility.yul\":345:396   */\n      dup2\n      mstore\n        /* \"#utility.yul\":333:335   */\n      0x20\n        /* \"#utility.yul\":318:336   */\n      add\n        /* \"StakingContract.sol\":521:551  address public multiSigAddress */\n    tag_30:\n      mload(0x40)\n      dup1\n      swap2\n      sub\n      swap1\n      return\n        /* \"StakingContract.sol\":2378:2994  function stakeDegnerator(uint256 _amount) public nonReentrant {... */\n    tag_5:\n      tag_24\n      tag_33\n      calldatasize\n      0x04\n      tag_26\n      jump\t// in\n    tag_33:\n      tag_34\n      jump\t// in\n        /* \"StakingContract.sol\":1674:1752  mapping(address => mapping(address => bool)) public addressWithdrewERC20Reward */\n    tag_6:\n      tag_35\n      tag_36\n      calldatasize\n      0x04\n      tag_37\n      jump\t// in\n    tag_36:\n      0x0b\n      0x20\n      swap1\n      dup2\n      mstore\n      0x00\n      swap3\n      dup4\n      mstore\n      0x40\n      dup1\n      dup5\n      keccak256\n      swap1\n      swap2\n      mstore\n      swap1\n      dup3\n      mstore\n      swap1\n      keccak256\n      sload\n      0xff\n      and\n      dup2\n      jump\n    tag_35:\n      mload(0x40)\n        /* \"#utility.yul\":1015:1029   */\n      swap1\n      iszero\n        /* \"#utility.yul\":1008:1030   */\n      iszero\n        /* \"#utility.yul\":990:1031   */\n      dup2\n      mstore\n        /* \"#utility.yul\":978:980   */\n      0x20\n        /* \"#utility.yul\":963:981   */\n      add\n        /* \"StakingContract.sol\":1674:1752  mapping(address => mapping(address => bool)) public addressWithdrewERC20Reward */\n      tag_30\n        /* \"#utility.yul\":850:1037   */\n      jump\n        /* \"StakingContract.sol\":4284:4847  function withdrawRewards(address[] calldata _tokenAddresses) public onlyStaker nonReentrant {... */\n    tag_7:\n      tag_24\n      tag_42\n      calldatasize\n      0x04\n      tag_43\n      jump\t// in\n    tag_42:\n      tag_44\n      jump\t// in\n        /* \"StakingContract.sol\":590:623  uint256 public minimumStakeAmount */\n    tag_8:\n      tag_45\n      sload(0x04)\n      dup2\n      jump\n    tag_45:\n      mload(0x40)\n        /* \"#utility.yul\":1808:1833   */\n      swap1\n      dup2\n      mstore\n        /* \"#utility.yul\":1796:1798   */\n      0x20\n        /* \"#utility.yul\":1781:1799   */\n      add\n        /* \"StakingContract.sol\":590:623  uint256 public minimumStakeAmount */\n      tag_30\n        /* \"#utility.yul\":1662:1839   */\n      jump\n        /* \"StakingContract.sol\":3741:4273  function registerERC20Supply(address _tokenAddress, uint256 _poolSupply) public nonReentrant {... */\n    tag_9:\n      tag_24\n      tag_50\n      calldatasize\n      0x04\n      tag_51\n      jump\t// in\n    tag_50:\n      tag_52\n      jump\t// in\n        /* \"StakingContract.sol\":3000:3735  function withdrawDegenerator() public nonReentrant {... */\n    tag_10:\n      tag_24\n      tag_54\n      jump\t// in\n        /* \"StakingContract.sol\":486:515  address public factoryAddress */\n    tag_11:\n      sload(0x01)\n      tag_28\n      swap1\n      sub(shl(0xa0, 0x01), 0x01)\n      and\n      dup2\n      jump\n        /* \"StakingContract.sol\":5746:5894  function setRewardBlackoutPeriod(uint256 _length) public multiSigOnly {... */\n    tag_12:\n      tag_24\n      tag_59\n      calldatasize\n      0x04\n      tag_26\n      jump\t// in\n    tag_59:\n      tag_60\n      jump\t// in\n        /* \"StakingContract.sol\":557:584  address public tokenAddress */\n    tag_13:\n      sload(0x03)\n      tag_28\n      swap1\n      sub(shl(0xa0, 0x01), 0x01)\n      and\n      dup2\n      jump\n        /* \"StakingContract.sol\":629:664  uint256 public rewardBlackoutPeriod */\n    tag_14:\n      tag_45\n      sload(0x05)\n      dup2\n      jump\n        /* \"StakingContract.sol\":755:788  uint256 public degeneratorStakers */\n    tag_15:\n      tag_45\n      sload(0x08)\n      dup2\n      jump\n        /* \"StakingContract.sol\":5142:5590  function getTokenReward(address _tokenAddress, address _account) public view returns(uint256) {... */\n    tag_16:\n      tag_45\n      tag_71\n      calldatasize\n      0x04\n      tag_37\n      jump\t// in\n    tag_71:\n      tag_72\n      jump\t// in\n        /* \"StakingContract.sol\":4853:5136  function getTokenEligibility(address _tokenAddress, address _account) public view returns(bool) {... */\n    tag_17:\n      tag_35\n      tag_75\n      calldatasize\n      0x04\n      tag_37\n      jump\t// in\n    tag_75:\n      tag_76\n      jump\t// in\n        /* \"StakingContract.sol\":712:749  uint256 public degeneratorStakingPool */\n    tag_18:\n      tag_45\n      sload(0x07)\n      dup2\n      jump\n        /* \"StakingContract.sol\":670:705  IFairLaunchFactoryV1 public factory */\n    tag_19:\n      sload(0x06)\n      tag_28\n      swap1\n      sub(shl(0xa0, 0x01), 0x01)\n      and\n      dup2\n      jump\n        /* \"StakingContract.sol\":1616:1668  mapping(address => ERC20Supply) public erc20Supplies */\n    tag_20:\n      tag_85\n      tag_86\n      calldatasize\n      0x04\n      tag_87\n      jump\t// in\n    tag_86:\n      mstore(0x20, 0x0a)\n      0x00\n      swap1\n      dup2\n      mstore\n      0x40\n      swap1\n      keccak256\n      dup1\n      sload\n      0x01\n      dup3\n      add\n      sload\n      0x02\n      dup4\n      add\n      sload\n      0x03\n      dup5\n      add\n      sload\n      0x04\n      swap1\n      swap5\n      add\n      sload\n      swap3\n      swap4\n      swap2\n      swap3\n      swap1\n      swap2\n      swap1\n      0xff\n      and\n      dup6\n      jump\n    tag_85:\n      0x40\n      dup1\n      mload\n        /* \"#utility.yul\":2783:2808   */\n      swap6\n      dup7\n      mstore\n        /* \"#utility.yul\":2839:2841   */\n      0x20\n        /* \"#utility.yul\":2824:2842   */\n      dup7\n      add\n        /* \"#utility.yul\":2817:2851   */\n      swap5\n      swap1\n      swap5\n      mstore\n        /* \"#utility.yul\":2867:2885   */\n      swap3\n      dup5\n      add\n        /* \"#utility.yul\":2860:2894   */\n      swap2\n      swap1\n      swap2\n      mstore\n        /* \"#utility.yul\":2925:2927   */\n      0x60\n        /* \"#utility.yul\":2910:2928   */\n      dup4\n      add\n        /* \"#utility.yul\":2903:2937   */\n      mstore\n        /* \"#utility.yul\":2981:2995   */\n      iszero\n        /* \"#utility.yul\":2974:2996   */\n      iszero\n        /* \"#utility.yul\":2968:2971   */\n      0x80\n        /* \"#utility.yul\":2953:2972   */\n      dup3\n      add\n        /* \"#utility.yul\":2946:2997   */\n      mstore\n        /* \"#utility.yul\":2770:2773   */\n      0xa0\n        /* \"#utility.yul\":2755:2774   */\n      add\n        /* \"StakingContract.sol\":1616:1668  mapping(address => ERC20Supply) public erc20Supplies */\n      tag_30\n        /* \"#utility.yul\":2530:3003   */\n      jump\n        /* \"StakingContract.sol\":5596:5740  function setMinimumStakeAmount(uint256 _amount) public multiSigOnly {... */\n    tag_27:\n        /* \"StakingContract.sol\":1110:1125  multiSigAddress */\n      and(sub(shl(0xa0, 0x01), 0x01), sload(0x02))\n        /* \"StakingContract.sol\":1096:1106  msg.sender */\n      caller\n        /* \"StakingContract.sol\":1096:1125  msg.sender == multiSigAddress */\n      eq\n        /* \"StakingContract.sol\":1088:1174  require(msg.sender == multiSigAddress, \"Only multiSig address can call this function\") */\n      tag_92\n      jumpi\n      mload(0x40)\n      shl(0xe5, 0x461bcd)\n      dup2\n      mstore\n      0x04\n      add\n      tag_93\n      swap1\n      tag_94\n      jump\t// in\n    tag_93:\n      mload(0x40)\n      dup1\n      swap2\n      sub\n      swap1\n      revert\n    tag_92:\n        /* \"StakingContract.sol\":5692:5693  0 */\n      0x00\n        /* \"StakingContract.sol\":5682:5689  _amount */\n      dup2\n        /* \"StakingContract.sol\":5682:5693  _amount > 0 */\n      gt\n        /* \"StakingContract.sol\":5674:5694  require(_amount > 0) */\n      tag_96\n      jumpi\n      0x00\n      dup1\n      revert\n    tag_96:\n        /* \"StakingContract.sol\":5705:5723  minimumStakeAmount */\n      0x04\n        /* \"StakingContract.sol\":5705:5733  minimumStakeAmount = _amount */\n      sstore\n        /* \"StakingContract.sol\":5596:5740  function setMinimumStakeAmount(uint256 _amount) public multiSigOnly {... */\n      jump\t// out\n        /* \"StakingContract.sol\":2378:2994  function stakeDegnerator(uint256 _amount) public nonReentrant {... */\n    tag_34:\n        /* \"@openzeppelin/contracts/security/ReentrancyGuard.sol\":2261:2282  _nonReentrantBefore() */\n      tag_98\n        /* \"@openzeppelin/contracts/security/ReentrancyGuard.sol\":2261:2280  _nonReentrantBefore */\n      tag_99\n        /* \"@openzeppelin/contracts/security/ReentrancyGuard.sol\":2261:2282  _nonReentrantBefore() */\n      jump\t// in\n    tag_98:\n        /* \"StakingContract.sol\":2472:2484  tokenAddress */\n      sload(0x03)\n        /* \"StakingContract.sol\":2513:2531  minimumStakeAmount */\n      sload(0x04)\n      sub(shl(0xa0, 0x01), 0x01)\n        /* \"StakingContract.sol\":2472:2484  tokenAddress */\n      swap1\n      swap2\n      and\n      swap1\n        /* \"StakingContract.sol\":2503:2531  _amount > minimumStakeAmount */\n      dup3\n      gt\n        /* \"StakingContract.sol\":2495:2568  require(_amount > minimumStakeAmount, \"Amount must be greater than zero\") */\n      tag_101\n      jumpi\n      mload(0x40)\n      shl(0xe5, 0x461bcd)\n      dup2\n      mstore\n        /* \"#utility.yul\":3623:3625   */\n      0x20\n        /* \"StakingContract.sol\":2495:2568  require(_amount > minimumStakeAmount, \"Amount must be greater than zero\") */\n      0x04\n      dup3\n      add\n        /* \"#utility.yul\":3605:3626   */\n      dup2\n      swap1\n      mstore\n        /* \"#utility.yul\":3642:3660   */\n      0x24\n      dup3\n      add\n        /* \"#utility.yul\":3635:3665   */\n      mstore\n        /* \"#utility.yul\":3701:3735   */\n      0x416d6f756e74206d7573742062652067726561746572207468616e207a65726f\n        /* \"#utility.yul\":3681:3699   */\n      0x44\n      dup3\n      add\n        /* \"#utility.yul\":3674:3736   */\n      mstore\n        /* \"#utility.yul\":3753:3771   */\n      0x64\n      add\n        /* \"StakingContract.sol\":2495:2568  require(_amount > minimumStakeAmount, \"Amount must be greater than zero\") */\n      tag_93\n        /* \"#utility.yul\":3421:3777   */\n      jump\n        /* \"StakingContract.sol\":2495:2568  require(_amount > minimumStakeAmount, \"Amount must be greater than zero\") */\n    tag_101:\n      sub(shl(0xa0, 0x01), 0x01)\n        /* \"StakingContract.sol\":2586:2604  token.transferFrom */\n      dup2\n      and\n      0x23b872dd\n        /* \"@openzeppelin/contracts/utils/Context.sol\":735:745  msg.sender */\n      caller\n        /* \"StakingContract.sol\":2586:2642  token.transferFrom(_msgSender(), address(this), _amount) */\n      mload(0x40)\n      not(sub(shl(0xe0, 0x01), 0x01))\n      0xe0\n      dup5\n      swap1\n      shl\n      and\n      dup2\n      mstore\n      sub(shl(0xa0, 0x01), 0x01)\n        /* \"#utility.yul\":4040:4055   */\n      swap1\n      swap2\n      and\n        /* \"StakingContract.sol\":2586:2642  token.transferFrom(_msgSender(), address(this), _amount) */\n      0x04\n      dup3\n      add\n        /* \"#utility.yul\":4022:4056   */\n      mstore\n        /* \"StakingContract.sol\":2627:2631  this */\n      address\n        /* \"#utility.yul\":4072:4090   */\n      0x24\n      dup3\n      add\n        /* \"#utility.yul\":4065:4108   */\n      mstore\n        /* \"#utility.yul\":4124:4142   */\n      0x44\n      dup2\n      add\n        /* \"#utility.yul\":4117:4151   */\n      dup6\n      swap1\n      mstore\n        /* \"#utility.yul\":3957:3975   */\n      0x64\n      add\n        /* \"StakingContract.sol\":2586:2642  token.transferFrom(_msgSender(), address(this), _amount) */\n      0x20\n      mload(0x40)\n      dup1\n      dup4\n      sub\n      dup2\n      0x00\n      dup8\n      gas\n      call\n      iszero\n      dup1\n      iszero\n      tag_109\n      jumpi\n      returndatasize\n      0x00\n      dup1\n      returndatacopy\n      revert(0x00, returndatasize)\n    tag_109:\n      pop\n      pop\n      pop\n      pop\n      mload(0x40)\n      returndatasize\n      not(0x1f)\n      0x1f\n      dup3\n      add\n      and\n      dup3\n      add\n      dup1\n      0x40\n      mstore\n      pop\n      dup2\n      add\n      swap1\n      tag_110\n      swap2\n      swap1\n      tag_111\n      jump\t// in\n    tag_110:\n        /* \"StakingContract.sol\":2578:2662  require(token.transferFrom(_msgSender(), address(this), _amount), \"Transfer failed\") */\n      tag_112\n      jumpi\n      mload(0x40)\n      shl(0xe5, 0x461bcd)\n      dup2\n      mstore\n        /* \"#utility.yul\":4646:4648   */\n      0x20\n        /* \"StakingContract.sol\":2578:2662  require(token.transferFrom(_msgSender(), address(this), _amount), \"Transfer failed\") */\n      0x04\n      dup3\n      add\n        /* \"#utility.yul\":4628:4649   */\n      mstore\n        /* \"#utility.yul\":4685:4687   */\n      0x0f\n        /* \"#utility.yul\":4665:4683   */\n      0x24\n      dup3\n      add\n        /* \"#utility.yul\":4658:4688   */\n      mstore\n      shl(0x8a, 0x151c985b9cd9995c8819985a5b1959)\n        /* \"#utility.yul\":4704:4722   */\n      0x44\n      dup3\n      add\n        /* \"#utility.yul\":4697:4742   */\n      mstore\n        /* \"#utility.yul\":4759:4777   */\n      0x64\n      add\n        /* \"StakingContract.sol\":2578:2662  require(token.transferFrom(_msgSender(), address(this), _amount), \"Transfer failed\") */\n      tag_93\n        /* \"#utility.yul\":4444:4783   */\n      jump\n        /* \"StakingContract.sol\":2578:2662  require(token.transferFrom(_msgSender(), address(this), _amount), \"Transfer failed\") */\n    tag_112:\n        /* \"@openzeppelin/contracts/utils/Context.sol\":735:745  msg.sender */\n      caller\n        /* \"StakingContract.sol\":2681:2707  addressStake[_msgSender()] */\n      0x00\n      swap1\n      dup2\n      mstore\n        /* \"StakingContract.sol\":2681:2693  addressStake */\n      0x09\n        /* \"StakingContract.sol\":2681:2707  addressStake[_msgSender()] */\n      0x20\n      mstore\n      0x40\n      swap1\n      keccak256\n        /* \"StakingContract.sol\":2681:2721  addressStake[_msgSender()].activeDeposit */\n      0x02\n      add\n      sload\n      0x0100\n      swap1\n      div\n      0xff\n      and\n        /* \"StakingContract.sol\":2680:2721  !addressStake[_msgSender()].activeDeposit */\n      iszero\n        /* \"StakingContract.sol\":2672:2722  require(!addressStake[_msgSender()].activeDeposit) */\n      tag_116\n      jumpi\n      0x00\n      dup1\n      revert\n    tag_116:\n        /* \"@openzeppelin/contracts/utils/Context.sol\":735:745  msg.sender */\n      caller\n        /* \"StakingContract.sol\":2733:2759  addressStake[_msgSender()] */\n      0x00\n      swap1\n      dup2\n      mstore\n        /* \"StakingContract.sol\":2733:2745  addressStake */\n      0x09\n        /* \"StakingContract.sol\":2733:2759  addressStake[_msgSender()] */\n      0x20\n      mstore\n      0x40\n      dup2\n      keccak256\n        /* \"StakingContract.sol\":2733:2777  addressStake[_msgSender()].amount += _amount */\n      dup1\n      sload\n        /* \"StakingContract.sol\":2770:2777  _amount */\n      dup5\n      swap3\n        /* \"StakingContract.sol\":2733:2759  addressStake[_msgSender()] */\n      swap1\n        /* \"StakingContract.sol\":2733:2777  addressStake[_msgSender()].amount += _amount */\n      tag_118\n      swap1\n        /* \"StakingContract.sol\":2770:2777  _amount */\n      dup5\n      swap1\n        /* \"StakingContract.sol\":2733:2777  addressStake[_msgSender()].amount += _amount */\n      tag_119\n      jump\t// in\n    tag_118:\n      swap1\n      swap2\n      sstore\n      pop\n      pop\n        /* \"@openzeppelin/contracts/utils/Context.sol\":735:745  msg.sender */\n      caller\n        /* \"StakingContract.sol\":2787:2813  addressStake[_msgSender()] */\n      0x00\n      swap1\n      dup2\n      mstore\n        /* \"StakingContract.sol\":2787:2799  addressStake */\n      0x09\n        /* \"StakingContract.sol\":2787:2813  addressStake[_msgSender()] */\n      0x20\n      mstore\n      0x40\n      dup2\n      keccak256\n        /* \"StakingContract.sol\":2828:2840  block.number */\n      number\n        /* \"StakingContract.sol\":2787:2825  addressStake[_msgSender()].blockStaked */\n      0x01\n      swap1\n      swap2\n      add\n        /* \"StakingContract.sol\":2787:2840  addressStake[_msgSender()].blockStaked = block.number */\n      sstore\n        /* \"StakingContract.sol\":2850:2872  degeneratorStakingPool */\n      0x07\n        /* \"StakingContract.sol\":2850:2883  degeneratorStakingPool += _amount */\n      dup1\n      sload\n        /* \"StakingContract.sol\":2876:2883  _amount */\n      dup5\n      swap3\n        /* \"StakingContract.sol\":2787:2813  addressStake[_msgSender()] */\n      swap1\n        /* \"StakingContract.sol\":2850:2883  degeneratorStakingPool += _amount */\n      tag_121\n      swap1\n        /* \"StakingContract.sol\":2876:2883  _amount */\n      dup5\n      swap1\n        /* \"StakingContract.sol\":2850:2883  degeneratorStakingPool += _amount */\n      tag_119\n      jump\t// in\n    tag_121:\n      swap3\n      pop\n      pop\n      dup2\n      swap1\n      sstore\n      pop\n        /* \"StakingContract.sol\":2915:2916  1 */\n      0x01\n        /* \"StakingContract.sol\":2893:2911  degeneratorStakers */\n      0x08\n      0x00\n        /* \"StakingContract.sol\":2893:2916  degeneratorStakers += 1 */\n      dup3\n      dup3\n      sload\n      tag_122\n      swap2\n      swap1\n      tag_119\n      jump\t// in\n    tag_122:\n      swap1\n      swap2\n      sstore\n      pop\n      pop\n        /* \"StakingContract.sol\":2932:2986  degeneratorStaked(_msgSender(), _amount, block.number) */\n      0x40\n      dup1\n      mload\n        /* \"#utility.yul\":5224:5249   */\n      dup4\n      dup2\n      mstore\n        /* \"StakingContract.sol\":2973:2985  block.number */\n      number\n        /* \"#utility.yul\":5280:5282   */\n      0x20\n        /* \"#utility.yul\":5265:5283   */\n      dup3\n      add\n        /* \"#utility.yul\":5258:5292   */\n      mstore\n        /* \"@openzeppelin/contracts/utils/Context.sol\":735:745  msg.sender */\n      caller\n      swap2\n        /* \"StakingContract.sol\":2932:2986  degeneratorStaked(_msgSender(), _amount, block.number) */\n      0x0ae860169ef88b6e5a084a54675af932ac7be23de4abd34a1d99a5a8402a17cc\n      swap2\n        /* \"#utility.yul\":5197:5215   */\n      add\n        /* \"StakingContract.sol\":2932:2986  degeneratorStaked(_msgSender(), _amount, block.number) */\n      mload(0x40)\n      dup1\n      swap2\n      sub\n      swap1\n      log2\n        /* \"StakingContract.sol\":2440:2994  {... */\n      pop\n        /* \"@openzeppelin/contracts/security/ReentrancyGuard.sol\":2303:2323  _nonReentrantAfter() */\n      tag_126\n        /* \"@openzeppelin/contracts/security/ReentrancyGuard.sol\":1716:1717  1 */\n      0x01\n        /* \"@openzeppelin/contracts/security/ReentrancyGuard.sol\":2809:2816  _status */\n      0x00\n        /* \"@openzeppelin/contracts/security/ReentrancyGuard.sol\":2809:2831  _status = _NOT_ENTERED */\n      sstore\n        /* \"@openzeppelin/contracts/security/ReentrancyGuard.sol\":2629:2838  function _nonReentrantAfter() private {... */\n      jump\n        /* \"@openzeppelin/contracts/security/ReentrancyGuard.sol\":2303:2323  _nonReentrantAfter() */\n    tag_126:\n        /* \"StakingContract.sol\":2378:2994  function stakeDegnerator(uint256 _amount) public nonReentrant {... */\n      pop\n      jump\t// out\n        /* \"StakingContract.sol\":4284:4847  function withdrawRewards(address[] calldata _tokenAddresses) public onlyStaker nonReentrant {... */\n    tag_44:\n        /* \"StakingContract.sol\":852:862  msg.sender */\n      caller\n        /* \"StakingContract.sol\":839:863  addressStake[msg.sender] */\n      0x00\n      swap1\n      dup2\n      mstore\n        /* \"StakingContract.sol\":839:851  addressStake */\n      0x09\n        /* \"StakingContract.sol\":839:863  addressStake[msg.sender] */\n      0x20\n      mstore\n      0x40\n      swap1\n      keccak256\n        /* \"StakingContract.sol\":839:877  addressStake[msg.sender].activeDeposit */\n      0x02\n      add\n      sload\n      0x0100\n      swap1\n      div\n      0xff\n      and\n        /* \"StakingContract.sol\":831:878  require(addressStake[msg.sender].activeDeposit) */\n      tag_129\n      jumpi\n      0x00\n      dup1\n      revert\n    tag_129:\n        /* \"@openzeppelin/contracts/security/ReentrancyGuard.sol\":2261:2282  _nonReentrantBefore() */\n      tag_131\n        /* \"@openzeppelin/contracts/security/ReentrancyGuard.sol\":2261:2280  _nonReentrantBefore */\n      tag_99\n        /* \"@openzeppelin/contracts/security/ReentrancyGuard.sol\":2261:2282  _nonReentrantBefore() */\n      jump\t// in\n    tag_131:\n        /* \"StakingContract.sol\":4391:4400  uint256 i */\n      0x00\n        /* \"StakingContract.sol\":4386:4841  for (uint256 i = 0; i < _tokenAddresses.length; i++) {... */\n    tag_133:\n        /* \"StakingContract.sol\":4406:4432  i < _tokenAddresses.length */\n      dup2\n      dup2\n      lt\n        /* \"StakingContract.sol\":4386:4841  for (uint256 i = 0; i < _tokenAddresses.length; i++) {... */\n      iszero\n      tag_134\n      jumpi\n        /* \"StakingContract.sol\":4461:4512  getTokenEligibility(_tokenAddresses[i], msg.sender) */\n      tag_136\n        /* \"StakingContract.sol\":4481:4496  _tokenAddresses */\n      dup4\n      dup4\n        /* \"StakingContract.sol\":4497:4498  i */\n      dup4\n        /* \"StakingContract.sol\":4481:4499  _tokenAddresses[i] */\n      dup2\n      dup2\n      lt\n      tag_138\n      jumpi\n      tag_138\n      tag_139\n      jump\t// in\n    tag_138:\n      swap1\n      pop\n      0x20\n      mul\n      add\n      0x20\n      dup2\n      add\n      swap1\n      tag_140\n      swap2\n      swap1\n      tag_87\n      jump\t// in\n    tag_140:\n        /* \"StakingContract.sol\":4501:4511  msg.sender */\n      caller\n        /* \"StakingContract.sol\":4461:4480  getTokenEligibility */\n      tag_76\n        /* \"StakingContract.sol\":4461:4512  getTokenEligibility(_tokenAddresses[i], msg.sender) */\n      jump\t// in\n    tag_136:\n        /* \"StakingContract.sol\":4453:4513  require(getTokenEligibility(_tokenAddresses[i], msg.sender)) */\n      tag_141\n      jumpi\n      0x00\n      dup1\n      revert\n    tag_141:\n        /* \"StakingContract.sol\":4536:4562  addressWithdrewERC20Reward */\n      0x0b\n        /* \"StakingContract.sol\":4536:4582  addressWithdrewERC20Reward[_tokenAddresses[i]] */\n      0x00\n        /* \"StakingContract.sol\":4563:4578  _tokenAddresses */\n      dup5\n      dup5\n        /* \"StakingContract.sol\":4579:4580  i */\n      dup5\n        /* \"StakingContract.sol\":4563:4581  _tokenAddresses[i] */\n      dup2\n      dup2\n      lt\n      tag_143\n      jumpi\n      tag_143\n      tag_139\n      jump\t// in\n    tag_143:\n      swap1\n      pop\n      0x20\n      mul\n      add\n      0x20\n      dup2\n      add\n      swap1\n      tag_144\n      swap2\n      swap1\n      tag_87\n      jump\t// in\n    tag_144:\n      sub(shl(0xa0, 0x01), 0x01)\n        /* \"StakingContract.sol\":4536:4582  addressWithdrewERC20Reward[_tokenAddresses[i]] */\n      and\n      dup2\n      mstore\n      0x20\n      dup1\n      dup3\n      add\n      swap3\n      swap1\n      swap3\n      mstore\n      0x40\n      swap1\n      dup2\n      add\n      0x00\n      swap1\n      dup2\n      keccak256\n        /* \"StakingContract.sol\":4583:4593  msg.sender */\n      caller\n        /* \"StakingContract.sol\":4536:4594  addressWithdrewERC20Reward[_tokenAddresses[i]][msg.sender] */\n      dup3\n      mstore\n      swap1\n      swap3\n      mstore\n      swap1\n      keccak256\n      sload\n      0xff\n      and\n        /* \"StakingContract.sol\":4535:4594  !addressWithdrewERC20Reward[_tokenAddresses[i]][msg.sender] */\n      iszero\n        /* \"StakingContract.sol\":4527:4595  require(!addressWithdrewERC20Reward[_tokenAddresses[i]][msg.sender]) */\n      tag_145\n      jumpi\n      0x00\n      dup1\n      revert\n    tag_145:\n        /* \"StakingContract.sol\":4609:4628  uint256 tokenReward */\n      0x00\n        /* \"StakingContract.sol\":4631:4677  getTokenReward(_tokenAddresses[i], msg.sender) */\n      tag_146\n        /* \"StakingContract.sol\":4646:4661  _tokenAddresses */\n      dup5\n      dup5\n        /* \"StakingContract.sol\":4662:4663  i */\n      dup5\n        /* \"StakingContract.sol\":4646:4664  _tokenAddresses[i] */\n      dup2\n      dup2\n      lt\n      tag_148\n      jumpi\n      tag_148\n      tag_139\n      jump\t// in\n    tag_148:\n      swap1\n      pop\n      0x20\n      mul\n      add\n      0x20\n      dup2\n      add\n      swap1\n      tag_149\n      swap2\n      swap1\n      tag_87\n      jump\t// in\n    tag_149:\n        /* \"StakingContract.sol\":4666:4676  msg.sender */\n      caller\n        /* \"StakingContract.sol\":4631:4645  getTokenReward */\n      tag_72\n        /* \"StakingContract.sol\":4631:4677  getTokenReward(_tokenAddresses[i], msg.sender) */\n      jump\t// in\n    tag_146:\n        /* \"StakingContract.sol\":4609:4677  uint256 tokenReward = getTokenReward(_tokenAddresses[i], msg.sender) */\n      swap1\n      pop\n        /* \"StakingContract.sol\":4752:4756  true */\n      0x01\n        /* \"StakingContract.sol\":4691:4717  addressWithdrewERC20Reward */\n      0x0b\n        /* \"StakingContract.sol\":4691:4737  addressWithdrewERC20Reward[_tokenAddresses[i]] */\n      0x00\n        /* \"StakingContract.sol\":4718:4733  _tokenAddresses */\n      dup7\n      dup7\n        /* \"StakingContract.sol\":4734:4735  i */\n      dup7\n        /* \"StakingContract.sol\":4718:4736  _tokenAddresses[i] */\n      dup2\n      dup2\n      lt\n      tag_151\n      jumpi\n      tag_151\n      tag_139\n      jump\t// in\n    tag_151:\n      swap1\n      pop\n      0x20\n      mul\n      add\n      0x20\n      dup2\n      add\n      swap1\n      tag_152\n      swap2\n      swap1\n      tag_87\n      jump\t// in\n    tag_152:\n      sub(shl(0xa0, 0x01), 0x01)\n        /* \"StakingContract.sol\":4691:4737  addressWithdrewERC20Reward[_tokenAddresses[i]] */\n      and\n      dup2\n      mstore\n      0x20\n      dup1\n      dup3\n      add\n      swap3\n      swap1\n      swap3\n      mstore\n      0x40\n      swap1\n      dup2\n      add\n      0x00\n      swap1\n      dup2\n      keccak256\n        /* \"StakingContract.sol\":4738:4748  msg.sender */\n      caller\n        /* \"StakingContract.sol\":4691:4749  addressWithdrewERC20Reward[_tokenAddresses[i]][msg.sender] */\n      dup3\n      mstore\n      swap1\n      swap3\n      mstore\n      swap1\n      keccak256\n        /* \"StakingContract.sol\":4691:4756  addressWithdrewERC20Reward[_tokenAddresses[i]][msg.sender] = true */\n      dup1\n      sload\n      not(0xff)\n      and\n      swap2\n      iszero\n      iszero\n      swap2\n      swap1\n      swap2\n      or\n      swap1\n      sstore\n        /* \"StakingContract.sol\":4777:4792  _tokenAddresses */\n      dup4\n      dup4\n        /* \"StakingContract.sol\":4793:4794  i */\n      dup4\n        /* \"StakingContract.sol\":4777:4795  _tokenAddresses[i] */\n      dup2\n      dup2\n      lt\n      tag_154\n      jumpi\n      tag_154\n      tag_139\n      jump\t// in\n    tag_154:\n      swap1\n      pop\n      0x20\n      mul\n      add\n      0x20\n      dup2\n      add\n      swap1\n      tag_155\n      swap2\n      swap1\n      tag_87\n      jump\t// in\n    tag_155:\n        /* \"StakingContract.sol\":4770:4830  IERC20(_tokenAddresses[i]).transfer(msg.sender, tokenReward) */\n      mload(0x40)\n      shl(0xe0, 0xa9059cbb)\n      dup2\n      mstore\n        /* \"StakingContract.sol\":4806:4816  msg.sender */\n      caller\n        /* \"StakingContract.sol\":4770:4830  IERC20(_tokenAddresses[i]).transfer(msg.sender, tokenReward) */\n      0x04\n      dup3\n      add\n        /* \"#utility.yul\":5609:5660   */\n      mstore\n        /* \"#utility.yul\":5676:5694   */\n      0x24\n      dup2\n      add\n        /* \"#utility.yul\":5669:5703   */\n      dup4\n      swap1\n      mstore\n      sub(shl(0xa0, 0x01), 0x01)\n        /* \"StakingContract.sol\":4770:4805  IERC20(_tokenAddresses[i]).transfer */\n      swap2\n      swap1\n      swap2\n      and\n      swap1\n      0xa9059cbb\n      swap1\n        /* \"#utility.yul\":5582:5600   */\n      0x44\n      add\n        /* \"StakingContract.sol\":4770:4830  IERC20(_tokenAddresses[i]).transfer(msg.sender, tokenReward) */\n      0x20\n      mload(0x40)\n      dup1\n      dup4\n      sub\n      dup2\n      0x00\n      dup8\n      gas\n      call\n      iszero\n      dup1\n      iszero\n      tag_159\n      jumpi\n      returndatasize\n      0x00\n      dup1\n      returndatacopy\n      revert(0x00, returndatasize)\n    tag_159:\n      pop\n      pop\n      pop\n      pop\n      mload(0x40)\n      returndatasize\n      not(0x1f)\n      0x1f\n      dup3\n      add\n      and\n      dup3\n      add\n      dup1\n      0x40\n      mstore\n      pop\n      dup2\n      add\n      swap1\n      tag_160\n      swap2\n      swap1\n      tag_111\n      jump\t// in\n    tag_160:\n      pop\n      pop\n        /* \"StakingContract.sol\":4434:4437  i++ */\n      0x01\n      add\n        /* \"StakingContract.sol\":4386:4841  for (uint256 i = 0; i < _tokenAddresses.length; i++) {... */\n      jump(tag_133)\n    tag_134:\n      pop\n        /* \"@openzeppelin/contracts/security/ReentrancyGuard.sol\":2303:2323  _nonReentrantAfter() */\n      tag_161\n        /* \"@openzeppelin/contracts/security/ReentrancyGuard.sol\":1716:1717  1 */\n      0x01\n        /* \"@openzeppelin/contracts/security/ReentrancyGuard.sol\":2809:2816  _status */\n      0x00\n        /* \"@openzeppelin/contracts/security/ReentrancyGuard.sol\":2809:2831  _status = _NOT_ENTERED */\n      sstore\n        /* \"@openzeppelin/contracts/security/ReentrancyGuard.sol\":2629:2838  function _nonReentrantAfter() private {... */\n      jump\n        /* \"@openzeppelin/contracts/security/ReentrancyGuard.sol\":2303:2323  _nonReentrantAfter() */\n    tag_161:\n        /* \"StakingContract.sol\":4284:4847  function withdrawRewards(address[] calldata _tokenAddresses) public onlyStaker nonReentrant {... */\n      pop\n      pop\n      jump\t// out\n        /* \"StakingContract.sol\":3741:4273  function registerERC20Supply(address _tokenAddress, uint256 _poolSupply) public nonReentrant {... */\n    tag_52:\n        /* \"@openzeppelin/contracts/security/ReentrancyGuard.sol\":2261:2282  _nonReentrantBefore() */\n      tag_163\n        /* \"@openzeppelin/contracts/security/ReentrancyGuard.sol\":2261:2280  _nonReentrantBefore */\n      tag_99\n        /* \"@openzeppelin/contracts/security/ReentrancyGuard.sol\":2261:2282  _nonReentrantBefore() */\n      jump\t// in\n    tag_163:\n        /* \"StakingContract.sol\":3852:3898  IERC20(_tokenAddress).balanceOf(address(this)) */\n      mload(0x40)\n      shl(0xe0, 0x70a08231)\n      dup2\n      mstore\n        /* \"StakingContract.sol\":3892:3896  this */\n      address\n        /* \"StakingContract.sol\":3852:3898  IERC20(_tokenAddress).balanceOf(address(this)) */\n      0x04\n      dup3\n      add\n        /* \"#utility.yul\":345:396   */\n      mstore\n        /* \"StakingContract.sol\":3902:3913  _poolSupply */\n      dup2\n      swap1\n      sub(shl(0xa0, 0x01), 0x01)\n        /* \"StakingContract.sol\":3852:3883  IERC20(_tokenAddress).balanceOf */\n      dup5\n      and\n      swap1\n      0x70a08231\n      swap1\n        /* \"#utility.yul\":318:336   */\n      0x24\n      add\n        /* \"StakingContract.sol\":3852:3898  IERC20(_tokenAddress).balanceOf(address(this)) */\n      0x20\n      mload(0x40)\n      dup1\n      dup4\n      sub\n      dup2\n      dup7\n      gas\n      staticcall\n      iszero\n      dup1\n      iszero\n      tag_167\n      jumpi\n      returndatasize\n      0x00\n      dup1\n      returndatacopy\n      revert(0x00, returndatasize)\n    tag_167:\n      pop\n      pop\n      pop\n      pop\n      mload(0x40)\n      returndatasize\n      not(0x1f)\n      0x1f\n      dup3\n      add\n      and\n      dup3\n      add\n      dup1\n      0x40\n      mstore\n      pop\n      dup2\n      add\n      swap1\n      tag_168\n      swap2\n      swap1\n      tag_169\n      jump\t// in\n    tag_168:\n        /* \"StakingContract.sol\":3852:3913  IERC20(_tokenAddress).balanceOf(address(this)) == _poolSupply */\n      eq\n        /* \"StakingContract.sol\":3844:3914  require(IERC20(_tokenAddress).balanceOf(address(this)) == _poolSupply) */\n      tag_170\n      jumpi\n      0x00\n      dup1\n      revert\n    tag_170:\n      sub(shl(0xa0, 0x01), 0x01)\n        /* \"StakingContract.sol\":3933:3961  erc20Supplies[_tokenAddress] */\n      dup3\n      and\n      0x00\n      swap1\n      dup2\n      mstore\n        /* \"StakingContract.sol\":3933:3946  erc20Supplies */\n      0x0a\n        /* \"StakingContract.sol\":3933:3961  erc20Supplies[_tokenAddress] */\n      0x20\n      mstore\n      0x40\n      swap1\n      keccak256\n        /* \"StakingContract.sol\":3933:3972  erc20Supplies[_tokenAddress].registered */\n      0x04\n      add\n      sload\n      0xff\n      and\n        /* \"StakingContract.sol\":3932:3972  !erc20Supplies[_tokenAddress].registered */\n      iszero\n        /* \"StakingContract.sol\":3924:3973  require(!erc20Supplies[_tokenAddress].registered) */\n      tag_171\n      jumpi\n      0x00\n      dup1\n      revert\n    tag_171:\n      sub(shl(0xa0, 0x01), 0x01)\n        /* \"StakingContract.sol\":3983:4011  erc20Supplies[_tokenAddress] */\n      dup3\n      and\n      0x00\n      swap1\n      dup2\n      mstore\n        /* \"StakingContract.sol\":3983:3996  erc20Supplies */\n      0x0a\n        /* \"StakingContract.sol\":3983:4011  erc20Supplies[_tokenAddress] */\n      0x20\n      mstore\n      0x40\n      swap1\n      keccak256\n        /* \"StakingContract.sol\":4028:4040  block.number */\n      number\n        /* \"StakingContract.sol\":3983:4025  erc20Supplies[_tokenAddress].blockSupplied */\n      0x01\n      dup3\n      add\n        /* \"StakingContract.sol\":3983:4040  erc20Supplies[_tokenAddress].blockSupplied = block.number */\n      sstore\n        /* \"StakingContract.sol\":4050:4103  erc20Supplies[_tokenAddress].poolSupply = _poolSupply */\n      dup2\n      dup2\n      sstore\n        /* \"StakingContract.sol\":4114:4162  erc20Supplies[_tokenAddress].remainingPoolSupply */\n      0x02\n      dup2\n      add\n        /* \"StakingContract.sol\":4114:4176  erc20Supplies[_tokenAddress].remainingPoolSupply = _poolSupply */\n      dup3\n      swap1\n      sstore\n        /* \"StakingContract.sol\":4244:4266  degeneratorStakingPool */\n      sload(0x07)\n        /* \"StakingContract.sol\":4187:4241  erc20Supplies[_tokenAddress].degeneratorPoolSizeAtTime */\n      0x03\n      swap1\n      swap2\n      add\n        /* \"StakingContract.sol\":4187:4266  erc20Supplies[_tokenAddress].degeneratorPoolSizeAtTime = degeneratorStakingPool */\n      sstore\n        /* \"@openzeppelin/contracts/security/ReentrancyGuard.sol\":2303:2323  _nonReentrantAfter() */\n      tag_161\n        /* \"@openzeppelin/contracts/security/ReentrancyGuard.sol\":1716:1717  1 */\n      0x01\n        /* \"@openzeppelin/contracts/security/ReentrancyGuard.sol\":2809:2816  _status */\n      0x00\n        /* \"@openzeppelin/contracts/security/ReentrancyGuard.sol\":2809:2831  _status = _NOT_ENTERED */\n      sstore\n        /* \"@openzeppelin/contracts/security/ReentrancyGuard.sol\":2629:2838  function _nonReentrantAfter() private {... */\n      jump\n        /* \"StakingContract.sol\":3000:3735  function withdrawDegenerator() public nonReentrant {... */\n    tag_54:\n        /* \"@openzeppelin/contracts/security/ReentrancyGuard.sol\":2261:2282  _nonReentrantBefore() */\n      tag_174\n        /* \"@openzeppelin/contracts/security/ReentrancyGuard.sol\":2261:2280  _nonReentrantBefore */\n      tag_99\n        /* \"@openzeppelin/contracts/security/ReentrancyGuard.sol\":2261:2282  _nonReentrantBefore() */\n      jump\t// in\n    tag_174:\n        /* \"@openzeppelin/contracts/utils/Context.sol\":735:745  msg.sender */\n      caller\n        /* \"StakingContract.sol\":3105:3106  0 */\n      0x00\n        /* \"StakingContract.sol\":3069:3095  addressStake[_msgSender()] */\n      swap1\n      dup2\n      mstore\n        /* \"StakingContract.sol\":3069:3081  addressStake */\n      0x09\n        /* \"StakingContract.sol\":3069:3095  addressStake[_msgSender()] */\n      0x20\n      mstore\n      0x40\n      swap1\n      keccak256\n        /* \"StakingContract.sol\":3069:3102  addressStake[_msgSender()].amount */\n      sload\n        /* \"StakingContract.sol\":3061:3125  require(addressStake[_msgSender()].amount > 0, \"No stake found\") */\n      tag_177\n      jumpi\n      mload(0x40)\n      shl(0xe5, 0x461bcd)\n      dup2\n      mstore\n        /* \"#utility.yul\":6105:6107   */\n      0x20\n        /* \"StakingContract.sol\":3061:3125  require(addressStake[_msgSender()].amount > 0, \"No stake found\") */\n      0x04\n      dup3\n      add\n        /* \"#utility.yul\":6087:6108   */\n      mstore\n        /* \"#utility.yul\":6144:6146   */\n      0x0e\n        /* \"#utility.yul\":6124:6142   */\n      0x24\n      dup3\n      add\n        /* \"#utility.yul\":6117:6147   */\n      mstore\n      shl(0x92, 0x139bc81cdd185ad948199bdd5b99)\n        /* \"#utility.yul\":6163:6181   */\n      0x44\n      dup3\n      add\n        /* \"#utility.yul\":6156:6200   */\n      mstore\n        /* \"#utility.yul\":6217:6235   */\n      0x64\n      add\n        /* \"StakingContract.sol\":3061:3125  require(addressStake[_msgSender()].amount > 0, \"No stake found\") */\n      tag_93\n        /* \"#utility.yul\":5903:6241   */\n      jump\n        /* \"StakingContract.sol\":3061:3125  require(addressStake[_msgSender()].amount > 0, \"No stake found\") */\n    tag_177:\n        /* \"@openzeppelin/contracts/utils/Context.sol\":735:745  msg.sender */\n      caller\n        /* \"StakingContract.sol\":3144:3170  addressStake[_msgSender()] */\n      0x00\n      swap1\n      dup2\n      mstore\n        /* \"StakingContract.sol\":3144:3156  addressStake */\n      0x09\n        /* \"StakingContract.sol\":3144:3170  addressStake[_msgSender()] */\n      0x20\n      mstore\n      0x40\n      swap1\n      keccak256\n        /* \"StakingContract.sol\":3144:3180  addressStake[_msgSender()].withdrawn */\n      0x02\n      add\n      sload\n      0xff\n      and\n        /* \"StakingContract.sol\":3143:3180  !addressStake[_msgSender()].withdrawn */\n      iszero\n        /* \"StakingContract.sol\":3135:3208  require(!addressStake[_msgSender()].withdrawn, \"Stake already withdrawn\") */\n      tag_181\n      jumpi\n      mload(0x40)\n      shl(0xe5, 0x461bcd)\n      dup2\n      mstore\n        /* \"#utility.yul\":6448:6450   */\n      0x20\n        /* \"StakingContract.sol\":3135:3208  require(!addressStake[_msgSender()].withdrawn, \"Stake already withdrawn\") */\n      0x04\n      dup3\n      add\n        /* \"#utility.yul\":6430:6451   */\n      mstore\n        /* \"#utility.yul\":6487:6489   */\n      0x17\n        /* \"#utility.yul\":6467:6485   */\n      0x24\n      dup3\n      add\n        /* \"#utility.yul\":6460:6490   */\n      mstore\n        /* \"#utility.yul\":6526:6551   */\n      0x5374616b6520616c72656164792077697468647261776e000000000000000000\n        /* \"#utility.yul\":6506:6524   */\n      0x44\n      dup3\n      add\n        /* \"#utility.yul\":6499:6552   */\n      mstore\n        /* \"#utility.yul\":6569:6587   */\n      0x64\n      add\n        /* \"StakingContract.sol\":3135:3208  require(!addressStake[_msgSender()].withdrawn, \"Stake already withdrawn\") */\n      tag_93\n        /* \"#utility.yul\":6246:6593   */\n      jump\n        /* \"StakingContract.sol\":3135:3208  require(!addressStake[_msgSender()].withdrawn, \"Stake already withdrawn\") */\n    tag_181:\n        /* \"StakingContract.sol\":3240:3252  tokenAddress */\n      sload(0x03)\n        /* \"@openzeppelin/contracts/utils/Context.sol\":735:745  msg.sender */\n      caller\n        /* \"StakingContract.sol\":3218:3230  IERC20 token */\n      0x00\n        /* \"StakingContract.sol\":3280:3306  addressStake[_msgSender()] */\n      dup2\n      dup2\n      mstore\n        /* \"StakingContract.sol\":3280:3292  addressStake */\n      0x09\n        /* \"StakingContract.sol\":3280:3306  addressStake[_msgSender()] */\n      0x20\n      swap1\n      dup2\n      mstore\n      0x40\n      dup1\n      dup4\n      keccak256\n        /* \"StakingContract.sol\":3280:3313  addressStake[_msgSender()].amount */\n      dup1\n      sload\n        /* \"StakingContract.sol\":3323:3359  addressStake[_msgSender()].withdrawn */\n      0x02\n      swap1\n      swap2\n      add\n        /* \"StakingContract.sol\":3323:3366  addressStake[_msgSender()].withdrawn = true */\n      dup1\n      sload\n      not(0xffff)\n        /* \"StakingContract.sol\":3376:3424  addressStake[_msgSender()].activeDeposit = false */\n      and\n        /* \"StakingContract.sol\":3362:3366  true */\n      0x01\n        /* \"StakingContract.sol\":3376:3424  addressStake[_msgSender()].activeDeposit = false */\n      or\n      swap1\n      sstore\n        /* \"StakingContract.sol\":3443:3479  token.transfer(_msgSender(), amount) */\n      dup2\n      mload\n      shl(0xe0, 0xa9059cbb)\n      dup2\n      mstore\n      0x04\n      dup2\n      add\n        /* \"#utility.yul\":5609:5660   */\n      swap6\n      swap1\n      swap6\n      mstore\n        /* \"#utility.yul\":5676:5694   */\n      0x24\n      dup6\n      add\n        /* \"#utility.yul\":5669:5703   */\n      dup2\n      swap1\n      mstore\n        /* \"StakingContract.sol\":3443:3479  token.transfer(_msgSender(), amount) */\n      swap1\n      mload\n      sub(shl(0xa0, 0x01), 0x01)\n        /* \"StakingContract.sol\":3240:3252  tokenAddress */\n      swap1\n      swap6\n      and\n      swap5\n        /* \"StakingContract.sol\":3280:3313  addressStake[_msgSender()].amount */\n      swap1\n      swap4\n        /* \"StakingContract.sol\":3240:3252  tokenAddress */\n      dup6\n      swap4\n        /* \"StakingContract.sol\":3443:3457  token.transfer */\n      0xa9059cbb\n      swap4\n        /* \"#utility.yul\":5582:5600   */\n      0x44\n      dup1\n      dup5\n      add\n      swap5\n        /* \"StakingContract.sol\":3280:3306  addressStake[_msgSender()] */\n      swap2\n      swap4\n        /* \"StakingContract.sol\":3443:3479  token.transfer(_msgSender(), amount) */\n      swap2\n      swap3\n      swap2\n      dup4\n      swap1\n      sub\n      add\n      swap1\n      dup3\n      swap1\n        /* \"StakingContract.sol\":3240:3252  tokenAddress */\n      dup8\n        /* \"StakingContract.sol\":3443:3479  token.transfer(_msgSender(), amount) */\n      gas\n      call\n      iszero\n      dup1\n      iszero\n      tag_190\n      jumpi\n      returndatasize\n      0x00\n      dup1\n      returndatacopy\n      revert(0x00, returndatasize)\n    tag_190:\n      pop\n      pop\n      pop\n      pop\n      mload(0x40)\n      returndatasize\n      not(0x1f)\n      0x1f\n      dup3\n      add\n      and\n      dup3\n      add\n      dup1\n      0x40\n      mstore\n      pop\n      dup2\n      add\n      swap1\n      tag_191\n      swap2\n      swap1\n      tag_111\n      jump\t// in\n    tag_191:\n        /* \"StakingContract.sol\":3435:3499  require(token.transfer(_msgSender(), amount), \"Transfer failed\") */\n      tag_192\n      jumpi\n      mload(0x40)\n      shl(0xe5, 0x461bcd)\n      dup2\n      mstore\n        /* \"#utility.yul\":4646:4648   */\n      0x20\n        /* \"StakingContract.sol\":3435:3499  require(token.transfer(_msgSender(), amount), \"Transfer failed\") */\n      0x04\n      dup3\n      add\n        /* \"#utility.yul\":4628:4649   */\n      mstore\n        /* \"#utility.yul\":4685:4687   */\n      0x0f\n        /* \"#utility.yul\":4665:4683   */\n      0x24\n      dup3\n      add\n        /* \"#utility.yul\":4658:4688   */\n      mstore\n      shl(0x8a, 0x151c985b9cd9995c8819985a5b1959)\n        /* \"#utility.yul\":4704:4722   */\n      0x44\n      dup3\n      add\n        /* \"#utility.yul\":4697:4742   */\n      mstore\n        /* \"#utility.yul\":4759:4777   */\n      0x64\n      add\n        /* \"StakingContract.sol\":3435:3499  require(token.transfer(_msgSender(), amount), \"Transfer failed\") */\n      tag_93\n        /* \"#utility.yul\":4444:4783   */\n      jump\n        /* \"StakingContract.sol\":3435:3499  require(token.transfer(_msgSender(), amount), \"Transfer failed\") */\n    tag_192:\n        /* \"StakingContract.sol\":3535:3541  amount */\n      dup1\n        /* \"StakingContract.sol\":3509:3531  degeneratorStakingPool */\n      0x07\n      0x00\n        /* \"StakingContract.sol\":3509:3541  degeneratorStakingPool -= amount */\n      dup3\n      dup3\n      sload\n      tag_194\n      swap2\n      swap1\n      tag_195\n      jump\t// in\n    tag_194:\n      swap3\n      pop\n      pop\n      dup2\n      swap1\n      sstore\n      pop\n        /* \"StakingContract.sol\":3573:3574  1 */\n      0x01\n        /* \"StakingContract.sol\":3551:3569  degeneratorStakers */\n      0x08\n      0x00\n        /* \"StakingContract.sol\":3551:3574  degeneratorStakers -= 1 */\n      dup3\n      dup3\n      sload\n      tag_196\n      swap2\n      swap1\n      tag_195\n      jump\t// in\n    tag_196:\n      swap1\n      swap2\n      sstore\n      pop\n      pop\n        /* \"StakingContract.sol\":3597:3607  msg.sender */\n      caller\n        /* \"StakingContract.sol\":3618:3619  0 */\n      0x00\n        /* \"StakingContract.sol\":3584:3608  addressStake[msg.sender] */\n      swap1\n      dup2\n      mstore\n        /* \"StakingContract.sol\":3584:3596  addressStake */\n      0x09\n        /* \"StakingContract.sol\":3584:3608  addressStake[msg.sender] */\n      0x20\n      dup2\n      swap1\n      mstore\n      0x40\n      dup3\n      keccak256\n        /* \"StakingContract.sol\":3584:3619  addressStake[msg.sender].amount = 0 */\n      dup3\n      swap1\n      sstore\n        /* \"StakingContract.sol\":3618:3619  0 */\n      dup2\n        /* \"StakingContract.sol\":3642:3654  _msgSender() */\n      tag_197\n        /* \"@openzeppelin/contracts/utils/Context.sol\":735:745  msg.sender */\n      caller\n      swap1\n        /* \"@openzeppelin/contracts/utils/Context.sol\":656:752  function _msgSender() internal view virtual returns (address) {... */\n      jump\n        /* \"StakingContract.sol\":3642:3654  _msgSender() */\n    tag_197:\n      sub(shl(0xa0, 0x01), 0x01)\n        /* \"StakingContract.sol\":3629:3655  addressStake[_msgSender()] */\n      and\n      dup2\n      mstore\n      0x20\n      dup2\n      add\n      swap2\n      swap1\n      swap2\n      mstore\n      0x40\n      add\n      0x00\n      keccak256\n        /* \"StakingContract.sol\":3629:3667  addressStake[_msgSender()].blockStaked */\n      0x01\n      add\n        /* \"StakingContract.sol\":3629:3671  addressStake[_msgSender()].blockStaked = 0 */\n      sstore\n        /* \"@openzeppelin/contracts/utils/Context.sol\":735:745  msg.sender */\n      caller\n      sub(shl(0xa0, 0x01), 0x01)\n        /* \"StakingContract.sol\":3686:3728  degeneratorWithdrawn(_msgSender(), amount) */\n      and\n      0x14eed693e6d30152612ee94c12df593a490178621d3730e516b012e064eeef8f\n        /* \"StakingContract.sol\":3721:3727  amount */\n      dup3\n        /* \"StakingContract.sol\":3686:3728  degeneratorWithdrawn(_msgSender(), amount) */\n      mload(0x40)\n      tag_199\n      swap2\n        /* \"#utility.yul\":1808:1833   */\n      dup2\n      mstore\n        /* \"#utility.yul\":1796:1798   */\n      0x20\n        /* \"#utility.yul\":1781:1799   */\n      add\n      swap1\n        /* \"#utility.yul\":1662:1839   */\n      jump\n        /* \"StakingContract.sol\":3686:3728  degeneratorWithdrawn(_msgSender(), amount) */\n    tag_199:\n      mload(0x40)\n      dup1\n      swap2\n      sub\n      swap1\n      log2\n        /* \"StakingContract.sol\":3051:3735  {... */\n      pop\n      pop\n        /* \"@openzeppelin/contracts/security/ReentrancyGuard.sol\":2303:2323  _nonReentrantAfter() */\n      tag_200\n        /* \"@openzeppelin/contracts/security/ReentrancyGuard.sol\":1716:1717  1 */\n      0x01\n        /* \"@openzeppelin/contracts/security/ReentrancyGuard.sol\":2809:2816  _status */\n      0x00\n        /* \"@openzeppelin/contracts/security/ReentrancyGuard.sol\":2809:2831  _status = _NOT_ENTERED */\n      sstore\n        /* \"@openzeppelin/contracts/security/ReentrancyGuard.sol\":2629:2838  function _nonReentrantAfter() private {... */\n      jump\n        /* \"@openzeppelin/contracts/security/ReentrancyGuard.sol\":2303:2323  _nonReentrantAfter() */\n    tag_200:\n        /* \"StakingContract.sol\":3000:3735  function withdrawDegenerator() public nonReentrant {... */\n      jump\t// out\n        /* \"StakingContract.sol\":5746:5894  function setRewardBlackoutPeriod(uint256 _length) public multiSigOnly {... */\n    tag_60:\n        /* \"StakingContract.sol\":1110:1125  multiSigAddress */\n      and(sub(shl(0xa0, 0x01), 0x01), sload(0x02))\n        /* \"StakingContract.sol\":1096:1106  msg.sender */\n      caller\n        /* \"StakingContract.sol\":1096:1125  msg.sender == multiSigAddress */\n      eq\n        /* \"StakingContract.sol\":1088:1174  require(msg.sender == multiSigAddress, \"Only multiSig address can call this function\") */\n      tag_202\n      jumpi\n      mload(0x40)\n      shl(0xe5, 0x461bcd)\n      dup2\n      mstore\n      0x04\n      add\n      tag_93\n      swap1\n      tag_94\n      jump\t// in\n    tag_202:\n        /* \"StakingContract.sol\":5844:5845  0 */\n      0x00\n        /* \"StakingContract.sol\":5834:5841  _length */\n      dup2\n        /* \"StakingContract.sol\":5834:5845  _length > 0 */\n      gt\n        /* \"StakingContract.sol\":5826:5846  require(_length > 0) */\n      tag_205\n      jumpi\n      0x00\n      dup1\n      revert\n    tag_205:\n        /* \"StakingContract.sol\":5857:5877  rewardBlackoutPeriod */\n      0x05\n        /* \"StakingContract.sol\":5857:5887  rewardBlackoutPeriod = _length */\n      sstore\n        /* \"StakingContract.sol\":5746:5894  function setRewardBlackoutPeriod(uint256 _length) public multiSigOnly {... */\n      jump\t// out\n        /* \"StakingContract.sol\":5142:5590  function getTokenReward(address _tokenAddress, address _account) public view returns(uint256) {... */\n    tag_72:\n        /* \"StakingContract.sol\":5227:5234  uint256 */\n      0x00\n        /* \"StakingContract.sol\":5254:5298  getTokenEligibility(_tokenAddress, _account) */\n      tag_207\n        /* \"StakingContract.sol\":5274:5287  _tokenAddress */\n      dup4\n        /* \"StakingContract.sol\":5289:5297  _account */\n      dup4\n        /* \"StakingContract.sol\":5254:5273  getTokenEligibility */\n      tag_76\n        /* \"StakingContract.sol\":5254:5298  getTokenEligibility(_tokenAddress, _account) */\n      jump\t// in\n    tag_207:\n        /* \"StakingContract.sol\":5246:5299  require(getTokenEligibility(_tokenAddress, _account)) */\n      tag_208\n      jumpi\n      0x00\n      dup1\n      revert\n    tag_208:\n      sub(shl(0xa0, 0x01), 0x01)\n        /* \"StakingContract.sol\":5330:5358  erc20Supplies[_tokenAddress] */\n      dup1\n      dup5\n      and\n        /* \"StakingContract.sol\":5309:5327  uint256 poolSupply */\n      0x00\n        /* \"StakingContract.sol\":5330:5358  erc20Supplies[_tokenAddress] */\n      swap1\n      dup2\n      mstore\n        /* \"StakingContract.sol\":5330:5343  erc20Supplies */\n      0x0a\n        /* \"StakingContract.sol\":5330:5358  erc20Supplies[_tokenAddress] */\n      0x20\n      swap1\n      dup2\n      mstore\n      0x40\n      dup1\n      dup4\n      keccak256\n        /* \"StakingContract.sol\":5330:5369  erc20Supplies[_tokenAddress].poolSupply */\n      dup1\n      sload\n        /* \"StakingContract.sol\":5439:5493  erc20Supplies[_tokenAddress].degeneratorPoolSizeAtTime */\n      0x03\n      swap1\n      swap2\n      add\n      sload\n        /* \"StakingContract.sol\":5407:5429  addressStake[_account] */\n      swap5\n      dup8\n      and\n      dup5\n      mstore\n        /* \"StakingContract.sol\":5407:5419  addressStake */\n      0x09\n        /* \"StakingContract.sol\":5407:5429  addressStake[_account] */\n      swap1\n      swap3\n      mstore\n      dup3\n      keccak256\n        /* \"StakingContract.sol\":5407:5436  addressStake[_account].amount */\n      sload\n        /* \"StakingContract.sol\":5330:5369  erc20Supplies[_tokenAddress].poolSupply */\n      swap1\n      swap3\n        /* \"StakingContract.sol\":5407:5493  addressStake[_account].amount / erc20Supplies[_tokenAddress].degeneratorPoolSizeAtTime */\n      tag_209\n      swap2\n      tag_210\n      jump\t// in\n    tag_209:\n        /* \"StakingContract.sol\":5379:5493  uint256 poolPortionAtTime = addressStake[_account].amount / erc20Supplies[_tokenAddress].degeneratorPoolSizeAtTime */\n      swap1\n      pop\n        /* \"StakingContract.sol\":5503:5522  uint256 tokenReward */\n      0x00\n        /* \"StakingContract.sol\":5525:5555  poolPortionAtTime * poolSupply */\n      tag_211\n        /* \"StakingContract.sol\":5545:5555  poolSupply */\n      dup4\n        /* \"StakingContract.sol\":5379:5493  uint256 poolPortionAtTime = addressStake[_account].amount / erc20Supplies[_tokenAddress].degeneratorPoolSizeAtTime */\n      dup4\n        /* \"StakingContract.sol\":5525:5555  poolPortionAtTime * poolSupply */\n      tag_212\n      jump\t// in\n    tag_211:\n        /* \"StakingContract.sol\":5503:5555  uint256 tokenReward = poolPortionAtTime * poolSupply */\n      swap4\n      pop\n      pop\n      pop\n      pop\n        /* \"StakingContract.sol\":5142:5590  function getTokenReward(address _tokenAddress, address _account) public view returns(uint256) {... */\n    tag_206:\n      swap3\n      swap2\n      pop\n      pop\n      jump\t// out\n        /* \"StakingContract.sol\":4853:5136  function getTokenEligibility(address _tokenAddress, address _account) public view returns(bool) {... */\n    tag_76:\n      sub(shl(0xa0, 0x01), 0x01)\n        /* \"StakingContract.sol\":4967:4995  erc20Supplies[_tokenAddress] */\n      dup3\n      and\n        /* \"StakingContract.sol\":4943:4947  bool */\n      0x00\n        /* \"StakingContract.sol\":4967:4995  erc20Supplies[_tokenAddress] */\n      swap1\n      dup2\n      mstore\n        /* \"StakingContract.sol\":4967:4980  erc20Supplies */\n      0x0a\n        /* \"StakingContract.sol\":4967:4995  erc20Supplies[_tokenAddress] */\n      0x20\n      mstore\n      0x40\n      dup2\n      keccak256\n        /* \"StakingContract.sol\":4967:5006  erc20Supplies[_tokenAddress].registered */\n      0x04\n      add\n      sload\n      0xff\n      and\n        /* \"StakingContract.sol\":4959:5007  require(erc20Supplies[_tokenAddress].registered) */\n      tag_214\n      jumpi\n      0x00\n      dup1\n      revert\n    tag_214:\n      sub(shl(0xa0, 0x01), 0x01)\n        /* \"StakingContract.sol\":5087:5115  erc20Supplies[_tokenAddress] */\n      dup1\n      dup5\n      and\n      0x00\n      swap1\n      dup2\n      mstore\n        /* \"StakingContract.sol\":5087:5100  erc20Supplies */\n      0x0a\n        /* \"StakingContract.sol\":5087:5115  erc20Supplies[_tokenAddress] */\n      0x20\n      swap1\n      dup2\n      mstore\n      0x40\n      dup1\n      dup4\n      keccak256\n        /* \"StakingContract.sol\":5087:5129  erc20Supplies[_tokenAddress].blockSupplied */\n      0x01\n      swap1\n      dup2\n      add\n      sload\n        /* \"StakingContract.sol\":5062:5082  rewardBlackoutPeriod */\n      sload(0x05)\n        /* \"StakingContract.sol\":5025:5047  addressStake[_account] */\n      swap6\n      dup9\n      and\n      dup6\n      mstore\n        /* \"StakingContract.sol\":5025:5037  addressStake */\n      0x09\n        /* \"StakingContract.sol\":5025:5047  addressStake[_account] */\n      swap1\n      swap4\n      mstore\n      swap3\n      keccak256\n        /* \"StakingContract.sol\":5025:5059  addressStake[_account].blockStaked */\n      swap1\n      swap2\n      add\n      sload\n        /* \"StakingContract.sol\":5087:5129  erc20Supplies[_tokenAddress].blockSupplied */\n      swap1\n      swap2\n        /* \"StakingContract.sol\":5025:5082  addressStake[_account].blockStaked + rewardBlackoutPeriod */\n      tag_215\n      swap2\n      tag_119\n      jump\t// in\n    tag_215:\n        /* \"StakingContract.sol\":5024:5129  (addressStake[_account].blockStaked + rewardBlackoutPeriod) <= erc20Supplies[_tokenAddress].blockSupplied */\n      gt\n      iszero\n      swap4\n        /* \"StakingContract.sol\":4853:5136  function getTokenEligibility(address _tokenAddress, address _account) public view returns(bool) {... */\n      swap3\n      pop\n      pop\n      pop\n      jump\t// out\n        /* \"@openzeppelin/contracts/security/ReentrancyGuard.sol\":2336:2623  function _nonReentrantBefore() private {... */\n    tag_99:\n        /* \"@openzeppelin/contracts/security/ReentrancyGuard.sol\":1759:1760  2 */\n      0x02\n        /* \"@openzeppelin/contracts/security/ReentrancyGuard.sol\":2468:2475  _status */\n      sload(0x00)\n        /* \"@openzeppelin/contracts/security/ReentrancyGuard.sol\":2468:2487  _status != _ENTERED */\n      sub\n        /* \"@openzeppelin/contracts/security/ReentrancyGuard.sol\":2460:2523  require(_status != _ENTERED, \"ReentrancyGuard: reentrant call\") */\n      tag_217\n      jumpi\n      mload(0x40)\n      shl(0xe5, 0x461bcd)\n      dup2\n      mstore\n        /* \"#utility.yul\":7328:7330   */\n      0x20\n        /* \"@openzeppelin/contracts/security/ReentrancyGuard.sol\":2460:2523  require(_status != _ENTERED, \"ReentrancyGuard: reentrant call\") */\n      0x04\n      dup3\n      add\n        /* \"#utility.yul\":7310:7331   */\n      mstore\n        /* \"#utility.yul\":7367:7369   */\n      0x1f\n        /* \"#utility.yul\":7347:7365   */\n      0x24\n      dup3\n      add\n        /* \"#utility.yul\":7340:7370   */\n      mstore\n        /* \"#utility.yul\":7406:7439   */\n      0x5265656e7472616e637947756172643a207265656e7472616e742063616c6c00\n        /* \"#utility.yul\":7386:7404   */\n      0x44\n      dup3\n      add\n        /* \"#utility.yul\":7379:7440   */\n      mstore\n        /* \"#utility.yul\":7457:7475   */\n      0x64\n      add\n        /* \"@openzeppelin/contracts/security/ReentrancyGuard.sol\":2460:2523  require(_status != _ENTERED, \"ReentrancyGuard: reentrant call\") */\n      tag_93\n        /* \"#utility.yul\":7126:7481   */\n      jump\n        /* \"@openzeppelin/contracts/security/ReentrancyGuard.sol\":2460:2523  require(_status != _ENTERED, \"ReentrancyGuard: reentrant call\") */\n    tag_217:\n        /* \"@openzeppelin/contracts/security/ReentrancyGuard.sol\":1759:1760  2 */\n      0x02\n        /* \"@openzeppelin/contracts/security/ReentrancyGuard.sol\":2598:2605  _status */\n      0x00\n        /* \"@openzeppelin/contracts/security/ReentrancyGuard.sol\":2598:2616  _status = _ENTERED */\n      sstore\n        /* \"@openzeppelin/contracts/security/ReentrancyGuard.sol\":2336:2623  function _nonReentrantBefore() private {... */\n      jump\t// out\n        /* \"#utility.yul\":14:194   */\n    tag_26:\n        /* \"#utility.yul\":73:79   */\n      0x00\n        /* \"#utility.yul\":126:128   */\n      0x20\n        /* \"#utility.yul\":114:123   */\n      dup3\n        /* \"#utility.yul\":105:112   */\n      dup5\n        /* \"#utility.yul\":101:124   */\n      sub\n        /* \"#utility.yul\":97:129   */\n      slt\n        /* \"#utility.yul\":94:146   */\n      iszero\n      tag_226\n      jumpi\n        /* \"#utility.yul\":142:143   */\n      0x00\n        /* \"#utility.yul\":139:140   */\n      dup1\n        /* \"#utility.yul\":132:144   */\n      revert\n        /* \"#utility.yul\":94:146   */\n    tag_226:\n      pop\n        /* \"#utility.yul\":165:188   */\n      calldataload\n      swap2\n        /* \"#utility.yul\":14:194   */\n      swap1\n      pop\n      jump\t// out\n        /* \"#utility.yul\":407:580   */\n    tag_222:\n        /* \"#utility.yul\":475:495   */\n      dup1\n      calldataload\n      sub(shl(0xa0, 0x01), 0x01)\n        /* \"#utility.yul\":524:555   */\n      dup2\n      and\n        /* \"#utility.yul\":514:556   */\n      dup2\n      eq\n        /* \"#utility.yul\":504:574   */\n      tag_229\n      jumpi\n        /* \"#utility.yul\":570:571   */\n      0x00\n        /* \"#utility.yul\":567:568   */\n      dup1\n        /* \"#utility.yul\":560:572   */\n      revert\n        /* \"#utility.yul\":504:574   */\n    tag_229:\n        /* \"#utility.yul\":407:580   */\n      swap2\n      swap1\n      pop\n      jump\t// out\n        /* \"#utility.yul\":585:845   */\n    tag_37:\n        /* \"#utility.yul\":653:659   */\n      0x00\n        /* \"#utility.yul\":661:667   */\n      dup1\n        /* \"#utility.yul\":714:716   */\n      0x40\n        /* \"#utility.yul\":702:711   */\n      dup4\n        /* \"#utility.yul\":693:700   */\n      dup6\n        /* \"#utility.yul\":689:712   */\n      sub\n        /* \"#utility.yul\":685:717   */\n      slt\n        /* \"#utility.yul\":682:734   */\n      iszero\n      tag_231\n      jumpi\n        /* \"#utility.yul\":730:731   */\n      0x00\n        /* \"#utility.yul\":727:728   */\n      dup1\n        /* \"#utility.yul\":720:732   */\n      revert\n        /* \"#utility.yul\":682:734   */\n    tag_231:\n        /* \"#utility.yul\":753:782   */\n      tag_232\n        /* \"#utility.yul\":772:781   */\n      dup4\n        /* \"#utility.yul\":753:782   */\n      tag_222\n      jump\t// in\n    tag_232:\n        /* \"#utility.yul\":743:782   */\n      swap2\n      pop\n        /* \"#utility.yul\":801:839   */\n      tag_233\n        /* \"#utility.yul\":835:837   */\n      0x20\n        /* \"#utility.yul\":824:833   */\n      dup5\n        /* \"#utility.yul\":820:838   */\n      add\n        /* \"#utility.yul\":801:839   */\n      tag_222\n      jump\t// in\n    tag_233:\n        /* \"#utility.yul\":791:839   */\n      swap1\n      pop\n        /* \"#utility.yul\":585:845   */\n      swap3\n      pop\n      swap3\n      swap1\n      pop\n      jump\t// out\n        /* \"#utility.yul\":1042:1657   */\n    tag_43:\n        /* \"#utility.yul\":1128:1134   */\n      0x00\n        /* \"#utility.yul\":1136:1142   */\n      dup1\n        /* \"#utility.yul\":1189:1191   */\n      0x20\n        /* \"#utility.yul\":1177:1186   */\n      dup4\n        /* \"#utility.yul\":1168:1175   */\n      dup6\n        /* \"#utility.yul\":1164:1187   */\n      sub\n        /* \"#utility.yul\":1160:1192   */\n      slt\n        /* \"#utility.yul\":1157:1209   */\n      iszero\n      tag_236\n      jumpi\n        /* \"#utility.yul\":1205:1206   */\n      0x00\n        /* \"#utility.yul\":1202:1203   */\n      dup1\n        /* \"#utility.yul\":1195:1207   */\n      revert\n        /* \"#utility.yul\":1157:1209   */\n    tag_236:\n        /* \"#utility.yul\":1245:1254   */\n      dup3\n        /* \"#utility.yul\":1232:1255   */\n      calldataload\n        /* \"#utility.yul\":1274:1292   */\n      0xffffffffffffffff\n        /* \"#utility.yul\":1315:1317   */\n      dup1\n        /* \"#utility.yul\":1307:1313   */\n      dup3\n        /* \"#utility.yul\":1304:1318   */\n      gt\n        /* \"#utility.yul\":1301:1335   */\n      iszero\n      tag_237\n      jumpi\n        /* \"#utility.yul\":1331:1332   */\n      0x00\n        /* \"#utility.yul\":1328:1329   */\n      dup1\n        /* \"#utility.yul\":1321:1333   */\n      revert\n        /* \"#utility.yul\":1301:1335   */\n    tag_237:\n        /* \"#utility.yul\":1369:1375   */\n      dup2\n        /* \"#utility.yul\":1358:1367   */\n      dup6\n        /* \"#utility.yul\":1354:1376   */\n      add\n        /* \"#utility.yul\":1344:1376   */\n      swap2\n      pop\n        /* \"#utility.yul\":1414:1421   */\n      dup6\n        /* \"#utility.yul\":1407:1411   */\n      0x1f\n        /* \"#utility.yul\":1403:1405   */\n      dup4\n        /* \"#utility.yul\":1399:1412   */\n      add\n        /* \"#utility.yul\":1395:1422   */\n      slt\n        /* \"#utility.yul\":1385:1440   */\n      tag_238\n      jumpi\n        /* \"#utility.yul\":1436:1437   */\n      0x00\n        /* \"#utility.yul\":1433:1434   */\n      dup1\n        /* \"#utility.yul\":1426:1438   */\n      revert\n        /* \"#utility.yul\":1385:1440   */\n    tag_238:\n        /* \"#utility.yul\":1476:1478   */\n      dup2\n        /* \"#utility.yul\":1463:1479   */\n      calldataload\n        /* \"#utility.yul\":1502:1504   */\n      dup2\n        /* \"#utility.yul\":1494:1500   */\n      dup2\n        /* \"#utility.yul\":1491:1505   */\n      gt\n        /* \"#utility.yul\":1488:1522   */\n      iszero\n      tag_239\n      jumpi\n        /* \"#utility.yul\":1518:1519   */\n      0x00\n        /* \"#utility.yul\":1515:1516   */\n      dup1\n        /* \"#utility.yul\":1508:1520   */\n      revert\n        /* \"#utility.yul\":1488:1522   */\n    tag_239:\n        /* \"#utility.yul\":1571:1578   */\n      dup7\n        /* \"#utility.yul\":1566:1568   */\n      0x20\n        /* \"#utility.yul\":1556:1562   */\n      dup3\n        /* \"#utility.yul\":1553:1554   */\n      0x05\n        /* \"#utility.yul\":1549:1563   */\n      shl\n        /* \"#utility.yul\":1545:1547   */\n      dup6\n        /* \"#utility.yul\":1541:1564   */\n      add\n        /* \"#utility.yul\":1537:1569   */\n      add\n        /* \"#utility.yul\":1534:1579   */\n      gt\n        /* \"#utility.yul\":1531:1596   */\n      iszero\n      tag_240\n      jumpi\n        /* \"#utility.yul\":1592:1593   */\n      0x00\n        /* \"#utility.yul\":1589:1590   */\n      dup1\n        /* \"#utility.yul\":1582:1594   */\n      revert\n        /* \"#utility.yul\":1531:1596   */\n    tag_240:\n        /* \"#utility.yul\":1623:1625   */\n      0x20\n        /* \"#utility.yul\":1615:1626   */\n      swap3\n      swap1\n      swap3\n      add\n      swap7\n        /* \"#utility.yul\":1645:1651   */\n      swap2\n      swap6\n      pop\n        /* \"#utility.yul\":1042:1657   */\n      swap1\n      swap4\n      pop\n      pop\n      pop\n      pop\n      jump\t// out\n        /* \"#utility.yul\":1844:2098   */\n    tag_51:\n        /* \"#utility.yul\":1912:1918   */\n      0x00\n        /* \"#utility.yul\":1920:1926   */\n      dup1\n        /* \"#utility.yul\":1973:1975   */\n      0x40\n        /* \"#utility.yul\":1961:1970   */\n      dup4\n        /* \"#utility.yul\":1952:1959   */\n      dup6\n        /* \"#utility.yul\":1948:1971   */\n      sub\n        /* \"#utility.yul\":1944:1976   */\n      slt\n        /* \"#utility.yul\":1941:1993   */\n      iszero\n      tag_243\n      jumpi\n        /* \"#utility.yul\":1989:1990   */\n      0x00\n        /* \"#utility.yul\":1986:1987   */\n      dup1\n        /* \"#utility.yul\":1979:1991   */\n      revert\n        /* \"#utility.yul\":1941:1993   */\n    tag_243:\n        /* \"#utility.yul\":2012:2041   */\n      tag_244\n        /* \"#utility.yul\":2031:2040   */\n      dup4\n        /* \"#utility.yul\":2012:2041   */\n      tag_222\n      jump\t// in\n    tag_244:\n        /* \"#utility.yul\":2002:2041   */\n      swap5\n        /* \"#utility.yul\":2088:2090   */\n      0x20\n        /* \"#utility.yul\":2073:2091   */\n      swap4\n      swap1\n      swap4\n      add\n        /* \"#utility.yul\":2060:2092   */\n      calldataload\n      swap4\n      pop\n      pop\n      pop\n        /* \"#utility.yul\":1844:2098   */\n      jump\t// out\n        /* \"#utility.yul\":2339:2525   */\n    tag_87:\n        /* \"#utility.yul\":2398:2404   */\n      0x00\n        /* \"#utility.yul\":2451:2453   */\n      0x20\n        /* \"#utility.yul\":2439:2448   */\n      dup3\n        /* \"#utility.yul\":2430:2437   */\n      dup5\n        /* \"#utility.yul\":2426:2449   */\n      sub\n        /* \"#utility.yul\":2422:2454   */\n      slt\n        /* \"#utility.yul\":2419:2471   */\n      iszero\n      tag_247\n      jumpi\n        /* \"#utility.yul\":2467:2468   */\n      0x00\n        /* \"#utility.yul\":2464:2465   */\n      dup1\n        /* \"#utility.yul\":2457:2469   */\n      revert\n        /* \"#utility.yul\":2419:2471   */\n    tag_247:\n        /* \"#utility.yul\":2490:2519   */\n      tag_248\n        /* \"#utility.yul\":2509:2518   */\n      dup3\n        /* \"#utility.yul\":2490:2519   */\n      tag_222\n      jump\t// in\n    tag_248:\n        /* \"#utility.yul\":2480:2519   */\n      swap4\n        /* \"#utility.yul\":2339:2525   */\n      swap3\n      pop\n      pop\n      pop\n      jump\t// out\n        /* \"#utility.yul\":3008:3416   */\n    tag_94:\n        /* \"#utility.yul\":3210:3212   */\n      0x20\n        /* \"#utility.yul\":3192:3213   */\n      dup1\n      dup3\n      mstore\n        /* \"#utility.yul\":3249:3251   */\n      0x2c\n        /* \"#utility.yul\":3229:3247   */\n      swap1\n      dup3\n      add\n        /* \"#utility.yul\":3222:3252   */\n      mstore\n        /* \"#utility.yul\":3288:3322   */\n      0x4f6e6c79206d756c746953696720616464726573732063616e2063616c6c2074\n        /* \"#utility.yul\":3283:3285   */\n      0x40\n        /* \"#utility.yul\":3268:3286   */\n      dup3\n      add\n        /* \"#utility.yul\":3261:3323   */\n      mstore\n      shl(0xa1, 0x3434b990333ab731ba34b7b7)\n        /* \"#utility.yul\":3354:3356   */\n      0x60\n        /* \"#utility.yul\":3339:3357   */\n      dup3\n      add\n        /* \"#utility.yul\":3332:3374   */\n      mstore\n        /* \"#utility.yul\":3406:3409   */\n      0x80\n        /* \"#utility.yul\":3391:3410   */\n      add\n      swap1\n        /* \"#utility.yul\":3008:3416   */\n      jump\t// out\n        /* \"#utility.yul\":4162:4439   */\n    tag_111:\n        /* \"#utility.yul\":4229:4235   */\n      0x00\n        /* \"#utility.yul\":4282:4284   */\n      0x20\n        /* \"#utility.yul\":4270:4279   */\n      dup3\n        /* \"#utility.yul\":4261:4268   */\n      dup5\n        /* \"#utility.yul\":4257:4280   */\n      sub\n        /* \"#utility.yul\":4253:4285   */\n      slt\n        /* \"#utility.yul\":4250:4302   */\n      iszero\n      tag_254\n      jumpi\n        /* \"#utility.yul\":4298:4299   */\n      0x00\n        /* \"#utility.yul\":4295:4296   */\n      dup1\n        /* \"#utility.yul\":4288:4300   */\n      revert\n        /* \"#utility.yul\":4250:4302   */\n    tag_254:\n        /* \"#utility.yul\":4330:4339   */\n      dup2\n        /* \"#utility.yul\":4324:4340   */\n      mload\n        /* \"#utility.yul\":4383:4388   */\n      dup1\n        /* \"#utility.yul\":4376:4389   */\n      iszero\n        /* \"#utility.yul\":4369:4390   */\n      iszero\n        /* \"#utility.yul\":4362:4367   */\n      dup2\n        /* \"#utility.yul\":4359:4391   */\n      eq\n        /* \"#utility.yul\":4349:4409   */\n      tag_248\n      jumpi\n        /* \"#utility.yul\":4405:4406   */\n      0x00\n        /* \"#utility.yul\":4402:4403   */\n      dup1\n        /* \"#utility.yul\":4395:4407   */\n      revert\n        /* \"#utility.yul\":4788:4915   */\n    tag_223:\n        /* \"#utility.yul\":4849:4859   */\n      0x4e487b71\n        /* \"#utility.yul\":4844:4847   */\n      0xe0\n        /* \"#utility.yul\":4840:4860   */\n      shl\n        /* \"#utility.yul\":4837:4838   */\n      0x00\n        /* \"#utility.yul\":4830:4861   */\n      mstore\n        /* \"#utility.yul\":4880:4884   */\n      0x11\n        /* \"#utility.yul\":4877:4878   */\n      0x04\n        /* \"#utility.yul\":4870:4885   */\n      mstore\n        /* \"#utility.yul\":4904:4908   */\n      0x24\n        /* \"#utility.yul\":4901:4902   */\n      0x00\n        /* \"#utility.yul\":4894:4909   */\n      revert\n        /* \"#utility.yul\":4920:5045   */\n    tag_119:\n        /* \"#utility.yul\":4985:4994   */\n      dup1\n      dup3\n      add\n        /* \"#utility.yul\":5006:5016   */\n      dup1\n      dup3\n      gt\n        /* \"#utility.yul\":5003:5039   */\n      iszero\n      tag_206\n      jumpi\n        /* \"#utility.yul\":5019:5037   */\n      tag_206\n      tag_223\n      jump\t// in\n        /* \"#utility.yul\":5303:5430   */\n    tag_139:\n        /* \"#utility.yul\":5364:5374   */\n      0x4e487b71\n        /* \"#utility.yul\":5359:5362   */\n      0xe0\n        /* \"#utility.yul\":5355:5375   */\n      shl\n        /* \"#utility.yul\":5352:5353   */\n      0x00\n        /* \"#utility.yul\":5345:5376   */\n      mstore\n        /* \"#utility.yul\":5395:5399   */\n      0x32\n        /* \"#utility.yul\":5392:5393   */\n      0x04\n        /* \"#utility.yul\":5385:5400   */\n      mstore\n        /* \"#utility.yul\":5419:5423   */\n      0x24\n        /* \"#utility.yul\":5416:5417   */\n      0x00\n        /* \"#utility.yul\":5409:5424   */\n      revert\n        /* \"#utility.yul\":5714:5898   */\n    tag_169:\n        /* \"#utility.yul\":5784:5790   */\n      0x00\n        /* \"#utility.yul\":5837:5839   */\n      0x20\n        /* \"#utility.yul\":5825:5834   */\n      dup3\n        /* \"#utility.yul\":5816:5823   */\n      dup5\n        /* \"#utility.yul\":5812:5835   */\n      sub\n        /* \"#utility.yul\":5808:5840   */\n      slt\n        /* \"#utility.yul\":5805:5857   */\n      iszero\n      tag_265\n      jumpi\n        /* \"#utility.yul\":5853:5854   */\n      0x00\n        /* \"#utility.yul\":5850:5851   */\n      dup1\n        /* \"#utility.yul\":5843:5855   */\n      revert\n        /* \"#utility.yul\":5805:5857   */\n    tag_265:\n      pop\n        /* \"#utility.yul\":5876:5892   */\n      mload\n      swap2\n        /* \"#utility.yul\":5714:5898   */\n      swap1\n      pop\n      jump\t// out\n        /* \"#utility.yul\":6598:6726   */\n    tag_195:\n        /* \"#utility.yul\":6665:6674   */\n      dup2\n      dup2\n      sub\n        /* \"#utility.yul\":6686:6697   */\n      dup2\n      dup2\n      gt\n        /* \"#utility.yul\":6683:6720   */\n      iszero\n      tag_206\n      jumpi\n        /* \"#utility.yul\":6700:6718   */\n      tag_206\n      tag_223\n      jump\t// in\n        /* \"#utility.yul\":6731:6948   */\n    tag_210:\n        /* \"#utility.yul\":6771:6772   */\n      0x00\n        /* \"#utility.yul\":6797:6798   */\n      dup3\n        /* \"#utility.yul\":6787:6919   */\n      tag_272\n      jumpi\n        /* \"#utility.yul\":6841:6851   */\n      0x4e487b71\n        /* \"#utility.yul\":6836:6839   */\n      0xe0\n        /* \"#utility.yul\":6832:6852   */\n      shl\n        /* \"#utility.yul\":6829:6830   */\n      0x00\n        /* \"#utility.yul\":6822:6853   */\n      mstore\n        /* \"#utility.yul\":6876:6880   */\n      0x12\n        /* \"#utility.yul\":6873:6874   */\n      0x04\n        /* \"#utility.yul\":6866:6881   */\n      mstore\n        /* \"#utility.yul\":6904:6908   */\n      0x24\n        /* \"#utility.yul\":6901:6902   */\n      0x00\n        /* \"#utility.yul\":6894:6909   */\n      revert\n        /* \"#utility.yul\":6787:6919   */\n    tag_272:\n      pop\n        /* \"#utility.yul\":6933:6942   */\n      div\n      swap1\n        /* \"#utility.yul\":6731:6948   */\n      jump\t// out\n        /* \"#utility.yul\":6953:7121   */\n    tag_212:\n        /* \"#utility.yul\":7026:7035   */\n      dup1\n      dup3\n      mul\n        /* \"#utility.yul\":7057:7066   */\n      dup2\n      iszero\n        /* \"#utility.yul\":7074:7089   */\n      dup3\n      dup3\n      div\n        /* \"#utility.yul\":7068:7090   */\n      dup5\n      eq\n        /* \"#utility.yul\":7054:7091   */\n      or\n        /* \"#utility.yul\":7044:7115   */\n      tag_206\n      jumpi\n        /* \"#utility.yul\":7095:7113   */\n      tag_206\n      tag_223\n      jump\t// in\n\n    auxdata: 0xa26469706673582212209478b1d835b6531e95195d1359e8cf14d69a3380c9ccaed61827f90fa5c086d564736f6c63430008190033\n}\n",
				"bytecode": {
					"linkReferences": {},
					"object": "608060405234801561000f575f80fd5b50604051610f12380380610f1283398101604081905261002e916100a4565b60015f81815581546001600160a01b039788166001600160a01b0319918216179092556002805496881696831696909617909555600380549490961693169290921790935560055560049190915560078190556008556100f6565b80516001600160a01b038116811461009f575f80fd5b919050565b5f805f805f60a086880312156100b8575f80fd5b6100c186610089565b94506100cf60208701610089565b93506100dd60408701610089565b6060870151608090970151959894975095949392505050565b610e0f806101035f395ff3fe608060405234801561000f575f80fd5b5060043610610111575f3560e01c80639b29d2151161009e578063a164959d1161006e578063a164959d1461023a578063acde65971461024d578063ad5a402b14610260578063c45a015514610269578063caf10b571461027c575f80fd5b80639b29d215146102025780639d76ea58146102155780639f8932f414610228578063a163beea14610231575f80fd5b806362d76d06116100e457806362d76d06146101aa5780636b036f45146101bd5780638167ee72146101d457806395adb5ad146101e7578063966dae0e146101ef575f80fd5b80630d29fcd4146101155780631516def71461012a57806341fee5571461015a578063609c878a1461016d575b5f80fd5b610128610123366004610bb9565b6102e5565b005b60025461013d906001600160a01b031681565b6040516001600160a01b0390911681526020015b60405180910390f35b610128610168366004610bb9565b610328565b61019a61017b366004610beb565b600b60209081525f928352604080842090915290825290205460ff1681565b6040519015158152602001610151565b6101286101b8366004610c1c565b610524565b6101c660045481565b604051908152602001610151565b6101286101e2366004610c8b565b61072e565b610128610807565b60015461013d906001600160a01b031681565b610128610210366004610bb9565b610a53565b60035461013d906001600160a01b031681565b6101c660055481565b6101c660085481565b6101c6610248366004610beb565b610a8d565b61019a61025b366004610beb565b610af4565b6101c660075481565b60065461013d906001600160a01b031681565b6102bb61028a366004610cb3565b600a6020525f9081526040902080546001820154600283015460038401546004909401549293919290919060ff1685565b6040805195865260208601949094529284019190915260608301521515608082015260a001610151565b6002546001600160a01b031633146103185760405162461bcd60e51b815260040161030f90610cd3565b60405180910390fd5b5f8111610323575f80fd5b600455565b610330610b62565b6003546004546001600160a01b039091169082116103905760405162461bcd60e51b815260206004820181905260248201527f416d6f756e74206d7573742062652067726561746572207468616e207a65726f604482015260640161030f565b6001600160a01b0381166323b872dd336040516001600160e01b031960e084901b1681526001600160a01b039091166004820152306024820152604481018590526064016020604051808303815f875af11580156103f0573d5f803e3d5ffd5b505050506040513d601f19601f820116820180604052508101906104149190610d1f565b6104525760405162461bcd60e51b815260206004820152600f60248201526e151c985b9cd9995c8819985a5b1959608a1b604482015260640161030f565b335f90815260096020526040902060020154610100900460ff1615610475575f80fd5b335f9081526009602052604081208054849290610493908490610d52565b9091555050335f90815260096020526040812043600190910155600780548492906104bf908490610d52565b92505081905550600160085f8282546104d89190610d52565b90915550506040805183815243602082015233917f0ae860169ef88b6e5a084a54675af932ac7be23de4abd34a1d99a5a8402a17cc910160405180910390a25061052160015f55565b50565b335f90815260096020526040902060020154610100900460ff16610546575f80fd5b61054e610b62565b5f5b818110156107205761058883838381811061056d5761056d610d65565b90506020020160208101906105829190610cb3565b33610af4565b610590575f80fd5b600b5f8484848181106105a5576105a5610d65565b90506020020160208101906105ba9190610cb3565b6001600160a01b0316815260208082019290925260409081015f90812033825290925290205460ff16156105ec575f80fd5b5f61061d84848481811061060257610602610d65565b90506020020160208101906106179190610cb3565b33610a8d565b90506001600b5f86868681811061063657610636610d65565b905060200201602081019061064b9190610cb3565b6001600160a01b0316815260208082019290925260409081015f9081203382529092529020805460ff191691151591909117905583838381811061069157610691610d65565b90506020020160208101906106a69190610cb3565b60405163a9059cbb60e01b8152336004820152602481018390526001600160a01b03919091169063a9059cbb906044016020604051808303815f875af11580156106f2573d5f803e3d5ffd5b505050506040513d601f19601f820116820180604052508101906107169190610d1f565b5050600101610550565b5061072a60015f55565b5050565b610736610b62565b6040516370a0823160e01b815230600482015281906001600160a01b038416906370a0823190602401602060405180830381865afa15801561077a573d5f803e3d5ffd5b505050506040513d601f19601f8201168201806040525081019061079e9190610d79565b146107a7575f80fd5b6001600160a01b0382165f908152600a602052604090206004015460ff16156107ce575f80fd5b6001600160a01b0382165f908152600a602052604090204360018201558181556002810182905560075460039091015561072a60015f55565b61080f610b62565b335f9081526009602052604090205461085b5760405162461bcd60e51b815260206004820152600e60248201526d139bc81cdd185ad948199bdd5b9960921b604482015260640161030f565b335f9081526009602052604090206002015460ff16156108bd5760405162461bcd60e51b815260206004820152601760248201527f5374616b6520616c72656164792077697468647261776e000000000000000000604482015260640161030f565b600354335f81815260096020908152604080832080546002909101805461ffff19166001179055815163a9059cbb60e01b815260048101959095526024850181905290516001600160a01b03909516949093859363a9059cbb93604480840194919391929183900301908290875af115801561093b573d5f803e3d5ffd5b505050506040513d601f19601f8201168201806040525081019061095f9190610d1f565b61099d5760405162461bcd60e51b815260206004820152600f60248201526e151c985b9cd9995c8819985a5b1959608a1b604482015260640161030f565b8060075f8282546109ae9190610d90565b92505081905550600160085f8282546109c79190610d90565b9091555050335f9081526009602081905260408220829055816109e73390565b6001600160a01b0316815260208101919091526040015f2060010155336001600160a01b03167f14eed693e6d30152612ee94c12df593a490178621d3730e516b012e064eeef8f82604051610a3e91815260200190565b60405180910390a25050610a5160015f55565b565b6002546001600160a01b03163314610a7d5760405162461bcd60e51b815260040161030f90610cd3565b5f8111610a88575f80fd5b600555565b5f610a988383610af4565b610aa0575f80fd5b6001600160a01b038084165f908152600a602090815260408083208054600390910154948716845260099092528220549092610adb91610da3565b90505f610ae88383610dc2565b93505050505b92915050565b6001600160a01b0382165f908152600a602052604081206004015460ff16610b1a575f80fd5b6001600160a01b038084165f908152600a60209081526040808320600190810154600554958816855260099093529220909101549091610b5991610d52565b11159392505050565b60025f5403610bb35760405162461bcd60e51b815260206004820152601f60248201527f5265656e7472616e637947756172643a207265656e7472616e742063616c6c00604482015260640161030f565b60025f55565b5f60208284031215610bc9575f80fd5b5035919050565b80356001600160a01b0381168114610be6575f80fd5b919050565b5f8060408385031215610bfc575f80fd5b610c0583610bd0565b9150610c1360208401610bd0565b90509250929050565b5f8060208385031215610c2d575f80fd5b823567ffffffffffffffff80821115610c44575f80fd5b818501915085601f830112610c57575f80fd5b813581811115610c65575f80fd5b8660208260051b8501011115610c79575f80fd5b60209290920196919550909350505050565b5f8060408385031215610c9c575f80fd5b610ca583610bd0565b946020939093013593505050565b5f60208284031215610cc3575f80fd5b610ccc82610bd0565b9392505050565b6020808252602c908201527f4f6e6c79206d756c746953696720616464726573732063616e2063616c6c207460408201526b3434b990333ab731ba34b7b760a11b606082015260800190565b5f60208284031215610d2f575f80fd5b81518015158114610ccc575f80fd5b634e487b7160e01b5f52601160045260245ffd5b80820180821115610aee57610aee610d3e565b634e487b7160e01b5f52603260045260245ffd5b5f60208284031215610d89575f80fd5b5051919050565b81810381811115610aee57610aee610d3e565b5f82610dbd57634e487b7160e01b5f52601260045260245ffd5b500490565b8082028115828204841417610aee57610aee610d3e56fea26469706673582212209478b1d835b6531e95195d1359e8cf14d69a3380c9ccaed61827f90fa5c086d564736f6c63430008190033",
					"opcodes": "PUSH1 0x80 PUSH1 0x40 MSTORE CALLVALUE DUP1 ISZERO PUSH2 0xF JUMPI PUSH0 DUP1 REVERT JUMPDEST POP PUSH1 0x40 MLOAD PUSH2 0xF12 CODESIZE SUB DUP1 PUSH2 0xF12 DUP4 CODECOPY DUP2 ADD PUSH1 0x40 DUP2 SWAP1 MSTORE PUSH2 0x2E SWAP2 PUSH2 0xA4 JUMP JUMPDEST PUSH1 0x1 PUSH0 DUP2 DUP2 SSTORE DUP2 SLOAD PUSH1 0x1 PUSH1 0x1 PUSH1 0xA0 SHL SUB SWAP8 DUP9 AND PUSH1 0x1 PUSH1 0x1 PUSH1 0xA0 SHL SUB NOT SWAP2 DUP3 AND OR SWAP1 SWAP3 SSTORE PUSH1 0x2 DUP1 SLOAD SWAP7 DUP9 AND SWAP7 DUP4 AND SWAP7 SWAP1 SWAP7 OR SWAP1 SWAP6 SSTORE PUSH1 0x3 DUP1 SLOAD SWAP5 SWAP1 SWAP7 AND SWAP4 AND SWAP3 SWAP1 SWAP3 OR SWAP1 SWAP4 SSTORE PUSH1 0x5 SSTORE PUSH1 0x4 SWAP2 SWAP1 SWAP2 SSTORE PUSH1 0x7 DUP2 SWAP1 SSTORE PUSH1 0x8 SSTORE PUSH2 0xF6 JUMP JUMPDEST DUP1 MLOAD PUSH1 0x1 PUSH1 0x1 PUSH1 0xA0 SHL SUB DUP2 AND DUP2 EQ PUSH2 0x9F JUMPI PUSH0 DUP1 REVERT JUMPDEST SWAP2 SWAP1 POP JUMP JUMPDEST PUSH0 DUP1 PUSH0 DUP1 PUSH0 PUSH1 0xA0 DUP7 DUP9 SUB SLT ISZERO PUSH2 0xB8 JUMPI PUSH0 DUP1 REVERT JUMPDEST PUSH2 0xC1 DUP7 PUSH2 0x89 JUMP JUMPDEST SWAP5 POP PUSH2 0xCF PUSH1 0x20 DUP8 ADD PUSH2 0x89 JUMP JUMPDEST SWAP4 POP PUSH2 0xDD PUSH1 0x40 DUP8 ADD PUSH2 0x89 JUMP JUMPDEST PUSH1 0x60 DUP8 ADD MLOAD PUSH1 0x80 SWAP1 SWAP8 ADD MLOAD SWAP6 SWAP9 SWAP5 SWAP8 POP SWAP6 SWAP5 SWAP4 SWAP3 POP POP POP JUMP JUMPDEST PUSH2 0xE0F DUP1 PUSH2 0x103 PUSH0 CODECOPY PUSH0 RETURN INVALID PUSH1 0x80 PUSH1 0x40 MSTORE CALLVALUE DUP1 ISZERO PUSH2 0xF JUMPI PUSH0 DUP1 REVERT JUMPDEST POP PUSH1 0x4 CALLDATASIZE LT PUSH2 0x111 JUMPI PUSH0 CALLDATALOAD PUSH1 0xE0 SHR DUP1 PUSH4 0x9B29D215 GT PUSH2 0x9E JUMPI DUP1 PUSH4 0xA164959D GT PUSH2 0x6E JUMPI DUP1 PUSH4 0xA164959D EQ PUSH2 0x23A JUMPI DUP1 PUSH4 0xACDE6597 EQ PUSH2 0x24D JUMPI DUP1 PUSH4 0xAD5A402B EQ PUSH2 0x260 JUMPI DUP1 PUSH4 0xC45A0155 EQ PUSH2 0x269 JUMPI DUP1 PUSH4 0xCAF10B57 EQ PUSH2 0x27C JUMPI PUSH0 DUP1 REVERT JUMPDEST DUP1 PUSH4 0x9B29D215 EQ PUSH2 0x202 JUMPI DUP1 PUSH4 0x9D76EA58 EQ PUSH2 0x215 JUMPI DUP1 PUSH4 0x9F8932F4 EQ PUSH2 0x228 JUMPI DUP1 PUSH4 0xA163BEEA EQ PUSH2 0x231 JUMPI PUSH0 DUP1 REVERT JUMPDEST DUP1 PUSH4 0x62D76D06 GT PUSH2 0xE4 JUMPI DUP1 PUSH4 0x62D76D06 EQ PUSH2 0x1AA JUMPI DUP1 PUSH4 0x6B036F45 EQ PUSH2 0x1BD JUMPI DUP1 PUSH4 0x8167EE72 EQ PUSH2 0x1D4 JUMPI DUP1 PUSH4 0x95ADB5AD EQ PUSH2 0x1E7 JUMPI DUP1 PUSH4 0x966DAE0E EQ PUSH2 0x1EF JUMPI PUSH0 DUP1 REVERT JUMPDEST DUP1 PUSH4 0xD29FCD4 EQ PUSH2 0x115 JUMPI DUP1 PUSH4 0x1516DEF7 EQ PUSH2 0x12A JUMPI DUP1 PUSH4 0x41FEE557 EQ PUSH2 0x15A JUMPI DUP1 PUSH4 0x609C878A EQ PUSH2 0x16D JUMPI JUMPDEST PUSH0 DUP1 REVERT JUMPDEST PUSH2 0x128 PUSH2 0x123 CALLDATASIZE PUSH1 0x4 PUSH2 0xBB9 JUMP JUMPDEST PUSH2 0x2E5 JUMP JUMPDEST STOP JUMPDEST PUSH1 0x2 SLOAD PUSH2 0x13D SWAP1 PUSH1 0x1 PUSH1 0x1 PUSH1 0xA0 SHL SUB AND DUP2 JUMP JUMPDEST PUSH1 0x40 MLOAD PUSH1 0x1 PUSH1 0x1 PUSH1 0xA0 SHL SUB SWAP1 SWAP2 AND DUP2 MSTORE PUSH1 0x20 ADD JUMPDEST PUSH1 0x40 MLOAD DUP1 SWAP2 SUB SWAP1 RETURN JUMPDEST PUSH2 0x128 PUSH2 0x168 CALLDATASIZE PUSH1 0x4 PUSH2 0xBB9 JUMP JUMPDEST PUSH2 0x328 JUMP JUMPDEST PUSH2 0x19A PUSH2 0x17B CALLDATASIZE PUSH1 0x4 PUSH2 0xBEB JUMP JUMPDEST PUSH1 0xB PUSH1 0x20 SWAP1 DUP2 MSTORE PUSH0 SWAP3 DUP4 MSTORE PUSH1 0x40 DUP1 DUP5 KECCAK256 SWAP1 SWAP2 MSTORE SWAP1 DUP3 MSTORE SWAP1 KECCAK256 SLOAD PUSH1 0xFF AND DUP2 JUMP JUMPDEST PUSH1 0x40 MLOAD SWAP1 ISZERO ISZERO DUP2 MSTORE PUSH1 0x20 ADD PUSH2 0x151 JUMP JUMPDEST PUSH2 0x128 PUSH2 0x1B8 CALLDATASIZE PUSH1 0x4 PUSH2 0xC1C JUMP JUMPDEST PUSH2 0x524 JUMP JUMPDEST PUSH2 0x1C6 PUSH1 0x4 SLOAD DUP2 JUMP JUMPDEST PUSH1 0x40 MLOAD SWAP1 DUP2 MSTORE PUSH1 0x20 ADD PUSH2 0x151 JUMP JUMPDEST PUSH2 0x128 PUSH2 0x1E2 CALLDATASIZE PUSH1 0x4 PUSH2 0xC8B JUMP JUMPDEST PUSH2 0x72E JUMP JUMPDEST PUSH2 0x128 PUSH2 0x807 JUMP JUMPDEST PUSH1 0x1 SLOAD PUSH2 0x13D SWAP1 PUSH1 0x1 PUSH1 0x1 PUSH1 0xA0 SHL SUB AND DUP2 JUMP JUMPDEST PUSH2 0x128 PUSH2 0x210 CALLDATASIZE PUSH1 0x4 PUSH2 0xBB9 JUMP JUMPDEST PUSH2 0xA53 JUMP JUMPDEST PUSH1 0x3 SLOAD PUSH2 0x13D SWAP1 PUSH1 0x1 PUSH1 0x1 PUSH1 0xA0 SHL SUB AND DUP2 JUMP JUMPDEST PUSH2 0x1C6 PUSH1 0x5 SLOAD DUP2 JUMP JUMPDEST PUSH2 0x1C6 PUSH1 0x8 SLOAD DUP2 JUMP JUMPDEST PUSH2 0x1C6 PUSH2 0x248 CALLDATASIZE PUSH1 0x4 PUSH2 0xBEB JUMP JUMPDEST PUSH2 0xA8D JUMP JUMPDEST PUSH2 0x19A PUSH2 0x25B CALLDATASIZE PUSH1 0x4 PUSH2 0xBEB JUMP JUMPDEST PUSH2 0xAF4 JUMP JUMPDEST PUSH2 0x1C6 PUSH1 0x7 SLOAD DUP2 JUMP JUMPDEST PUSH1 0x6 SLOAD PUSH2 0x13D SWAP1 PUSH1 0x1 PUSH1 0x1 PUSH1 0xA0 SHL SUB AND DUP2 JUMP JUMPDEST PUSH2 0x2BB PUSH2 0x28A CALLDATASIZE PUSH1 0x4 PUSH2 0xCB3 JUMP JUMPDEST PUSH1 0xA PUSH1 0x20 MSTORE PUSH0 SWAP1 DUP2 MSTORE PUSH1 0x40 SWAP1 KECCAK256 DUP1 SLOAD PUSH1 0x1 DUP3 ADD SLOAD PUSH1 0x2 DUP4 ADD SLOAD PUSH1 0x3 DUP5 ADD SLOAD PUSH1 0x4 SWAP1 SWAP5 ADD SLOAD SWAP3 SWAP4 SWAP2 SWAP3 SWAP1 SWAP2 SWAP1 PUSH1 0xFF AND DUP6 JUMP JUMPDEST PUSH1 0x40 DUP1 MLOAD SWAP6 DUP7 MSTORE PUSH1 0x20 DUP7 ADD SWAP5 SWAP1 SWAP5 MSTORE SWAP3 DUP5 ADD SWAP2 SWAP1 SWAP2 MSTORE PUSH1 0x60 DUP4 ADD MSTORE ISZERO ISZERO PUSH1 0x80 DUP3 ADD MSTORE PUSH1 0xA0 ADD PUSH2 0x151 JUMP JUMPDEST PUSH1 0x2 SLOAD PUSH1 0x1 PUSH1 0x1 PUSH1 0xA0 SHL SUB AND CALLER EQ PUSH2 0x318 JUMPI PUSH1 0x40 MLOAD PUSH3 0x461BCD PUSH1 0xE5 SHL DUP2 MSTORE PUSH1 0x4 ADD PUSH2 0x30F SWAP1 PUSH2 0xCD3 JUMP JUMPDEST PUSH1 0x40 MLOAD DUP1 SWAP2 SUB SWAP1 REVERT JUMPDEST PUSH0 DUP2 GT PUSH2 0x323 JUMPI PUSH0 DUP1 REVERT JUMPDEST PUSH1 0x4 SSTORE JUMP JUMPDEST PUSH2 0x330 PUSH2 0xB62 JUMP JUMPDEST PUSH1 0x3 SLOAD PUSH1 0x4 SLOAD PUSH1 0x1 PUSH1 0x1 PUSH1 0xA0 SHL SUB SWAP1 SWAP2 AND SWAP1 DUP3 GT PUSH2 0x390 JUMPI PUSH1 0x40 MLOAD PUSH3 0x461BCD PUSH1 0xE5 SHL DUP2 MSTORE PUSH1 0x20 PUSH1 0x4 DUP3 ADD DUP2 SWAP1 MSTORE PUSH1 0x24 DUP3 ADD MSTORE PUSH32 0x416D6F756E74206D7573742062652067726561746572207468616E207A65726F PUSH1 0x44 DUP3 ADD MSTORE PUSH1 0x64 ADD PUSH2 0x30F JUMP JUMPDEST PUSH1 0x1 PUSH1 0x1 PUSH1 0xA0 SHL SUB DUP2 AND PUSH4 0x23B872DD CALLER PUSH1 0x40 MLOAD PUSH1 0x1 PUSH1 0x1 PUSH1 0xE0 SHL SUB NOT PUSH1 0xE0 DUP5 SWAP1 SHL AND DUP2 MSTORE PUSH1 0x1 PUSH1 0x1 PUSH1 0xA0 SHL SUB SWAP1 SWAP2 AND PUSH1 0x4 DUP3 ADD MSTORE ADDRESS PUSH1 0x24 DUP3 ADD MSTORE PUSH1 0x44 DUP2 ADD DUP6 SWAP1 MSTORE PUSH1 0x64 ADD PUSH1 0x20 PUSH1 0x40 MLOAD DUP1 DUP4 SUB DUP2 PUSH0 DUP8 GAS CALL ISZERO DUP1 ISZERO PUSH2 0x3F0 JUMPI RETURNDATASIZE PUSH0 DUP1 RETURNDATACOPY RETURNDATASIZE PUSH0 REVERT JUMPDEST POP POP POP POP PUSH1 0x40 MLOAD RETURNDATASIZE PUSH1 0x1F NOT PUSH1 0x1F DUP3 ADD AND DUP3 ADD DUP1 PUSH1 0x40 MSTORE POP DUP2 ADD SWAP1 PUSH2 0x414 SWAP2 SWAP1 PUSH2 0xD1F JUMP JUMPDEST PUSH2 0x452 JUMPI PUSH1 0x40 MLOAD PUSH3 0x461BCD PUSH1 0xE5 SHL DUP2 MSTORE PUSH1 0x20 PUSH1 0x4 DUP3 ADD MSTORE PUSH1 0xF PUSH1 0x24 DUP3 ADD MSTORE PUSH15 0x151C985B9CD9995C8819985A5B1959 PUSH1 0x8A SHL PUSH1 0x44 DUP3 ADD MSTORE PUSH1 0x64 ADD PUSH2 0x30F JUMP JUMPDEST CALLER PUSH0 SWAP1 DUP2 MSTORE PUSH1 0x9 PUSH1 0x20 MSTORE PUSH1 0x40 SWAP1 KECCAK256 PUSH1 0x2 ADD SLOAD PUSH2 0x100 SWAP1 DIV PUSH1 0xFF AND ISZERO PUSH2 0x475 JUMPI PUSH0 DUP1 REVERT JUMPDEST CALLER PUSH0 SWAP1 DUP2 MSTORE PUSH1 0x9 PUSH1 0x20 MSTORE PUSH1 0x40 DUP2 KECCAK256 DUP1 SLOAD DUP5 SWAP3 SWAP1 PUSH2 0x493 SWAP1 DUP5 SWAP1 PUSH2 0xD52 JUMP JUMPDEST SWAP1 SWAP2 SSTORE POP POP CALLER PUSH0 SWAP1 DUP2 MSTORE PUSH1 0x9 PUSH1 0x20 MSTORE PUSH1 0x40 DUP2 KECCAK256 NUMBER PUSH1 0x1 SWAP1 SWAP2 ADD SSTORE PUSH1 0x7 DUP1 SLOAD DUP5 SWAP3 SWAP1 PUSH2 0x4BF SWAP1 DUP5 SWAP1 PUSH2 0xD52 JUMP JUMPDEST SWAP3 POP POP DUP2 SWAP1 SSTORE POP PUSH1 0x1 PUSH1 0x8 PUSH0 DUP3 DUP3 SLOAD PUSH2 0x4D8 SWAP2 SWAP1 PUSH2 0xD52 JUMP JUMPDEST SWAP1 SWAP2 SSTORE POP POP PUSH1 0x40 DUP1 MLOAD DUP4 DUP2 MSTORE NUMBER PUSH1 0x20 DUP3 ADD MSTORE CALLER SWAP2 PUSH32 0xAE860169EF88B6E5A084A54675AF932AC7BE23DE4ABD34A1D99A5A8402A17CC SWAP2 ADD PUSH1 0x40 MLOAD DUP1 SWAP2 SUB SWAP1 LOG2 POP PUSH2 0x521 PUSH1 0x1 PUSH0 SSTORE JUMP JUMPDEST POP JUMP JUMPDEST CALLER PUSH0 SWAP1 DUP2 MSTORE PUSH1 0x9 PUSH1 0x20 MSTORE PUSH1 0x40 SWAP1 KECCAK256 PUSH1 0x2 ADD SLOAD PUSH2 0x100 SWAP1 DIV PUSH1 0xFF AND PUSH2 0x546 JUMPI PUSH0 DUP1 REVERT JUMPDEST PUSH2 0x54E PUSH2 0xB62 JUMP JUMPDEST PUSH0 JUMPDEST DUP2 DUP2 LT ISZERO PUSH2 0x720 JUMPI PUSH2 0x588 DUP4 DUP4 DUP4 DUP2 DUP2 LT PUSH2 0x56D JUMPI PUSH2 0x56D PUSH2 0xD65 JUMP JUMPDEST SWAP1 POP PUSH1 0x20 MUL ADD PUSH1 0x20 DUP2 ADD SWAP1 PUSH2 0x582 SWAP2 SWAP1 PUSH2 0xCB3 JUMP JUMPDEST CALLER PUSH2 0xAF4 JUMP JUMPDEST PUSH2 0x590 JUMPI PUSH0 DUP1 REVERT JUMPDEST PUSH1 0xB PUSH0 DUP5 DUP5 DUP5 DUP2 DUP2 LT PUSH2 0x5A5 JUMPI PUSH2 0x5A5 PUSH2 0xD65 JUMP JUMPDEST SWAP1 POP PUSH1 0x20 MUL ADD PUSH1 0x20 DUP2 ADD SWAP1 PUSH2 0x5BA SWAP2 SWAP1 PUSH2 0xCB3 JUMP JUMPDEST PUSH1 0x1 PUSH1 0x1 PUSH1 0xA0 SHL SUB AND DUP2 MSTORE PUSH1 0x20 DUP1 DUP3 ADD SWAP3 SWAP1 SWAP3 MSTORE PUSH1 0x40 SWAP1 DUP2 ADD PUSH0 SWAP1 DUP2 KECCAK256 CALLER DUP3 MSTORE SWAP1 SWAP3 MSTORE SWAP1 KECCAK256 SLOAD PUSH1 0xFF AND ISZERO PUSH2 0x5EC JUMPI PUSH0 DUP1 REVERT JUMPDEST PUSH0 PUSH2 0x61D DUP5 DUP5 DUP5 DUP2 DUP2 LT PUSH2 0x602 JUMPI PUSH2 0x602 PUSH2 0xD65 JUMP JUMPDEST SWAP1 POP PUSH1 0x20 MUL ADD PUSH1 0x20 DUP2 ADD SWAP1 PUSH2 0x617 SWAP2 SWAP1 PUSH2 0xCB3 JUMP JUMPDEST CALLER PUSH2 0xA8D JUMP JUMPDEST SWAP1 POP PUSH1 0x1 PUSH1 0xB PUSH0 DUP7 DUP7 DUP7 DUP2 DUP2 LT PUSH2 0x636 JUMPI PUSH2 0x636 PUSH2 0xD65 JUMP JUMPDEST SWAP1 POP PUSH1 0x20 MUL ADD PUSH1 0x20 DUP2 ADD SWAP1 PUSH2 0x64B SWAP2 SWAP1 PUSH2 0xCB3 JUMP JUMPDEST PUSH1 0x1 PUSH1 0x1 PUSH1 0xA0 SHL SUB AND DUP2 MSTORE PUSH1 0x20 DUP1 DUP3 ADD SWAP3 SWAP1 SWAP3 MSTORE PUSH1 0x40 SWAP1 DUP2 ADD PUSH0 SWAP1 DUP2 KECCAK256 CALLER DUP3 MSTORE SWAP1 SWAP3 MSTORE SWAP1 KECCAK256 DUP1 SLOAD PUSH1 0xFF NOT AND SWAP2 ISZERO ISZERO SWAP2 SWAP1 SWAP2 OR SWAP1 SSTORE DUP4 DUP4 DUP4 DUP2 DUP2 LT PUSH2 0x691 JUMPI PUSH2 0x691 PUSH2 0xD65 JUMP JUMPDEST SWAP1 POP PUSH1 0x20 MUL ADD PUSH1 0x20 DUP2 ADD SWAP1 PUSH2 0x6A6 SWAP2 SWAP1 PUSH2 0xCB3 JUMP JUMPDEST PUSH1 0x40 MLOAD PUSH4 0xA9059CBB PUSH1 0xE0 SHL DUP2 MSTORE CALLER PUSH1 0x4 DUP3 ADD MSTORE PUSH1 0x24 DUP2 ADD DUP4 SWAP1 MSTORE PUSH1 0x1 PUSH1 0x1 PUSH1 0xA0 SHL SUB SWAP2 SWAP1 SWAP2 AND SWAP1 PUSH4 0xA9059CBB SWAP1 PUSH1 0x44 ADD PUSH1 0x20 PUSH1 0x40 MLOAD DUP1 DUP4 SUB DUP2 PUSH0 DUP8 GAS CALL ISZERO DUP1 ISZERO PUSH2 0x6F2 JUMPI RETURNDATASIZE PUSH0 DUP1 RETURNDATACOPY RETURNDATASIZE PUSH0 REVERT JUMPDEST POP POP POP POP PUSH1 0x40 MLOAD RETURNDATASIZE PUSH1 0x1F NOT PUSH1 0x1F DUP3 ADD AND DUP3 ADD DUP1 PUSH1 0x40 MSTORE POP DUP2 ADD SWAP1 PUSH2 0x716 SWAP2 SWAP1 PUSH2 0xD1F JUMP JUMPDEST POP POP PUSH1 0x1 ADD PUSH2 0x550 JUMP JUMPDEST POP PUSH2 0x72A PUSH1 0x1 PUSH0 SSTORE JUMP JUMPDEST POP POP JUMP JUMPDEST PUSH2 0x736 PUSH2 0xB62 JUMP JUMPDEST PUSH1 0x40 MLOAD PUSH4 0x70A08231 PUSH1 0xE0 SHL DUP2 MSTORE ADDRESS PUSH1 0x4 DUP3 ADD MSTORE DUP2 SWAP1 PUSH1 0x1 PUSH1 0x1 PUSH1 0xA0 SHL SUB DUP5 AND SWAP1 PUSH4 0x70A08231 SWAP1 PUSH1 0x24 ADD PUSH1 0x20 PUSH1 0x40 MLOAD DUP1 DUP4 SUB DUP2 DUP7 GAS STATICCALL ISZERO DUP1 ISZERO PUSH2 0x77A JUMPI RETURNDATASIZE PUSH0 DUP1 RETURNDATACOPY RETURNDATASIZE PUSH0 REVERT JUMPDEST POP POP POP POP PUSH1 0x40 MLOAD RETURNDATASIZE PUSH1 0x1F NOT PUSH1 0x1F DUP3 ADD AND DUP3 ADD DUP1 PUSH1 0x40 MSTORE POP DUP2 ADD SWAP1 PUSH2 0x79E SWAP2 SWAP1 PUSH2 0xD79 JUMP JUMPDEST EQ PUSH2 0x7A7 JUMPI PUSH0 DUP1 REVERT JUMPDEST PUSH1 0x1 PUSH1 0x1 PUSH1 0xA0 SHL SUB DUP3 AND PUSH0 SWAP1 DUP2 MSTORE PUSH1 0xA PUSH1 0x20 MSTORE PUSH1 0x40 SWAP1 KECCAK256 PUSH1 0x4 ADD SLOAD PUSH1 0xFF AND ISZERO PUSH2 0x7CE JUMPI PUSH0 DUP1 REVERT JUMPDEST PUSH1 0x1 PUSH1 0x1 PUSH1 0xA0 SHL SUB DUP3 AND PUSH0 SWAP1 DUP2 MSTORE PUSH1 0xA PUSH1 0x20 MSTORE PUSH1 0x40 SWAP1 KECCAK256 NUMBER PUSH1 0x1 DUP3 ADD SSTORE DUP2 DUP2 SSTORE PUSH1 0x2 DUP2 ADD DUP3 SWAP1 SSTORE PUSH1 0x7 SLOAD PUSH1 0x3 SWAP1 SWAP2 ADD SSTORE PUSH2 0x72A PUSH1 0x1 PUSH0 SSTORE JUMP JUMPDEST PUSH2 0x80F PUSH2 0xB62 JUMP JUMPDEST CALLER PUSH0 SWAP1 DUP2 MSTORE PUSH1 0x9 PUSH1 0x20 MSTORE PUSH1 0x40 SWAP1 KECCAK256 SLOAD PUSH2 0x85B JUMPI PUSH1 0x40 MLOAD PUSH3 0x461BCD PUSH1 0xE5 SHL DUP2 MSTORE PUSH1 0x20 PUSH1 0x4 DUP3 ADD MSTORE PUSH1 0xE PUSH1 0x24 DUP3 ADD MSTORE PUSH14 0x139BC81CDD185AD948199BDD5B99 PUSH1 0x92 SHL PUSH1 0x44 DUP3 ADD MSTORE PUSH1 0x64 ADD PUSH2 0x30F JUMP JUMPDEST CALLER PUSH0 SWAP1 DUP2 MSTORE PUSH1 0x9 PUSH1 0x20 MSTORE PUSH1 0x40 SWAP1 KECCAK256 PUSH1 0x2 ADD SLOAD PUSH1 0xFF AND ISZERO PUSH2 0x8BD JUMPI PUSH1 0x40 MLOAD PUSH3 0x461BCD PUSH1 0xE5 SHL DUP2 MSTORE PUSH1 0x20 PUSH1 0x4 DUP3 ADD MSTORE PUSH1 0x17 PUSH1 0x24 DUP3 ADD MSTORE PUSH32 0x5374616B6520616C72656164792077697468647261776E000000000000000000 PUSH1 0x44 DUP3 ADD MSTORE PUSH1 0x64 ADD PUSH2 0x30F JUMP JUMPDEST PUSH1 0x3 SLOAD CALLER PUSH0 DUP2 DUP2 MSTORE PUSH1 0x9 PUSH1 0x20 SWAP1 DUP2 MSTORE PUSH1 0x40 DUP1 DUP4 KECCAK256 DUP1 SLOAD PUSH1 0x2 SWAP1 SWAP2 ADD DUP1 SLOAD PUSH2 0xFFFF NOT AND PUSH1 0x1 OR SWAP1 SSTORE DUP2 MLOAD PUSH4 0xA9059CBB PUSH1 0xE0 SHL DUP2 MSTORE PUSH1 0x4 DUP2 ADD SWAP6 SWAP1 SWAP6 MSTORE PUSH1 0x24 DUP6 ADD DUP2 SWAP1 MSTORE SWAP1 MLOAD PUSH1 0x1 PUSH1 0x1 PUSH1 0xA0 SHL SUB SWAP1 SWAP6 AND SWAP5 SWAP1 SWAP4 DUP6 SWAP4 PUSH4 0xA9059CBB SWAP4 PUSH1 0x44 DUP1 DUP5 ADD SWAP5 SWAP2 SWAP4 SWAP2 SWAP3 SWAP2 DUP4 SWAP1 SUB ADD SWAP1 DUP3 SWAP1 DUP8 GAS CALL ISZERO DUP1 ISZERO PUSH2 0x93B JUMPI RETURNDATASIZE PUSH0 DUP1 RETURNDATACOPY RETURNDATASIZE PUSH0 REVERT JUMPDEST POP POP POP POP PUSH1 0x40 MLOAD RETURNDATASIZE PUSH1 0x1F NOT PUSH1 0x1F DUP3 ADD AND DUP3 ADD DUP1 PUSH1 0x40 MSTORE POP DUP2 ADD SWAP1 PUSH2 0x95F SWAP2 SWAP1 PUSH2 0xD1F JUMP JUMPDEST PUSH2 0x99D JUMPI PUSH1 0x40 MLOAD PUSH3 0x461BCD PUSH1 0xE5 SHL DUP2 MSTORE PUSH1 0x20 PUSH1 0x4 DUP3 ADD MSTORE PUSH1 0xF PUSH1 0x24 DUP3 ADD MSTORE PUSH15 0x151C985B9CD9995C8819985A5B1959 PUSH1 0x8A SHL PUSH1 0x44 DUP3 ADD MSTORE PUSH1 0x64 ADD PUSH2 0x30F JUMP JUMPDEST DUP1 PUSH1 0x7 PUSH0 DUP3 DUP3 SLOAD PUSH2 0x9AE SWAP2 SWAP1 PUSH2 0xD90 JUMP JUMPDEST SWAP3 POP POP DUP2 SWAP1 SSTORE POP PUSH1 0x1 PUSH1 0x8 PUSH0 DUP3 DUP3 SLOAD PUSH2 0x9C7 SWAP2 SWAP1 PUSH2 0xD90 JUMP JUMPDEST SWAP1 SWAP2 SSTORE POP POP CALLER PUSH0 SWAP1 DUP2 MSTORE PUSH1 0x9 PUSH1 0x20 DUP2 SWAP1 MSTORE PUSH1 0x40 DUP3 KECCAK256 DUP3 SWAP1 SSTORE DUP2 PUSH2 0x9E7 CALLER SWAP1 JUMP JUMPDEST PUSH1 0x1 PUSH1 0x1 PUSH1 0xA0 SHL SUB AND DUP2 MSTORE PUSH1 0x20 DUP2 ADD SWAP2 SWAP1 SWAP2 MSTORE PUSH1 0x40 ADD PUSH0 KECCAK256 PUSH1 0x1 ADD SSTORE CALLER PUSH1 0x1 PUSH1 0x1 PUSH1 0xA0 SHL SUB AND PUSH32 0x14EED693E6D30152612EE94C12DF593A490178621D3730E516B012E064EEEF8F DUP3 PUSH1 0x40 MLOAD PUSH2 0xA3E SWAP2 DUP2 MSTORE PUSH1 0x20 ADD SWAP1 JUMP JUMPDEST PUSH1 0x40 MLOAD DUP1 SWAP2 SUB SWAP1 LOG2 POP POP PUSH2 0xA51 PUSH1 0x1 PUSH0 SSTORE JUMP JUMPDEST JUMP JUMPDEST PUSH1 0x2 SLOAD PUSH1 0x1 PUSH1 0x1 PUSH1 0xA0 SHL SUB AND CALLER EQ PUSH2 0xA7D JUMPI PUSH1 0x40 MLOAD PUSH3 0x461BCD PUSH1 0xE5 SHL DUP2 MSTORE PUSH1 0x4 ADD PUSH2 0x30F SWAP1 PUSH2 0xCD3 JUMP JUMPDEST PUSH0 DUP2 GT PUSH2 0xA88 JUMPI PUSH0 DUP1 REVERT JUMPDEST PUSH1 0x5 SSTORE JUMP JUMPDEST PUSH0 PUSH2 0xA98 DUP4 DUP4 PUSH2 0xAF4 JUMP JUMPDEST PUSH2 0xAA0 JUMPI PUSH0 DUP1 REVERT JUMPDEST PUSH1 0x1 PUSH1 0x1 PUSH1 0xA0 SHL SUB DUP1 DUP5 AND PUSH0 SWAP1 DUP2 MSTORE PUSH1 0xA PUSH1 0x20 SWAP1 DUP2 MSTORE PUSH1 0x40 DUP1 DUP4 KECCAK256 DUP1 SLOAD PUSH1 0x3 SWAP1 SWAP2 ADD SLOAD SWAP5 DUP8 AND DUP5 MSTORE PUSH1 0x9 SWAP1 SWAP3 MSTORE DUP3 KECCAK256 SLOAD SWAP1 SWAP3 PUSH2 0xADB SWAP2 PUSH2 0xDA3 JUMP JUMPDEST SWAP1 POP PUSH0 PUSH2 0xAE8 DUP4 DUP4 PUSH2 0xDC2 JUMP JUMPDEST SWAP4 POP POP POP POP JUMPDEST SWAP3 SWAP2 POP POP JUMP JUMPDEST PUSH1 0x1 PUSH1 0x1 PUSH1 0xA0 SHL SUB DUP3 AND PUSH0 SWAP1 DUP2 MSTORE PUSH1 0xA PUSH1 0x20 MSTORE PUSH1 0x40 DUP2 KECCAK256 PUSH1 0x4 ADD SLOAD PUSH1 0xFF AND PUSH2 0xB1A JUMPI PUSH0 DUP1 REVERT JUMPDEST PUSH1 0x1 PUSH1 0x1 PUSH1 0xA0 SHL SUB DUP1 DUP5 AND PUSH0 SWAP1 DUP2 MSTORE PUSH1 0xA PUSH1 0x20 SWAP1 DUP2 MSTORE PUSH1 0x40 DUP1 DUP4 KECCAK256 PUSH1 0x1 SWAP1 DUP2 ADD SLOAD PUSH1 0x5 SLOAD SWAP6 DUP9 AND DUP6 MSTORE PUSH1 0x9 SWAP1 SWAP4 MSTORE SWAP3 KECCAK256 SWAP1 SWAP2 ADD SLOAD SWAP1 SWAP2 PUSH2 0xB59 SWAP2 PUSH2 0xD52 JUMP JUMPDEST GT ISZERO SWAP4 SWAP3 POP POP POP JUMP JUMPDEST PUSH1 0x2 PUSH0 SLOAD SUB PUSH2 0xBB3 JUMPI PUSH1 0x40 MLOAD PUSH3 0x461BCD PUSH1 0xE5 SHL DUP2 MSTORE PUSH1 0x20 PUSH1 0x4 DUP3 ADD MSTORE PUSH1 0x1F PUSH1 0x24 DUP3 ADD MSTORE PUSH32 0x5265656E7472616E637947756172643A207265656E7472616E742063616C6C00 PUSH1 0x44 DUP3 ADD MSTORE PUSH1 0x64 ADD PUSH2 0x30F JUMP JUMPDEST PUSH1 0x2 PUSH0 SSTORE JUMP JUMPDEST PUSH0 PUSH1 0x20 DUP3 DUP5 SUB SLT ISZERO PUSH2 0xBC9 JUMPI PUSH0 DUP1 REVERT JUMPDEST POP CALLDATALOAD SWAP2 SWAP1 POP JUMP JUMPDEST DUP1 CALLDATALOAD PUSH1 0x1 PUSH1 0x1 PUSH1 0xA0 SHL SUB DUP2 AND DUP2 EQ PUSH2 0xBE6 JUMPI PUSH0 DUP1 REVERT JUMPDEST SWAP2 SWAP1 POP JUMP JUMPDEST PUSH0 DUP1 PUSH1 0x40 DUP4 DUP6 SUB SLT ISZERO PUSH2 0xBFC JUMPI PUSH0 DUP1 REVERT JUMPDEST PUSH2 0xC05 DUP4 PUSH2 0xBD0 JUMP JUMPDEST SWAP2 POP PUSH2 0xC13 PUSH1 0x20 DUP5 ADD PUSH2 0xBD0 JUMP JUMPDEST SWAP1 POP SWAP3 POP SWAP3 SWAP1 POP JUMP JUMPDEST PUSH0 DUP1 PUSH1 0x20 DUP4 DUP6 SUB SLT ISZERO PUSH2 0xC2D JUMPI PUSH0 DUP1 REVERT JUMPDEST DUP3 CALLDATALOAD PUSH8 0xFFFFFFFFFFFFFFFF DUP1 DUP3 GT ISZERO PUSH2 0xC44 JUMPI PUSH0 DUP1 REVERT JUMPDEST DUP2 DUP6 ADD SWAP2 POP DUP6 PUSH1 0x1F DUP4 ADD SLT PUSH2 0xC57 JUMPI PUSH0 DUP1 REVERT JUMPDEST DUP2 CALLDATALOAD DUP2 DUP2 GT ISZERO PUSH2 0xC65 JUMPI PUSH0 DUP1 REVERT JUMPDEST DUP7 PUSH1 0x20 DUP3 PUSH1 0x5 SHL DUP6 ADD ADD GT ISZERO PUSH2 0xC79 JUMPI PUSH0 DUP1 REVERT JUMPDEST PUSH1 0x20 SWAP3 SWAP1 SWAP3 ADD SWAP7 SWAP2 SWAP6 POP SWAP1 SWAP4 POP POP POP POP JUMP JUMPDEST PUSH0 DUP1 PUSH1 0x40 DUP4 DUP6 SUB SLT ISZERO PUSH2 0xC9C JUMPI PUSH0 DUP1 REVERT JUMPDEST PUSH2 0xCA5 DUP4 PUSH2 0xBD0 JUMP JUMPDEST SWAP5 PUSH1 0x20 SWAP4 SWAP1 SWAP4 ADD CALLDATALOAD SWAP4 POP POP POP JUMP JUMPDEST PUSH0 PUSH1 0x20 DUP3 DUP5 SUB SLT ISZERO PUSH2 0xCC3 JUMPI PUSH0 DUP1 REVERT JUMPDEST PUSH2 0xCCC DUP3 PUSH2 0xBD0 JUMP JUMPDEST SWAP4 SWAP3 POP POP POP JUMP JUMPDEST PUSH1 0x20 DUP1 DUP3 MSTORE PUSH1 0x2C SWAP1 DUP3 ADD MSTORE PUSH32 0x4F6E6C79206D756C746953696720616464726573732063616E2063616C6C2074 PUSH1 0x40 DUP3 ADD MSTORE PUSH12 0x3434B990333AB731BA34B7B7 PUSH1 0xA1 SHL PUSH1 0x60 DUP3 ADD MSTORE PUSH1 0x80 ADD SWAP1 JUMP JUMPDEST PUSH0 PUSH1 0x20 DUP3 DUP5 SUB SLT ISZERO PUSH2 0xD2F JUMPI PUSH0 DUP1 REVERT JUMPDEST DUP2 MLOAD DUP1 ISZERO ISZERO DUP2 EQ PUSH2 0xCCC JUMPI PUSH0 DUP1 REVERT JUMPDEST PUSH4 0x4E487B71 PUSH1 0xE0 SHL PUSH0 MSTORE PUSH1 0x11 PUSH1 0x4 MSTORE PUSH1 0x24 PUSH0 REVERT JUMPDEST DUP1 DUP3 ADD DUP1 DUP3 GT ISZERO PUSH2 0xAEE JUMPI PUSH2 0xAEE PUSH2 0xD3E JUMP JUMPDEST PUSH4 0x4E487B71 PUSH1 0xE0 SHL PUSH0 MSTORE PUSH1 0x32 PUSH1 0x4 MSTORE PUSH1 0x24 PUSH0 REVERT JUMPDEST PUSH0 PUSH1 0x20 DUP3 DUP5 SUB SLT ISZERO PUSH2 0xD89 JUMPI PUSH0 DUP1 REVERT JUMPDEST POP MLOAD SWAP2 SWAP1 POP JUMP JUMPDEST DUP2 DUP2 SUB DUP2 DUP2 GT ISZERO PUSH2 0xAEE JUMPI PUSH2 0xAEE PUSH2 0xD3E JUMP JUMPDEST PUSH0 DUP3 PUSH2 0xDBD JUMPI PUSH4 0x4E487B71 PUSH1 0xE0 SHL PUSH0 MSTORE PUSH1 0x12 PUSH1 0x4 MSTORE PUSH1 0x24 PUSH0 REVERT JUMPDEST POP DIV SWAP1 JUMP JUMPDEST DUP1 DUP3 MUL DUP2 ISZERO DUP3 DUP3 DIV DUP5 EQ OR PUSH2 0xAEE JUMPI PUSH2 0xAEE PUSH2 0xD3E JUMP INVALID LOG2 PUSH5 0x6970667358 0x22 SLT KECCAK256 SWAP5 PUSH25 0xB1D835B6531E95195D1359E8CF14D69A3380C9CCAED61827F9 0xF 0xA5 0xC0 DUP7 0xD5 PUSH5 0x736F6C6343 STOP ADDMOD NOT STOP CALLER "
				},
				"gasEstimates": {
					"creation": {
						"codeDepositCost": "719800",
						"executionCost": "infinite",
						"totalCost": "infinite"
					},
					"external": {
						"addressWithdrewERC20Reward(address,address)": "infinite",
						"degeneratorStakers()": "2383",
						"degeneratorStakingPool()": "2360",
						"erc20Supplies(address)": "11182",
						"factory()": "2413",
						"factoryAddress()": "2436",
						"getTokenEligibility(address,address)": "infinite",
						"getTokenReward(address,address)": "infinite",
						"minimumStakeAmount()": "2339",
						"multiSigAddress()": "2371",
						"registerERC20Supply(address,uint256)": "infinite",
						"rewardBlackoutPeriod()": "2361",
						"setMinimumStakeAmount(uint256)": "24508",
						"setRewardBlackoutPeriod(uint256)": "24507",
						"stakeDegnerator(uint256)": "infinite",
						"tokenAddress()": "2370",
						"withdrawDegenerator()": "infinite",
						"withdrawRewards(address[])": "infinite"
					}
				},
				"methodIdentifiers": {
					"addressWithdrewERC20Reward(address,address)": "609c878a",
					"degeneratorStakers()": "a163beea",
					"degeneratorStakingPool()": "ad5a402b",
					"erc20Supplies(address)": "caf10b57",
					"factory()": "c45a0155",
					"factoryAddress()": "966dae0e",
					"getTokenEligibility(address,address)": "acde6597",
					"getTokenReward(address,address)": "a164959d",
					"minimumStakeAmount()": "6b036f45",
					"multiSigAddress()": "1516def7",
					"registerERC20Supply(address,uint256)": "8167ee72",
					"rewardBlackoutPeriod()": "9f8932f4",
					"setMinimumStakeAmount(uint256)": "0d29fcd4",
					"setRewardBlackoutPeriod(uint256)": "9b29d215",
					"stakeDegnerator(uint256)": "41fee557",
					"tokenAddress()": "9d76ea58",
					"withdrawDegenerator()": "95adb5ad",
					"withdrawRewards(address[])": "62d76d06"
				}
			},
			"storageLayout": {
				"storage": [
					{
						"astId": 158,
						"contract": "StakingContract.sol:DegeneratorStaking",
						"label": "_status",
						"offset": 0,
						"slot": "0",
						"type": "t_uint256"
					},
					{
						"astId": 504,
						"contract": "StakingContract.sol:DegeneratorStaking",
						"label": "factoryAddress",
						"offset": 0,
						"slot": "1",
						"type": "t_address"
					},
					{
						"astId": 506,
						"contract": "StakingContract.sol:DegeneratorStaking",
						"label": "multiSigAddress",
						"offset": 0,
						"slot": "2",
						"type": "t_address"
					},
					{
						"astId": 508,
						"contract": "StakingContract.sol:DegeneratorStaking",
						"label": "tokenAddress",
						"offset": 0,
						"slot": "3",
						"type": "t_address"
					},
					{
						"astId": 510,
						"contract": "StakingContract.sol:DegeneratorStaking",
						"label": "minimumStakeAmount",
						"offset": 0,
						"slot": "4",
						"type": "t_uint256"
					},
					{
						"astId": 512,
						"contract": "StakingContract.sol:DegeneratorStaking",
						"label": "rewardBlackoutPeriod",
						"offset": 0,
						"slot": "5",
						"type": "t_uint256"
					},
					{
						"astId": 515,
						"contract": "StakingContract.sol:DegeneratorStaking",
						"label": "factory",
						"offset": 0,
						"slot": "6",
						"type": "t_contract(IFairLaunchFactoryV1)491"
					},
					{
						"astId": 517,
						"contract": "StakingContract.sol:DegeneratorStaking",
						"label": "degeneratorStakingPool",
						"offset": 0,
						"slot": "7",
						"type": "t_uint256"
					},
					{
						"astId": 519,
						"contract": "StakingContract.sol:DegeneratorStaking",
						"label": "degeneratorStakers",
						"offset": 0,
						"slot": "8",
						"type": "t_uint256"
					},
					{
						"astId": 582,
						"contract": "StakingContract.sol:DegeneratorStaking",
						"label": "addressStake",
						"offset": 0,
						"slot": "9",
						"type": "t_mapping(t_address,t_struct(Stake)566_storage)"
					},
					{
						"astId": 587,
						"contract": "StakingContract.sol:DegeneratorStaking",
						"label": "erc20Supplies",
						"offset": 0,
						"slot": "10",
						"type": "t_mapping(t_address,t_struct(ERC20Supply)577_storage)"
					},
					{
						"astId": 593,
						"contract": "StakingContract.sol:DegeneratorStaking",
						"label": "addressWithdrewERC20Reward",
						"offset": 0,
						"slot": "11",
						"type": "t_mapping(t_address,t_mapping(t_address,t_bool))"
					}
				],
				"types": {
					"t_address": {
						"encoding": "inplace",
						"label": "address",
						"numberOfBytes": "20"
					},
					"t_bool": {
						"encoding": "inplace",
						"label": "bool",
						"numberOfBytes": "1"
					},
					"t_contract(IFairLaunchFactoryV1)491": {
						"encoding": "inplace",
						"label": "contract IFairLaunchFactoryV1",
						"numberOfBytes": "20"
					},
					"t_mapping(t_address,t_bool)": {
						"encoding": "mapping",
						"key": "t_address",
						"label": "mapping(address => bool)",
						"numberOfBytes": "32",
						"value": "t_bool"
					},
					"t_mapping(t_address,t_mapping(t_address,t_bool))": {
						"encoding": "mapping",
						"key": "t_address",
						"label": "mapping(address => mapping(address => bool))",
						"numberOfBytes": "32",
						"value": "t_mapping(t_address,t_bool)"
					},
					"t_mapping(t_address,t_struct(ERC20Supply)577_storage)": {
						"encoding": "mapping",
						"key": "t_address",
						"label": "mapping(address => struct DegeneratorStaking.ERC20Supply)",
						"numberOfBytes": "32",
						"value": "t_struct(ERC20Supply)577_storage"
					},
					"t_mapping(t_address,t_struct(Stake)566_storage)": {
						"encoding": "mapping",
						"key": "t_address",
						"label": "mapping(address => struct DegeneratorStaking.Stake)",
						"numberOfBytes": "32",
						"value": "t_struct(Stake)566_storage"
					},
					"t_struct(ERC20Supply)577_storage": {
						"encoding": "inplace",
						"label": "struct DegeneratorStaking.ERC20Supply",
						"members": [
							{
								"astId": 568,
								"contract": "StakingContract.sol:DegeneratorStaking",
								"label": "poolSupply",
								"offset": 0,
								"slot": "0",
								"type": "t_uint256"
							},
							{
								"astId": 570,
								"contract": "StakingContract.sol:DegeneratorStaking",
								"label": "blockSupplied",
								"offset": 0,
								"slot": "1",
								"type": "t_uint256"
							},
							{
								"astId": 572,
								"contract": "StakingContract.sol:DegeneratorStaking",
								"label": "remainingPoolSupply",
								"offset": 0,
								"slot": "2",
								"type": "t_uint256"
							},
							{
								"astId": 574,
								"contract": "StakingContract.sol:DegeneratorStaking",
								"label": "degeneratorPoolSizeAtTime",
								"offset": 0,
								"slot": "3",
								"type": "t_uint256"
							},
							{
								"astId": 576,
								"contract": "StakingContract.sol:DegeneratorStaking",
								"label": "registered",
								"offset": 0,
								"slot": "4",
								"type": "t_bool"
							}
						],
						"numberOfBytes": "160"
					},
					"t_struct(Stake)566_storage": {
						"encoding": "inplace",
						"label": "struct DegeneratorStaking.Stake",
						"members": [
							{
								"astId": 559,
								"contract": "StakingContract.sol:DegeneratorStaking",
								"label": "amount",
								"offset": 0,
								"slot": "0",
								"type": "t_uint256"
							},
							{
								"astId": 561,
								"contract": "StakingContract.sol:DegeneratorStaking",
								"label": "blockStaked",
								"offset": 0,
								"slot": "1",
								"type": "t_uint256"
							},
							{
								"astId": 563,
								"contract": "StakingContract.sol:DegeneratorStaking",
								"label": "withdrawn",
								"offset": 0,
								"slot": "2",
								"type": "t_bool"
							},
							{
								"astId": 565,
								"contract": "StakingContract.sol:DegeneratorStaking",
								"label": "activeDeposit",
								"offset": 1,
								"slot": "2",
								"type": "t_bool"
							}
						],
						"numberOfBytes": "96"
					},
					"t_uint256": {
						"encoding": "inplace",
						"label": "uint256",
						"numberOfBytes": "32"
					}
				}
			},
			"userdoc": {
				"kind": "user",
				"methods": {},
				"version": 1
			}
		}
	}
}