{
	"data": {
		"bytecode": {
			"linkReferences": {},
			"object": "6080604052348015600e575f80fd5b50604051610ee7380380610ee7833981016040819052602b91608f565b60015f81815581546001600160a01b03199081166001600160a01b0397881617909255600280549092169490951693909317909255600491909155600355600681905560075560ca565b80516001600160a01b0381168114608a575f80fd5b919050565b5f805f806080858703121560a1575f80fd5b60a8856075565b935060b4602086016075565b6040860151606090960151949790965092505050565b610e10806100d75f395ff3fe608060405234801561000f575f80fd5b5060043610610111575f3560e01c80639b29d2151161009e578063a164959d1161006e578063a164959d14610234578063acde659714610247578063ad5a402b1461025a578063c45a015514610263578063caf10b5714610276575f80fd5b80639b29d215146101fc5780639d76ea581461020f5780639f8932f414610222578063a163beea1461022b575f80fd5b8063609c878a116100e4578063609c878a1461018a57806362d76d06146101b75780636b036f45146101ca5780638167ee72146101e157806395adb5ad146101f4575f80fd5b80630d29fcd4146101155780631516def71461012a578063387602981461015a57806341fee55714610177575b5f80fd5b610128610123366004610bba565b6102df565b005b60015461013d906001600160a01b031681565b6040516001600160a01b0390911681526020015b60405180910390f35b6008546101679060ff1681565b6040519015158152602001610151565b610128610185366004610bba565b610322565b610167610198366004610bec565b600b60209081525f928352604080842090915290825290205460ff1681565b6101286101c5366004610c1d565b61052c565b6101d360035481565b604051908152602001610151565b6101286101ef366004610c8c565b610736565b61012861080f565b61012861020a366004610bba565b610a54565b60025461013d906001600160a01b031681565b6101d360045481565b6101d360075481565b6101d3610242366004610bec565b610a8e565b610167610255366004610bec565b610af5565b6101d360065481565b60055461013d906001600160a01b031681565b6102b5610284366004610cb4565b600a6020525f9081526040902080546001820154600283015460038401546004909401549293919290919060ff1685565b6040805195865260208601949094529284019190915260608301521515608082015260a001610151565b6001546001600160a01b031633146103125760405162461bcd60e51b815260040161030990610cd4565b60405180910390fd5b5f811161031d575f80fd5b600355565b61032a610b63565b6002546008546001600160a01b039091169060ff16610347575f80fd5b60035482116103985760405162461bcd60e51b815260206004820181905260248201527f416d6f756e74206d7573742062652067726561746572207468616e207a65726f6044820152606401610309565b6001600160a01b0381166323b872dd336040516001600160e01b031960e084901b1681526001600160a01b039091166004820152306024820152604481018590526064016020604051808303815f875af11580156103f8573d5f803e3d5ffd5b505050506040513d601f19601f8201168201806040525081019061041c9190610d20565b61045a5760405162461bcd60e51b815260206004820152600f60248201526e151c985b9cd9995c8819985a5b1959608a1b6044820152606401610309565b335f90815260096020526040902060020154610100900460ff161561047d575f80fd5b335f908152600960205260408120805484929061049b908490610d53565b9091555050335f90815260096020526040812043600190910155600680548492906104c7908490610d53565b92505081905550600160075f8282546104e09190610d53565b90915550506040805183815243602082015233917f0ae860169ef88b6e5a084a54675af932ac7be23de4abd34a1d99a5a8402a17cc910160405180910390a25061052960015f55565b50565b335f90815260096020526040902060020154610100900460ff1661054e575f80fd5b610556610b63565b5f5b818110156107285761059083838381811061057557610575610d66565b905060200201602081019061058a9190610cb4565b33610af5565b610598575f80fd5b600b5f8484848181106105ad576105ad610d66565b90506020020160208101906105c29190610cb4565b6001600160a01b0316815260208082019290925260409081015f90812033825290925290205460ff16156105f4575f80fd5b5f61062584848481811061060a5761060a610d66565b905060200201602081019061061f9190610cb4565b33610a8e565b90506001600b5f86868681811061063e5761063e610d66565b90506020020160208101906106539190610cb4565b6001600160a01b0316815260208082019290925260409081015f9081203382529092529020805460ff191691151591909117905583838381811061069957610699610d66565b90506020020160208101906106ae9190610cb4565b60405163a9059cbb60e01b8152336004820152602481018390526001600160a01b03919091169063a9059cbb906044016020604051808303815f875af11580156106fa573d5f803e3d5ffd5b505050506040513d601f19601f8201168201806040525081019061071e9190610d20565b5050600101610558565b5061073260015f55565b5050565b61073e610b63565b6040516370a0823160e01b815230600482015281906001600160a01b038416906370a0823190602401602060405180830381865afa158015610782573d5f803e3d5ffd5b505050506040513d601f19601f820116820180604052508101906107a69190610d7a565b146107af575f80fd5b6001600160a01b0382165f908152600a602052604090206004015460ff16156107d6575f80fd5b6001600160a01b0382165f908152600a602052604090204360018201558181556002810182905560065460039091015561073260015f55565b610817610b63565b335f908152600960205260409020546108635760405162461bcd60e51b815260206004820152600e60248201526d139bc81cdd185ad948199bdd5b9960921b6044820152606401610309565b335f9081526009602052604090206002015460ff16156108c55760405162461bcd60e51b815260206004820152601760248201527f5374616b6520616c72656164792077697468647261776e0000000000000000006044820152606401610309565b60028054335f81815260096020908152604080832080549601805461ffff19166001179055805163a9059cbb60e01b8152600481019490945260248401869052516001600160a01b039094169493859363a9059cbb93604480830194939283900301908290875af115801561093c573d5f803e3d5ffd5b505050506040513d601f19601f820116820180604052508101906109609190610d20565b61099e5760405162461bcd60e51b815260206004820152600f60248201526e151c985b9cd9995c8819985a5b1959608a1b6044820152606401610309565b8060065f8282546109af9190610d91565b92505081905550600160075f8282546109c89190610d91565b9091555050335f9081526009602081905260408220829055816109e83390565b6001600160a01b0316815260208101919091526040015f2060010155336001600160a01b03167f14eed693e6d30152612ee94c12df593a490178621d3730e516b012e064eeef8f82604051610a3f91815260200190565b60405180910390a25050610a5260015f55565b565b6001546001600160a01b03163314610a7e5760405162461bcd60e51b815260040161030990610cd4565b5f8111610a89575f80fd5b600455565b5f610a998383610af5565b610aa1575f80fd5b6001600160a01b038084165f908152600a602090815260408083208054600390910154948716845260099092528220549092610adc91610da4565b90505f610ae98383610dc3565b93505050505b92915050565b6001600160a01b0382165f908152600a602052604081206004015460ff16610b1b575f80fd5b6001600160a01b038084165f908152600a60209081526040808320600190810154600454958816855260099093529220909101549091610b5a91610d53565b11159392505050565b60025f5403610bb45760405162461bcd60e51b815260206004820152601f60248201527f5265656e7472616e637947756172643a207265656e7472616e742063616c6c006044820152606401610309565b60025f55565b5f60208284031215610bca575f80fd5b5035919050565b80356001600160a01b0381168114610be7575f80fd5b919050565b5f8060408385031215610bfd575f80fd5b610c0683610bd1565b9150610c1460208401610bd1565b90509250929050565b5f8060208385031215610c2e575f80fd5b823567ffffffffffffffff80821115610c45575f80fd5b818501915085601f830112610c58575f80fd5b813581811115610c66575f80fd5b8660208260051b8501011115610c7a575f80fd5b60209290920196919550909350505050565b5f8060408385031215610c9d575f80fd5b610ca683610bd1565b946020939093013593505050565b5f60208284031215610cc4575f80fd5b610ccd82610bd1565b9392505050565b6020808252602c908201527f4f6e6c79206d756c746953696720616464726573732063616e2063616c6c207460408201526b3434b990333ab731ba34b7b760a11b606082015260800190565b5f60208284031215610d30575f80fd5b81518015158114610ccd575f80fd5b634e487b7160e01b5f52601160045260245ffd5b80820180821115610aef57610aef610d3f565b634e487b7160e01b5f52603260045260245ffd5b5f60208284031215610d8a575f80fd5b5051919050565b81810381811115610aef57610aef610d3f565b5f82610dbe57634e487b7160e01b5f52601260045260245ffd5b500490565b8082028115828204841417610aef57610aef610d3f56fea26469706673582212207b8007d07bab1c03cf8c4e83ae29b887f584d48386ce68e25fb70e86f4ce605764736f6c63430008190033",
			"opcodes": "PUSH1 0x80 PUSH1 0x40 MSTORE CALLVALUE DUP1 ISZERO PUSH1 0xE JUMPI PUSH0 DUP1 REVERT JUMPDEST POP PUSH1 0x40 MLOAD PUSH2 0xEE7 CODESIZE SUB DUP1 PUSH2 0xEE7 DUP4 CODECOPY DUP2 ADD PUSH1 0x40 DUP2 SWAP1 MSTORE PUSH1 0x2B SWAP2 PUSH1 0x8F JUMP JUMPDEST PUSH1 0x1 PUSH0 DUP2 DUP2 SSTORE DUP2 SLOAD PUSH1 0x1 PUSH1 0x1 PUSH1 0xA0 SHL SUB NOT SWAP1 DUP2 AND PUSH1 0x1 PUSH1 0x1 PUSH1 0xA0 SHL SUB SWAP8 DUP9 AND OR SWAP1 SWAP3 SSTORE PUSH1 0x2 DUP1 SLOAD SWAP1 SWAP3 AND SWAP5 SWAP1 SWAP6 AND SWAP4 SWAP1 SWAP4 OR SWAP1 SWAP3 SSTORE PUSH1 0x4 SWAP2 SWAP1 SWAP2 SSTORE PUSH1 0x3 SSTORE PUSH1 0x6 DUP2 SWAP1 SSTORE PUSH1 0x7 SSTORE PUSH1 0xCA JUMP JUMPDEST DUP1 MLOAD PUSH1 0x1 PUSH1 0x1 PUSH1 0xA0 SHL SUB DUP2 AND DUP2 EQ PUSH1 0x8A JUMPI PUSH0 DUP1 REVERT JUMPDEST SWAP2 SWAP1 POP JUMP JUMPDEST PUSH0 DUP1 PUSH0 DUP1 PUSH1 0x80 DUP6 DUP8 SUB SLT ISZERO PUSH1 0xA1 JUMPI PUSH0 DUP1 REVERT JUMPDEST PUSH1 0xA8 DUP6 PUSH1 0x75 JUMP JUMPDEST SWAP4 POP PUSH1 0xB4 PUSH1 0x20 DUP7 ADD PUSH1 0x75 JUMP JUMPDEST PUSH1 0x40 DUP7 ADD MLOAD PUSH1 0x60 SWAP1 SWAP7 ADD MLOAD SWAP5 SWAP8 SWAP1 SWAP7 POP SWAP3 POP POP POP JUMP JUMPDEST PUSH2 0xE10 DUP1 PUSH2 0xD7 PUSH0 CODECOPY PUSH0 RETURN INVALID PUSH1 0x80 PUSH1 0x40 MSTORE CALLVALUE DUP1 ISZERO PUSH2 0xF JUMPI PUSH0 DUP1 REVERT JUMPDEST POP PUSH1 0x4 CALLDATASIZE LT PUSH2 0x111 JUMPI PUSH0 CALLDATALOAD PUSH1 0xE0 SHR DUP1 PUSH4 0x9B29D215 GT PUSH2 0x9E JUMPI DUP1 PUSH4 0xA164959D GT PUSH2 0x6E JUMPI DUP1 PUSH4 0xA164959D EQ PUSH2 0x234 JUMPI DUP1 PUSH4 0xACDE6597 EQ PUSH2 0x247 JUMPI DUP1 PUSH4 0xAD5A402B EQ PUSH2 0x25A JUMPI DUP1 PUSH4 0xC45A0155 EQ PUSH2 0x263 JUMPI DUP1 PUSH4 0xCAF10B57 EQ PUSH2 0x276 JUMPI PUSH0 DUP1 REVERT JUMPDEST DUP1 PUSH4 0x9B29D215 EQ PUSH2 0x1FC JUMPI DUP1 PUSH4 0x9D76EA58 EQ PUSH2 0x20F JUMPI DUP1 PUSH4 0x9F8932F4 EQ PUSH2 0x222 JUMPI DUP1 PUSH4 0xA163BEEA EQ PUSH2 0x22B JUMPI PUSH0 DUP1 REVERT JUMPDEST DUP1 PUSH4 0x609C878A GT PUSH2 0xE4 JUMPI DUP1 PUSH4 0x609C878A EQ PUSH2 0x18A JUMPI DUP1 PUSH4 0x62D76D06 EQ PUSH2 0x1B7 JUMPI DUP1 PUSH4 0x6B036F45 EQ PUSH2 0x1CA JUMPI DUP1 PUSH4 0x8167EE72 EQ PUSH2 0x1E1 JUMPI DUP1 PUSH4 0x95ADB5AD EQ PUSH2 0x1F4 JUMPI PUSH0 DUP1 REVERT JUMPDEST DUP1 PUSH4 0xD29FCD4 EQ PUSH2 0x115 JUMPI DUP1 PUSH4 0x1516DEF7 EQ PUSH2 0x12A JUMPI DUP1 PUSH4 0x38760298 EQ PUSH2 0x15A JUMPI DUP1 PUSH4 0x41FEE557 EQ PUSH2 0x177 JUMPI JUMPDEST PUSH0 DUP1 REVERT JUMPDEST PUSH2 0x128 PUSH2 0x123 CALLDATASIZE PUSH1 0x4 PUSH2 0xBBA JUMP JUMPDEST PUSH2 0x2DF JUMP JUMPDEST STOP JUMPDEST PUSH1 0x1 SLOAD PUSH2 0x13D SWAP1 PUSH1 0x1 PUSH1 0x1 PUSH1 0xA0 SHL SUB AND DUP2 JUMP JUMPDEST PUSH1 0x40 MLOAD PUSH1 0x1 PUSH1 0x1 PUSH1 0xA0 SHL SUB SWAP1 SWAP2 AND DUP2 MSTORE PUSH1 0x20 ADD JUMPDEST PUSH1 0x40 MLOAD DUP1 SWAP2 SUB SWAP1 RETURN JUMPDEST PUSH1 0x8 SLOAD PUSH2 0x167 SWAP1 PUSH1 0xFF AND DUP2 JUMP JUMPDEST PUSH1 0x40 MLOAD SWAP1 ISZERO ISZERO DUP2 MSTORE PUSH1 0x20 ADD PUSH2 0x151 JUMP JUMPDEST PUSH2 0x128 PUSH2 0x185 CALLDATASIZE PUSH1 0x4 PUSH2 0xBBA JUMP JUMPDEST PUSH2 0x322 JUMP JUMPDEST PUSH2 0x167 PUSH2 0x198 CALLDATASIZE PUSH1 0x4 PUSH2 0xBEC JUMP JUMPDEST PUSH1 0xB PUSH1 0x20 SWAP1 DUP2 MSTORE PUSH0 SWAP3 DUP4 MSTORE PUSH1 0x40 DUP1 DUP5 KECCAK256 SWAP1 SWAP2 MSTORE SWAP1 DUP3 MSTORE SWAP1 KECCAK256 SLOAD PUSH1 0xFF AND DUP2 JUMP JUMPDEST PUSH2 0x128 PUSH2 0x1C5 CALLDATASIZE PUSH1 0x4 PUSH2 0xC1D JUMP JUMPDEST PUSH2 0x52C JUMP JUMPDEST PUSH2 0x1D3 PUSH1 0x3 SLOAD DUP2 JUMP JUMPDEST PUSH1 0x40 MLOAD SWAP1 DUP2 MSTORE PUSH1 0x20 ADD PUSH2 0x151 JUMP JUMPDEST PUSH2 0x128 PUSH2 0x1EF CALLDATASIZE PUSH1 0x4 PUSH2 0xC8C JUMP JUMPDEST PUSH2 0x736 JUMP JUMPDEST PUSH2 0x128 PUSH2 0x80F JUMP JUMPDEST PUSH2 0x128 PUSH2 0x20A CALLDATASIZE PUSH1 0x4 PUSH2 0xBBA JUMP JUMPDEST PUSH2 0xA54 JUMP JUMPDEST PUSH1 0x2 SLOAD PUSH2 0x13D SWAP1 PUSH1 0x1 PUSH1 0x1 PUSH1 0xA0 SHL SUB AND DUP2 JUMP JUMPDEST PUSH2 0x1D3 PUSH1 0x4 SLOAD DUP2 JUMP JUMPDEST PUSH2 0x1D3 PUSH1 0x7 SLOAD DUP2 JUMP JUMPDEST PUSH2 0x1D3 PUSH2 0x242 CALLDATASIZE PUSH1 0x4 PUSH2 0xBEC JUMP JUMPDEST PUSH2 0xA8E JUMP JUMPDEST PUSH2 0x167 PUSH2 0x255 CALLDATASIZE PUSH1 0x4 PUSH2 0xBEC JUMP JUMPDEST PUSH2 0xAF5 JUMP JUMPDEST PUSH2 0x1D3 PUSH1 0x6 SLOAD DUP2 JUMP JUMPDEST PUSH1 0x5 SLOAD PUSH2 0x13D SWAP1 PUSH1 0x1 PUSH1 0x1 PUSH1 0xA0 SHL SUB AND DUP2 JUMP JUMPDEST PUSH2 0x2B5 PUSH2 0x284 CALLDATASIZE PUSH1 0x4 PUSH2 0xCB4 JUMP JUMPDEST PUSH1 0xA PUSH1 0x20 MSTORE PUSH0 SWAP1 DUP2 MSTORE PUSH1 0x40 SWAP1 KECCAK256 DUP1 SLOAD PUSH1 0x1 DUP3 ADD SLOAD PUSH1 0x2 DUP4 ADD SLOAD PUSH1 0x3 DUP5 ADD SLOAD PUSH1 0x4 SWAP1 SWAP5 ADD SLOAD SWAP3 SWAP4 SWAP2 SWAP3 SWAP1 SWAP2 SWAP1 PUSH1 0xFF AND DUP6 JUMP JUMPDEST PUSH1 0x40 DUP1 MLOAD SWAP6 DUP7 MSTORE PUSH1 0x20 DUP7 ADD SWAP5 SWAP1 SWAP5 MSTORE SWAP3 DUP5 ADD SWAP2 SWAP1 SWAP2 MSTORE PUSH1 0x60 DUP4 ADD MSTORE ISZERO ISZERO PUSH1 0x80 DUP3 ADD MSTORE PUSH1 0xA0 ADD PUSH2 0x151 JUMP JUMPDEST PUSH1 0x1 SLOAD PUSH1 0x1 PUSH1 0x1 PUSH1 0xA0 SHL SUB AND CALLER EQ PUSH2 0x312 JUMPI PUSH1 0x40 MLOAD PUSH3 0x461BCD PUSH1 0xE5 SHL DUP2 MSTORE PUSH1 0x4 ADD PUSH2 0x309 SWAP1 PUSH2 0xCD4 JUMP JUMPDEST PUSH1 0x40 MLOAD DUP1 SWAP2 SUB SWAP1 REVERT JUMPDEST PUSH0 DUP2 GT PUSH2 0x31D JUMPI PUSH0 DUP1 REVERT JUMPDEST PUSH1 0x3 SSTORE JUMP JUMPDEST PUSH2 0x32A PUSH2 0xB63 JUMP JUMPDEST PUSH1 0x2 SLOAD PUSH1 0x8 SLOAD PUSH1 0x1 PUSH1 0x1 PUSH1 0xA0 SHL SUB SWAP1 SWAP2 AND SWAP1 PUSH1 0xFF AND PUSH2 0x347 JUMPI PUSH0 DUP1 REVERT JUMPDEST PUSH1 0x3 SLOAD DUP3 GT PUSH2 0x398 JUMPI PUSH1 0x40 MLOAD PUSH3 0x461BCD PUSH1 0xE5 SHL DUP2 MSTORE PUSH1 0x20 PUSH1 0x4 DUP3 ADD DUP2 SWAP1 MSTORE PUSH1 0x24 DUP3 ADD MSTORE PUSH32 0x416D6F756E74206D7573742062652067726561746572207468616E207A65726F PUSH1 0x44 DUP3 ADD MSTORE PUSH1 0x64 ADD PUSH2 0x309 JUMP JUMPDEST PUSH1 0x1 PUSH1 0x1 PUSH1 0xA0 SHL SUB DUP2 AND PUSH4 0x23B872DD CALLER PUSH1 0x40 MLOAD PUSH1 0x1 PUSH1 0x1 PUSH1 0xE0 SHL SUB NOT PUSH1 0xE0 DUP5 SWAP1 SHL AND DUP2 MSTORE PUSH1 0x1 PUSH1 0x1 PUSH1 0xA0 SHL SUB SWAP1 SWAP2 AND PUSH1 0x4 DUP3 ADD MSTORE ADDRESS PUSH1 0x24 DUP3 ADD MSTORE PUSH1 0x44 DUP2 ADD DUP6 SWAP1 MSTORE PUSH1 0x64 ADD PUSH1 0x20 PUSH1 0x40 MLOAD DUP1 DUP4 SUB DUP2 PUSH0 DUP8 GAS CALL ISZERO DUP1 ISZERO PUSH2 0x3F8 JUMPI RETURNDATASIZE PUSH0 DUP1 RETURNDATACOPY RETURNDATASIZE PUSH0 REVERT JUMPDEST POP POP POP POP PUSH1 0x40 MLOAD RETURNDATASIZE PUSH1 0x1F NOT PUSH1 0x1F DUP3 ADD AND DUP3 ADD DUP1 PUSH1 0x40 MSTORE POP DUP2 ADD SWAP1 PUSH2 0x41C SWAP2 SWAP1 PUSH2 0xD20 JUMP JUMPDEST PUSH2 0x45A JUMPI PUSH1 0x40 MLOAD PUSH3 0x461BCD PUSH1 0xE5 SHL DUP2 MSTORE PUSH1 0x20 PUSH1 0x4 DUP3 ADD MSTORE PUSH1 0xF PUSH1 0x24 DUP3 ADD MSTORE PUSH15 0x151C985B9CD9995C8819985A5B1959 PUSH1 0x8A SHL PUSH1 0x44 DUP3 ADD MSTORE PUSH1 0x64 ADD PUSH2 0x309 JUMP JUMPDEST CALLER PUSH0 SWAP1 DUP2 MSTORE PUSH1 0x9 PUSH1 0x20 MSTORE PUSH1 0x40 SWAP1 KECCAK256 PUSH1 0x2 ADD SLOAD PUSH2 0x100 SWAP1 DIV PUSH1 0xFF AND ISZERO PUSH2 0x47D JUMPI PUSH0 DUP1 REVERT JUMPDEST CALLER PUSH0 SWAP1 DUP2 MSTORE PUSH1 0x9 PUSH1 0x20 MSTORE PUSH1 0x40 DUP2 KECCAK256 DUP1 SLOAD DUP5 SWAP3 SWAP1 PUSH2 0x49B SWAP1 DUP5 SWAP1 PUSH2 0xD53 JUMP JUMPDEST SWAP1 SWAP2 SSTORE POP POP CALLER PUSH0 SWAP1 DUP2 MSTORE PUSH1 0x9 PUSH1 0x20 MSTORE PUSH1 0x40 DUP2 KECCAK256 NUMBER PUSH1 0x1 SWAP1 SWAP2 ADD SSTORE PUSH1 0x6 DUP1 SLOAD DUP5 SWAP3 SWAP1 PUSH2 0x4C7 SWAP1 DUP5 SWAP1 PUSH2 0xD53 JUMP JUMPDEST SWAP3 POP POP DUP2 SWAP1 SSTORE POP PUSH1 0x1 PUSH1 0x7 PUSH0 DUP3 DUP3 SLOAD PUSH2 0x4E0 SWAP2 SWAP1 PUSH2 0xD53 JUMP JUMPDEST SWAP1 SWAP2 SSTORE POP POP PUSH1 0x40 DUP1 MLOAD DUP4 DUP2 MSTORE NUMBER PUSH1 0x20 DUP3 ADD MSTORE CALLER SWAP2 PUSH32 0xAE860169EF88B6E5A084A54675AF932AC7BE23DE4ABD34A1D99A5A8402A17CC SWAP2 ADD PUSH1 0x40 MLOAD DUP1 SWAP2 SUB SWAP1 LOG2 POP PUSH2 0x529 PUSH1 0x1 PUSH0 SSTORE JUMP JUMPDEST POP JUMP JUMPDEST CALLER PUSH0 SWAP1 DUP2 MSTORE PUSH1 0x9 PUSH1 0x20 MSTORE PUSH1 0x40 SWAP1 KECCAK256 PUSH1 0x2 ADD SLOAD PUSH2 0x100 SWAP1 DIV PUSH1 0xFF AND PUSH2 0x54E JUMPI PUSH0 DUP1 REVERT JUMPDEST PUSH2 0x556 PUSH2 0xB63 JUMP JUMPDEST PUSH0 JUMPDEST DUP2 DUP2 LT ISZERO PUSH2 0x728 JUMPI PUSH2 0x590 DUP4 DUP4 DUP4 DUP2 DUP2 LT PUSH2 0x575 JUMPI PUSH2 0x575 PUSH2 0xD66 JUMP JUMPDEST SWAP1 POP PUSH1 0x20 MUL ADD PUSH1 0x20 DUP2 ADD SWAP1 PUSH2 0x58A SWAP2 SWAP1 PUSH2 0xCB4 JUMP JUMPDEST CALLER PUSH2 0xAF5 JUMP JUMPDEST PUSH2 0x598 JUMPI PUSH0 DUP1 REVERT JUMPDEST PUSH1 0xB PUSH0 DUP5 DUP5 DUP5 DUP2 DUP2 LT PUSH2 0x5AD JUMPI PUSH2 0x5AD PUSH2 0xD66 JUMP JUMPDEST SWAP1 POP PUSH1 0x20 MUL ADD PUSH1 0x20 DUP2 ADD SWAP1 PUSH2 0x5C2 SWAP2 SWAP1 PUSH2 0xCB4 JUMP JUMPDEST PUSH1 0x1 PUSH1 0x1 PUSH1 0xA0 SHL SUB AND DUP2 MSTORE PUSH1 0x20 DUP1 DUP3 ADD SWAP3 SWAP1 SWAP3 MSTORE PUSH1 0x40 SWAP1 DUP2 ADD PUSH0 SWAP1 DUP2 KECCAK256 CALLER DUP3 MSTORE SWAP1 SWAP3 MSTORE SWAP1 KECCAK256 SLOAD PUSH1 0xFF AND ISZERO PUSH2 0x5F4 JUMPI PUSH0 DUP1 REVERT JUMPDEST PUSH0 PUSH2 0x625 DUP5 DUP5 DUP5 DUP2 DUP2 LT PUSH2 0x60A JUMPI PUSH2 0x60A PUSH2 0xD66 JUMP JUMPDEST SWAP1 POP PUSH1 0x20 MUL ADD PUSH1 0x20 DUP2 ADD SWAP1 PUSH2 0x61F SWAP2 SWAP1 PUSH2 0xCB4 JUMP JUMPDEST CALLER PUSH2 0xA8E JUMP JUMPDEST SWAP1 POP PUSH1 0x1 PUSH1 0xB PUSH0 DUP7 DUP7 DUP7 DUP2 DUP2 LT PUSH2 0x63E JUMPI PUSH2 0x63E PUSH2 0xD66 JUMP JUMPDEST SWAP1 POP PUSH1 0x20 MUL ADD PUSH1 0x20 DUP2 ADD SWAP1 PUSH2 0x653 SWAP2 SWAP1 PUSH2 0xCB4 JUMP JUMPDEST PUSH1 0x1 PUSH1 0x1 PUSH1 0xA0 SHL SUB AND DUP2 MSTORE PUSH1 0x20 DUP1 DUP3 ADD SWAP3 SWAP1 SWAP3 MSTORE PUSH1 0x40 SWAP1 DUP2 ADD PUSH0 SWAP1 DUP2 KECCAK256 CALLER DUP3 MSTORE SWAP1 SWAP3 MSTORE SWAP1 KECCAK256 DUP1 SLOAD PUSH1 0xFF NOT AND SWAP2 ISZERO ISZERO SWAP2 SWAP1 SWAP2 OR SWAP1 SSTORE DUP4 DUP4 DUP4 DUP2 DUP2 LT PUSH2 0x699 JUMPI PUSH2 0x699 PUSH2 0xD66 JUMP JUMPDEST SWAP1 POP PUSH1 0x20 MUL ADD PUSH1 0x20 DUP2 ADD SWAP1 PUSH2 0x6AE SWAP2 SWAP1 PUSH2 0xCB4 JUMP JUMPDEST PUSH1 0x40 MLOAD PUSH4 0xA9059CBB PUSH1 0xE0 SHL DUP2 MSTORE CALLER PUSH1 0x4 DUP3 ADD MSTORE PUSH1 0x24 DUP2 ADD DUP4 SWAP1 MSTORE PUSH1 0x1 PUSH1 0x1 PUSH1 0xA0 SHL SUB SWAP2 SWAP1 SWAP2 AND SWAP1 PUSH4 0xA9059CBB SWAP1 PUSH1 0x44 ADD PUSH1 0x20 PUSH1 0x40 MLOAD DUP1 DUP4 SUB DUP2 PUSH0 DUP8 GAS CALL ISZERO DUP1 ISZERO PUSH2 0x6FA JUMPI RETURNDATASIZE PUSH0 DUP1 RETURNDATACOPY RETURNDATASIZE PUSH0 REVERT JUMPDEST POP POP POP POP PUSH1 0x40 MLOAD RETURNDATASIZE PUSH1 0x1F NOT PUSH1 0x1F DUP3 ADD AND DUP3 ADD DUP1 PUSH1 0x40 MSTORE POP DUP2 ADD SWAP1 PUSH2 0x71E SWAP2 SWAP1 PUSH2 0xD20 JUMP JUMPDEST POP POP PUSH1 0x1 ADD PUSH2 0x558 JUMP JUMPDEST POP PUSH2 0x732 PUSH1 0x1 PUSH0 SSTORE JUMP JUMPDEST POP POP JUMP JUMPDEST PUSH2 0x73E PUSH2 0xB63 JUMP JUMPDEST PUSH1 0x40 MLOAD PUSH4 0x70A08231 PUSH1 0xE0 SHL DUP2 MSTORE ADDRESS PUSH1 0x4 DUP3 ADD MSTORE DUP2 SWAP1 PUSH1 0x1 PUSH1 0x1 PUSH1 0xA0 SHL SUB DUP5 AND SWAP1 PUSH4 0x70A08231 SWAP1 PUSH1 0x24 ADD PUSH1 0x20 PUSH1 0x40 MLOAD DUP1 DUP4 SUB DUP2 DUP7 GAS STATICCALL ISZERO DUP1 ISZERO PUSH2 0x782 JUMPI RETURNDATASIZE PUSH0 DUP1 RETURNDATACOPY RETURNDATASIZE PUSH0 REVERT JUMPDEST POP POP POP POP PUSH1 0x40 MLOAD RETURNDATASIZE PUSH1 0x1F NOT PUSH1 0x1F DUP3 ADD AND DUP3 ADD DUP1 PUSH1 0x40 MSTORE POP DUP2 ADD SWAP1 PUSH2 0x7A6 SWAP2 SWAP1 PUSH2 0xD7A JUMP JUMPDEST EQ PUSH2 0x7AF JUMPI PUSH0 DUP1 REVERT JUMPDEST PUSH1 0x1 PUSH1 0x1 PUSH1 0xA0 SHL SUB DUP3 AND PUSH0 SWAP1 DUP2 MSTORE PUSH1 0xA PUSH1 0x20 MSTORE PUSH1 0x40 SWAP1 KECCAK256 PUSH1 0x4 ADD SLOAD PUSH1 0xFF AND ISZERO PUSH2 0x7D6 JUMPI PUSH0 DUP1 REVERT JUMPDEST PUSH1 0x1 PUSH1 0x1 PUSH1 0xA0 SHL SUB DUP3 AND PUSH0 SWAP1 DUP2 MSTORE PUSH1 0xA PUSH1 0x20 MSTORE PUSH1 0x40 SWAP1 KECCAK256 NUMBER PUSH1 0x1 DUP3 ADD SSTORE DUP2 DUP2 SSTORE PUSH1 0x2 DUP2 ADD DUP3 SWAP1 SSTORE PUSH1 0x6 SLOAD PUSH1 0x3 SWAP1 SWAP2 ADD SSTORE PUSH2 0x732 PUSH1 0x1 PUSH0 SSTORE JUMP JUMPDEST PUSH2 0x817 PUSH2 0xB63 JUMP JUMPDEST CALLER PUSH0 SWAP1 DUP2 MSTORE PUSH1 0x9 PUSH1 0x20 MSTORE PUSH1 0x40 SWAP1 KECCAK256 SLOAD PUSH2 0x863 JUMPI PUSH1 0x40 MLOAD PUSH3 0x461BCD PUSH1 0xE5 SHL DUP2 MSTORE PUSH1 0x20 PUSH1 0x4 DUP3 ADD MSTORE PUSH1 0xE PUSH1 0x24 DUP3 ADD MSTORE PUSH14 0x139BC81CDD185AD948199BDD5B99 PUSH1 0x92 SHL PUSH1 0x44 DUP3 ADD MSTORE PUSH1 0x64 ADD PUSH2 0x309 JUMP JUMPDEST CALLER PUSH0 SWAP1 DUP2 MSTORE PUSH1 0x9 PUSH1 0x20 MSTORE PUSH1 0x40 SWAP1 KECCAK256 PUSH1 0x2 ADD SLOAD PUSH1 0xFF AND ISZERO PUSH2 0x8C5 JUMPI PUSH1 0x40 MLOAD PUSH3 0x461BCD PUSH1 0xE5 SHL DUP2 MSTORE PUSH1 0x20 PUSH1 0x4 DUP3 ADD MSTORE PUSH1 0x17 PUSH1 0x24 DUP3 ADD MSTORE PUSH32 0x5374616B6520616C72656164792077697468647261776E000000000000000000 PUSH1 0x44 DUP3 ADD MSTORE PUSH1 0x64 ADD PUSH2 0x309 JUMP JUMPDEST PUSH1 0x2 DUP1 SLOAD CALLER PUSH0 DUP2 DUP2 MSTORE PUSH1 0x9 PUSH1 0x20 SWAP1 DUP2 MSTORE PUSH1 0x40 DUP1 DUP4 KECCAK256 DUP1 SLOAD SWAP7 ADD DUP1 SLOAD PUSH2 0xFFFF NOT AND PUSH1 0x1 OR SWAP1 SSTORE DUP1 MLOAD PUSH4 0xA9059CBB PUSH1 0xE0 SHL DUP2 MSTORE PUSH1 0x4 DUP2 ADD SWAP5 SWAP1 SWAP5 MSTORE PUSH1 0x24 DUP5 ADD DUP7 SWAP1 MSTORE MLOAD PUSH1 0x1 PUSH1 0x1 PUSH1 0xA0 SHL SUB SWAP1 SWAP5 AND SWAP5 SWAP4 DUP6 SWAP4 PUSH4 0xA9059CBB SWAP4 PUSH1 0x44 DUP1 DUP4 ADD SWAP5 SWAP4 SWAP3 DUP4 SWAP1 SUB ADD SWAP1 DUP3 SWAP1 DUP8 GAS CALL ISZERO DUP1 ISZERO PUSH2 0x93C JUMPI RETURNDATASIZE PUSH0 DUP1 RETURNDATACOPY RETURNDATASIZE PUSH0 REVERT JUMPDEST POP POP POP POP PUSH1 0x40 MLOAD RETURNDATASIZE PUSH1 0x1F NOT PUSH1 0x1F DUP3 ADD AND DUP3 ADD DUP1 PUSH1 0x40 MSTORE POP DUP2 ADD SWAP1 PUSH2 0x960 SWAP2 SWAP1 PUSH2 0xD20 JUMP JUMPDEST PUSH2 0x99E JUMPI PUSH1 0x40 MLOAD PUSH3 0x461BCD PUSH1 0xE5 SHL DUP2 MSTORE PUSH1 0x20 PUSH1 0x4 DUP3 ADD MSTORE PUSH1 0xF PUSH1 0x24 DUP3 ADD MSTORE PUSH15 0x151C985B9CD9995C8819985A5B1959 PUSH1 0x8A SHL PUSH1 0x44 DUP3 ADD MSTORE PUSH1 0x64 ADD PUSH2 0x309 JUMP JUMPDEST DUP1 PUSH1 0x6 PUSH0 DUP3 DUP3 SLOAD PUSH2 0x9AF SWAP2 SWAP1 PUSH2 0xD91 JUMP JUMPDEST SWAP3 POP POP DUP2 SWAP1 SSTORE POP PUSH1 0x1 PUSH1 0x7 PUSH0 DUP3 DUP3 SLOAD PUSH2 0x9C8 SWAP2 SWAP1 PUSH2 0xD91 JUMP JUMPDEST SWAP1 SWAP2 SSTORE POP POP CALLER PUSH0 SWAP1 DUP2 MSTORE PUSH1 0x9 PUSH1 0x20 DUP2 SWAP1 MSTORE PUSH1 0x40 DUP3 KECCAK256 DUP3 SWAP1 SSTORE DUP2 PUSH2 0x9E8 CALLER SWAP1 JUMP JUMPDEST PUSH1 0x1 PUSH1 0x1 PUSH1 0xA0 SHL SUB AND DUP2 MSTORE PUSH1 0x20 DUP2 ADD SWAP2 SWAP1 SWAP2 MSTORE PUSH1 0x40 ADD PUSH0 KECCAK256 PUSH1 0x1 ADD SSTORE CALLER PUSH1 0x1 PUSH1 0x1 PUSH1 0xA0 SHL SUB AND PUSH32 0x14EED693E6D30152612EE94C12DF593A490178621D3730E516B012E064EEEF8F DUP3 PUSH1 0x40 MLOAD PUSH2 0xA3F SWAP2 DUP2 MSTORE PUSH1 0x20 ADD SWAP1 JUMP JUMPDEST PUSH1 0x40 MLOAD DUP1 SWAP2 SUB SWAP1 LOG2 POP POP PUSH2 0xA52 PUSH1 0x1 PUSH0 SSTORE JUMP JUMPDEST JUMP JUMPDEST PUSH1 0x1 SLOAD PUSH1 0x1 PUSH1 0x1 PUSH1 0xA0 SHL SUB AND CALLER EQ PUSH2 0xA7E JUMPI PUSH1 0x40 MLOAD PUSH3 0x461BCD PUSH1 0xE5 SHL DUP2 MSTORE PUSH1 0x4 ADD PUSH2 0x309 SWAP1 PUSH2 0xCD4 JUMP JUMPDEST PUSH0 DUP2 GT PUSH2 0xA89 JUMPI PUSH0 DUP1 REVERT JUMPDEST PUSH1 0x4 SSTORE JUMP JUMPDEST PUSH0 PUSH2 0xA99 DUP4 DUP4 PUSH2 0xAF5 JUMP JUMPDEST PUSH2 0xAA1 JUMPI PUSH0 DUP1 REVERT JUMPDEST PUSH1 0x1 PUSH1 0x1 PUSH1 0xA0 SHL SUB DUP1 DUP5 AND PUSH0 SWAP1 DUP2 MSTORE PUSH1 0xA PUSH1 0x20 SWAP1 DUP2 MSTORE PUSH1 0x40 DUP1 DUP4 KECCAK256 DUP1 SLOAD PUSH1 0x3 SWAP1 SWAP2 ADD SLOAD SWAP5 DUP8 AND DUP5 MSTORE PUSH1 0x9 SWAP1 SWAP3 MSTORE DUP3 KECCAK256 SLOAD SWAP1 SWAP3 PUSH2 0xADC SWAP2 PUSH2 0xDA4 JUMP JUMPDEST SWAP1 POP PUSH0 PUSH2 0xAE9 DUP4 DUP4 PUSH2 0xDC3 JUMP JUMPDEST SWAP4 POP POP POP POP JUMPDEST SWAP3 SWAP2 POP POP JUMP JUMPDEST PUSH1 0x1 PUSH1 0x1 PUSH1 0xA0 SHL SUB DUP3 AND PUSH0 SWAP1 DUP2 MSTORE PUSH1 0xA PUSH1 0x20 MSTORE PUSH1 0x40 DUP2 KECCAK256 PUSH1 0x4 ADD SLOAD PUSH1 0xFF AND PUSH2 0xB1B JUMPI PUSH0 DUP1 REVERT JUMPDEST PUSH1 0x1 PUSH1 0x1 PUSH1 0xA0 SHL SUB DUP1 DUP5 AND PUSH0 SWAP1 DUP2 MSTORE PUSH1 0xA PUSH1 0x20 SWAP1 DUP2 MSTORE PUSH1 0x40 DUP1 DUP4 KECCAK256 PUSH1 0x1 SWAP1 DUP2 ADD SLOAD PUSH1 0x4 SLOAD SWAP6 DUP9 AND DUP6 MSTORE PUSH1 0x9 SWAP1 SWAP4 MSTORE SWAP3 KECCAK256 SWAP1 SWAP2 ADD SLOAD SWAP1 SWAP2 PUSH2 0xB5A SWAP2 PUSH2 0xD53 JUMP JUMPDEST GT ISZERO SWAP4 SWAP3 POP POP POP JUMP JUMPDEST PUSH1 0x2 PUSH0 SLOAD SUB PUSH2 0xBB4 JUMPI PUSH1 0x40 MLOAD PUSH3 0x461BCD PUSH1 0xE5 SHL DUP2 MSTORE PUSH1 0x20 PUSH1 0x4 DUP3 ADD MSTORE PUSH1 0x1F PUSH1 0x24 DUP3 ADD MSTORE PUSH32 0x5265656E7472616E637947756172643A207265656E7472616E742063616C6C00 PUSH1 0x44 DUP3 ADD MSTORE PUSH1 0x64 ADD PUSH2 0x309 JUMP JUMPDEST PUSH1 0x2 PUSH0 SSTORE JUMP JUMPDEST PUSH0 PUSH1 0x20 DUP3 DUP5 SUB SLT ISZERO PUSH2 0xBCA JUMPI PUSH0 DUP1 REVERT JUMPDEST POP CALLDATALOAD SWAP2 SWAP1 POP JUMP JUMPDEST DUP1 CALLDATALOAD PUSH1 0x1 PUSH1 0x1 PUSH1 0xA0 SHL SUB DUP2 AND DUP2 EQ PUSH2 0xBE7 JUMPI PUSH0 DUP1 REVERT JUMPDEST SWAP2 SWAP1 POP JUMP JUMPDEST PUSH0 DUP1 PUSH1 0x40 DUP4 DUP6 SUB SLT ISZERO PUSH2 0xBFD JUMPI PUSH0 DUP1 REVERT JUMPDEST PUSH2 0xC06 DUP4 PUSH2 0xBD1 JUMP JUMPDEST SWAP2 POP PUSH2 0xC14 PUSH1 0x20 DUP5 ADD PUSH2 0xBD1 JUMP JUMPDEST SWAP1 POP SWAP3 POP SWAP3 SWAP1 POP JUMP JUMPDEST PUSH0 DUP1 PUSH1 0x20 DUP4 DUP6 SUB SLT ISZERO PUSH2 0xC2E JUMPI PUSH0 DUP1 REVERT JUMPDEST DUP3 CALLDATALOAD PUSH8 0xFFFFFFFFFFFFFFFF DUP1 DUP3 GT ISZERO PUSH2 0xC45 JUMPI PUSH0 DUP1 REVERT JUMPDEST DUP2 DUP6 ADD SWAP2 POP DUP6 PUSH1 0x1F DUP4 ADD SLT PUSH2 0xC58 JUMPI PUSH0 DUP1 REVERT JUMPDEST DUP2 CALLDATALOAD DUP2 DUP2 GT ISZERO PUSH2 0xC66 JUMPI PUSH0 DUP1 REVERT JUMPDEST DUP7 PUSH1 0x20 DUP3 PUSH1 0x5 SHL DUP6 ADD ADD GT ISZERO PUSH2 0xC7A JUMPI PUSH0 DUP1 REVERT JUMPDEST PUSH1 0x20 SWAP3 SWAP1 SWAP3 ADD SWAP7 SWAP2 SWAP6 POP SWAP1 SWAP4 POP POP POP POP JUMP JUMPDEST PUSH0 DUP1 PUSH1 0x40 DUP4 DUP6 SUB SLT ISZERO PUSH2 0xC9D JUMPI PUSH0 DUP1 REVERT JUMPDEST PUSH2 0xCA6 DUP4 PUSH2 0xBD1 JUMP JUMPDEST SWAP5 PUSH1 0x20 SWAP4 SWAP1 SWAP4 ADD CALLDATALOAD SWAP4 POP POP POP JUMP JUMPDEST PUSH0 PUSH1 0x20 DUP3 DUP5 SUB SLT ISZERO PUSH2 0xCC4 JUMPI PUSH0 DUP1 REVERT JUMPDEST PUSH2 0xCCD DUP3 PUSH2 0xBD1 JUMP JUMPDEST SWAP4 SWAP3 POP POP POP JUMP JUMPDEST PUSH1 0x20 DUP1 DUP3 MSTORE PUSH1 0x2C SWAP1 DUP3 ADD MSTORE PUSH32 0x4F6E6C79206D756C746953696720616464726573732063616E2063616C6C2074 PUSH1 0x40 DUP3 ADD MSTORE PUSH12 0x3434B990333AB731BA34B7B7 PUSH1 0xA1 SHL PUSH1 0x60 DUP3 ADD MSTORE PUSH1 0x80 ADD SWAP1 JUMP JUMPDEST PUSH0 PUSH1 0x20 DUP3 DUP5 SUB SLT ISZERO PUSH2 0xD30 JUMPI PUSH0 DUP1 REVERT JUMPDEST DUP2 MLOAD DUP1 ISZERO ISZERO DUP2 EQ PUSH2 0xCCD JUMPI PUSH0 DUP1 REVERT JUMPDEST PUSH4 0x4E487B71 PUSH1 0xE0 SHL PUSH0 MSTORE PUSH1 0x11 PUSH1 0x4 MSTORE PUSH1 0x24 PUSH0 REVERT JUMPDEST DUP1 DUP3 ADD DUP1 DUP3 GT ISZERO PUSH2 0xAEF JUMPI PUSH2 0xAEF PUSH2 0xD3F JUMP JUMPDEST PUSH4 0x4E487B71 PUSH1 0xE0 SHL PUSH0 MSTORE PUSH1 0x32 PUSH1 0x4 MSTORE PUSH1 0x24 PUSH0 REVERT JUMPDEST PUSH0 PUSH1 0x20 DUP3 DUP5 SUB SLT ISZERO PUSH2 0xD8A JUMPI PUSH0 DUP1 REVERT JUMPDEST POP MLOAD SWAP2 SWAP1 POP JUMP JUMPDEST DUP2 DUP2 SUB DUP2 DUP2 GT ISZERO PUSH2 0xAEF JUMPI PUSH2 0xAEF PUSH2 0xD3F JUMP JUMPDEST PUSH0 DUP3 PUSH2 0xDBE JUMPI PUSH4 0x4E487B71 PUSH1 0xE0 SHL PUSH0 MSTORE PUSH1 0x12 PUSH1 0x4 MSTORE PUSH1 0x24 PUSH0 REVERT JUMPDEST POP DIV SWAP1 JUMP JUMPDEST DUP1 DUP3 MUL DUP2 ISZERO DUP3 DUP3 DIV DUP5 EQ OR PUSH2 0xAEF JUMPI PUSH2 0xAEF PUSH2 0xD3F JUMP INVALID LOG2 PUSH5 0x6970667358 0x22 SLT KECCAK256 PUSH28 0x8007D07BAB1C03CF8C4E83AE29B887F584D48386CE68E25FB70E86F4 0xCE PUSH1 0x57 PUSH5 0x736F6C6343 STOP ADDMOD NOT STOP CALLER "
		},
		"gasEstimates": {
			"creation": {
				"codeDepositCost": "720000",
				"executionCost": "infinite",
				"totalCost": "infinite"
			},
			"external": {
				"addressWithdrewERC20Reward(address,address)": "infinite",
				"degeneratorStakers()": "2383",
				"degeneratorStakingPool()": "2360",
				"erc20Supplies(address)": "11182",
				"factory()": "2413",
				"getTokenEligibility(address,address)": "infinite",
				"getTokenReward(address,address)": "infinite",
				"minimumStakeAmount()": "2361",
				"multiSigAddress()": "2371",
				"registerERC20Supply(address,uint256)": "infinite",
				"rewardBlackoutPeriod()": "2361",
				"setMinimumStakeAmount(uint256)": "24508",
				"setRewardBlackoutPeriod(uint256)": "24507",
				"stakeDegnerator(uint256)": "infinite",
				"stakingOpen()": "2377",
				"tokenAddress()": "2370",
				"withdrawDegenerator()": "infinite",
				"withdrawRewards(address[])": "infinite"
			}
		},
		"methodIdentifiers": {
			"addressWithdrewERC20Reward(address,address)": "609c878a",
			"degeneratorStakers()": "a163beea",
			"degeneratorStakingPool()": "ad5a402b",
			"erc20Supplies(address)": "caf10b57",
			"factory()": "c45a0155",
			"getTokenEligibility(address,address)": "acde6597",
			"getTokenReward(address,address)": "a164959d",
			"minimumStakeAmount()": "6b036f45",
			"multiSigAddress()": "1516def7",
			"registerERC20Supply(address,uint256)": "8167ee72",
			"rewardBlackoutPeriod()": "9f8932f4",
			"setMinimumStakeAmount(uint256)": "0d29fcd4",
			"setRewardBlackoutPeriod(uint256)": "9b29d215",
			"stakeDegnerator(uint256)": "41fee557",
			"stakingOpen()": "38760298",
			"tokenAddress()": "9d76ea58",
			"withdrawDegenerator()": "95adb5ad",
			"withdrawRewards(address[])": "62d76d06"
		}
	},
	"abi": [
		{
			"inputs": [
				{
					"internalType": "address",
					"name": "_multiSigAddress",
					"type": "address"
				},
				{
					"internalType": "address",
					"name": "_tokenAddress",
					"type": "address"
				},
				{
					"internalType": "uint256",
					"name": "_minimumStakeAmount",
					"type": "uint256"
				},
				{
					"internalType": "uint256",
					"name": "_rewardBlackoutPeriod",
					"type": "uint256"
				}
			],
			"stateMutability": "nonpayable",
			"type": "constructor"
		},
		{
			"anonymous": false,
			"inputs": [
				{
					"indexed": true,
					"internalType": "address",
					"name": "staker",
					"type": "address"
				},
				{
					"indexed": false,
					"internalType": "uint256",
					"name": "amount",
					"type": "uint256"
				},
				{
					"indexed": false,
					"internalType": "uint256",
					"name": "blockStaked",
					"type": "uint256"
				}
			],
			"name": "degeneratorStaked",
			"type": "event"
		},
		{
			"anonymous": false,
			"inputs": [
				{
					"indexed": true,
					"internalType": "address",
					"name": "staker",
					"type": "address"
				},
				{
					"indexed": false,
					"internalType": "uint256",
					"name": "amount",
					"type": "uint256"
				}
			],
			"name": "degeneratorWithdrawn",
			"type": "event"
		},
		{
			"inputs": [
				{
					"internalType": "address",
					"name": "",
					"type": "address"
				},
				{
					"internalType": "address",
					"name": "",
					"type": "address"
				}
			],
			"name": "addressWithdrewERC20Reward",
			"outputs": [
				{
					"internalType": "bool",
					"name": "",
					"type": "bool"
				}
			],
			"stateMutability": "view",
			"type": "function"
		},
		{
			"inputs": [],
			"name": "degeneratorStakers",
			"outputs": [
				{
					"internalType": "uint256",
					"name": "",
					"type": "uint256"
				}
			],
			"stateMutability": "view",
			"type": "function"
		},
		{
			"inputs": [],
			"name": "degeneratorStakingPool",
			"outputs": [
				{
					"internalType": "uint256",
					"name": "",
					"type": "uint256"
				}
			],
			"stateMutability": "view",
			"type": "function"
		},
		{
			"inputs": [
				{
					"internalType": "address",
					"name": "",
					"type": "address"
				}
			],
			"name": "erc20Supplies",
			"outputs": [
				{
					"internalType": "uint256",
					"name": "poolSupply",
					"type": "uint256"
				},
				{
					"internalType": "uint256",
					"name": "blockSupplied",
					"type": "uint256"
				},
				{
					"internalType": "uint256",
					"name": "remainingPoolSupply",
					"type": "uint256"
				},
				{
					"internalType": "uint256",
					"name": "degeneratorPoolSizeAtTime",
					"type": "uint256"
				},
				{
					"internalType": "bool",
					"name": "registered",
					"type": "bool"
				}
			],
			"stateMutability": "view",
			"type": "function"
		},
		{
			"inputs": [],
			"name": "factory",
			"outputs": [
				{
					"internalType": "contract IFairLaunchFactoryV1",
					"name": "",
					"type": "address"
				}
			],
			"stateMutability": "view",
			"type": "function"
		},
		{
			"inputs": [
				{
					"internalType": "address",
					"name": "_tokenAddress",
					"type": "address"
				},
				{
					"internalType": "address",
					"name": "_account",
					"type": "address"
				}
			],
			"name": "getTokenEligibility",
			"outputs": [
				{
					"internalType": "bool",
					"name": "",
					"type": "bool"
				}
			],
			"stateMutability": "view",
			"type": "function"
		},
		{
			"inputs": [
				{
					"internalType": "address",
					"name": "_tokenAddress",
					"type": "address"
				},
				{
					"internalType": "address",
					"name": "_account",
					"type": "address"
				}
			],
			"name": "getTokenReward",
			"outputs": [
				{
					"internalType": "uint256",
					"name": "",
					"type": "uint256"
				}
			],
			"stateMutability": "view",
			"type": "function"
		},
		{
			"inputs": [],
			"name": "minimumStakeAmount",
			"outputs": [
				{
					"internalType": "uint256",
					"name": "",
					"type": "uint256"
				}
			],
			"stateMutability": "view",
			"type": "function"
		},
		{
			"inputs": [],
			"name": "multiSigAddress",
			"outputs": [
				{
					"internalType": "address",
					"name": "",
					"type": "address"
				}
			],
			"stateMutability": "view",
			"type": "function"
		},
		{
			"inputs": [
				{
					"internalType": "address",
					"name": "_tokenAddress",
					"type": "address"
				},
				{
					"internalType": "uint256",
					"name": "_poolSupply",
					"type": "uint256"
				}
			],
			"name": "registerERC20Supply",
			"outputs": [],
			"stateMutability": "nonpayable",
			"type": "function"
		},
		{
			"inputs": [],
			"name": "rewardBlackoutPeriod",
			"outputs": [
				{
					"internalType": "uint256",
					"name": "",
					"type": "uint256"
				}
			],
			"stateMutability": "view",
			"type": "function"
		},
		{
			"inputs": [
				{
					"internalType": "uint256",
					"name": "_amount",
					"type": "uint256"
				}
			],
			"name": "setMinimumStakeAmount",
			"outputs": [],
			"stateMutability": "nonpayable",
			"type": "function"
		},
		{
			"inputs": [
				{
					"internalType": "uint256",
					"name": "_length",
					"type": "uint256"
				}
			],
			"name": "setRewardBlackoutPeriod",
			"outputs": [],
			"stateMutability": "nonpayable",
			"type": "function"
		},
		{
			"inputs": [
				{
					"internalType": "uint256",
					"name": "_amount",
					"type": "uint256"
				}
			],
			"name": "stakeDegnerator",
			"outputs": [],
			"stateMutability": "nonpayable",
			"type": "function"
		},
		{
			"inputs": [],
			"name": "stakingOpen",
			"outputs": [
				{
					"internalType": "bool",
					"name": "",
					"type": "bool"
				}
			],
			"stateMutability": "view",
			"type": "function"
		},
		{
			"inputs": [],
			"name": "tokenAddress",
			"outputs": [
				{
					"internalType": "address",
					"name": "",
					"type": "address"
				}
			],
			"stateMutability": "view",
			"type": "function"
		},
		{
			"inputs": [],
			"name": "withdrawDegenerator",
			"outputs": [],
			"stateMutability": "nonpayable",
			"type": "function"
		},
		{
			"inputs": [
				{
					"internalType": "address[]",
					"name": "_tokenAddresses",
					"type": "address[]"
				}
			],
			"name": "withdrawRewards",
			"outputs": [],
			"stateMutability": "nonpayable",
			"type": "function"
		}
	]
}