{
	"data": {
		"bytecode": {
			"linkReferences": {},
			"object": "6080604052600b805460456001600160a01b03199182168117909255600c805490911690911790556016805463ffffff00191690556004546103e890610046906032610376565b610050919061039f565b601b55620f424060045460326100669190610376565b610070919061039f565b601c556103e860045460196100859190610376565b61008f919061039f565b601d55626a59606025553480156100a4575f80fd5b50604051612cd2380380612cd28339810160408190526100c39161046e565b60015f5533806100ed57604051631e4fbdf760e01b81525f60048201526024015b60405180910390fd5b6100f681610325565b50601b548311156101625760405162461bcd60e51b815260206004820152603060248201527f4d61782070726573616c6520636f6e747269627574696f6e2061626f7665206160448201526f18d8d95c1d195908094d481b1a5b5a5d60821b60648201526084016100e4565b601c548211156101da5760405162461bcd60e51b815260206004820152603360248201527f4d61782070726573616c6520636f6e747269627574696f6e2062656c6f77206160448201527f6363657074656420252e303035206c696d69740000000000000000000000000060648201526084016100e4565b601d548111156102525760405162461bcd60e51b815260206004820152603360248201527f466f756e64657220737570706c7920616c6c6f636174696f6e2061626f76652060448201527f616363657074656420322e3525206c696d69740000000000000000000000000060648201526084016100e4565b6618c2e7081226c98410610264575f80fd5b653f63971ee6c98610610275575f80fd5b653f63971ee6c98510610286575f80fd5b60026102928b826105a3565b50600488905560036102a48a826105a3565b506016805460ff191697151597909717909655601991909155601a55601891909155601791909155601e55601255505060068054336001600160a01b03199182168117909255600b54600d80546001600160a01b03928316908416179055600c54600e80549190921690831617905560078054909116909117905550610662565b600180546001600160a01b038381166001600160a01b0319831681179093556040519116919082907f8be0079c531659141344cd1fd0a4f28419497f9722a3daafe3b4186f6b6457e0905f90a35050565b808202811582820484141761039957634e487b7160e01b5f52601160045260245ffd5b92915050565b5f826103b957634e487b7160e01b5f52601260045260245ffd5b500490565b634e487b7160e01b5f52604160045260245ffd5b5f82601f8301126103e1575f80fd5b81516001600160401b03808211156103fb576103fb6103be565b604051601f8301601f19908116603f01168101908282118183101715610423576104236103be565b8160405283815286602085880101111561043b575f80fd5b8360208701602083015e5f602085830101528094505050505092915050565b80518015158114610469575f80fd5b919050565b5f805f805f805f805f806101408b8d031215610488575f80fd5b8a516001600160401b038082111561049e575f80fd5b6104aa8e838f016103d2565b9b5060208d01519150808211156104bf575f80fd5b506104cc8d828e016103d2565b99505060408b015197506104e260608c0161045a565b965060808b0151955060a08b0151945060c08b0151935060e08b015192506101008b015191506101208b015190509295989b9194979a5092959850565b600181811c9082168061053357607f821691505b60208210810361055157634e487b7160e01b5f52602260045260245ffd5b50919050565b601f82111561059e57805f5260205f20601f840160051c8101602085101561057c5750805b601f840160051c820191505b8181101561059b575f8155600101610588565b50505b505050565b81516001600160401b038111156105bc576105bc6103be565b6105d0816105ca845461051f565b84610557565b602080601f831160018114610603575f84156105ec5750858301515b5f19600386901b1c1916600185901b17855561065a565b5f85815260208120601f198616915b8281101561063157888601518255948401946001909101908401610612565b508582101561064e57878501515f19600388901b60f8161c191681555b505060018460011b0185555b505050505050565b6126638061066f5f395ff3fe6080604052600436106102f3575f3560e01c806386fe430211610189578063c7961902116100d8578063e1b83e3c11610092578063ee99205c1161006d578063ee99205c146107cc578063f2fde38b146107eb578063f7817dae1461080a578063fa095e2e1461081f575f80fd5b8063e1b83e3c14610783578063e6b75b2a146107a2578063ec79fa14146107b7575f80fd5b8063c7961902146106f7578063cba25e7914610710578063cd96f5d114610725578063d41d71a61461073a578063d72369431461074f578063dba12eb31461076e575f80fd5b8063a28a4d8611610143578063a82524b21161011e578063a82524b214610699578063c45a0155146106ae578063c4fc3a3b146106cd578063c5fa27b7146106e2575f80fd5b8063a28a4d8614610658578063a41518bf1461066c578063a49102d714610685575f80fd5b806386fe4302146105be5780638bdb2afa146105d35780638d3974b2146105f25780638da5cb5b146106075780639d76ea58146106245780639ec8e0b514610643575f80fd5b80634dce051f11610245578063715018a6116101ff57806377a21790116101da57806377a217901461056f5780637824407f146105775780637b61c3201461058c57806383a9e049146105a0575f80fd5b8063715018a61461051c578063735de9f7146105305780637757fc5d1461054f575f80fd5b80634dce051f146104885780634ebd0ee41461049d5780634edfe325146104b25780635b0d8927146104c757806361c7ab41146104e65780636c02a931146104fb575f80fd5b806336bc180c116102b05780633fc8cef31161028b5780633fc8cef3146104065780634661e71d1461042557806346bb28331461043a5780634738a88314610459575f80fd5b806336bc180c146103bd5780633969a9ce146103d25780633d42e94d146103f1575f80fd5b8063027df6d2146102f7578063162fe42b1461031f578063182ccd6f1461033557806320ca3c7f14610348578063296cab551461037f5780633655ac3c1461039e575b5f80fd5b348015610302575f80fd5b5061030c60155481565b6040519081526020015b60405180910390f35b34801561032a575f80fd5b50610333610834565b005b6103336103433660046116d0565b610952565b348015610353575f80fd5b50600b54610367906001600160a01b031681565b6040516001600160a01b039091168152602001610316565b34801561038a575f80fd5b506103336103993660046116d0565b610a5a565b3480156103a9575f80fd5b50600c54610367906001600160a01b031681565b3480156103c8575f80fd5b5061030c60225481565b3480156103dd575f80fd5b506103336103ec3660046116e7565b610a9e565b3480156103fc575f80fd5b5061030c60135481565b348015610411575f80fd5b50600a54610367906001600160a01b031681565b348015610430575f80fd5b5061030c60205481565b348015610445575f80fd5b50600654610367906001600160a01b031681565b348015610464575f80fd5b506016546104789062010000900460ff1681565b6040519015158152602001610316565b348015610493575f80fd5b5061030c601f5481565b3480156104a8575f80fd5b5061030c60145481565b3480156104bd575f80fd5b5061030c60185481565b3480156104d2575f80fd5b506103336104e13660046116d0565b610bae565b3480156104f1575f80fd5b5061030c601e5481565b348015610506575f80fd5b5061050f610be9565b6040516103169190611716565b348015610527575f80fd5b50610333610c75565b34801561053b575f80fd5b50600d54610367906001600160a01b031681565b34801561055a575f80fd5b50601654610478906301000000900460ff1681565b610333610c86565b348015610582575f80fd5b5061030c60045481565b348015610597575f80fd5b5061050f610d68565b3480156105ab575f80fd5b5060165461047890610100900460ff1681565b3480156105c9575f80fd5b5061030c60255481565b3480156105de575f80fd5b50600e54610367906001600160a01b031681565b3480156105fd575f80fd5b5061030c60285481565b348015610612575f80fd5b506001546001600160a01b0316610367565b34801561062f575f80fd5b50600554610367906001600160a01b031681565b34801561064e575f80fd5b5061030c601d5481565b348015610663575f80fd5b50610333610d75565b348015610677575f80fd5b506023546104789060ff1681565b348015610690575f80fd5b506103336114f7565b3480156106a4575f80fd5b5061030c60215481565b3480156106b9575f80fd5b50600754610367906001600160a01b031681565b3480156106d8575f80fd5b5061030c600f5481565b3480156106ed575f80fd5b5061030c60245481565b348015610702575f80fd5b506016546104789060ff1681565b34801561071b575f80fd5b5061030c60175481565b348015610730575f80fd5b5061030c60105481565b348015610745575f80fd5b5061030c601a5481565b34801561075a575f80fd5b50600954610367906001600160a01b031681565b348015610779575f80fd5b5061030c601b5481565b34801561078e575f80fd5b5061033361079d3660046116d0565b611572565b3480156107ad575f80fd5b5061030c60125481565b3480156107c2575f80fd5b5061030c601c5481565b3480156107d7575f80fd5b50600854610367906001600160a01b031681565b3480156107f6575f80fd5b5061033361080536600461175f565b6115af565b348015610815575f80fd5b5061030c60115481565b34801561082a575f80fd5b5061030c60195481565b61083c6115ee565b6005546001600160a01b0316610850575f80fd5b335f908152602660205260408120549003610869575f80fd5b6018546028541015610879575f80fd5b335f908152602660205260408120546028549091906108989083611795565b600f546108a591906117b4565b335f8181526027602052604090819020805460ff19166001179055600554905163a9059cbb60e01b81529293506001600160a01b03169163a9059cbb916109049185906004016001600160a01b03929092168252602082015260400190565b6020604051808303815f875af1158015610920573d5f803e3d5ffd5b505050506040513d601f19601f8201168201806040525081019061094491906117d1565b50505061095060015f55565b565b61095a6115ee565b803414610965575f80fd5b601954335f9081526026602052604090205461098190346117f0565b111561098b575f80fd5b601a548111610998575f80fd5b6017546028546109a890836117f0565b11156109b2575f80fd5b601654610100900460ff166109c5575f80fd5b6018546028546109d590836117f0565b101580156109e6575060235460ff16155b156109fd57436022556023805460ff191660011790555b601754602854610a0d90836117f0565b03610a1757436024555b8060285f828254610a2891906117f0565b9091555050335f9081526026602052604081208054839290610a4b9084906117f0565b909155505060015f5550565b50565b610a62611645565b60218190556040518181527fc2bdf2b17735ddedbe2ffc657fe8487f25f54889057ae72b1d5ac6ff1634eebb906020015b60405180910390a150565b610aa6611645565b60165460ff16610ab4575f80fd5b601654610100900460ff16158015610ad4575060165462010000900460ff165b610adc575f80fd5b601d54841115610aea575f80fd5b601d54831115610af8575f80fd5b601d54821115610b06575f80fd5b601d54811115610b14575f80fd5b601d54610b229060026117b4565b8183610b2e86886117f0565b610b3891906117f0565b610b4291906117f0565b1115610b4c575f80fd5b60128490556013839055601482905560158190556040805185815260208101859052908101839052606081018290527f1307657c8e5ac9a807597ac0994b06aadc09dd69ec21b32cabf8d6fb26e4d7459060800160405180910390a150505050565b610bb6611645565b60208181556040518281527fb2ce785ed4ac87ad9611f20cf068cd12359bdc59a42173a02a65911ec3cf49129101610a93565b60028054610bf690611803565b80601f0160208091040260200160405190810160405280929190818152602001828054610c2290611803565b8015610c6d5780601f10610c4457610100808354040283529160200191610c6d565b820191905f5260205f20905b815481529060010190602001808311610c5057829003601f168201915b505050505081565b610c7d611645565b6109505f611672565b610c8e6115ee565b6005546001600160a01b031615610ca3575f80fd5b335f908152602660205260408120549003610cbc575f80fd5b601654610100900460ff16158015610cd75750602854601854105b610cdf575f80fd5b601e54610cec814361183b565b10610cf5575f80fd5b335f9081526027602052604090205460ff1615610d10575f80fd5b335f818152602660209081526040808320546027909252808320805460ff191660011790555190929183156108fc02918491818181858888f19350505050158015610d5d573d5f803e3d5ffd5b505061095060015f55565b60038054610bf690611803565b610d7d6115ee565b6001546001600160a01b0316331480610d98575060165460ff165b610da0575f80fd5b601854602854101580610db6575060165460ff16155b610dbe575f80fd5b626ac3e960225443610dd0919061183b565b10610dd9575f80fd5b5f60045460026003604051610ded906116c3565b610df9939291906118ed565b604051809103905ff080158015610e12573d5f803e3d5ffd5b50600580546001600160a01b0319166001600160a01b03831690811790915560045460405192935090917f2834c1f24c5bb06ff7e8e4e35c9d7ed57e05e6e1bd415efb78db926d58f25a2191610e6d91600291600391611921565b60405180910390a25f6103e86004546005610e8891906117b4565b610e929190611795565b90505f6015546103e86004546005610eaa91906117b4565b610eb49190611795565b610ebe91906117f0565b6007546005546040516396b3727760e01b81526001600160a01b0391821660048201526024810184905292935016906396b37277906044015f604051808303815f87803b158015610f0d575f80fd5b505af1158015610f1f573d5f803e3d5ffd5b505060065460125460405163a9059cbb60e01b81526001600160a01b0392831660048201526024810191909152908616925063a9059cbb91506044016020604051808303815f875af1158015610f77573d5f803e3d5ffd5b505050506040513d601f19601f82011682018060405250810190610f9b91906117d1565b5060085460405163a9059cbb60e01b81526001600160a01b039182166004820152602481018390529084169063a9059cbb906044016020604051808303815f875af1158015610fec573d5f803e3d5ffd5b505050506040513d601f19601f8201168201806040525081019061101091906117d1565b5060075460405163a9059cbb60e01b81526001600160a01b039182166004820152602481018490529084169063a9059cbb906044016020604051808303815f875af1158015611061573d5f803e3d5ffd5b505050506040513d601f19601f8201168201806040525081019061108591906117d1565b506016805463ff0000001916630100000017905530315f6103e86110aa8360056117b4565b6110b49190611795565b6007546040519192506001600160a01b03169082156108fc029083905f818181858888f193505050501580156110ec573d5f803e3d5ffd5b50600a5460408051630d0e30db60e41b81529051303194506001600160a01b039092169163d0e30db09147916004808301925f92919082900301818588803b158015611136575f80fd5b505af1158015611148573d5f803e3d5ffd5b5050600d5460405163095ea7b360e01b81526001600160a01b0391821660048201525f196024820152908916935063095ea7b3925060440190506020604051808303815f875af115801561119e573d5f803e3d5ffd5b505050506040513d601f19601f820116820180604052508101906111c291906117d1565b50600a54600d5460405163095ea7b360e01b81526001600160a01b0391821660048201525f19602482015291169063095ea7b3906044016020604051808303815f875af1158015611215573d5f803e3d5ffd5b505050506040513d601f19601f8201168201806040525081019061123991906117d1565b50600e54600554600a5460405163e6a4390560e01b81526001600160a01b03928316600482015290821660248201525f92919091169063e6a4390590604401602060405180830381865afa158015611293573d5f803e3d5ffd5b505050506040513d601f19601f820116820180604052508101906112b79190611956565b90506001600160a01b03811661136657600e54600a546005546040516364e329cb60e11b81526001600160a01b039283166004820152908216602482015291169063c9c65396906044016020604051808303815f875af115801561131d573d5f803e3d5ffd5b505050506040513d601f19601f820116820180604052508101906113419190611956565b600980546001600160a01b0319166001600160a01b0392909216919091179055611382565b600980546001600160a01b0319166001600160a01b0383161790555b600d54600554600a546010546040516370a0823160e01b81523060048201526001600160a01b039485169463e8e337009481169316919082906370a0823190602401602060405180830381865afa1580156113df573d5f803e3d5ffd5b505050506040513d601f19601f820116820180604052508101906114039190611971565b6040516001600160e01b031960e087901b1681526001600160a01b0394851660048201529390921660248401526044830152606482015260456084820181905260a48201525f60c48201524260e4820152610104016060604051808303815f875af1158015611474573d5f803e3d5ffd5b505050506040513d601f19601f820116820180604052508101906114989190611988565b50506009546010546040516001600160a01b0390921692507fa1c337bb22a2d8905c88f8d68029ac3f6d5c6c3f16cf5c1fe92efab88d11d7b8916114e09187916002906119b3565b60405180910390a250505050505061095060015f55565b6114ff611645565b602154431161150c575f80fd5b6016805461ff00191661010017905543602155601954601a546017546018546040805194855260208501939093529183015260608201527fb5a26c67c6983f7a6af7ef8bd10ca38dca0ff13d20cb55ff961a0fdb3629a2149060800160405180910390a1565b61157a611645565b601f8190556040518181527f3cddbbd2901897ab7f5d7a62f3806aabd7aaee30ad5e014303f4e3899cdcb11790602001610a93565b6115b7611645565b6001600160a01b0381166115e557604051631e4fbdf760e01b81525f60048201526024015b60405180910390fd5b610a5781611672565b60025f540361163f5760405162461bcd60e51b815260206004820152601f60248201527f5265656e7472616e637947756172643a207265656e7472616e742063616c6c0060448201526064016115dc565b60025f55565b6001546001600160a01b031633146109505760405163118cdaa760e01b81523360048201526024016115dc565b600180546001600160a01b038381166001600160a01b0319831681179093556040519116919082907f8be0079c531659141344cd1fd0a4f28419497f9722a3daafe3b4186f6b6457e0905f90a35050565b610c53806119db83390190565b5f602082840312156116e0575f80fd5b5035919050565b5f805f80608085870312156116fa575f80fd5b5050823594602084013594506040840135936060013592509050565b602081525f82518060208401528060208501604085015e5f604082850101526040601f19601f83011684010191505092915050565b6001600160a01b0381168114610a57575f80fd5b5f6020828403121561176f575f80fd5b813561177a8161174b565b9392505050565b634e487b7160e01b5f52601160045260245ffd5b5f826117af57634e487b7160e01b5f52601260045260245ffd5b500490565b80820281158282048414176117cb576117cb611781565b92915050565b5f602082840312156117e1575f80fd5b8151801515811461177a575f80fd5b808201808211156117cb576117cb611781565b600181811c9082168061181757607f821691505b60208210810361183557634e487b7160e01b5f52602260045260245ffd5b50919050565b818103818111156117cb576117cb611781565b80545f90600181811c908083168061186757607f831692505b6020808410820361188657634e487b7160e01b5f52602260045260245ffd5b838852602088018280156118a157600181146118b7576118e0565b60ff198716825285151560051b820197506118e0565b5f898152602090205f5b878110156118da578154848201529086019084016118c1565b83019850505b5050505050505092915050565b838152606060208201525f611905606083018561184e565b8281036040840152611917818561184e565b9695505050505050565b606081525f611933606083018661184e565b8281036020840152611945818661184e565b915050826040830152949350505050565b5f60208284031215611966575f80fd5b815161177a8161174b565b5f60208284031215611981575f80fd5b5051919050565b5f805f6060848603121561199a575f80fd5b8351925060208401519150604084015190509250925092565b838152826020820152606060408201525f6119d1606083018461184e565b9594505050505056fe608060405234801561000f575f80fd5b50604051610c53380380610c5383398101604081905261002e91610284565b8181600361003c8382610370565b5060046100498282610370565b5050506100783361005e61008060201b60201c565b61006990600a610525565b610073908661053a565b610085565b505050610564565b601290565b6001600160a01b0382166100b35760405163ec442f0560e01b81525f60048201526024015b60405180910390fd5b6100be5f83836100c2565b5050565b6001600160a01b0383166100ec578060025f8282546100e19190610551565b9091555061015c9050565b6001600160a01b0383165f908152602081905260409020548181101561013e5760405163391434e360e21b81526001600160a01b038516600482015260248101829052604481018390526064016100aa565b6001600160a01b0384165f9081526020819052604090209082900390555b6001600160a01b03821661017857600280548290039055610196565b6001600160a01b0382165f9081526020819052604090208054820190555b816001600160a01b0316836001600160a01b03167fddf252ad1be2c89b69c2b068fc378daa952ba7f163c4a11628f55a4df523b3ef836040516101db91815260200190565b60405180910390a3505050565b634e487b7160e01b5f52604160045260245ffd5b5f82601f83011261020b575f80fd5b81516001600160401b0380821115610225576102256101e8565b604051601f8301601f19908116603f0116810190828211818310171561024d5761024d6101e8565b81604052838152866020858801011115610265575f80fd5b8360208701602083015e5f602085830101528094505050505092915050565b5f805f60608486031215610296575f80fd5b835160208501519093506001600160401b03808211156102b4575f80fd5b6102c0878388016101fc565b935060408601519150808211156102d5575f80fd5b506102e2868287016101fc565b9150509250925092565b600181811c9082168061030057607f821691505b60208210810361031e57634e487b7160e01b5f52602260045260245ffd5b50919050565b601f82111561036b57805f5260205f20601f840160051c810160208510156103495750805b601f840160051c820191505b81811015610368575f8155600101610355565b50505b505050565b81516001600160401b03811115610389576103896101e8565b61039d8161039784546102ec565b84610324565b602080601f8311600181146103d0575f84156103b95750858301515b5f19600386901b1c1916600185901b178555610427565b5f85815260208120601f198616915b828110156103fe578886015182559484019460019091019084016103df565b508582101561041b57878501515f19600388901b60f8161c191681555b505060018460011b0185555b505050505050565b634e487b7160e01b5f52601160045260245ffd5b600181815b8085111561047d57815f19048211156104635761046361042f565b8085161561047057918102915b93841c9390800290610448565b509250929050565b5f826104935750600161051f565b8161049f57505f61051f565b81600181146104b557600281146104bf576104db565b600191505061051f565b60ff8411156104d0576104d061042f565b50506001821b61051f565b5060208310610133831016604e8410600b84101617156104fe575081810a61051f565b6105088383610443565b805f190482111561051b5761051b61042f565b0290505b92915050565b5f61053360ff841683610485565b9392505050565b808202811582820484141761051f5761051f61042f565b8082018082111561051f5761051f61042f565b6106e2806105715f395ff3fe608060405234801561000f575f80fd5b5060043610610090575f3560e01c8063313ce56711610063578063313ce567146100fa57806370a082311461010957806395d89b4114610131578063a9059cbb14610139578063dd62ed3e1461014c575f80fd5b806306fdde0314610094578063095ea7b3146100b257806318160ddd146100d557806323b872dd146100e7575b5f80fd5b61009c610184565b6040516100a99190610553565b60405180910390f35b6100c56100c03660046105a3565b610214565b60405190151581526020016100a9565b6002545b6040519081526020016100a9565b6100c56100f53660046105cb565b61022d565b604051601281526020016100a9565b6100d9610117366004610604565b6001600160a01b03165f9081526020819052604090205490565b61009c610250565b6100c56101473660046105a3565b61025f565b6100d961015a366004610624565b6001600160a01b039182165f90815260016020908152604080832093909416825291909152205490565b60606003805461019390610655565b80601f01602080910402602001604051908101604052809291908181526020018280546101bf90610655565b801561020a5780601f106101e15761010080835404028352916020019161020a565b820191905f5260205f20905b8154815290600101906020018083116101ed57829003601f168201915b5050505050905090565b5f3361022181858561026c565b60019150505b92915050565b5f3361023a85828561027e565b6102458585856102fe565b506001949350505050565b60606004805461019390610655565b5f336102218185856102fe565b610279838383600161035b565b505050565b6001600160a01b038381165f908152600160209081526040808320938616835292905220545f1981146102f857818110156102ea57604051637dc7a0d960e11b81526001600160a01b038416600482015260248101829052604481018390526064015b60405180910390fd5b6102f884848484035f61035b565b50505050565b6001600160a01b03831661032757604051634b637e8f60e11b81525f60048201526024016102e1565b6001600160a01b0382166103505760405163ec442f0560e01b81525f60048201526024016102e1565b61027983838361042d565b6001600160a01b0384166103845760405163e602df0560e01b81525f60048201526024016102e1565b6001600160a01b0383166103ad57604051634a1406b160e11b81525f60048201526024016102e1565b6001600160a01b038085165f90815260016020908152604080832093871683529290522082905580156102f857826001600160a01b0316846001600160a01b03167f8c5be1e5ebec7d5bd14f71427d1e84f3dd0314c0f7b2291e5b200ac8c7c3b9258460405161041f91815260200190565b60405180910390a350505050565b6001600160a01b038316610457578060025f82825461044c919061068d565b909155506104c79050565b6001600160a01b0383165f90815260208190526040902054818110156104a95760405163391434e360e21b81526001600160a01b038516600482015260248101829052604481018390526064016102e1565b6001600160a01b0384165f9081526020819052604090209082900390555b6001600160a01b0382166104e357600280548290039055610501565b6001600160a01b0382165f9081526020819052604090208054820190555b816001600160a01b0316836001600160a01b03167fddf252ad1be2c89b69c2b068fc378daa952ba7f163c4a11628f55a4df523b3ef8360405161054691815260200190565b60405180910390a3505050565b602081525f82518060208401528060208501604085015e5f604082850101526040601f19601f83011684010191505092915050565b80356001600160a01b038116811461059e575f80fd5b919050565b5f80604083850312156105b4575f80fd5b6105bd83610588565b946020939093013593505050565b5f805f606084860312156105dd575f80fd5b6105e684610588565b92506105f460208501610588565b9150604084013590509250925092565b5f60208284031215610614575f80fd5b61061d82610588565b9392505050565b5f8060408385031215610635575f80fd5b61063e83610588565b915061064c60208401610588565b90509250929050565b600181811c9082168061066957607f821691505b60208210810361068757634e487b7160e01b5f52602260045260245ffd5b50919050565b8082018082111561022757634e487b7160e01b5f52601160045260245ffdfea26469706673582212204bd5d20a6ab90558adbcc50d5d8979f92f87ffaa2c524a0d525b2842a5ca60f264736f6c63430008190033a2646970667358221220642d0cac1bf5a58ed350dc9c49974b5848fc1a4ffd9125d60735871b0d492a8b64736f6c63430008190033",
			"opcodes": "PUSH1 0x80 PUSH1 0x40 MSTORE PUSH1 0xB DUP1 SLOAD PUSH1 0x45 PUSH1 0x1 PUSH1 0x1 PUSH1 0xA0 SHL SUB NOT SWAP2 DUP3 AND DUP2 OR SWAP1 SWAP3 SSTORE PUSH1 0xC DUP1 SLOAD SWAP1 SWAP2 AND SWAP1 SWAP2 OR SWAP1 SSTORE PUSH1 0x16 DUP1 SLOAD PUSH4 0xFFFFFF00 NOT AND SWAP1 SSTORE PUSH1 0x4 SLOAD PUSH2 0x3E8 SWAP1 PUSH2 0x46 SWAP1 PUSH1 0x32 PUSH2 0x376 JUMP JUMPDEST PUSH2 0x50 SWAP2 SWAP1 PUSH2 0x39F JUMP JUMPDEST PUSH1 0x1B SSTORE PUSH3 0xF4240 PUSH1 0x4 SLOAD PUSH1 0x32 PUSH2 0x66 SWAP2 SWAP1 PUSH2 0x376 JUMP JUMPDEST PUSH2 0x70 SWAP2 SWAP1 PUSH2 0x39F JUMP JUMPDEST PUSH1 0x1C SSTORE PUSH2 0x3E8 PUSH1 0x4 SLOAD PUSH1 0x19 PUSH2 0x85 SWAP2 SWAP1 PUSH2 0x376 JUMP JUMPDEST PUSH2 0x8F SWAP2 SWAP1 PUSH2 0x39F JUMP JUMPDEST PUSH1 0x1D SSTORE PUSH3 0x6A5960 PUSH1 0x25 SSTORE CALLVALUE DUP1 ISZERO PUSH2 0xA4 JUMPI PUSH0 DUP1 REVERT JUMPDEST POP PUSH1 0x40 MLOAD PUSH2 0x2CD2 CODESIZE SUB DUP1 PUSH2 0x2CD2 DUP4 CODECOPY DUP2 ADD PUSH1 0x40 DUP2 SWAP1 MSTORE PUSH2 0xC3 SWAP2 PUSH2 0x46E JUMP JUMPDEST PUSH1 0x1 PUSH0 SSTORE CALLER DUP1 PUSH2 0xED JUMPI PUSH1 0x40 MLOAD PUSH4 0x1E4FBDF7 PUSH1 0xE0 SHL DUP2 MSTORE PUSH0 PUSH1 0x4 DUP3 ADD MSTORE PUSH1 0x24 ADD JUMPDEST PUSH1 0x40 MLOAD DUP1 SWAP2 SUB SWAP1 REVERT JUMPDEST PUSH2 0xF6 DUP2 PUSH2 0x325 JUMP JUMPDEST POP PUSH1 0x1B SLOAD DUP4 GT ISZERO PUSH2 0x162 JUMPI PUSH1 0x40 MLOAD PUSH3 0x461BCD PUSH1 0xE5 SHL DUP2 MSTORE PUSH1 0x20 PUSH1 0x4 DUP3 ADD MSTORE PUSH1 0x30 PUSH1 0x24 DUP3 ADD MSTORE PUSH32 0x4D61782070726573616C6520636F6E747269627574696F6E2061626F76652061 PUSH1 0x44 DUP3 ADD MSTORE PUSH16 0x18D8D95C1D195908094D481B1A5B5A5D PUSH1 0x82 SHL PUSH1 0x64 DUP3 ADD MSTORE PUSH1 0x84 ADD PUSH2 0xE4 JUMP JUMPDEST PUSH1 0x1C SLOAD DUP3 GT ISZERO PUSH2 0x1DA JUMPI PUSH1 0x40 MLOAD PUSH3 0x461BCD PUSH1 0xE5 SHL DUP2 MSTORE PUSH1 0x20 PUSH1 0x4 DUP3 ADD MSTORE PUSH1 0x33 PUSH1 0x24 DUP3 ADD MSTORE PUSH32 0x4D61782070726573616C6520636F6E747269627574696F6E2062656C6F772061 PUSH1 0x44 DUP3 ADD MSTORE PUSH32 0x6363657074656420252E303035206C696D697400000000000000000000000000 PUSH1 0x64 DUP3 ADD MSTORE PUSH1 0x84 ADD PUSH2 0xE4 JUMP JUMPDEST PUSH1 0x1D SLOAD DUP2 GT ISZERO PUSH2 0x252 JUMPI PUSH1 0x40 MLOAD PUSH3 0x461BCD PUSH1 0xE5 SHL DUP2 MSTORE PUSH1 0x20 PUSH1 0x4 DUP3 ADD MSTORE PUSH1 0x33 PUSH1 0x24 DUP3 ADD MSTORE PUSH32 0x466F756E64657220737570706C7920616C6C6F636174696F6E2061626F766520 PUSH1 0x44 DUP3 ADD MSTORE PUSH32 0x616363657074656420322E3525206C696D697400000000000000000000000000 PUSH1 0x64 DUP3 ADD MSTORE PUSH1 0x84 ADD PUSH2 0xE4 JUMP JUMPDEST PUSH7 0x18C2E7081226C9 DUP5 LT PUSH2 0x264 JUMPI PUSH0 DUP1 REVERT JUMPDEST PUSH6 0x3F63971EE6C9 DUP7 LT PUSH2 0x275 JUMPI PUSH0 DUP1 REVERT JUMPDEST PUSH6 0x3F63971EE6C9 DUP6 LT PUSH2 0x286 JUMPI PUSH0 DUP1 REVERT JUMPDEST PUSH1 0x2 PUSH2 0x292 DUP12 DUP3 PUSH2 0x5A3 JUMP JUMPDEST POP PUSH1 0x4 DUP9 SWAP1 SSTORE PUSH1 0x3 PUSH2 0x2A4 DUP11 DUP3 PUSH2 0x5A3 JUMP JUMPDEST POP PUSH1 0x16 DUP1 SLOAD PUSH1 0xFF NOT AND SWAP8 ISZERO ISZERO SWAP8 SWAP1 SWAP8 OR SWAP1 SWAP7 SSTORE PUSH1 0x19 SWAP2 SWAP1 SWAP2 SSTORE PUSH1 0x1A SSTORE PUSH1 0x18 SWAP2 SWAP1 SWAP2 SSTORE PUSH1 0x17 SWAP2 SWAP1 SWAP2 SSTORE PUSH1 0x1E SSTORE PUSH1 0x12 SSTORE POP POP PUSH1 0x6 DUP1 SLOAD CALLER PUSH1 0x1 PUSH1 0x1 PUSH1 0xA0 SHL SUB NOT SWAP2 DUP3 AND DUP2 OR SWAP1 SWAP3 SSTORE PUSH1 0xB SLOAD PUSH1 0xD DUP1 SLOAD PUSH1 0x1 PUSH1 0x1 PUSH1 0xA0 SHL SUB SWAP3 DUP4 AND SWAP1 DUP5 AND OR SWAP1 SSTORE PUSH1 0xC SLOAD PUSH1 0xE DUP1 SLOAD SWAP2 SWAP1 SWAP3 AND SWAP1 DUP4 AND OR SWAP1 SSTORE PUSH1 0x7 DUP1 SLOAD SWAP1 SWAP2 AND SWAP1 SWAP2 OR SWAP1 SSTORE POP PUSH2 0x662 JUMP JUMPDEST PUSH1 0x1 DUP1 SLOAD PUSH1 0x1 PUSH1 0x1 PUSH1 0xA0 SHL SUB DUP4 DUP2 AND PUSH1 0x1 PUSH1 0x1 PUSH1 0xA0 SHL SUB NOT DUP4 AND DUP2 OR SWAP1 SWAP4 SSTORE PUSH1 0x40 MLOAD SWAP2 AND SWAP2 SWAP1 DUP3 SWAP1 PUSH32 0x8BE0079C531659141344CD1FD0A4F28419497F9722A3DAAFE3B4186F6B6457E0 SWAP1 PUSH0 SWAP1 LOG3 POP POP JUMP JUMPDEST DUP1 DUP3 MUL DUP2 ISZERO DUP3 DUP3 DIV DUP5 EQ OR PUSH2 0x399 JUMPI PUSH4 0x4E487B71 PUSH1 0xE0 SHL PUSH0 MSTORE PUSH1 0x11 PUSH1 0x4 MSTORE PUSH1 0x24 PUSH0 REVERT JUMPDEST SWAP3 SWAP2 POP POP JUMP JUMPDEST PUSH0 DUP3 PUSH2 0x3B9 JUMPI PUSH4 0x4E487B71 PUSH1 0xE0 SHL PUSH0 MSTORE PUSH1 0x12 PUSH1 0x4 MSTORE PUSH1 0x24 PUSH0 REVERT JUMPDEST POP DIV SWAP1 JUMP JUMPDEST PUSH4 0x4E487B71 PUSH1 0xE0 SHL PUSH0 MSTORE PUSH1 0x41 PUSH1 0x4 MSTORE PUSH1 0x24 PUSH0 REVERT JUMPDEST PUSH0 DUP3 PUSH1 0x1F DUP4 ADD SLT PUSH2 0x3E1 JUMPI PUSH0 DUP1 REVERT JUMPDEST DUP2 MLOAD PUSH1 0x1 PUSH1 0x1 PUSH1 0x40 SHL SUB DUP1 DUP3 GT ISZERO PUSH2 0x3FB JUMPI PUSH2 0x3FB PUSH2 0x3BE JUMP JUMPDEST PUSH1 0x40 MLOAD PUSH1 0x1F DUP4 ADD PUSH1 0x1F NOT SWAP1 DUP2 AND PUSH1 0x3F ADD AND DUP2 ADD SWAP1 DUP3 DUP3 GT DUP2 DUP4 LT OR ISZERO PUSH2 0x423 JUMPI PUSH2 0x423 PUSH2 0x3BE JUMP JUMPDEST DUP2 PUSH1 0x40 MSTORE DUP4 DUP2 MSTORE DUP7 PUSH1 0x20 DUP6 DUP9 ADD ADD GT ISZERO PUSH2 0x43B JUMPI PUSH0 DUP1 REVERT JUMPDEST DUP4 PUSH1 0x20 DUP8 ADD PUSH1 0x20 DUP4 ADD MCOPY PUSH0 PUSH1 0x20 DUP6 DUP4 ADD ADD MSTORE DUP1 SWAP5 POP POP POP POP POP SWAP3 SWAP2 POP POP JUMP JUMPDEST DUP1 MLOAD DUP1 ISZERO ISZERO DUP2 EQ PUSH2 0x469 JUMPI PUSH0 DUP1 REVERT JUMPDEST SWAP2 SWAP1 POP JUMP JUMPDEST PUSH0 DUP1 PUSH0 DUP1 PUSH0 DUP1 PUSH0 DUP1 PUSH0 DUP1 PUSH2 0x140 DUP12 DUP14 SUB SLT ISZERO PUSH2 0x488 JUMPI PUSH0 DUP1 REVERT JUMPDEST DUP11 MLOAD PUSH1 0x1 PUSH1 0x1 PUSH1 0x40 SHL SUB DUP1 DUP3 GT ISZERO PUSH2 0x49E JUMPI PUSH0 DUP1 REVERT JUMPDEST PUSH2 0x4AA DUP15 DUP4 DUP16 ADD PUSH2 0x3D2 JUMP JUMPDEST SWAP12 POP PUSH1 0x20 DUP14 ADD MLOAD SWAP2 POP DUP1 DUP3 GT ISZERO PUSH2 0x4BF JUMPI PUSH0 DUP1 REVERT JUMPDEST POP PUSH2 0x4CC DUP14 DUP3 DUP15 ADD PUSH2 0x3D2 JUMP JUMPDEST SWAP10 POP POP PUSH1 0x40 DUP12 ADD MLOAD SWAP8 POP PUSH2 0x4E2 PUSH1 0x60 DUP13 ADD PUSH2 0x45A JUMP JUMPDEST SWAP7 POP PUSH1 0x80 DUP12 ADD MLOAD SWAP6 POP PUSH1 0xA0 DUP12 ADD MLOAD SWAP5 POP PUSH1 0xC0 DUP12 ADD MLOAD SWAP4 POP PUSH1 0xE0 DUP12 ADD MLOAD SWAP3 POP PUSH2 0x100 DUP12 ADD MLOAD SWAP2 POP PUSH2 0x120 DUP12 ADD MLOAD SWAP1 POP SWAP3 SWAP6 SWAP9 SWAP12 SWAP2 SWAP5 SWAP8 SWAP11 POP SWAP3 SWAP6 SWAP9 POP JUMP JUMPDEST PUSH1 0x1 DUP2 DUP2 SHR SWAP1 DUP3 AND DUP1 PUSH2 0x533 JUMPI PUSH1 0x7F DUP3 AND SWAP2 POP JUMPDEST PUSH1 0x20 DUP3 LT DUP2 SUB PUSH2 0x551 JUMPI PUSH4 0x4E487B71 PUSH1 0xE0 SHL PUSH0 MSTORE PUSH1 0x22 PUSH1 0x4 MSTORE PUSH1 0x24 PUSH0 REVERT JUMPDEST POP SWAP2 SWAP1 POP JUMP JUMPDEST PUSH1 0x1F DUP3 GT ISZERO PUSH2 0x59E JUMPI DUP1 PUSH0 MSTORE PUSH1 0x20 PUSH0 KECCAK256 PUSH1 0x1F DUP5 ADD PUSH1 0x5 SHR DUP2 ADD PUSH1 0x20 DUP6 LT ISZERO PUSH2 0x57C JUMPI POP DUP1 JUMPDEST PUSH1 0x1F DUP5 ADD PUSH1 0x5 SHR DUP3 ADD SWAP2 POP JUMPDEST DUP2 DUP2 LT ISZERO PUSH2 0x59B JUMPI PUSH0 DUP2 SSTORE PUSH1 0x1 ADD PUSH2 0x588 JUMP JUMPDEST POP POP JUMPDEST POP POP POP JUMP JUMPDEST DUP2 MLOAD PUSH1 0x1 PUSH1 0x1 PUSH1 0x40 SHL SUB DUP2 GT ISZERO PUSH2 0x5BC JUMPI PUSH2 0x5BC PUSH2 0x3BE JUMP JUMPDEST PUSH2 0x5D0 DUP2 PUSH2 0x5CA DUP5 SLOAD PUSH2 0x51F JUMP JUMPDEST DUP5 PUSH2 0x557 JUMP JUMPDEST PUSH1 0x20 DUP1 PUSH1 0x1F DUP4 GT PUSH1 0x1 DUP2 EQ PUSH2 0x603 JUMPI PUSH0 DUP5 ISZERO PUSH2 0x5EC JUMPI POP DUP6 DUP4 ADD MLOAD JUMPDEST PUSH0 NOT PUSH1 0x3 DUP7 SWAP1 SHL SHR NOT AND PUSH1 0x1 DUP6 SWAP1 SHL OR DUP6 SSTORE PUSH2 0x65A JUMP JUMPDEST PUSH0 DUP6 DUP2 MSTORE PUSH1 0x20 DUP2 KECCAK256 PUSH1 0x1F NOT DUP7 AND SWAP2 JUMPDEST DUP3 DUP2 LT ISZERO PUSH2 0x631 JUMPI DUP9 DUP7 ADD MLOAD DUP3 SSTORE SWAP5 DUP5 ADD SWAP5 PUSH1 0x1 SWAP1 SWAP2 ADD SWAP1 DUP5 ADD PUSH2 0x612 JUMP JUMPDEST POP DUP6 DUP3 LT ISZERO PUSH2 0x64E JUMPI DUP8 DUP6 ADD MLOAD PUSH0 NOT PUSH1 0x3 DUP9 SWAP1 SHL PUSH1 0xF8 AND SHR NOT AND DUP2 SSTORE JUMPDEST POP POP PUSH1 0x1 DUP5 PUSH1 0x1 SHL ADD DUP6 SSTORE JUMPDEST POP POP POP POP POP POP JUMP JUMPDEST PUSH2 0x2663 DUP1 PUSH2 0x66F PUSH0 CODECOPY PUSH0 RETURN INVALID PUSH1 0x80 PUSH1 0x40 MSTORE PUSH1 0x4 CALLDATASIZE LT PUSH2 0x2F3 JUMPI PUSH0 CALLDATALOAD PUSH1 0xE0 SHR DUP1 PUSH4 0x86FE4302 GT PUSH2 0x189 JUMPI DUP1 PUSH4 0xC7961902 GT PUSH2 0xD8 JUMPI DUP1 PUSH4 0xE1B83E3C GT PUSH2 0x92 JUMPI DUP1 PUSH4 0xEE99205C GT PUSH2 0x6D JUMPI DUP1 PUSH4 0xEE99205C EQ PUSH2 0x7CC JUMPI DUP1 PUSH4 0xF2FDE38B EQ PUSH2 0x7EB JUMPI DUP1 PUSH4 0xF7817DAE EQ PUSH2 0x80A JUMPI DUP1 PUSH4 0xFA095E2E EQ PUSH2 0x81F JUMPI PUSH0 DUP1 REVERT JUMPDEST DUP1 PUSH4 0xE1B83E3C EQ PUSH2 0x783 JUMPI DUP1 PUSH4 0xE6B75B2A EQ PUSH2 0x7A2 JUMPI DUP1 PUSH4 0xEC79FA14 EQ PUSH2 0x7B7 JUMPI PUSH0 DUP1 REVERT JUMPDEST DUP1 PUSH4 0xC7961902 EQ PUSH2 0x6F7 JUMPI DUP1 PUSH4 0xCBA25E79 EQ PUSH2 0x710 JUMPI DUP1 PUSH4 0xCD96F5D1 EQ PUSH2 0x725 JUMPI DUP1 PUSH4 0xD41D71A6 EQ PUSH2 0x73A JUMPI DUP1 PUSH4 0xD7236943 EQ PUSH2 0x74F JUMPI DUP1 PUSH4 0xDBA12EB3 EQ PUSH2 0x76E JUMPI PUSH0 DUP1 REVERT JUMPDEST DUP1 PUSH4 0xA28A4D86 GT PUSH2 0x143 JUMPI DUP1 PUSH4 0xA82524B2 GT PUSH2 0x11E JUMPI DUP1 PUSH4 0xA82524B2 EQ PUSH2 0x699 JUMPI DUP1 PUSH4 0xC45A0155 EQ PUSH2 0x6AE JUMPI DUP1 PUSH4 0xC4FC3A3B EQ PUSH2 0x6CD JUMPI DUP1 PUSH4 0xC5FA27B7 EQ PUSH2 0x6E2 JUMPI PUSH0 DUP1 REVERT JUMPDEST DUP1 PUSH4 0xA28A4D86 EQ PUSH2 0x658 JUMPI DUP1 PUSH4 0xA41518BF EQ PUSH2 0x66C JUMPI DUP1 PUSH4 0xA49102D7 EQ PUSH2 0x685 JUMPI PUSH0 DUP1 REVERT JUMPDEST DUP1 PUSH4 0x86FE4302 EQ PUSH2 0x5BE JUMPI DUP1 PUSH4 0x8BDB2AFA EQ PUSH2 0x5D3 JUMPI DUP1 PUSH4 0x8D3974B2 EQ PUSH2 0x5F2 JUMPI DUP1 PUSH4 0x8DA5CB5B EQ PUSH2 0x607 JUMPI DUP1 PUSH4 0x9D76EA58 EQ PUSH2 0x624 JUMPI DUP1 PUSH4 0x9EC8E0B5 EQ PUSH2 0x643 JUMPI PUSH0 DUP1 REVERT JUMPDEST DUP1 PUSH4 0x4DCE051F GT PUSH2 0x245 JUMPI DUP1 PUSH4 0x715018A6 GT PUSH2 0x1FF JUMPI DUP1 PUSH4 0x77A21790 GT PUSH2 0x1DA JUMPI DUP1 PUSH4 0x77A21790 EQ PUSH2 0x56F JUMPI DUP1 PUSH4 0x7824407F EQ PUSH2 0x577 JUMPI DUP1 PUSH4 0x7B61C320 EQ PUSH2 0x58C JUMPI DUP1 PUSH4 0x83A9E049 EQ PUSH2 0x5A0 JUMPI PUSH0 DUP1 REVERT JUMPDEST DUP1 PUSH4 0x715018A6 EQ PUSH2 0x51C JUMPI DUP1 PUSH4 0x735DE9F7 EQ PUSH2 0x530 JUMPI DUP1 PUSH4 0x7757FC5D EQ PUSH2 0x54F JUMPI PUSH0 DUP1 REVERT JUMPDEST DUP1 PUSH4 0x4DCE051F EQ PUSH2 0x488 JUMPI DUP1 PUSH4 0x4EBD0EE4 EQ PUSH2 0x49D JUMPI DUP1 PUSH4 0x4EDFE325 EQ PUSH2 0x4B2 JUMPI DUP1 PUSH4 0x5B0D8927 EQ PUSH2 0x4C7 JUMPI DUP1 PUSH4 0x61C7AB41 EQ PUSH2 0x4E6 JUMPI DUP1 PUSH4 0x6C02A931 EQ PUSH2 0x4FB JUMPI PUSH0 DUP1 REVERT JUMPDEST DUP1 PUSH4 0x36BC180C GT PUSH2 0x2B0 JUMPI DUP1 PUSH4 0x3FC8CEF3 GT PUSH2 0x28B JUMPI DUP1 PUSH4 0x3FC8CEF3 EQ PUSH2 0x406 JUMPI DUP1 PUSH4 0x4661E71D EQ PUSH2 0x425 JUMPI DUP1 PUSH4 0x46BB2833 EQ PUSH2 0x43A JUMPI DUP1 PUSH4 0x4738A883 EQ PUSH2 0x459 JUMPI PUSH0 DUP1 REVERT JUMPDEST DUP1 PUSH4 0x36BC180C EQ PUSH2 0x3BD JUMPI DUP1 PUSH4 0x3969A9CE EQ PUSH2 0x3D2 JUMPI DUP1 PUSH4 0x3D42E94D EQ PUSH2 0x3F1 JUMPI PUSH0 DUP1 REVERT JUMPDEST DUP1 PUSH4 0x27DF6D2 EQ PUSH2 0x2F7 JUMPI DUP1 PUSH4 0x162FE42B EQ PUSH2 0x31F JUMPI DUP1 PUSH4 0x182CCD6F EQ PUSH2 0x335 JUMPI DUP1 PUSH4 0x20CA3C7F EQ PUSH2 0x348 JUMPI DUP1 PUSH4 0x296CAB55 EQ PUSH2 0x37F JUMPI DUP1 PUSH4 0x3655AC3C EQ PUSH2 0x39E JUMPI JUMPDEST PUSH0 DUP1 REVERT JUMPDEST CALLVALUE DUP1 ISZERO PUSH2 0x302 JUMPI PUSH0 DUP1 REVERT JUMPDEST POP PUSH2 0x30C PUSH1 0x15 SLOAD DUP2 JUMP JUMPDEST PUSH1 0x40 MLOAD SWAP1 DUP2 MSTORE PUSH1 0x20 ADD JUMPDEST PUSH1 0x40 MLOAD DUP1 SWAP2 SUB SWAP1 RETURN JUMPDEST CALLVALUE DUP1 ISZERO PUSH2 0x32A JUMPI PUSH0 DUP1 REVERT JUMPDEST POP PUSH2 0x333 PUSH2 0x834 JUMP JUMPDEST STOP JUMPDEST PUSH2 0x333 PUSH2 0x343 CALLDATASIZE PUSH1 0x4 PUSH2 0x16D0 JUMP JUMPDEST PUSH2 0x952 JUMP JUMPDEST CALLVALUE DUP1 ISZERO PUSH2 0x353 JUMPI PUSH0 DUP1 REVERT JUMPDEST POP PUSH1 0xB SLOAD PUSH2 0x367 SWAP1 PUSH1 0x1 PUSH1 0x1 PUSH1 0xA0 SHL SUB AND DUP2 JUMP JUMPDEST PUSH1 0x40 MLOAD PUSH1 0x1 PUSH1 0x1 PUSH1 0xA0 SHL SUB SWAP1 SWAP2 AND DUP2 MSTORE PUSH1 0x20 ADD PUSH2 0x316 JUMP JUMPDEST CALLVALUE DUP1 ISZERO PUSH2 0x38A JUMPI PUSH0 DUP1 REVERT JUMPDEST POP PUSH2 0x333 PUSH2 0x399 CALLDATASIZE PUSH1 0x4 PUSH2 0x16D0 JUMP JUMPDEST PUSH2 0xA5A JUMP JUMPDEST CALLVALUE DUP1 ISZERO PUSH2 0x3A9 JUMPI PUSH0 DUP1 REVERT JUMPDEST POP PUSH1 0xC SLOAD PUSH2 0x367 SWAP1 PUSH1 0x1 PUSH1 0x1 PUSH1 0xA0 SHL SUB AND DUP2 JUMP JUMPDEST CALLVALUE DUP1 ISZERO PUSH2 0x3C8 JUMPI PUSH0 DUP1 REVERT JUMPDEST POP PUSH2 0x30C PUSH1 0x22 SLOAD DUP2 JUMP JUMPDEST CALLVALUE DUP1 ISZERO PUSH2 0x3DD JUMPI PUSH0 DUP1 REVERT JUMPDEST POP PUSH2 0x333 PUSH2 0x3EC CALLDATASIZE PUSH1 0x4 PUSH2 0x16E7 JUMP JUMPDEST PUSH2 0xA9E JUMP JUMPDEST CALLVALUE DUP1 ISZERO PUSH2 0x3FC JUMPI PUSH0 DUP1 REVERT JUMPDEST POP PUSH2 0x30C PUSH1 0x13 SLOAD DUP2 JUMP JUMPDEST CALLVALUE DUP1 ISZERO PUSH2 0x411 JUMPI PUSH0 DUP1 REVERT JUMPDEST POP PUSH1 0xA SLOAD PUSH2 0x367 SWAP1 PUSH1 0x1 PUSH1 0x1 PUSH1 0xA0 SHL SUB AND DUP2 JUMP JUMPDEST CALLVALUE DUP1 ISZERO PUSH2 0x430 JUMPI PUSH0 DUP1 REVERT JUMPDEST POP PUSH2 0x30C PUSH1 0x20 SLOAD DUP2 JUMP JUMPDEST CALLVALUE DUP1 ISZERO PUSH2 0x445 JUMPI PUSH0 DUP1 REVERT JUMPDEST POP PUSH1 0x6 SLOAD PUSH2 0x367 SWAP1 PUSH1 0x1 PUSH1 0x1 PUSH1 0xA0 SHL SUB AND DUP2 JUMP JUMPDEST CALLVALUE DUP1 ISZERO PUSH2 0x464 JUMPI PUSH0 DUP1 REVERT JUMPDEST POP PUSH1 0x16 SLOAD PUSH2 0x478 SWAP1 PUSH3 0x10000 SWAP1 DIV PUSH1 0xFF AND DUP2 JUMP JUMPDEST PUSH1 0x40 MLOAD SWAP1 ISZERO ISZERO DUP2 MSTORE PUSH1 0x20 ADD PUSH2 0x316 JUMP JUMPDEST CALLVALUE DUP1 ISZERO PUSH2 0x493 JUMPI PUSH0 DUP1 REVERT JUMPDEST POP PUSH2 0x30C PUSH1 0x1F SLOAD DUP2 JUMP JUMPDEST CALLVALUE DUP1 ISZERO PUSH2 0x4A8 JUMPI PUSH0 DUP1 REVERT JUMPDEST POP PUSH2 0x30C PUSH1 0x14 SLOAD DUP2 JUMP JUMPDEST CALLVALUE DUP1 ISZERO PUSH2 0x4BD JUMPI PUSH0 DUP1 REVERT JUMPDEST POP PUSH2 0x30C PUSH1 0x18 SLOAD DUP2 JUMP JUMPDEST CALLVALUE DUP1 ISZERO PUSH2 0x4D2 JUMPI PUSH0 DUP1 REVERT JUMPDEST POP PUSH2 0x333 PUSH2 0x4E1 CALLDATASIZE PUSH1 0x4 PUSH2 0x16D0 JUMP JUMPDEST PUSH2 0xBAE JUMP JUMPDEST CALLVALUE DUP1 ISZERO PUSH2 0x4F1 JUMPI PUSH0 DUP1 REVERT JUMPDEST POP PUSH2 0x30C PUSH1 0x1E SLOAD DUP2 JUMP JUMPDEST CALLVALUE DUP1 ISZERO PUSH2 0x506 JUMPI PUSH0 DUP1 REVERT JUMPDEST POP PUSH2 0x50F PUSH2 0xBE9 JUMP JUMPDEST PUSH1 0x40 MLOAD PUSH2 0x316 SWAP2 SWAP1 PUSH2 0x1716 JUMP JUMPDEST CALLVALUE DUP1 ISZERO PUSH2 0x527 JUMPI PUSH0 DUP1 REVERT JUMPDEST POP PUSH2 0x333 PUSH2 0xC75 JUMP JUMPDEST CALLVALUE DUP1 ISZERO PUSH2 0x53B JUMPI PUSH0 DUP1 REVERT JUMPDEST POP PUSH1 0xD SLOAD PUSH2 0x367 SWAP1 PUSH1 0x1 PUSH1 0x1 PUSH1 0xA0 SHL SUB AND DUP2 JUMP JUMPDEST CALLVALUE DUP1 ISZERO PUSH2 0x55A JUMPI PUSH0 DUP1 REVERT JUMPDEST POP PUSH1 0x16 SLOAD PUSH2 0x478 SWAP1 PUSH4 0x1000000 SWAP1 DIV PUSH1 0xFF AND DUP2 JUMP JUMPDEST PUSH2 0x333 PUSH2 0xC86 JUMP JUMPDEST CALLVALUE DUP1 ISZERO PUSH2 0x582 JUMPI PUSH0 DUP1 REVERT JUMPDEST POP PUSH2 0x30C PUSH1 0x4 SLOAD DUP2 JUMP JUMPDEST CALLVALUE DUP1 ISZERO PUSH2 0x597 JUMPI PUSH0 DUP1 REVERT JUMPDEST POP PUSH2 0x50F PUSH2 0xD68 JUMP JUMPDEST CALLVALUE DUP1 ISZERO PUSH2 0x5AB JUMPI PUSH0 DUP1 REVERT JUMPDEST POP PUSH1 0x16 SLOAD PUSH2 0x478 SWAP1 PUSH2 0x100 SWAP1 DIV PUSH1 0xFF AND DUP2 JUMP JUMPDEST CALLVALUE DUP1 ISZERO PUSH2 0x5C9 JUMPI PUSH0 DUP1 REVERT JUMPDEST POP PUSH2 0x30C PUSH1 0x25 SLOAD DUP2 JUMP JUMPDEST CALLVALUE DUP1 ISZERO PUSH2 0x5DE JUMPI PUSH0 DUP1 REVERT JUMPDEST POP PUSH1 0xE SLOAD PUSH2 0x367 SWAP1 PUSH1 0x1 PUSH1 0x1 PUSH1 0xA0 SHL SUB AND DUP2 JUMP JUMPDEST CALLVALUE DUP1 ISZERO PUSH2 0x5FD JUMPI PUSH0 DUP1 REVERT JUMPDEST POP PUSH2 0x30C PUSH1 0x28 SLOAD DUP2 JUMP JUMPDEST CALLVALUE DUP1 ISZERO PUSH2 0x612 JUMPI PUSH0 DUP1 REVERT JUMPDEST POP PUSH1 0x1 SLOAD PUSH1 0x1 PUSH1 0x1 PUSH1 0xA0 SHL SUB AND PUSH2 0x367 JUMP JUMPDEST CALLVALUE DUP1 ISZERO PUSH2 0x62F JUMPI PUSH0 DUP1 REVERT JUMPDEST POP PUSH1 0x5 SLOAD PUSH2 0x367 SWAP1 PUSH1 0x1 PUSH1 0x1 PUSH1 0xA0 SHL SUB AND DUP2 JUMP JUMPDEST CALLVALUE DUP1 ISZERO PUSH2 0x64E JUMPI PUSH0 DUP1 REVERT JUMPDEST POP PUSH2 0x30C PUSH1 0x1D SLOAD DUP2 JUMP JUMPDEST CALLVALUE DUP1 ISZERO PUSH2 0x663 JUMPI PUSH0 DUP1 REVERT JUMPDEST POP PUSH2 0x333 PUSH2 0xD75 JUMP JUMPDEST CALLVALUE DUP1 ISZERO PUSH2 0x677 JUMPI PUSH0 DUP1 REVERT JUMPDEST POP PUSH1 0x23 SLOAD PUSH2 0x478 SWAP1 PUSH1 0xFF AND DUP2 JUMP JUMPDEST CALLVALUE DUP1 ISZERO PUSH2 0x690 JUMPI PUSH0 DUP1 REVERT JUMPDEST POP PUSH2 0x333 PUSH2 0x14F7 JUMP JUMPDEST CALLVALUE DUP1 ISZERO PUSH2 0x6A4 JUMPI PUSH0 DUP1 REVERT JUMPDEST POP PUSH2 0x30C PUSH1 0x21 SLOAD DUP2 JUMP JUMPDEST CALLVALUE DUP1 ISZERO PUSH2 0x6B9 JUMPI PUSH0 DUP1 REVERT JUMPDEST POP PUSH1 0x7 SLOAD PUSH2 0x367 SWAP1 PUSH1 0x1 PUSH1 0x1 PUSH1 0xA0 SHL SUB AND DUP2 JUMP JUMPDEST CALLVALUE DUP1 ISZERO PUSH2 0x6D8 JUMPI PUSH0 DUP1 REVERT JUMPDEST POP PUSH2 0x30C PUSH1 0xF SLOAD DUP2 JUMP JUMPDEST CALLVALUE DUP1 ISZERO PUSH2 0x6ED JUMPI PUSH0 DUP1 REVERT JUMPDEST POP PUSH2 0x30C PUSH1 0x24 SLOAD DUP2 JUMP JUMPDEST CALLVALUE DUP1 ISZERO PUSH2 0x702 JUMPI PUSH0 DUP1 REVERT JUMPDEST POP PUSH1 0x16 SLOAD PUSH2 0x478 SWAP1 PUSH1 0xFF AND DUP2 JUMP JUMPDEST CALLVALUE DUP1 ISZERO PUSH2 0x71B JUMPI PUSH0 DUP1 REVERT JUMPDEST POP PUSH2 0x30C PUSH1 0x17 SLOAD DUP2 JUMP JUMPDEST CALLVALUE DUP1 ISZERO PUSH2 0x730 JUMPI PUSH0 DUP1 REVERT JUMPDEST POP PUSH2 0x30C PUSH1 0x10 SLOAD DUP2 JUMP JUMPDEST CALLVALUE DUP1 ISZERO PUSH2 0x745 JUMPI PUSH0 DUP1 REVERT JUMPDEST POP PUSH2 0x30C PUSH1 0x1A SLOAD DUP2 JUMP JUMPDEST CALLVALUE DUP1 ISZERO PUSH2 0x75A JUMPI PUSH0 DUP1 REVERT JUMPDEST POP PUSH1 0x9 SLOAD PUSH2 0x367 SWAP1 PUSH1 0x1 PUSH1 0x1 PUSH1 0xA0 SHL SUB AND DUP2 JUMP JUMPDEST CALLVALUE DUP1 ISZERO PUSH2 0x779 JUMPI PUSH0 DUP1 REVERT JUMPDEST POP PUSH2 0x30C PUSH1 0x1B SLOAD DUP2 JUMP JUMPDEST CALLVALUE DUP1 ISZERO PUSH2 0x78E JUMPI PUSH0 DUP1 REVERT JUMPDEST POP PUSH2 0x333 PUSH2 0x79D CALLDATASIZE PUSH1 0x4 PUSH2 0x16D0 JUMP JUMPDEST PUSH2 0x1572 JUMP JUMPDEST CALLVALUE DUP1 ISZERO PUSH2 0x7AD JUMPI PUSH0 DUP1 REVERT JUMPDEST POP PUSH2 0x30C PUSH1 0x12 SLOAD DUP2 JUMP JUMPDEST CALLVALUE DUP1 ISZERO PUSH2 0x7C2 JUMPI PUSH0 DUP1 REVERT JUMPDEST POP PUSH2 0x30C PUSH1 0x1C SLOAD DUP2 JUMP JUMPDEST CALLVALUE DUP1 ISZERO PUSH2 0x7D7 JUMPI PUSH0 DUP1 REVERT JUMPDEST POP PUSH1 0x8 SLOAD PUSH2 0x367 SWAP1 PUSH1 0x1 PUSH1 0x1 PUSH1 0xA0 SHL SUB AND DUP2 JUMP JUMPDEST CALLVALUE DUP1 ISZERO PUSH2 0x7F6 JUMPI PUSH0 DUP1 REVERT JUMPDEST POP PUSH2 0x333 PUSH2 0x805 CALLDATASIZE PUSH1 0x4 PUSH2 0x175F JUMP JUMPDEST PUSH2 0x15AF JUMP JUMPDEST CALLVALUE DUP1 ISZERO PUSH2 0x815 JUMPI PUSH0 DUP1 REVERT JUMPDEST POP PUSH2 0x30C PUSH1 0x11 SLOAD DUP2 JUMP JUMPDEST CALLVALUE DUP1 ISZERO PUSH2 0x82A JUMPI PUSH0 DUP1 REVERT JUMPDEST POP PUSH2 0x30C PUSH1 0x19 SLOAD DUP2 JUMP JUMPDEST PUSH2 0x83C PUSH2 0x15EE JUMP JUMPDEST PUSH1 0x5 SLOAD PUSH1 0x1 PUSH1 0x1 PUSH1 0xA0 SHL SUB AND PUSH2 0x850 JUMPI PUSH0 DUP1 REVERT JUMPDEST CALLER PUSH0 SWAP1 DUP2 MSTORE PUSH1 0x26 PUSH1 0x20 MSTORE PUSH1 0x40 DUP2 KECCAK256 SLOAD SWAP1 SUB PUSH2 0x869 JUMPI PUSH0 DUP1 REVERT JUMPDEST PUSH1 0x18 SLOAD PUSH1 0x28 SLOAD LT ISZERO PUSH2 0x879 JUMPI PUSH0 DUP1 REVERT JUMPDEST CALLER PUSH0 SWAP1 DUP2 MSTORE PUSH1 0x26 PUSH1 0x20 MSTORE PUSH1 0x40 DUP2 KECCAK256 SLOAD PUSH1 0x28 SLOAD SWAP1 SWAP2 SWAP1 PUSH2 0x898 SWAP1 DUP4 PUSH2 0x1795 JUMP JUMPDEST PUSH1 0xF SLOAD PUSH2 0x8A5 SWAP2 SWAP1 PUSH2 0x17B4 JUMP JUMPDEST CALLER PUSH0 DUP2 DUP2 MSTORE PUSH1 0x27 PUSH1 0x20 MSTORE PUSH1 0x40 SWAP1 DUP2 SWAP1 KECCAK256 DUP1 SLOAD PUSH1 0xFF NOT AND PUSH1 0x1 OR SWAP1 SSTORE PUSH1 0x5 SLOAD SWAP1 MLOAD PUSH4 0xA9059CBB PUSH1 0xE0 SHL DUP2 MSTORE SWAP3 SWAP4 POP PUSH1 0x1 PUSH1 0x1 PUSH1 0xA0 SHL SUB AND SWAP2 PUSH4 0xA9059CBB SWAP2 PUSH2 0x904 SWAP2 DUP6 SWAP1 PUSH1 0x4 ADD PUSH1 0x1 PUSH1 0x1 PUSH1 0xA0 SHL SUB SWAP3 SWAP1 SWAP3 AND DUP3 MSTORE PUSH1 0x20 DUP3 ADD MSTORE PUSH1 0x40 ADD SWAP1 JUMP JUMPDEST PUSH1 0x20 PUSH1 0x40 MLOAD DUP1 DUP4 SUB DUP2 PUSH0 DUP8 GAS CALL ISZERO DUP1 ISZERO PUSH2 0x920 JUMPI RETURNDATASIZE PUSH0 DUP1 RETURNDATACOPY RETURNDATASIZE PUSH0 REVERT JUMPDEST POP POP POP POP PUSH1 0x40 MLOAD RETURNDATASIZE PUSH1 0x1F NOT PUSH1 0x1F DUP3 ADD AND DUP3 ADD DUP1 PUSH1 0x40 MSTORE POP DUP2 ADD SWAP1 PUSH2 0x944 SWAP2 SWAP1 PUSH2 0x17D1 JUMP JUMPDEST POP POP POP PUSH2 0x950 PUSH1 0x1 PUSH0 SSTORE JUMP JUMPDEST JUMP JUMPDEST PUSH2 0x95A PUSH2 0x15EE JUMP JUMPDEST DUP1 CALLVALUE EQ PUSH2 0x965 JUMPI PUSH0 DUP1 REVERT JUMPDEST PUSH1 0x19 SLOAD CALLER PUSH0 SWAP1 DUP2 MSTORE PUSH1 0x26 PUSH1 0x20 MSTORE PUSH1 0x40 SWAP1 KECCAK256 SLOAD PUSH2 0x981 SWAP1 CALLVALUE PUSH2 0x17F0 JUMP JUMPDEST GT ISZERO PUSH2 0x98B JUMPI PUSH0 DUP1 REVERT JUMPDEST PUSH1 0x1A SLOAD DUP2 GT PUSH2 0x998 JUMPI PUSH0 DUP1 REVERT JUMPDEST PUSH1 0x17 SLOAD PUSH1 0x28 SLOAD PUSH2 0x9A8 SWAP1 DUP4 PUSH2 0x17F0 JUMP JUMPDEST GT ISZERO PUSH2 0x9B2 JUMPI PUSH0 DUP1 REVERT JUMPDEST PUSH1 0x16 SLOAD PUSH2 0x100 SWAP1 DIV PUSH1 0xFF AND PUSH2 0x9C5 JUMPI PUSH0 DUP1 REVERT JUMPDEST PUSH1 0x18 SLOAD PUSH1 0x28 SLOAD PUSH2 0x9D5 SWAP1 DUP4 PUSH2 0x17F0 JUMP JUMPDEST LT ISZERO DUP1 ISZERO PUSH2 0x9E6 JUMPI POP PUSH1 0x23 SLOAD PUSH1 0xFF AND ISZERO JUMPDEST ISZERO PUSH2 0x9FD JUMPI NUMBER PUSH1 0x22 SSTORE PUSH1 0x23 DUP1 SLOAD PUSH1 0xFF NOT AND PUSH1 0x1 OR SWAP1 SSTORE JUMPDEST PUSH1 0x17 SLOAD PUSH1 0x28 SLOAD PUSH2 0xA0D SWAP1 DUP4 PUSH2 0x17F0 JUMP JUMPDEST SUB PUSH2 0xA17 JUMPI NUMBER PUSH1 0x24 SSTORE JUMPDEST DUP1 PUSH1 0x28 PUSH0 DUP3 DUP3 SLOAD PUSH2 0xA28 SWAP2 SWAP1 PUSH2 0x17F0 JUMP JUMPDEST SWAP1 SWAP2 SSTORE POP POP CALLER PUSH0 SWAP1 DUP2 MSTORE PUSH1 0x26 PUSH1 0x20 MSTORE PUSH1 0x40 DUP2 KECCAK256 DUP1 SLOAD DUP4 SWAP3 SWAP1 PUSH2 0xA4B SWAP1 DUP5 SWAP1 PUSH2 0x17F0 JUMP JUMPDEST SWAP1 SWAP2 SSTORE POP POP PUSH1 0x1 PUSH0 SSTORE POP JUMP JUMPDEST POP JUMP JUMPDEST PUSH2 0xA62 PUSH2 0x1645 JUMP JUMPDEST PUSH1 0x21 DUP2 SWAP1 SSTORE PUSH1 0x40 MLOAD DUP2 DUP2 MSTORE PUSH32 0xC2BDF2B17735DDEDBE2FFC657FE8487F25F54889057AE72B1D5AC6FF1634EEBB SWAP1 PUSH1 0x20 ADD JUMPDEST PUSH1 0x40 MLOAD DUP1 SWAP2 SUB SWAP1 LOG1 POP JUMP JUMPDEST PUSH2 0xAA6 PUSH2 0x1645 JUMP JUMPDEST PUSH1 0x16 SLOAD PUSH1 0xFF AND PUSH2 0xAB4 JUMPI PUSH0 DUP1 REVERT JUMPDEST PUSH1 0x16 SLOAD PUSH2 0x100 SWAP1 DIV PUSH1 0xFF AND ISZERO DUP1 ISZERO PUSH2 0xAD4 JUMPI POP PUSH1 0x16 SLOAD PUSH3 0x10000 SWAP1 DIV PUSH1 0xFF AND JUMPDEST PUSH2 0xADC JUMPI PUSH0 DUP1 REVERT JUMPDEST PUSH1 0x1D SLOAD DUP5 GT ISZERO PUSH2 0xAEA JUMPI PUSH0 DUP1 REVERT JUMPDEST PUSH1 0x1D SLOAD DUP4 GT ISZERO PUSH2 0xAF8 JUMPI PUSH0 DUP1 REVERT JUMPDEST PUSH1 0x1D SLOAD DUP3 GT ISZERO PUSH2 0xB06 JUMPI PUSH0 DUP1 REVERT JUMPDEST PUSH1 0x1D SLOAD DUP2 GT ISZERO PUSH2 0xB14 JUMPI PUSH0 DUP1 REVERT JUMPDEST PUSH1 0x1D SLOAD PUSH2 0xB22 SWAP1 PUSH1 0x2 PUSH2 0x17B4 JUMP JUMPDEST DUP2 DUP4 PUSH2 0xB2E DUP7 DUP9 PUSH2 0x17F0 JUMP JUMPDEST PUSH2 0xB38 SWAP2 SWAP1 PUSH2 0x17F0 JUMP JUMPDEST PUSH2 0xB42 SWAP2 SWAP1 PUSH2 0x17F0 JUMP JUMPDEST GT ISZERO PUSH2 0xB4C JUMPI PUSH0 DUP1 REVERT JUMPDEST PUSH1 0x12 DUP5 SWAP1 SSTORE PUSH1 0x13 DUP4 SWAP1 SSTORE PUSH1 0x14 DUP3 SWAP1 SSTORE PUSH1 0x15 DUP2 SWAP1 SSTORE PUSH1 0x40 DUP1 MLOAD DUP6 DUP2 MSTORE PUSH1 0x20 DUP2 ADD DUP6 SWAP1 MSTORE SWAP1 DUP2 ADD DUP4 SWAP1 MSTORE PUSH1 0x60 DUP2 ADD DUP3 SWAP1 MSTORE PUSH32 0x1307657C8E5AC9A807597AC0994B06AADC09DD69EC21B32CABF8D6FB26E4D745 SWAP1 PUSH1 0x80 ADD PUSH1 0x40 MLOAD DUP1 SWAP2 SUB SWAP1 LOG1 POP POP POP POP JUMP JUMPDEST PUSH2 0xBB6 PUSH2 0x1645 JUMP JUMPDEST PUSH1 0x20 DUP2 DUP2 SSTORE PUSH1 0x40 MLOAD DUP3 DUP2 MSTORE PUSH32 0xB2CE785ED4AC87AD9611F20CF068CD12359BDC59A42173A02A65911EC3CF4912 SWAP2 ADD PUSH2 0xA93 JUMP JUMPDEST PUSH1 0x2 DUP1 SLOAD PUSH2 0xBF6 SWAP1 PUSH2 0x1803 JUMP JUMPDEST DUP1 PUSH1 0x1F ADD PUSH1 0x20 DUP1 SWAP2 DIV MUL PUSH1 0x20 ADD PUSH1 0x40 MLOAD SWAP1 DUP2 ADD PUSH1 0x40 MSTORE DUP1 SWAP3 SWAP2 SWAP1 DUP2 DUP2 MSTORE PUSH1 0x20 ADD DUP3 DUP1 SLOAD PUSH2 0xC22 SWAP1 PUSH2 0x1803 JUMP JUMPDEST DUP1 ISZERO PUSH2 0xC6D JUMPI DUP1 PUSH1 0x1F LT PUSH2 0xC44 JUMPI PUSH2 0x100 DUP1 DUP4 SLOAD DIV MUL DUP4 MSTORE SWAP2 PUSH1 0x20 ADD SWAP2 PUSH2 0xC6D JUMP JUMPDEST DUP3 ADD SWAP2 SWAP1 PUSH0 MSTORE PUSH1 0x20 PUSH0 KECCAK256 SWAP1 JUMPDEST DUP2 SLOAD DUP2 MSTORE SWAP1 PUSH1 0x1 ADD SWAP1 PUSH1 0x20 ADD DUP1 DUP4 GT PUSH2 0xC50 JUMPI DUP3 SWAP1 SUB PUSH1 0x1F AND DUP3 ADD SWAP2 JUMPDEST POP POP POP POP POP DUP2 JUMP JUMPDEST PUSH2 0xC7D PUSH2 0x1645 JUMP JUMPDEST PUSH2 0x950 PUSH0 PUSH2 0x1672 JUMP JUMPDEST PUSH2 0xC8E PUSH2 0x15EE JUMP JUMPDEST PUSH1 0x5 SLOAD PUSH1 0x1 PUSH1 0x1 PUSH1 0xA0 SHL SUB AND ISZERO PUSH2 0xCA3 JUMPI PUSH0 DUP1 REVERT JUMPDEST CALLER PUSH0 SWAP1 DUP2 MSTORE PUSH1 0x26 PUSH1 0x20 MSTORE PUSH1 0x40 DUP2 KECCAK256 SLOAD SWAP1 SUB PUSH2 0xCBC JUMPI PUSH0 DUP1 REVERT JUMPDEST PUSH1 0x16 SLOAD PUSH2 0x100 SWAP1 DIV PUSH1 0xFF AND ISZERO DUP1 ISZERO PUSH2 0xCD7 JUMPI POP PUSH1 0x28 SLOAD PUSH1 0x18 SLOAD LT JUMPDEST PUSH2 0xCDF JUMPI PUSH0 DUP1 REVERT JUMPDEST PUSH1 0x1E SLOAD PUSH2 0xCEC DUP2 NUMBER PUSH2 0x183B JUMP JUMPDEST LT PUSH2 0xCF5 JUMPI PUSH0 DUP1 REVERT JUMPDEST CALLER PUSH0 SWAP1 DUP2 MSTORE PUSH1 0x27 PUSH1 0x20 MSTORE PUSH1 0x40 SWAP1 KECCAK256 SLOAD PUSH1 0xFF AND ISZERO PUSH2 0xD10 JUMPI PUSH0 DUP1 REVERT JUMPDEST CALLER PUSH0 DUP2 DUP2 MSTORE PUSH1 0x26 PUSH1 0x20 SWAP1 DUP2 MSTORE PUSH1 0x40 DUP1 DUP4 KECCAK256 SLOAD PUSH1 0x27 SWAP1 SWAP3 MSTORE DUP1 DUP4 KECCAK256 DUP1 SLOAD PUSH1 0xFF NOT AND PUSH1 0x1 OR SWAP1 SSTORE MLOAD SWAP1 SWAP3 SWAP2 DUP4 ISZERO PUSH2 0x8FC MUL SWAP2 DUP5 SWAP2 DUP2 DUP2 DUP2 DUP6 DUP9 DUP9 CALL SWAP4 POP POP POP POP ISZERO DUP1 ISZERO PUSH2 0xD5D JUMPI RETURNDATASIZE PUSH0 DUP1 RETURNDATACOPY RETURNDATASIZE PUSH0 REVERT JUMPDEST POP POP PUSH2 0x950 PUSH1 0x1 PUSH0 SSTORE JUMP JUMPDEST PUSH1 0x3 DUP1 SLOAD PUSH2 0xBF6 SWAP1 PUSH2 0x1803 JUMP JUMPDEST PUSH2 0xD7D PUSH2 0x15EE JUMP JUMPDEST PUSH1 0x1 SLOAD PUSH1 0x1 PUSH1 0x1 PUSH1 0xA0 SHL SUB AND CALLER EQ DUP1 PUSH2 0xD98 JUMPI POP PUSH1 0x16 SLOAD PUSH1 0xFF AND JUMPDEST PUSH2 0xDA0 JUMPI PUSH0 DUP1 REVERT JUMPDEST PUSH1 0x18 SLOAD PUSH1 0x28 SLOAD LT ISZERO DUP1 PUSH2 0xDB6 JUMPI POP PUSH1 0x16 SLOAD PUSH1 0xFF AND ISZERO JUMPDEST PUSH2 0xDBE JUMPI PUSH0 DUP1 REVERT JUMPDEST PUSH3 0x6AC3E9 PUSH1 0x22 SLOAD NUMBER PUSH2 0xDD0 SWAP2 SWAP1 PUSH2 0x183B JUMP JUMPDEST LT PUSH2 0xDD9 JUMPI PUSH0 DUP1 REVERT JUMPDEST PUSH0 PUSH1 0x4 SLOAD PUSH1 0x2 PUSH1 0x3 PUSH1 0x40 MLOAD PUSH2 0xDED SWAP1 PUSH2 0x16C3 JUMP JUMPDEST PUSH2 0xDF9 SWAP4 SWAP3 SWAP2 SWAP1 PUSH2 0x18ED JUMP JUMPDEST PUSH1 0x40 MLOAD DUP1 SWAP2 SUB SWAP1 PUSH0 CREATE DUP1 ISZERO DUP1 ISZERO PUSH2 0xE12 JUMPI RETURNDATASIZE PUSH0 DUP1 RETURNDATACOPY RETURNDATASIZE PUSH0 REVERT JUMPDEST POP PUSH1 0x5 DUP1 SLOAD PUSH1 0x1 PUSH1 0x1 PUSH1 0xA0 SHL SUB NOT AND PUSH1 0x1 PUSH1 0x1 PUSH1 0xA0 SHL SUB DUP4 AND SWAP1 DUP2 OR SWAP1 SWAP2 SSTORE PUSH1 0x4 SLOAD PUSH1 0x40 MLOAD SWAP3 SWAP4 POP SWAP1 SWAP2 PUSH32 0x2834C1F24C5BB06FF7E8E4E35C9D7ED57E05E6E1BD415EFB78DB926D58F25A21 SWAP2 PUSH2 0xE6D SWAP2 PUSH1 0x2 SWAP2 PUSH1 0x3 SWAP2 PUSH2 0x1921 JUMP JUMPDEST PUSH1 0x40 MLOAD DUP1 SWAP2 SUB SWAP1 LOG2 PUSH0 PUSH2 0x3E8 PUSH1 0x4 SLOAD PUSH1 0x5 PUSH2 0xE88 SWAP2 SWAP1 PUSH2 0x17B4 JUMP JUMPDEST PUSH2 0xE92 SWAP2 SWAP1 PUSH2 0x1795 JUMP JUMPDEST SWAP1 POP PUSH0 PUSH1 0x15 SLOAD PUSH2 0x3E8 PUSH1 0x4 SLOAD PUSH1 0x5 PUSH2 0xEAA SWAP2 SWAP1 PUSH2 0x17B4 JUMP JUMPDEST PUSH2 0xEB4 SWAP2 SWAP1 PUSH2 0x1795 JUMP JUMPDEST PUSH2 0xEBE SWAP2 SWAP1 PUSH2 0x17F0 JUMP JUMPDEST PUSH1 0x7 SLOAD PUSH1 0x5 SLOAD PUSH1 0x40 MLOAD PUSH4 0x96B37277 PUSH1 0xE0 SHL DUP2 MSTORE PUSH1 0x1 PUSH1 0x1 PUSH1 0xA0 SHL SUB SWAP2 DUP3 AND PUSH1 0x4 DUP3 ADD MSTORE PUSH1 0x24 DUP2 ADD DUP5 SWAP1 MSTORE SWAP3 SWAP4 POP AND SWAP1 PUSH4 0x96B37277 SWAP1 PUSH1 0x44 ADD PUSH0 PUSH1 0x40 MLOAD DUP1 DUP4 SUB DUP2 PUSH0 DUP8 DUP1 EXTCODESIZE ISZERO DUP1 ISZERO PUSH2 0xF0D JUMPI PUSH0 DUP1 REVERT JUMPDEST POP GAS CALL ISZERO DUP1 ISZERO PUSH2 0xF1F JUMPI RETURNDATASIZE PUSH0 DUP1 RETURNDATACOPY RETURNDATASIZE PUSH0 REVERT JUMPDEST POP POP PUSH1 0x6 SLOAD PUSH1 0x12 SLOAD PUSH1 0x40 MLOAD PUSH4 0xA9059CBB PUSH1 0xE0 SHL DUP2 MSTORE PUSH1 0x1 PUSH1 0x1 PUSH1 0xA0 SHL SUB SWAP3 DUP4 AND PUSH1 0x4 DUP3 ADD MSTORE PUSH1 0x24 DUP2 ADD SWAP2 SWAP1 SWAP2 MSTORE SWAP1 DUP7 AND SWAP3 POP PUSH4 0xA9059CBB SWAP2 POP PUSH1 0x44 ADD PUSH1 0x20 PUSH1 0x40 MLOAD DUP1 DUP4 SUB DUP2 PUSH0 DUP8 GAS CALL ISZERO DUP1 ISZERO PUSH2 0xF77 JUMPI RETURNDATASIZE PUSH0 DUP1 RETURNDATACOPY RETURNDATASIZE PUSH0 REVERT JUMPDEST POP POP POP POP PUSH1 0x40 MLOAD RETURNDATASIZE PUSH1 0x1F NOT PUSH1 0x1F DUP3 ADD AND DUP3 ADD DUP1 PUSH1 0x40 MSTORE POP DUP2 ADD SWAP1 PUSH2 0xF9B SWAP2 SWAP1 PUSH2 0x17D1 JUMP JUMPDEST POP PUSH1 0x8 SLOAD PUSH1 0x40 MLOAD PUSH4 0xA9059CBB PUSH1 0xE0 SHL DUP2 MSTORE PUSH1 0x1 PUSH1 0x1 PUSH1 0xA0 SHL SUB SWAP2 DUP3 AND PUSH1 0x4 DUP3 ADD MSTORE PUSH1 0x24 DUP2 ADD DUP4 SWAP1 MSTORE SWAP1 DUP5 AND SWAP1 PUSH4 0xA9059CBB SWAP1 PUSH1 0x44 ADD PUSH1 0x20 PUSH1 0x40 MLOAD DUP1 DUP4 SUB DUP2 PUSH0 DUP8 GAS CALL ISZERO DUP1 ISZERO PUSH2 0xFEC JUMPI RETURNDATASIZE PUSH0 DUP1 RETURNDATACOPY RETURNDATASIZE PUSH0 REVERT JUMPDEST POP POP POP POP PUSH1 0x40 MLOAD RETURNDATASIZE PUSH1 0x1F NOT PUSH1 0x1F DUP3 ADD AND DUP3 ADD DUP1 PUSH1 0x40 MSTORE POP DUP2 ADD SWAP1 PUSH2 0x1010 SWAP2 SWAP1 PUSH2 0x17D1 JUMP JUMPDEST POP PUSH1 0x7 SLOAD PUSH1 0x40 MLOAD PUSH4 0xA9059CBB PUSH1 0xE0 SHL DUP2 MSTORE PUSH1 0x1 PUSH1 0x1 PUSH1 0xA0 SHL SUB SWAP2 DUP3 AND PUSH1 0x4 DUP3 ADD MSTORE PUSH1 0x24 DUP2 ADD DUP5 SWAP1 MSTORE SWAP1 DUP5 AND SWAP1 PUSH4 0xA9059CBB SWAP1 PUSH1 0x44 ADD PUSH1 0x20 PUSH1 0x40 MLOAD DUP1 DUP4 SUB DUP2 PUSH0 DUP8 GAS CALL ISZERO DUP1 ISZERO PUSH2 0x1061 JUMPI RETURNDATASIZE PUSH0 DUP1 RETURNDATACOPY RETURNDATASIZE PUSH0 REVERT JUMPDEST POP POP POP POP PUSH1 0x40 MLOAD RETURNDATASIZE PUSH1 0x1F NOT PUSH1 0x1F DUP3 ADD AND DUP3 ADD DUP1 PUSH1 0x40 MSTORE POP DUP2 ADD SWAP1 PUSH2 0x1085 SWAP2 SWAP1 PUSH2 0x17D1 JUMP JUMPDEST POP PUSH1 0x16 DUP1 SLOAD PUSH4 0xFF000000 NOT AND PUSH4 0x1000000 OR SWAP1 SSTORE ADDRESS BALANCE PUSH0 PUSH2 0x3E8 PUSH2 0x10AA DUP4 PUSH1 0x5 PUSH2 0x17B4 JUMP JUMPDEST PUSH2 0x10B4 SWAP2 SWAP1 PUSH2 0x1795 JUMP JUMPDEST PUSH1 0x7 SLOAD PUSH1 0x40 MLOAD SWAP2 SWAP3 POP PUSH1 0x1 PUSH1 0x1 PUSH1 0xA0 SHL SUB AND SWAP1 DUP3 ISZERO PUSH2 0x8FC MUL SWAP1 DUP4 SWAP1 PUSH0 DUP2 DUP2 DUP2 DUP6 DUP9 DUP9 CALL SWAP4 POP POP POP POP ISZERO DUP1 ISZERO PUSH2 0x10EC JUMPI RETURNDATASIZE PUSH0 DUP1 RETURNDATACOPY RETURNDATASIZE PUSH0 REVERT JUMPDEST POP PUSH1 0xA SLOAD PUSH1 0x40 DUP1 MLOAD PUSH4 0xD0E30DB PUSH1 0xE4 SHL DUP2 MSTORE SWAP1 MLOAD ADDRESS BALANCE SWAP5 POP PUSH1 0x1 PUSH1 0x1 PUSH1 0xA0 SHL SUB SWAP1 SWAP3 AND SWAP2 PUSH4 0xD0E30DB0 SWAP2 SELFBALANCE SWAP2 PUSH1 0x4 DUP1 DUP4 ADD SWAP3 PUSH0 SWAP3 SWAP2 SWAP1 DUP3 SWAP1 SUB ADD DUP2 DUP6 DUP9 DUP1 EXTCODESIZE ISZERO DUP1 ISZERO PUSH2 0x1136 JUMPI PUSH0 DUP1 REVERT JUMPDEST POP GAS CALL ISZERO DUP1 ISZERO PUSH2 0x1148 JUMPI RETURNDATASIZE PUSH0 DUP1 RETURNDATACOPY RETURNDATASIZE PUSH0 REVERT JUMPDEST POP POP PUSH1 0xD SLOAD PUSH1 0x40 MLOAD PUSH4 0x95EA7B3 PUSH1 0xE0 SHL DUP2 MSTORE PUSH1 0x1 PUSH1 0x1 PUSH1 0xA0 SHL SUB SWAP2 DUP3 AND PUSH1 0x4 DUP3 ADD MSTORE PUSH0 NOT PUSH1 0x24 DUP3 ADD MSTORE SWAP1 DUP10 AND SWAP4 POP PUSH4 0x95EA7B3 SWAP3 POP PUSH1 0x44 ADD SWAP1 POP PUSH1 0x20 PUSH1 0x40 MLOAD DUP1 DUP4 SUB DUP2 PUSH0 DUP8 GAS CALL ISZERO DUP1 ISZERO PUSH2 0x119E JUMPI RETURNDATASIZE PUSH0 DUP1 RETURNDATACOPY RETURNDATASIZE PUSH0 REVERT JUMPDEST POP POP POP POP PUSH1 0x40 MLOAD RETURNDATASIZE PUSH1 0x1F NOT PUSH1 0x1F DUP3 ADD AND DUP3 ADD DUP1 PUSH1 0x40 MSTORE POP DUP2 ADD SWAP1 PUSH2 0x11C2 SWAP2 SWAP1 PUSH2 0x17D1 JUMP JUMPDEST POP PUSH1 0xA SLOAD PUSH1 0xD SLOAD PUSH1 0x40 MLOAD PUSH4 0x95EA7B3 PUSH1 0xE0 SHL DUP2 MSTORE PUSH1 0x1 PUSH1 0x1 PUSH1 0xA0 SHL SUB SWAP2 DUP3 AND PUSH1 0x4 DUP3 ADD MSTORE PUSH0 NOT PUSH1 0x24 DUP3 ADD MSTORE SWAP2 AND SWAP1 PUSH4 0x95EA7B3 SWAP1 PUSH1 0x44 ADD PUSH1 0x20 PUSH1 0x40 MLOAD DUP1 DUP4 SUB DUP2 PUSH0 DUP8 GAS CALL ISZERO DUP1 ISZERO PUSH2 0x1215 JUMPI RETURNDATASIZE PUSH0 DUP1 RETURNDATACOPY RETURNDATASIZE PUSH0 REVERT JUMPDEST POP POP POP POP PUSH1 0x40 MLOAD RETURNDATASIZE PUSH1 0x1F NOT PUSH1 0x1F DUP3 ADD AND DUP3 ADD DUP1 PUSH1 0x40 MSTORE POP DUP2 ADD SWAP1 PUSH2 0x1239 SWAP2 SWAP1 PUSH2 0x17D1 JUMP JUMPDEST POP PUSH1 0xE SLOAD PUSH1 0x5 SLOAD PUSH1 0xA SLOAD PUSH1 0x40 MLOAD PUSH4 0xE6A43905 PUSH1 0xE0 SHL DUP2 MSTORE PUSH1 0x1 PUSH1 0x1 PUSH1 0xA0 SHL SUB SWAP3 DUP4 AND PUSH1 0x4 DUP3 ADD MSTORE SWAP1 DUP3 AND PUSH1 0x24 DUP3 ADD MSTORE PUSH0 SWAP3 SWAP2 SWAP1 SWAP2 AND SWAP1 PUSH4 0xE6A43905 SWAP1 PUSH1 0x44 ADD PUSH1 0x20 PUSH1 0x40 MLOAD DUP1 DUP4 SUB DUP2 DUP7 GAS STATICCALL ISZERO DUP1 ISZERO PUSH2 0x1293 JUMPI RETURNDATASIZE PUSH0 DUP1 RETURNDATACOPY RETURNDATASIZE PUSH0 REVERT JUMPDEST POP POP POP POP PUSH1 0x40 MLOAD RETURNDATASIZE PUSH1 0x1F NOT PUSH1 0x1F DUP3 ADD AND DUP3 ADD DUP1 PUSH1 0x40 MSTORE POP DUP2 ADD SWAP1 PUSH2 0x12B7 SWAP2 SWAP1 PUSH2 0x1956 JUMP JUMPDEST SWAP1 POP PUSH1 0x1 PUSH1 0x1 PUSH1 0xA0 SHL SUB DUP2 AND PUSH2 0x1366 JUMPI PUSH1 0xE SLOAD PUSH1 0xA SLOAD PUSH1 0x5 SLOAD PUSH1 0x40 MLOAD PUSH4 0x64E329CB PUSH1 0xE1 SHL DUP2 MSTORE PUSH1 0x1 PUSH1 0x1 PUSH1 0xA0 SHL SUB SWAP3 DUP4 AND PUSH1 0x4 DUP3 ADD MSTORE SWAP1 DUP3 AND PUSH1 0x24 DUP3 ADD MSTORE SWAP2 AND SWAP1 PUSH4 0xC9C65396 SWAP1 PUSH1 0x44 ADD PUSH1 0x20 PUSH1 0x40 MLOAD DUP1 DUP4 SUB DUP2 PUSH0 DUP8 GAS CALL ISZERO DUP1 ISZERO PUSH2 0x131D JUMPI RETURNDATASIZE PUSH0 DUP1 RETURNDATACOPY RETURNDATASIZE PUSH0 REVERT JUMPDEST POP POP POP POP PUSH1 0x40 MLOAD RETURNDATASIZE PUSH1 0x1F NOT PUSH1 0x1F DUP3 ADD AND DUP3 ADD DUP1 PUSH1 0x40 MSTORE POP DUP2 ADD SWAP1 PUSH2 0x1341 SWAP2 SWAP1 PUSH2 0x1956 JUMP JUMPDEST PUSH1 0x9 DUP1 SLOAD PUSH1 0x1 PUSH1 0x1 PUSH1 0xA0 SHL SUB NOT AND PUSH1 0x1 PUSH1 0x1 PUSH1 0xA0 SHL SUB SWAP3 SWAP1 SWAP3 AND SWAP2 SWAP1 SWAP2 OR SWAP1 SSTORE PUSH2 0x1382 JUMP JUMPDEST PUSH1 0x9 DUP1 SLOAD PUSH1 0x1 PUSH1 0x1 PUSH1 0xA0 SHL SUB NOT AND PUSH1 0x1 PUSH1 0x1 PUSH1 0xA0 SHL SUB DUP4 AND OR SWAP1 SSTORE JUMPDEST PUSH1 0xD SLOAD PUSH1 0x5 SLOAD PUSH1 0xA SLOAD PUSH1 0x10 SLOAD PUSH1 0x40 MLOAD PUSH4 0x70A08231 PUSH1 0xE0 SHL DUP2 MSTORE ADDRESS PUSH1 0x4 DUP3 ADD MSTORE PUSH1 0x1 PUSH1 0x1 PUSH1 0xA0 SHL SUB SWAP5 DUP6 AND SWAP5 PUSH4 0xE8E33700 SWAP5 DUP2 AND SWAP4 AND SWAP2 SWAP1 DUP3 SWAP1 PUSH4 0x70A08231 SWAP1 PUSH1 0x24 ADD PUSH1 0x20 PUSH1 0x40 MLOAD DUP1 DUP4 SUB DUP2 DUP7 GAS STATICCALL ISZERO DUP1 ISZERO PUSH2 0x13DF JUMPI RETURNDATASIZE PUSH0 DUP1 RETURNDATACOPY RETURNDATASIZE PUSH0 REVERT JUMPDEST POP POP POP POP PUSH1 0x40 MLOAD RETURNDATASIZE PUSH1 0x1F NOT PUSH1 0x1F DUP3 ADD AND DUP3 ADD DUP1 PUSH1 0x40 MSTORE POP DUP2 ADD SWAP1 PUSH2 0x1403 SWAP2 SWAP1 PUSH2 0x1971 JUMP JUMPDEST PUSH1 0x40 MLOAD PUSH1 0x1 PUSH1 0x1 PUSH1 0xE0 SHL SUB NOT PUSH1 0xE0 DUP8 SWAP1 SHL AND DUP2 MSTORE PUSH1 0x1 PUSH1 0x1 PUSH1 0xA0 SHL SUB SWAP5 DUP6 AND PUSH1 0x4 DUP3 ADD MSTORE SWAP4 SWAP1 SWAP3 AND PUSH1 0x24 DUP5 ADD MSTORE PUSH1 0x44 DUP4 ADD MSTORE PUSH1 0x64 DUP3 ADD MSTORE PUSH1 0x45 PUSH1 0x84 DUP3 ADD DUP2 SWAP1 MSTORE PUSH1 0xA4 DUP3 ADD MSTORE PUSH0 PUSH1 0xC4 DUP3 ADD MSTORE TIMESTAMP PUSH1 0xE4 DUP3 ADD MSTORE PUSH2 0x104 ADD PUSH1 0x60 PUSH1 0x40 MLOAD DUP1 DUP4 SUB DUP2 PUSH0 DUP8 GAS CALL ISZERO DUP1 ISZERO PUSH2 0x1474 JUMPI RETURNDATASIZE PUSH0 DUP1 RETURNDATACOPY RETURNDATASIZE PUSH0 REVERT JUMPDEST POP POP POP POP PUSH1 0x40 MLOAD RETURNDATASIZE PUSH1 0x1F NOT PUSH1 0x1F DUP3 ADD AND DUP3 ADD DUP1 PUSH1 0x40 MSTORE POP DUP2 ADD SWAP1 PUSH2 0x1498 SWAP2 SWAP1 PUSH2 0x1988 JUMP JUMPDEST POP POP PUSH1 0x9 SLOAD PUSH1 0x10 SLOAD PUSH1 0x40 MLOAD PUSH1 0x1 PUSH1 0x1 PUSH1 0xA0 SHL SUB SWAP1 SWAP3 AND SWAP3 POP PUSH32 0xA1C337BB22A2D8905C88F8D68029AC3F6D5C6C3F16CF5C1FE92EFAB88D11D7B8 SWAP2 PUSH2 0x14E0 SWAP2 DUP8 SWAP2 PUSH1 0x2 SWAP1 PUSH2 0x19B3 JUMP JUMPDEST PUSH1 0x40 MLOAD DUP1 SWAP2 SUB SWAP1 LOG2 POP POP POP POP POP POP PUSH2 0x950 PUSH1 0x1 PUSH0 SSTORE JUMP JUMPDEST PUSH2 0x14FF PUSH2 0x1645 JUMP JUMPDEST PUSH1 0x21 SLOAD NUMBER GT PUSH2 0x150C JUMPI PUSH0 DUP1 REVERT JUMPDEST PUSH1 0x16 DUP1 SLOAD PUSH2 0xFF00 NOT AND PUSH2 0x100 OR SWAP1 SSTORE NUMBER PUSH1 0x21 SSTORE PUSH1 0x19 SLOAD PUSH1 0x1A SLOAD PUSH1 0x17 SLOAD PUSH1 0x18 SLOAD PUSH1 0x40 DUP1 MLOAD SWAP5 DUP6 MSTORE PUSH1 0x20 DUP6 ADD SWAP4 SWAP1 SWAP4 MSTORE SWAP2 DUP4 ADD MSTORE PUSH1 0x60 DUP3 ADD MSTORE PUSH32 0xB5A26C67C6983F7A6AF7EF8BD10CA38DCA0FF13D20CB55FF961A0FDB3629A214 SWAP1 PUSH1 0x80 ADD PUSH1 0x40 MLOAD DUP1 SWAP2 SUB SWAP1 LOG1 JUMP JUMPDEST PUSH2 0x157A PUSH2 0x1645 JUMP JUMPDEST PUSH1 0x1F DUP2 SWAP1 SSTORE PUSH1 0x40 MLOAD DUP2 DUP2 MSTORE PUSH32 0x3CDDBBD2901897AB7F5D7A62F3806AABD7AAEE30AD5E014303F4E3899CDCB117 SWAP1 PUSH1 0x20 ADD PUSH2 0xA93 JUMP JUMPDEST PUSH2 0x15B7 PUSH2 0x1645 JUMP JUMPDEST PUSH1 0x1 PUSH1 0x1 PUSH1 0xA0 SHL SUB DUP2 AND PUSH2 0x15E5 JUMPI PUSH1 0x40 MLOAD PUSH4 0x1E4FBDF7 PUSH1 0xE0 SHL DUP2 MSTORE PUSH0 PUSH1 0x4 DUP3 ADD MSTORE PUSH1 0x24 ADD JUMPDEST PUSH1 0x40 MLOAD DUP1 SWAP2 SUB SWAP1 REVERT JUMPDEST PUSH2 0xA57 DUP2 PUSH2 0x1672 JUMP JUMPDEST PUSH1 0x2 PUSH0 SLOAD SUB PUSH2 0x163F JUMPI PUSH1 0x40 MLOAD PUSH3 0x461BCD PUSH1 0xE5 SHL DUP2 MSTORE PUSH1 0x20 PUSH1 0x4 DUP3 ADD MSTORE PUSH1 0x1F PUSH1 0x24 DUP3 ADD MSTORE PUSH32 0x5265656E7472616E637947756172643A207265656E7472616E742063616C6C00 PUSH1 0x44 DUP3 ADD MSTORE PUSH1 0x64 ADD PUSH2 0x15DC JUMP JUMPDEST PUSH1 0x2 PUSH0 SSTORE JUMP JUMPDEST PUSH1 0x1 SLOAD PUSH1 0x1 PUSH1 0x1 PUSH1 0xA0 SHL SUB AND CALLER EQ PUSH2 0x950 JUMPI PUSH1 0x40 MLOAD PUSH4 0x118CDAA7 PUSH1 0xE0 SHL DUP2 MSTORE CALLER PUSH1 0x4 DUP3 ADD MSTORE PUSH1 0x24 ADD PUSH2 0x15DC JUMP JUMPDEST PUSH1 0x1 DUP1 SLOAD PUSH1 0x1 PUSH1 0x1 PUSH1 0xA0 SHL SUB DUP4 DUP2 AND PUSH1 0x1 PUSH1 0x1 PUSH1 0xA0 SHL SUB NOT DUP4 AND DUP2 OR SWAP1 SWAP4 SSTORE PUSH1 0x40 MLOAD SWAP2 AND SWAP2 SWAP1 DUP3 SWAP1 PUSH32 0x8BE0079C531659141344CD1FD0A4F28419497F9722A3DAAFE3B4186F6B6457E0 SWAP1 PUSH0 SWAP1 LOG3 POP POP JUMP JUMPDEST PUSH2 0xC53 DUP1 PUSH2 0x19DB DUP4 CODECOPY ADD SWAP1 JUMP JUMPDEST PUSH0 PUSH1 0x20 DUP3 DUP5 SUB SLT ISZERO PUSH2 0x16E0 JUMPI PUSH0 DUP1 REVERT JUMPDEST POP CALLDATALOAD SWAP2 SWAP1 POP JUMP JUMPDEST PUSH0 DUP1 PUSH0 DUP1 PUSH1 0x80 DUP6 DUP8 SUB SLT ISZERO PUSH2 0x16FA JUMPI PUSH0 DUP1 REVERT JUMPDEST POP POP DUP3 CALLDATALOAD SWAP5 PUSH1 0x20 DUP5 ADD CALLDATALOAD SWAP5 POP PUSH1 0x40 DUP5 ADD CALLDATALOAD SWAP4 PUSH1 0x60 ADD CALLDATALOAD SWAP3 POP SWAP1 POP JUMP JUMPDEST PUSH1 0x20 DUP2 MSTORE PUSH0 DUP3 MLOAD DUP1 PUSH1 0x20 DUP5 ADD MSTORE DUP1 PUSH1 0x20 DUP6 ADD PUSH1 0x40 DUP6 ADD MCOPY PUSH0 PUSH1 0x40 DUP3 DUP6 ADD ADD MSTORE PUSH1 0x40 PUSH1 0x1F NOT PUSH1 0x1F DUP4 ADD AND DUP5 ADD ADD SWAP2 POP POP SWAP3 SWAP2 POP POP JUMP JUMPDEST PUSH1 0x1 PUSH1 0x1 PUSH1 0xA0 SHL SUB DUP2 AND DUP2 EQ PUSH2 0xA57 JUMPI PUSH0 DUP1 REVERT JUMPDEST PUSH0 PUSH1 0x20 DUP3 DUP5 SUB SLT ISZERO PUSH2 0x176F JUMPI PUSH0 DUP1 REVERT JUMPDEST DUP2 CALLDATALOAD PUSH2 0x177A DUP2 PUSH2 0x174B JUMP JUMPDEST SWAP4 SWAP3 POP POP POP JUMP JUMPDEST PUSH4 0x4E487B71 PUSH1 0xE0 SHL PUSH0 MSTORE PUSH1 0x11 PUSH1 0x4 MSTORE PUSH1 0x24 PUSH0 REVERT JUMPDEST PUSH0 DUP3 PUSH2 0x17AF JUMPI PUSH4 0x4E487B71 PUSH1 0xE0 SHL PUSH0 MSTORE PUSH1 0x12 PUSH1 0x4 MSTORE PUSH1 0x24 PUSH0 REVERT JUMPDEST POP DIV SWAP1 JUMP JUMPDEST DUP1 DUP3 MUL DUP2 ISZERO DUP3 DUP3 DIV DUP5 EQ OR PUSH2 0x17CB JUMPI PUSH2 0x17CB PUSH2 0x1781 JUMP JUMPDEST SWAP3 SWAP2 POP POP JUMP JUMPDEST PUSH0 PUSH1 0x20 DUP3 DUP5 SUB SLT ISZERO PUSH2 0x17E1 JUMPI PUSH0 DUP1 REVERT JUMPDEST DUP2 MLOAD DUP1 ISZERO ISZERO DUP2 EQ PUSH2 0x177A JUMPI PUSH0 DUP1 REVERT JUMPDEST DUP1 DUP3 ADD DUP1 DUP3 GT ISZERO PUSH2 0x17CB JUMPI PUSH2 0x17CB PUSH2 0x1781 JUMP JUMPDEST PUSH1 0x1 DUP2 DUP2 SHR SWAP1 DUP3 AND DUP1 PUSH2 0x1817 JUMPI PUSH1 0x7F DUP3 AND SWAP2 POP JUMPDEST PUSH1 0x20 DUP3 LT DUP2 SUB PUSH2 0x1835 JUMPI PUSH4 0x4E487B71 PUSH1 0xE0 SHL PUSH0 MSTORE PUSH1 0x22 PUSH1 0x4 MSTORE PUSH1 0x24 PUSH0 REVERT JUMPDEST POP SWAP2 SWAP1 POP JUMP JUMPDEST DUP2 DUP2 SUB DUP2 DUP2 GT ISZERO PUSH2 0x17CB JUMPI PUSH2 0x17CB PUSH2 0x1781 JUMP JUMPDEST DUP1 SLOAD PUSH0 SWAP1 PUSH1 0x1 DUP2 DUP2 SHR SWAP1 DUP1 DUP4 AND DUP1 PUSH2 0x1867 JUMPI PUSH1 0x7F DUP4 AND SWAP3 POP JUMPDEST PUSH1 0x20 DUP1 DUP5 LT DUP3 SUB PUSH2 0x1886 JUMPI PUSH4 0x4E487B71 PUSH1 0xE0 SHL PUSH0 MSTORE PUSH1 0x22 PUSH1 0x4 MSTORE PUSH1 0x24 PUSH0 REVERT JUMPDEST DUP4 DUP9 MSTORE PUSH1 0x20 DUP9 ADD DUP3 DUP1 ISZERO PUSH2 0x18A1 JUMPI PUSH1 0x1 DUP2 EQ PUSH2 0x18B7 JUMPI PUSH2 0x18E0 JUMP JUMPDEST PUSH1 0xFF NOT DUP8 AND DUP3 MSTORE DUP6 ISZERO ISZERO PUSH1 0x5 SHL DUP3 ADD SWAP8 POP PUSH2 0x18E0 JUMP JUMPDEST PUSH0 DUP10 DUP2 MSTORE PUSH1 0x20 SWAP1 KECCAK256 PUSH0 JUMPDEST DUP8 DUP2 LT ISZERO PUSH2 0x18DA JUMPI DUP2 SLOAD DUP5 DUP3 ADD MSTORE SWAP1 DUP7 ADD SWAP1 DUP5 ADD PUSH2 0x18C1 JUMP JUMPDEST DUP4 ADD SWAP9 POP POP JUMPDEST POP POP POP POP POP POP POP SWAP3 SWAP2 POP POP JUMP JUMPDEST DUP4 DUP2 MSTORE PUSH1 0x60 PUSH1 0x20 DUP3 ADD MSTORE PUSH0 PUSH2 0x1905 PUSH1 0x60 DUP4 ADD DUP6 PUSH2 0x184E JUMP JUMPDEST DUP3 DUP2 SUB PUSH1 0x40 DUP5 ADD MSTORE PUSH2 0x1917 DUP2 DUP6 PUSH2 0x184E JUMP JUMPDEST SWAP7 SWAP6 POP POP POP POP POP POP JUMP JUMPDEST PUSH1 0x60 DUP2 MSTORE PUSH0 PUSH2 0x1933 PUSH1 0x60 DUP4 ADD DUP7 PUSH2 0x184E JUMP JUMPDEST DUP3 DUP2 SUB PUSH1 0x20 DUP5 ADD MSTORE PUSH2 0x1945 DUP2 DUP7 PUSH2 0x184E JUMP JUMPDEST SWAP2 POP POP DUP3 PUSH1 0x40 DUP4 ADD MSTORE SWAP5 SWAP4 POP POP POP POP JUMP JUMPDEST PUSH0 PUSH1 0x20 DUP3 DUP5 SUB SLT ISZERO PUSH2 0x1966 JUMPI PUSH0 DUP1 REVERT JUMPDEST DUP2 MLOAD PUSH2 0x177A DUP2 PUSH2 0x174B JUMP JUMPDEST PUSH0 PUSH1 0x20 DUP3 DUP5 SUB SLT ISZERO PUSH2 0x1981 JUMPI PUSH0 DUP1 REVERT JUMPDEST POP MLOAD SWAP2 SWAP1 POP JUMP JUMPDEST PUSH0 DUP1 PUSH0 PUSH1 0x60 DUP5 DUP7 SUB SLT ISZERO PUSH2 0x199A JUMPI PUSH0 DUP1 REVERT JUMPDEST DUP4 MLOAD SWAP3 POP PUSH1 0x20 DUP5 ADD MLOAD SWAP2 POP PUSH1 0x40 DUP5 ADD MLOAD SWAP1 POP SWAP3 POP SWAP3 POP SWAP3 JUMP JUMPDEST DUP4 DUP2 MSTORE DUP3 PUSH1 0x20 DUP3 ADD MSTORE PUSH1 0x60 PUSH1 0x40 DUP3 ADD MSTORE PUSH0 PUSH2 0x19D1 PUSH1 0x60 DUP4 ADD DUP5 PUSH2 0x184E JUMP JUMPDEST SWAP6 SWAP5 POP POP POP POP POP JUMP INVALID PUSH1 0x80 PUSH1 0x40 MSTORE CALLVALUE DUP1 ISZERO PUSH2 0xF JUMPI PUSH0 DUP1 REVERT JUMPDEST POP PUSH1 0x40 MLOAD PUSH2 0xC53 CODESIZE SUB DUP1 PUSH2 0xC53 DUP4 CODECOPY DUP2 ADD PUSH1 0x40 DUP2 SWAP1 MSTORE PUSH2 0x2E SWAP2 PUSH2 0x284 JUMP JUMPDEST DUP2 DUP2 PUSH1 0x3 PUSH2 0x3C DUP4 DUP3 PUSH2 0x370 JUMP JUMPDEST POP PUSH1 0x4 PUSH2 0x49 DUP3 DUP3 PUSH2 0x370 JUMP JUMPDEST POP POP POP PUSH2 0x78 CALLER PUSH2 0x5E PUSH2 0x80 PUSH1 0x20 SHL PUSH1 0x20 SHR JUMP JUMPDEST PUSH2 0x69 SWAP1 PUSH1 0xA PUSH2 0x525 JUMP JUMPDEST PUSH2 0x73 SWAP1 DUP7 PUSH2 0x53A JUMP JUMPDEST PUSH2 0x85 JUMP JUMPDEST POP POP POP PUSH2 0x564 JUMP JUMPDEST PUSH1 0x12 SWAP1 JUMP JUMPDEST PUSH1 0x1 PUSH1 0x1 PUSH1 0xA0 SHL SUB DUP3 AND PUSH2 0xB3 JUMPI PUSH1 0x40 MLOAD PUSH4 0xEC442F05 PUSH1 0xE0 SHL DUP2 MSTORE PUSH0 PUSH1 0x4 DUP3 ADD MSTORE PUSH1 0x24 ADD JUMPDEST PUSH1 0x40 MLOAD DUP1 SWAP2 SUB SWAP1 REVERT JUMPDEST PUSH2 0xBE PUSH0 DUP4 DUP4 PUSH2 0xC2 JUMP JUMPDEST POP POP JUMP JUMPDEST PUSH1 0x1 PUSH1 0x1 PUSH1 0xA0 SHL SUB DUP4 AND PUSH2 0xEC JUMPI DUP1 PUSH1 0x2 PUSH0 DUP3 DUP3 SLOAD PUSH2 0xE1 SWAP2 SWAP1 PUSH2 0x551 JUMP JUMPDEST SWAP1 SWAP2 SSTORE POP PUSH2 0x15C SWAP1 POP JUMP JUMPDEST PUSH1 0x1 PUSH1 0x1 PUSH1 0xA0 SHL SUB DUP4 AND PUSH0 SWAP1 DUP2 MSTORE PUSH1 0x20 DUP2 SWAP1 MSTORE PUSH1 0x40 SWAP1 KECCAK256 SLOAD DUP2 DUP2 LT ISZERO PUSH2 0x13E JUMPI PUSH1 0x40 MLOAD PUSH4 0x391434E3 PUSH1 0xE2 SHL DUP2 MSTORE PUSH1 0x1 PUSH1 0x1 PUSH1 0xA0 SHL SUB DUP6 AND PUSH1 0x4 DUP3 ADD MSTORE PUSH1 0x24 DUP2 ADD DUP3 SWAP1 MSTORE PUSH1 0x44 DUP2 ADD DUP4 SWAP1 MSTORE PUSH1 0x64 ADD PUSH2 0xAA JUMP JUMPDEST PUSH1 0x1 PUSH1 0x1 PUSH1 0xA0 SHL SUB DUP5 AND PUSH0 SWAP1 DUP2 MSTORE PUSH1 0x20 DUP2 SWAP1 MSTORE PUSH1 0x40 SWAP1 KECCAK256 SWAP1 DUP3 SWAP1 SUB SWAP1 SSTORE JUMPDEST PUSH1 0x1 PUSH1 0x1 PUSH1 0xA0 SHL SUB DUP3 AND PUSH2 0x178 JUMPI PUSH1 0x2 DUP1 SLOAD DUP3 SWAP1 SUB SWAP1 SSTORE PUSH2 0x196 JUMP JUMPDEST PUSH1 0x1 PUSH1 0x1 PUSH1 0xA0 SHL SUB DUP3 AND PUSH0 SWAP1 DUP2 MSTORE PUSH1 0x20 DUP2 SWAP1 MSTORE PUSH1 0x40 SWAP1 KECCAK256 DUP1 SLOAD DUP3 ADD SWAP1 SSTORE JUMPDEST DUP2 PUSH1 0x1 PUSH1 0x1 PUSH1 0xA0 SHL SUB AND DUP4 PUSH1 0x1 PUSH1 0x1 PUSH1 0xA0 SHL SUB AND PUSH32 0xDDF252AD1BE2C89B69C2B068FC378DAA952BA7F163C4A11628F55A4DF523B3EF DUP4 PUSH1 0x40 MLOAD PUSH2 0x1DB SWAP2 DUP2 MSTORE PUSH1 0x20 ADD SWAP1 JUMP JUMPDEST PUSH1 0x40 MLOAD DUP1 SWAP2 SUB SWAP1 LOG3 POP POP POP JUMP JUMPDEST PUSH4 0x4E487B71 PUSH1 0xE0 SHL PUSH0 MSTORE PUSH1 0x41 PUSH1 0x4 MSTORE PUSH1 0x24 PUSH0 REVERT JUMPDEST PUSH0 DUP3 PUSH1 0x1F DUP4 ADD SLT PUSH2 0x20B JUMPI PUSH0 DUP1 REVERT JUMPDEST DUP2 MLOAD PUSH1 0x1 PUSH1 0x1 PUSH1 0x40 SHL SUB DUP1 DUP3 GT ISZERO PUSH2 0x225 JUMPI PUSH2 0x225 PUSH2 0x1E8 JUMP JUMPDEST PUSH1 0x40 MLOAD PUSH1 0x1F DUP4 ADD PUSH1 0x1F NOT SWAP1 DUP2 AND PUSH1 0x3F ADD AND DUP2 ADD SWAP1 DUP3 DUP3 GT DUP2 DUP4 LT OR ISZERO PUSH2 0x24D JUMPI PUSH2 0x24D PUSH2 0x1E8 JUMP JUMPDEST DUP2 PUSH1 0x40 MSTORE DUP4 DUP2 MSTORE DUP7 PUSH1 0x20 DUP6 DUP9 ADD ADD GT ISZERO PUSH2 0x265 JUMPI PUSH0 DUP1 REVERT JUMPDEST DUP4 PUSH1 0x20 DUP8 ADD PUSH1 0x20 DUP4 ADD MCOPY PUSH0 PUSH1 0x20 DUP6 DUP4 ADD ADD MSTORE DUP1 SWAP5 POP POP POP POP POP SWAP3 SWAP2 POP POP JUMP JUMPDEST PUSH0 DUP1 PUSH0 PUSH1 0x60 DUP5 DUP7 SUB SLT ISZERO PUSH2 0x296 JUMPI PUSH0 DUP1 REVERT JUMPDEST DUP4 MLOAD PUSH1 0x20 DUP6 ADD MLOAD SWAP1 SWAP4 POP PUSH1 0x1 PUSH1 0x1 PUSH1 0x40 SHL SUB DUP1 DUP3 GT ISZERO PUSH2 0x2B4 JUMPI PUSH0 DUP1 REVERT JUMPDEST PUSH2 0x2C0 DUP8 DUP4 DUP9 ADD PUSH2 0x1FC JUMP JUMPDEST SWAP4 POP PUSH1 0x40 DUP7 ADD MLOAD SWAP2 POP DUP1 DUP3 GT ISZERO PUSH2 0x2D5 JUMPI PUSH0 DUP1 REVERT JUMPDEST POP PUSH2 0x2E2 DUP7 DUP3 DUP8 ADD PUSH2 0x1FC JUMP JUMPDEST SWAP2 POP POP SWAP3 POP SWAP3 POP SWAP3 JUMP JUMPDEST PUSH1 0x1 DUP2 DUP2 SHR SWAP1 DUP3 AND DUP1 PUSH2 0x300 JUMPI PUSH1 0x7F DUP3 AND SWAP2 POP JUMPDEST PUSH1 0x20 DUP3 LT DUP2 SUB PUSH2 0x31E JUMPI PUSH4 0x4E487B71 PUSH1 0xE0 SHL PUSH0 MSTORE PUSH1 0x22 PUSH1 0x4 MSTORE PUSH1 0x24 PUSH0 REVERT JUMPDEST POP SWAP2 SWAP1 POP JUMP JUMPDEST PUSH1 0x1F DUP3 GT ISZERO PUSH2 0x36B JUMPI DUP1 PUSH0 MSTORE PUSH1 0x20 PUSH0 KECCAK256 PUSH1 0x1F DUP5 ADD PUSH1 0x5 SHR DUP2 ADD PUSH1 0x20 DUP6 LT ISZERO PUSH2 0x349 JUMPI POP DUP1 JUMPDEST PUSH1 0x1F DUP5 ADD PUSH1 0x5 SHR DUP3 ADD SWAP2 POP JUMPDEST DUP2 DUP2 LT ISZERO PUSH2 0x368 JUMPI PUSH0 DUP2 SSTORE PUSH1 0x1 ADD PUSH2 0x355 JUMP JUMPDEST POP POP JUMPDEST POP POP POP JUMP JUMPDEST DUP2 MLOAD PUSH1 0x1 PUSH1 0x1 PUSH1 0x40 SHL SUB DUP2 GT ISZERO PUSH2 0x389 JUMPI PUSH2 0x389 PUSH2 0x1E8 JUMP JUMPDEST PUSH2 0x39D DUP2 PUSH2 0x397 DUP5 SLOAD PUSH2 0x2EC JUMP JUMPDEST DUP5 PUSH2 0x324 JUMP JUMPDEST PUSH1 0x20 DUP1 PUSH1 0x1F DUP4 GT PUSH1 0x1 DUP2 EQ PUSH2 0x3D0 JUMPI PUSH0 DUP5 ISZERO PUSH2 0x3B9 JUMPI POP DUP6 DUP4 ADD MLOAD JUMPDEST PUSH0 NOT PUSH1 0x3 DUP7 SWAP1 SHL SHR NOT AND PUSH1 0x1 DUP6 SWAP1 SHL OR DUP6 SSTORE PUSH2 0x427 JUMP JUMPDEST PUSH0 DUP6 DUP2 MSTORE PUSH1 0x20 DUP2 KECCAK256 PUSH1 0x1F NOT DUP7 AND SWAP2 JUMPDEST DUP3 DUP2 LT ISZERO PUSH2 0x3FE JUMPI DUP9 DUP7 ADD MLOAD DUP3 SSTORE SWAP5 DUP5 ADD SWAP5 PUSH1 0x1 SWAP1 SWAP2 ADD SWAP1 DUP5 ADD PUSH2 0x3DF JUMP JUMPDEST POP DUP6 DUP3 LT ISZERO PUSH2 0x41B JUMPI DUP8 DUP6 ADD MLOAD PUSH0 NOT PUSH1 0x3 DUP9 SWAP1 SHL PUSH1 0xF8 AND SHR NOT AND DUP2 SSTORE JUMPDEST POP POP PUSH1 0x1 DUP5 PUSH1 0x1 SHL ADD DUP6 SSTORE JUMPDEST POP POP POP POP POP POP JUMP JUMPDEST PUSH4 0x4E487B71 PUSH1 0xE0 SHL PUSH0 MSTORE PUSH1 0x11 PUSH1 0x4 MSTORE PUSH1 0x24 PUSH0 REVERT JUMPDEST PUSH1 0x1 DUP2 DUP2 JUMPDEST DUP1 DUP6 GT ISZERO PUSH2 0x47D JUMPI DUP2 PUSH0 NOT DIV DUP3 GT ISZERO PUSH2 0x463 JUMPI PUSH2 0x463 PUSH2 0x42F JUMP JUMPDEST DUP1 DUP6 AND ISZERO PUSH2 0x470 JUMPI SWAP2 DUP2 MUL SWAP2 JUMPDEST SWAP4 DUP5 SHR SWAP4 SWAP1 DUP1 MUL SWAP1 PUSH2 0x448 JUMP JUMPDEST POP SWAP3 POP SWAP3 SWAP1 POP JUMP JUMPDEST PUSH0 DUP3 PUSH2 0x493 JUMPI POP PUSH1 0x1 PUSH2 0x51F JUMP JUMPDEST DUP2 PUSH2 0x49F JUMPI POP PUSH0 PUSH2 0x51F JUMP JUMPDEST DUP2 PUSH1 0x1 DUP2 EQ PUSH2 0x4B5 JUMPI PUSH1 0x2 DUP2 EQ PUSH2 0x4BF JUMPI PUSH2 0x4DB JUMP JUMPDEST PUSH1 0x1 SWAP2 POP POP PUSH2 0x51F JUMP JUMPDEST PUSH1 0xFF DUP5 GT ISZERO PUSH2 0x4D0 JUMPI PUSH2 0x4D0 PUSH2 0x42F JUMP JUMPDEST POP POP PUSH1 0x1 DUP3 SHL PUSH2 0x51F JUMP JUMPDEST POP PUSH1 0x20 DUP4 LT PUSH2 0x133 DUP4 LT AND PUSH1 0x4E DUP5 LT PUSH1 0xB DUP5 LT AND OR ISZERO PUSH2 0x4FE JUMPI POP DUP2 DUP2 EXP PUSH2 0x51F JUMP JUMPDEST PUSH2 0x508 DUP4 DUP4 PUSH2 0x443 JUMP JUMPDEST DUP1 PUSH0 NOT DIV DUP3 GT ISZERO PUSH2 0x51B JUMPI PUSH2 0x51B PUSH2 0x42F JUMP JUMPDEST MUL SWAP1 POP JUMPDEST SWAP3 SWAP2 POP POP JUMP JUMPDEST PUSH0 PUSH2 0x533 PUSH1 0xFF DUP5 AND DUP4 PUSH2 0x485 JUMP JUMPDEST SWAP4 SWAP3 POP POP POP JUMP JUMPDEST DUP1 DUP3 MUL DUP2 ISZERO DUP3 DUP3 DIV DUP5 EQ OR PUSH2 0x51F JUMPI PUSH2 0x51F PUSH2 0x42F JUMP JUMPDEST DUP1 DUP3 ADD DUP1 DUP3 GT ISZERO PUSH2 0x51F JUMPI PUSH2 0x51F PUSH2 0x42F JUMP JUMPDEST PUSH2 0x6E2 DUP1 PUSH2 0x571 PUSH0 CODECOPY PUSH0 RETURN INVALID PUSH1 0x80 PUSH1 0x40 MSTORE CALLVALUE DUP1 ISZERO PUSH2 0xF JUMPI PUSH0 DUP1 REVERT JUMPDEST POP PUSH1 0x4 CALLDATASIZE LT PUSH2 0x90 JUMPI PUSH0 CALLDATALOAD PUSH1 0xE0 SHR DUP1 PUSH4 0x313CE567 GT PUSH2 0x63 JUMPI DUP1 PUSH4 0x313CE567 EQ PUSH2 0xFA JUMPI DUP1 PUSH4 0x70A08231 EQ PUSH2 0x109 JUMPI DUP1 PUSH4 0x95D89B41 EQ PUSH2 0x131 JUMPI DUP1 PUSH4 0xA9059CBB EQ PUSH2 0x139 JUMPI DUP1 PUSH4 0xDD62ED3E EQ PUSH2 0x14C JUMPI PUSH0 DUP1 REVERT JUMPDEST DUP1 PUSH4 0x6FDDE03 EQ PUSH2 0x94 JUMPI DUP1 PUSH4 0x95EA7B3 EQ PUSH2 0xB2 JUMPI DUP1 PUSH4 0x18160DDD EQ PUSH2 0xD5 JUMPI DUP1 PUSH4 0x23B872DD EQ PUSH2 0xE7 JUMPI JUMPDEST PUSH0 DUP1 REVERT JUMPDEST PUSH2 0x9C PUSH2 0x184 JUMP JUMPDEST PUSH1 0x40 MLOAD PUSH2 0xA9 SWAP2 SWAP1 PUSH2 0x553 JUMP JUMPDEST PUSH1 0x40 MLOAD DUP1 SWAP2 SUB SWAP1 RETURN JUMPDEST PUSH2 0xC5 PUSH2 0xC0 CALLDATASIZE PUSH1 0x4 PUSH2 0x5A3 JUMP JUMPDEST PUSH2 0x214 JUMP JUMPDEST PUSH1 0x40 MLOAD SWAP1 ISZERO ISZERO DUP2 MSTORE PUSH1 0x20 ADD PUSH2 0xA9 JUMP JUMPDEST PUSH1 0x2 SLOAD JUMPDEST PUSH1 0x40 MLOAD SWAP1 DUP2 MSTORE PUSH1 0x20 ADD PUSH2 0xA9 JUMP JUMPDEST PUSH2 0xC5 PUSH2 0xF5 CALLDATASIZE PUSH1 0x4 PUSH2 0x5CB JUMP JUMPDEST PUSH2 0x22D JUMP JUMPDEST PUSH1 0x40 MLOAD PUSH1 0x12 DUP2 MSTORE PUSH1 0x20 ADD PUSH2 0xA9 JUMP JUMPDEST PUSH2 0xD9 PUSH2 0x117 CALLDATASIZE PUSH1 0x4 PUSH2 0x604 JUMP JUMPDEST PUSH1 0x1 PUSH1 0x1 PUSH1 0xA0 SHL SUB AND PUSH0 SWAP1 DUP2 MSTORE PUSH1 0x20 DUP2 SWAP1 MSTORE PUSH1 0x40 SWAP1 KECCAK256 SLOAD SWAP1 JUMP JUMPDEST PUSH2 0x9C PUSH2 0x250 JUMP JUMPDEST PUSH2 0xC5 PUSH2 0x147 CALLDATASIZE PUSH1 0x4 PUSH2 0x5A3 JUMP JUMPDEST PUSH2 0x25F JUMP JUMPDEST PUSH2 0xD9 PUSH2 0x15A CALLDATASIZE PUSH1 0x4 PUSH2 0x624 JUMP JUMPDEST PUSH1 0x1 PUSH1 0x1 PUSH1 0xA0 SHL SUB SWAP2 DUP3 AND PUSH0 SWAP1 DUP2 MSTORE PUSH1 0x1 PUSH1 0x20 SWAP1 DUP2 MSTORE PUSH1 0x40 DUP1 DUP4 KECCAK256 SWAP4 SWAP1 SWAP5 AND DUP3 MSTORE SWAP2 SWAP1 SWAP2 MSTORE KECCAK256 SLOAD SWAP1 JUMP JUMPDEST PUSH1 0x60 PUSH1 0x3 DUP1 SLOAD PUSH2 0x193 SWAP1 PUSH2 0x655 JUMP JUMPDEST DUP1 PUSH1 0x1F ADD PUSH1 0x20 DUP1 SWAP2 DIV MUL PUSH1 0x20 ADD PUSH1 0x40 MLOAD SWAP1 DUP2 ADD PUSH1 0x40 MSTORE DUP1 SWAP3 SWAP2 SWAP1 DUP2 DUP2 MSTORE PUSH1 0x20 ADD DUP3 DUP1 SLOAD PUSH2 0x1BF SWAP1 PUSH2 0x655 JUMP JUMPDEST DUP1 ISZERO PUSH2 0x20A JUMPI DUP1 PUSH1 0x1F LT PUSH2 0x1E1 JUMPI PUSH2 0x100 DUP1 DUP4 SLOAD DIV MUL DUP4 MSTORE SWAP2 PUSH1 0x20 ADD SWAP2 PUSH2 0x20A JUMP JUMPDEST DUP3 ADD SWAP2 SWAP1 PUSH0 MSTORE PUSH1 0x20 PUSH0 KECCAK256 SWAP1 JUMPDEST DUP2 SLOAD DUP2 MSTORE SWAP1 PUSH1 0x1 ADD SWAP1 PUSH1 0x20 ADD DUP1 DUP4 GT PUSH2 0x1ED JUMPI DUP3 SWAP1 SUB PUSH1 0x1F AND DUP3 ADD SWAP2 JUMPDEST POP POP POP POP POP SWAP1 POP SWAP1 JUMP JUMPDEST PUSH0 CALLER PUSH2 0x221 DUP2 DUP6 DUP6 PUSH2 0x26C JUMP JUMPDEST PUSH1 0x1 SWAP2 POP POP JUMPDEST SWAP3 SWAP2 POP POP JUMP JUMPDEST PUSH0 CALLER PUSH2 0x23A DUP6 DUP3 DUP6 PUSH2 0x27E JUMP JUMPDEST PUSH2 0x245 DUP6 DUP6 DUP6 PUSH2 0x2FE JUMP JUMPDEST POP PUSH1 0x1 SWAP5 SWAP4 POP POP POP POP JUMP JUMPDEST PUSH1 0x60 PUSH1 0x4 DUP1 SLOAD PUSH2 0x193 SWAP1 PUSH2 0x655 JUMP JUMPDEST PUSH0 CALLER PUSH2 0x221 DUP2 DUP6 DUP6 PUSH2 0x2FE JUMP JUMPDEST PUSH2 0x279 DUP4 DUP4 DUP4 PUSH1 0x1 PUSH2 0x35B JUMP JUMPDEST POP POP POP JUMP JUMPDEST PUSH1 0x1 PUSH1 0x1 PUSH1 0xA0 SHL SUB DUP4 DUP2 AND PUSH0 SWAP1 DUP2 MSTORE PUSH1 0x1 PUSH1 0x20 SWAP1 DUP2 MSTORE PUSH1 0x40 DUP1 DUP4 KECCAK256 SWAP4 DUP7 AND DUP4 MSTORE SWAP3 SWAP1 MSTORE KECCAK256 SLOAD PUSH0 NOT DUP2 EQ PUSH2 0x2F8 JUMPI DUP2 DUP2 LT ISZERO PUSH2 0x2EA JUMPI PUSH1 0x40 MLOAD PUSH4 0x7DC7A0D9 PUSH1 0xE1 SHL DUP2 MSTORE PUSH1 0x1 PUSH1 0x1 PUSH1 0xA0 SHL SUB DUP5 AND PUSH1 0x4 DUP3 ADD MSTORE PUSH1 0x24 DUP2 ADD DUP3 SWAP1 MSTORE PUSH1 0x44 DUP2 ADD DUP4 SWAP1 MSTORE PUSH1 0x64 ADD JUMPDEST PUSH1 0x40 MLOAD DUP1 SWAP2 SUB SWAP1 REVERT JUMPDEST PUSH2 0x2F8 DUP5 DUP5 DUP5 DUP5 SUB PUSH0 PUSH2 0x35B JUMP JUMPDEST POP POP POP POP JUMP JUMPDEST PUSH1 0x1 PUSH1 0x1 PUSH1 0xA0 SHL SUB DUP4 AND PUSH2 0x327 JUMPI PUSH1 0x40 MLOAD PUSH4 0x4B637E8F PUSH1 0xE1 SHL DUP2 MSTORE PUSH0 PUSH1 0x4 DUP3 ADD MSTORE PUSH1 0x24 ADD PUSH2 0x2E1 JUMP JUMPDEST PUSH1 0x1 PUSH1 0x1 PUSH1 0xA0 SHL SUB DUP3 AND PUSH2 0x350 JUMPI PUSH1 0x40 MLOAD PUSH4 0xEC442F05 PUSH1 0xE0 SHL DUP2 MSTORE PUSH0 PUSH1 0x4 DUP3 ADD MSTORE PUSH1 0x24 ADD PUSH2 0x2E1 JUMP JUMPDEST PUSH2 0x279 DUP4 DUP4 DUP4 PUSH2 0x42D JUMP JUMPDEST PUSH1 0x1 PUSH1 0x1 PUSH1 0xA0 SHL SUB DUP5 AND PUSH2 0x384 JUMPI PUSH1 0x40 MLOAD PUSH4 0xE602DF05 PUSH1 0xE0 SHL DUP2 MSTORE PUSH0 PUSH1 0x4 DUP3 ADD MSTORE PUSH1 0x24 ADD PUSH2 0x2E1 JUMP JUMPDEST PUSH1 0x1 PUSH1 0x1 PUSH1 0xA0 SHL SUB DUP4 AND PUSH2 0x3AD JUMPI PUSH1 0x40 MLOAD PUSH4 0x4A1406B1 PUSH1 0xE1 SHL DUP2 MSTORE PUSH0 PUSH1 0x4 DUP3 ADD MSTORE PUSH1 0x24 ADD PUSH2 0x2E1 JUMP JUMPDEST PUSH1 0x1 PUSH1 0x1 PUSH1 0xA0 SHL SUB DUP1 DUP6 AND PUSH0 SWAP1 DUP2 MSTORE PUSH1 0x1 PUSH1 0x20 SWAP1 DUP2 MSTORE PUSH1 0x40 DUP1 DUP4 KECCAK256 SWAP4 DUP8 AND DUP4 MSTORE SWAP3 SWAP1 MSTORE KECCAK256 DUP3 SWAP1 SSTORE DUP1 ISZERO PUSH2 0x2F8 JUMPI DUP3 PUSH1 0x1 PUSH1 0x1 PUSH1 0xA0 SHL SUB AND DUP5 PUSH1 0x1 PUSH1 0x1 PUSH1 0xA0 SHL SUB AND PUSH32 0x8C5BE1E5EBEC7D5BD14F71427D1E84F3DD0314C0F7B2291E5B200AC8C7C3B925 DUP5 PUSH1 0x40 MLOAD PUSH2 0x41F SWAP2 DUP2 MSTORE PUSH1 0x20 ADD SWAP1 JUMP JUMPDEST PUSH1 0x40 MLOAD DUP1 SWAP2 SUB SWAP1 LOG3 POP POP POP POP JUMP JUMPDEST PUSH1 0x1 PUSH1 0x1 PUSH1 0xA0 SHL SUB DUP4 AND PUSH2 0x457 JUMPI DUP1 PUSH1 0x2 PUSH0 DUP3 DUP3 SLOAD PUSH2 0x44C SWAP2 SWAP1 PUSH2 0x68D JUMP JUMPDEST SWAP1 SWAP2 SSTORE POP PUSH2 0x4C7 SWAP1 POP JUMP JUMPDEST PUSH1 0x1 PUSH1 0x1 PUSH1 0xA0 SHL SUB DUP4 AND PUSH0 SWAP1 DUP2 MSTORE PUSH1 0x20 DUP2 SWAP1 MSTORE PUSH1 0x40 SWAP1 KECCAK256 SLOAD DUP2 DUP2 LT ISZERO PUSH2 0x4A9 JUMPI PUSH1 0x40 MLOAD PUSH4 0x391434E3 PUSH1 0xE2 SHL DUP2 MSTORE PUSH1 0x1 PUSH1 0x1 PUSH1 0xA0 SHL SUB DUP6 AND PUSH1 0x4 DUP3 ADD MSTORE PUSH1 0x24 DUP2 ADD DUP3 SWAP1 MSTORE PUSH1 0x44 DUP2 ADD DUP4 SWAP1 MSTORE PUSH1 0x64 ADD PUSH2 0x2E1 JUMP JUMPDEST PUSH1 0x1 PUSH1 0x1 PUSH1 0xA0 SHL SUB DUP5 AND PUSH0 SWAP1 DUP2 MSTORE PUSH1 0x20 DUP2 SWAP1 MSTORE PUSH1 0x40 SWAP1 KECCAK256 SWAP1 DUP3 SWAP1 SUB SWAP1 SSTORE JUMPDEST PUSH1 0x1 PUSH1 0x1 PUSH1 0xA0 SHL SUB DUP3 AND PUSH2 0x4E3 JUMPI PUSH1 0x2 DUP1 SLOAD DUP3 SWAP1 SUB SWAP1 SSTORE PUSH2 0x501 JUMP JUMPDEST PUSH1 0x1 PUSH1 0x1 PUSH1 0xA0 SHL SUB DUP3 AND PUSH0 SWAP1 DUP2 MSTORE PUSH1 0x20 DUP2 SWAP1 MSTORE PUSH1 0x40 SWAP1 KECCAK256 DUP1 SLOAD DUP3 ADD SWAP1 SSTORE JUMPDEST DUP2 PUSH1 0x1 PUSH1 0x1 PUSH1 0xA0 SHL SUB AND DUP4 PUSH1 0x1 PUSH1 0x1 PUSH1 0xA0 SHL SUB AND PUSH32 0xDDF252AD1BE2C89B69C2B068FC378DAA952BA7F163C4A11628F55A4DF523B3EF DUP4 PUSH1 0x40 MLOAD PUSH2 0x546 SWAP2 DUP2 MSTORE PUSH1 0x20 ADD SWAP1 JUMP JUMPDEST PUSH1 0x40 MLOAD DUP1 SWAP2 SUB SWAP1 LOG3 POP POP POP JUMP JUMPDEST PUSH1 0x20 DUP2 MSTORE PUSH0 DUP3 MLOAD DUP1 PUSH1 0x20 DUP5 ADD MSTORE DUP1 PUSH1 0x20 DUP6 ADD PUSH1 0x40 DUP6 ADD MCOPY PUSH0 PUSH1 0x40 DUP3 DUP6 ADD ADD MSTORE PUSH1 0x40 PUSH1 0x1F NOT PUSH1 0x1F DUP4 ADD AND DUP5 ADD ADD SWAP2 POP POP SWAP3 SWAP2 POP POP JUMP JUMPDEST DUP1 CALLDATALOAD PUSH1 0x1 PUSH1 0x1 PUSH1 0xA0 SHL SUB DUP2 AND DUP2 EQ PUSH2 0x59E JUMPI PUSH0 DUP1 REVERT JUMPDEST SWAP2 SWAP1 POP JUMP JUMPDEST PUSH0 DUP1 PUSH1 0x40 DUP4 DUP6 SUB SLT ISZERO PUSH2 0x5B4 JUMPI PUSH0 DUP1 REVERT JUMPDEST PUSH2 0x5BD DUP4 PUSH2 0x588 JUMP JUMPDEST SWAP5 PUSH1 0x20 SWAP4 SWAP1 SWAP4 ADD CALLDATALOAD SWAP4 POP POP POP JUMP JUMPDEST PUSH0 DUP1 PUSH0 PUSH1 0x60 DUP5 DUP7 SUB SLT ISZERO PUSH2 0x5DD JUMPI PUSH0 DUP1 REVERT JUMPDEST PUSH2 0x5E6 DUP5 PUSH2 0x588 JUMP JUMPDEST SWAP3 POP PUSH2 0x5F4 PUSH1 0x20 DUP6 ADD PUSH2 0x588 JUMP JUMPDEST SWAP2 POP PUSH1 0x40 DUP5 ADD CALLDATALOAD SWAP1 POP SWAP3 POP SWAP3 POP SWAP3 JUMP JUMPDEST PUSH0 PUSH1 0x20 DUP3 DUP5 SUB SLT ISZERO PUSH2 0x614 JUMPI PUSH0 DUP1 REVERT JUMPDEST PUSH2 0x61D DUP3 PUSH2 0x588 JUMP JUMPDEST SWAP4 SWAP3 POP POP POP JUMP JUMPDEST PUSH0 DUP1 PUSH1 0x40 DUP4 DUP6 SUB SLT ISZERO PUSH2 0x635 JUMPI PUSH0 DUP1 REVERT JUMPDEST PUSH2 0x63E DUP4 PUSH2 0x588 JUMP JUMPDEST SWAP2 POP PUSH2 0x64C PUSH1 0x20 DUP5 ADD PUSH2 0x588 JUMP JUMPDEST SWAP1 POP SWAP3 POP SWAP3 SWAP1 POP JUMP JUMPDEST PUSH1 0x1 DUP2 DUP2 SHR SWAP1 DUP3 AND DUP1 PUSH2 0x669 JUMPI PUSH1 0x7F DUP3 AND SWAP2 POP JUMPDEST PUSH1 0x20 DUP3 LT DUP2 SUB PUSH2 0x687 JUMPI PUSH4 0x4E487B71 PUSH1 0xE0 SHL PUSH0 MSTORE PUSH1 0x22 PUSH1 0x4 MSTORE PUSH1 0x24 PUSH0 REVERT JUMPDEST POP SWAP2 SWAP1 POP JUMP JUMPDEST DUP1 DUP3 ADD DUP1 DUP3 GT ISZERO PUSH2 0x227 JUMPI PUSH4 0x4E487B71 PUSH1 0xE0 SHL PUSH0 MSTORE PUSH1 0x11 PUSH1 0x4 MSTORE PUSH1 0x24 PUSH0 REVERT INVALID LOG2 PUSH5 0x6970667358 0x22 SLT KECCAK256 0x4B 0xD5 0xD2 EXP PUSH11 0xB90558ADBCC50D5D8979F9 0x2F DUP8 SELFDESTRUCT 0xAA 0x2C MSTORE BLOBBASEFEE 0xD MSTORE JUMPDEST 0x28 TIMESTAMP 0xA5 0xCA PUSH1 0xF2 PUSH5 0x736F6C6343 STOP ADDMOD NOT STOP CALLER LOG2 PUSH5 0x6970667358 0x22 SLT KECCAK256 PUSH5 0x2D0CAC1BF5 0xA5 DUP15 0xD3 POP 0xDC SWAP13 BLOBHASH SWAP8 0x4B PC BASEFEE 0xFC BYTE 0x4F REVERT SWAP2 0x25 0xD6 SMOD CALLDATALOAD DUP8 SHL 0xD BLOBHASH 0x2A DUP12 PUSH5 0x736F6C6343 STOP ADDMOD NOT STOP CALLER "
		},
		"gasEstimates": {
			"creation": {
				"codeDepositCost": "1965400",
				"executionCost": "infinite",
				"totalCost": "infinite"
			},
			"external": {
				"buyFromPresale(uint256)": "infinite",
				"factory()": "2425",
				"founderAddress()": "2448",
				"founderPoolAllocation()": "2351",
				"founderPresaleAllocation()": "2396",
				"founderStakingPoolAllocation()": "2330",
				"founderSupplyAllocation()": "2372",
				"hardcapHitBlock()": "2416",
				"launchToken()": "infinite",
				"maxFounderAllocation()": "2439",
				"maxPresaleContribution()": "2415",
				"minPresaleContribution()": "2394",
				"owner()": "2442",
				"poolLaunchDelayBlocks()": "2329",
				"poolTokenSupply()": "2372",
				"presaleBalance()": "2373",
				"presaleHardcap()": "2350",
				"presaleLaunchpad()": "2354",
				"presaleLengthBlocks()": "2417",
				"presaleLive()": "2453",
				"presaleMaxThreshold()": "2438",
				"presaleMinThreshold()": "2394",
				"presaleOver()": "2454",
				"presaleSoftcap()": "2373",
				"presaleStartTime()": "2350",
				"presaleTokenSupply()": "2394",
				"renounceOwnership()": "infinite",
				"setFounderAllocations(uint256,uint256,uint256,uint256)": "infinite",
				"setPoolLaunchDelay(uint256)": "25630",
				"setPresaleLive()": "61164",
				"setPresaleStartTime(uint256)": "25687",
				"setSoftcapTimerBlocks(uint256)": "25672",
				"softcapBufferBlocks()": "2329",
				"softcapHit()": "2399",
				"softcapHitBlock()": "2352",
				"softcapTimerBlocks()": "2373",
				"stakingContract()": "2402",
				"stakingPoolAllocation()": "2393",
				"tokenAddress()": "2470",
				"tokenName()": "infinite",
				"tokenSupply()": "2372",
				"tokenSymbol()": "infinite",
				"transferOwnership(address)": "infinite",
				"uniswapFactory()": "2404",
				"uniswapFactoryAddress()": "2493",
				"uniswapRouter()": "2426",
				"uniswapRouterAddress()": "2449",
				"uniswapTokenPair()": "2469",
				"weth()": "2404",
				"withdrawETHFromClosedPresale()": "infinite",
				"withdrawTokensFromClosedPresale()": "infinite",
				"withdrawalOpen()": "2432"
			}
		},
		"methodIdentifiers": {
			"buyFromPresale(uint256)": "182ccd6f",
			"factory()": "c45a0155",
			"founderAddress()": "46bb2833",
			"founderPoolAllocation()": "4ebd0ee4",
			"founderPresaleAllocation()": "3d42e94d",
			"founderStakingPoolAllocation()": "027df6d2",
			"founderSupplyAllocation()": "e6b75b2a",
			"hardcapHitBlock()": "c5fa27b7",
			"launchToken()": "a28a4d86",
			"maxFounderAllocation()": "9ec8e0b5",
			"maxPresaleContribution()": "fa095e2e",
			"minPresaleContribution()": "d41d71a6",
			"owner()": "8da5cb5b",
			"poolLaunchDelayBlocks()": "4dce051f",
			"poolTokenSupply()": "cd96f5d1",
			"presaleBalance()": "8d3974b2",
			"presaleHardcap()": "cba25e79",
			"presaleLaunchpad()": "c7961902",
			"presaleLengthBlocks()": "61c7ab41",
			"presaleLive()": "83a9e049",
			"presaleMaxThreshold()": "dba12eb3",
			"presaleMinThreshold()": "ec79fa14",
			"presaleOver()": "4738a883",
			"presaleSoftcap()": "4edfe325",
			"presaleStartTime()": "a82524b2",
			"presaleTokenSupply()": "c4fc3a3b",
			"renounceOwnership()": "715018a6",
			"setFounderAllocations(uint256,uint256,uint256,uint256)": "3969a9ce",
			"setPoolLaunchDelay(uint256)": "e1b83e3c",
			"setPresaleLive()": "a49102d7",
			"setPresaleStartTime(uint256)": "296cab55",
			"setSoftcapTimerBlocks(uint256)": "5b0d8927",
			"softcapBufferBlocks()": "86fe4302",
			"softcapHit()": "a41518bf",
			"softcapHitBlock()": "36bc180c",
			"softcapTimerBlocks()": "4661e71d",
			"stakingContract()": "ee99205c",
			"stakingPoolAllocation()": "f7817dae",
			"tokenAddress()": "9d76ea58",
			"tokenName()": "6c02a931",
			"tokenSupply()": "7824407f",
			"tokenSymbol()": "7b61c320",
			"transferOwnership(address)": "f2fde38b",
			"uniswapFactory()": "8bdb2afa",
			"uniswapFactoryAddress()": "3655ac3c",
			"uniswapRouter()": "735de9f7",
			"uniswapRouterAddress()": "20ca3c7f",
			"uniswapTokenPair()": "d7236943",
			"weth()": "3fc8cef3",
			"withdrawETHFromClosedPresale()": "77a21790",
			"withdrawTokensFromClosedPresale()": "162fe42b",
			"withdrawalOpen()": "7757fc5d"
		}
	},
	"abi": [
		{
			"inputs": [
				{
					"internalType": "string",
					"name": "_name",
					"type": "string"
				},
				{
					"internalType": "string",
					"name": "_symbol",
					"type": "string"
				},
				{
					"internalType": "uint256",
					"name": "_totalSupply",
					"type": "uint256"
				},
				{
					"internalType": "bool",
					"name": "_presaleLaunchpad",
					"type": "bool"
				},
				{
					"internalType": "uint256",
					"name": "_presaleHardcap",
					"type": "uint256"
				},
				{
					"internalType": "uint256",
					"name": "_presaleSoftcap",
					"type": "uint256"
				},
				{
					"internalType": "uint256",
					"name": "_presaleLengthBlocks",
					"type": "uint256"
				},
				{
					"internalType": "uint256",
					"name": "_presaleMaxContribution",
					"type": "uint256"
				},
				{
					"internalType": "uint256",
					"name": "_presaleMinContribution",
					"type": "uint256"
				},
				{
					"internalType": "uint256",
					"name": "_founderSupplyAllocation",
					"type": "uint256"
				}
			],
			"stateMutability": "nonpayable",
			"type": "constructor"
		},
		{
			"inputs": [
				{
					"internalType": "address",
					"name": "owner",
					"type": "address"
				}
			],
			"name": "OwnableInvalidOwner",
			"type": "error"
		},
		{
			"inputs": [
				{
					"internalType": "address",
					"name": "account",
					"type": "address"
				}
			],
			"name": "OwnableUnauthorizedAccount",
			"type": "error"
		},
		{
			"anonymous": false,
			"inputs": [
				{
					"indexed": true,
					"internalType": "address",
					"name": "tokenAddress",
					"type": "address"
				},
				{
					"indexed": false,
					"internalType": "string",
					"name": "name",
					"type": "string"
				},
				{
					"indexed": false,
					"internalType": "string",
					"name": "symbol",
					"type": "string"
				},
				{
					"indexed": false,
					"internalType": "uint256",
					"name": "initialSupply",
					"type": "uint256"
				}
			],
			"name": "ERC20Deployed",
			"type": "event"
		},
		{
			"anonymous": false,
			"inputs": [
				{
					"indexed": false,
					"internalType": "uint256",
					"name": "personalAllocation",
					"type": "uint256"
				},
				{
					"indexed": false,
					"internalType": "uint256",
					"name": "extraPresaleAllocation",
					"type": "uint256"
				},
				{
					"indexed": false,
					"internalType": "uint256",
					"name": "extraPoolAllocation",
					"type": "uint256"
				},
				{
					"indexed": false,
					"internalType": "uint256",
					"name": "extraStakingPoolAllocation",
					"type": "uint256"
				}
			],
			"name": "FounderAllocationsSet",
			"type": "event"
		},
		{
			"anonymous": false,
			"inputs": [
				{
					"indexed": true,
					"internalType": "address",
					"name": "pairAddress",
					"type": "address"
				},
				{
					"indexed": false,
					"internalType": "uint256",
					"name": "_weth",
					"type": "uint256"
				},
				{
					"indexed": false,
					"internalType": "uint256",
					"name": "_tokenSupply",
					"type": "uint256"
				},
				{
					"indexed": false,
					"internalType": "string",
					"name": "name",
					"type": "string"
				}
			],
			"name": "LiquidityPoolDeployed",
			"type": "event"
		},
		{
			"anonymous": false,
			"inputs": [
				{
					"indexed": true,
					"internalType": "address",
					"name": "previousOwner",
					"type": "address"
				},
				{
					"indexed": true,
					"internalType": "address",
					"name": "newOwner",
					"type": "address"
				}
			],
			"name": "OwnershipTransferred",
			"type": "event"
		},
		{
			"anonymous": false,
			"inputs": [
				{
					"indexed": false,
					"internalType": "uint256",
					"name": "newValue",
					"type": "uint256"
				}
			],
			"name": "PoolLaunchDelaySet",
			"type": "event"
		},
		{
			"anonymous": false,
			"inputs": [
				{
					"indexed": false,
					"internalType": "uint256",
					"name": "maxPresaleContribution",
					"type": "uint256"
				},
				{
					"indexed": false,
					"internalType": "uint256",
					"name": "minPresaleContribution",
					"type": "uint256"
				},
				{
					"indexed": false,
					"internalType": "uint256",
					"name": "presaleHardcap",
					"type": "uint256"
				},
				{
					"indexed": false,
					"internalType": "uint256",
					"name": "presaleSoftcap",
					"type": "uint256"
				}
			],
			"name": "PresaleOpened",
			"type": "event"
		},
		{
			"anonymous": false,
			"inputs": [
				{
					"indexed": false,
					"internalType": "uint256",
					"name": "newValue",
					"type": "uint256"
				}
			],
			"name": "PresaleStartTimeSet",
			"type": "event"
		},
		{
			"anonymous": false,
			"inputs": [
				{
					"indexed": false,
					"internalType": "uint256",
					"name": "newValue",
					"type": "uint256"
				}
			],
			"name": "SoftcapTimerBlocksSet",
			"type": "event"
		},
		{
			"inputs": [
				{
					"internalType": "uint256",
					"name": "_amount",
					"type": "uint256"
				}
			],
			"name": "buyFromPresale",
			"outputs": [],
			"stateMutability": "payable",
			"type": "function"
		},
		{
			"inputs": [],
			"name": "factory",
			"outputs": [
				{
					"internalType": "contract IFairLaunchFactoryV1",
					"name": "",
					"type": "address"
				}
			],
			"stateMutability": "view",
			"type": "function"
		},
		{
			"inputs": [],
			"name": "founderAddress",
			"outputs": [
				{
					"internalType": "address",
					"name": "",
					"type": "address"
				}
			],
			"stateMutability": "view",
			"type": "function"
		},
		{
			"inputs": [],
			"name": "founderPoolAllocation",
			"outputs": [
				{
					"internalType": "uint256",
					"name": "",
					"type": "uint256"
				}
			],
			"stateMutability": "view",
			"type": "function"
		},
		{
			"inputs": [],
			"name": "founderPresaleAllocation",
			"outputs": [
				{
					"internalType": "uint256",
					"name": "",
					"type": "uint256"
				}
			],
			"stateMutability": "view",
			"type": "function"
		},
		{
			"inputs": [],
			"name": "founderStakingPoolAllocation",
			"outputs": [
				{
					"internalType": "uint256",
					"name": "",
					"type": "uint256"
				}
			],
			"stateMutability": "view",
			"type": "function"
		},
		{
			"inputs": [],
			"name": "founderSupplyAllocation",
			"outputs": [
				{
					"internalType": "uint256",
					"name": "",
					"type": "uint256"
				}
			],
			"stateMutability": "view",
			"type": "function"
		},
		{
			"inputs": [],
			"name": "hardcapHitBlock",
			"outputs": [
				{
					"internalType": "uint256",
					"name": "",
					"type": "uint256"
				}
			],
			"stateMutability": "view",
			"type": "function"
		},
		{
			"inputs": [],
			"name": "launchToken",
			"outputs": [],
			"stateMutability": "nonpayable",
			"type": "function"
		},
		{
			"inputs": [],
			"name": "maxFounderAllocation",
			"outputs": [
				{
					"internalType": "uint256",
					"name": "",
					"type": "uint256"
				}
			],
			"stateMutability": "view",
			"type": "function"
		},
		{
			"inputs": [],
			"name": "maxPresaleContribution",
			"outputs": [
				{
					"internalType": "uint256",
					"name": "",
					"type": "uint256"
				}
			],
			"stateMutability": "view",
			"type": "function"
		},
		{
			"inputs": [],
			"name": "minPresaleContribution",
			"outputs": [
				{
					"internalType": "uint256",
					"name": "",
					"type": "uint256"
				}
			],
			"stateMutability": "view",
			"type": "function"
		},
		{
			"inputs": [],
			"name": "owner",
			"outputs": [
				{
					"internalType": "address",
					"name": "",
					"type": "address"
				}
			],
			"stateMutability": "view",
			"type": "function"
		},
		{
			"inputs": [],
			"name": "poolLaunchDelayBlocks",
			"outputs": [
				{
					"internalType": "uint256",
					"name": "",
					"type": "uint256"
				}
			],
			"stateMutability": "view",
			"type": "function"
		},
		{
			"inputs": [],
			"name": "poolTokenSupply",
			"outputs": [
				{
					"internalType": "uint256",
					"name": "",
					"type": "uint256"
				}
			],
			"stateMutability": "view",
			"type": "function"
		},
		{
			"inputs": [],
			"name": "presaleBalance",
			"outputs": [
				{
					"internalType": "uint256",
					"name": "",
					"type": "uint256"
				}
			],
			"stateMutability": "view",
			"type": "function"
		},
		{
			"inputs": [],
			"name": "presaleHardcap",
			"outputs": [
				{
					"internalType": "uint256",
					"name": "",
					"type": "uint256"
				}
			],
			"stateMutability": "view",
			"type": "function"
		},
		{
			"inputs": [],
			"name": "presaleLaunchpad",
			"outputs": [
				{
					"internalType": "bool",
					"name": "",
					"type": "bool"
				}
			],
			"stateMutability": "view",
			"type": "function"
		},
		{
			"inputs": [],
			"name": "presaleLengthBlocks",
			"outputs": [
				{
					"internalType": "uint256",
					"name": "",
					"type": "uint256"
				}
			],
			"stateMutability": "view",
			"type": "function"
		},
		{
			"inputs": [],
			"name": "presaleLive",
			"outputs": [
				{
					"internalType": "bool",
					"name": "",
					"type": "bool"
				}
			],
			"stateMutability": "view",
			"type": "function"
		},
		{
			"inputs": [],
			"name": "presaleMaxThreshold",
			"outputs": [
				{
					"internalType": "uint256",
					"name": "",
					"type": "uint256"
				}
			],
			"stateMutability": "view",
			"type": "function"
		},
		{
			"inputs": [],
			"name": "presaleMinThreshold",
			"outputs": [
				{
					"internalType": "uint256",
					"name": "",
					"type": "uint256"
				}
			],
			"stateMutability": "view",
			"type": "function"
		},
		{
			"inputs": [],
			"name": "presaleOver",
			"outputs": [
				{
					"internalType": "bool",
					"name": "",
					"type": "bool"
				}
			],
			"stateMutability": "view",
			"type": "function"
		},
		{
			"inputs": [],
			"name": "presaleSoftcap",
			"outputs": [
				{
					"internalType": "uint256",
					"name": "",
					"type": "uint256"
				}
			],
			"stateMutability": "view",
			"type": "function"
		},
		{
			"inputs": [],
			"name": "presaleStartTime",
			"outputs": [
				{
					"internalType": "uint256",
					"name": "",
					"type": "uint256"
				}
			],
			"stateMutability": "view",
			"type": "function"
		},
		{
			"inputs": [],
			"name": "presaleTokenSupply",
			"outputs": [
				{
					"internalType": "uint256",
					"name": "",
					"type": "uint256"
				}
			],
			"stateMutability": "view",
			"type": "function"
		},
		{
			"inputs": [],
			"name": "renounceOwnership",
			"outputs": [],
			"stateMutability": "nonpayable",
			"type": "function"
		},
		{
			"inputs": [
				{
					"internalType": "uint256",
					"name": "_founderSupplyAllocation",
					"type": "uint256"
				},
				{
					"internalType": "uint256",
					"name": "_founderPresaleAllocation",
					"type": "uint256"
				},
				{
					"internalType": "uint256",
					"name": "_founderPoolAllocation",
					"type": "uint256"
				},
				{
					"internalType": "uint256",
					"name": "_founderStakingPoolAllocation",
					"type": "uint256"
				}
			],
			"name": "setFounderAllocations",
			"outputs": [],
			"stateMutability": "nonpayable",
			"type": "function"
		},
		{
			"inputs": [
				{
					"internalType": "uint256",
					"name": "_val",
					"type": "uint256"
				}
			],
			"name": "setPoolLaunchDelay",
			"outputs": [],
			"stateMutability": "nonpayable",
			"type": "function"
		},
		{
			"inputs": [],
			"name": "setPresaleLive",
			"outputs": [],
			"stateMutability": "nonpayable",
			"type": "function"
		},
		{
			"inputs": [
				{
					"internalType": "uint256",
					"name": "_val",
					"type": "uint256"
				}
			],
			"name": "setPresaleStartTime",
			"outputs": [],
			"stateMutability": "nonpayable",
			"type": "function"
		},
		{
			"inputs": [
				{
					"internalType": "uint256",
					"name": "_val",
					"type": "uint256"
				}
			],
			"name": "setSoftcapTimerBlocks",
			"outputs": [],
			"stateMutability": "nonpayable",
			"type": "function"
		},
		{
			"inputs": [],
			"name": "softcapBufferBlocks",
			"outputs": [
				{
					"internalType": "uint256",
					"name": "",
					"type": "uint256"
				}
			],
			"stateMutability": "view",
			"type": "function"
		},
		{
			"inputs": [],
			"name": "softcapHit",
			"outputs": [
				{
					"internalType": "bool",
					"name": "",
					"type": "bool"
				}
			],
			"stateMutability": "view",
			"type": "function"
		},
		{
			"inputs": [],
			"name": "softcapHitBlock",
			"outputs": [
				{
					"internalType": "uint256",
					"name": "",
					"type": "uint256"
				}
			],
			"stateMutability": "view",
			"type": "function"
		},
		{
			"inputs": [],
			"name": "softcapTimerBlocks",
			"outputs": [
				{
					"internalType": "uint256",
					"name": "",
					"type": "uint256"
				}
			],
			"stateMutability": "view",
			"type": "function"
		},
		{
			"inputs": [],
			"name": "stakingContract",
			"outputs": [
				{
					"internalType": "address",
					"name": "",
					"type": "address"
				}
			],
			"stateMutability": "view",
			"type": "function"
		},
		{
			"inputs": [],
			"name": "stakingPoolAllocation",
			"outputs": [
				{
					"internalType": "uint256",
					"name": "",
					"type": "uint256"
				}
			],
			"stateMutability": "view",
			"type": "function"
		},
		{
			"inputs": [],
			"name": "tokenAddress",
			"outputs": [
				{
					"internalType": "address",
					"name": "",
					"type": "address"
				}
			],
			"stateMutability": "view",
			"type": "function"
		},
		{
			"inputs": [],
			"name": "tokenName",
			"outputs": [
				{
					"internalType": "string",
					"name": "",
					"type": "string"
				}
			],
			"stateMutability": "view",
			"type": "function"
		},
		{
			"inputs": [],
			"name": "tokenSupply",
			"outputs": [
				{
					"internalType": "uint256",
					"name": "",
					"type": "uint256"
				}
			],
			"stateMutability": "view",
			"type": "function"
		},
		{
			"inputs": [],
			"name": "tokenSymbol",
			"outputs": [
				{
					"internalType": "string",
					"name": "",
					"type": "string"
				}
			],
			"stateMutability": "view",
			"type": "function"
		},
		{
			"inputs": [
				{
					"internalType": "address",
					"name": "newOwner",
					"type": "address"
				}
			],
			"name": "transferOwnership",
			"outputs": [],
			"stateMutability": "nonpayable",
			"type": "function"
		},
		{
			"inputs": [],
			"name": "uniswapFactory",
			"outputs": [
				{
					"internalType": "contract IUniswapV2Factory",
					"name": "",
					"type": "address"
				}
			],
			"stateMutability": "view",
			"type": "function"
		},
		{
			"inputs": [],
			"name": "uniswapFactoryAddress",
			"outputs": [
				{
					"internalType": "address",
					"name": "",
					"type": "address"
				}
			],
			"stateMutability": "view",
			"type": "function"
		},
		{
			"inputs": [],
			"name": "uniswapRouter",
			"outputs": [
				{
					"internalType": "contract IUniswapV2Router02",
					"name": "",
					"type": "address"
				}
			],
			"stateMutability": "view",
			"type": "function"
		},
		{
			"inputs": [],
			"name": "uniswapRouterAddress",
			"outputs": [
				{
					"internalType": "address",
					"name": "",
					"type": "address"
				}
			],
			"stateMutability": "view",
			"type": "function"
		},
		{
			"inputs": [],
			"name": "uniswapTokenPair",
			"outputs": [
				{
					"internalType": "address",
					"name": "",
					"type": "address"
				}
			],
			"stateMutability": "view",
			"type": "function"
		},
		{
			"inputs": [],
			"name": "weth",
			"outputs": [
				{
					"internalType": "address",
					"name": "",
					"type": "address"
				}
			],
			"stateMutability": "view",
			"type": "function"
		},
		{
			"inputs": [],
			"name": "withdrawETHFromClosedPresale",
			"outputs": [],
			"stateMutability": "payable",
			"type": "function"
		},
		{
			"inputs": [],
			"name": "withdrawTokensFromClosedPresale",
			"outputs": [],
			"stateMutability": "nonpayable",
			"type": "function"
		},
		{
			"inputs": [],
			"name": "withdrawalOpen",
			"outputs": [
				{
					"internalType": "bool",
					"name": "",
					"type": "bool"
				}
			],
			"stateMutability": "view",
			"type": "function"
		}
	]
}