{
	"data": {
		"bytecode": {
			"linkReferences": {},
			"object": "60806040526008805460ff19169055348015610019575f80fd5b50604051613fcf380380613fcf83398101604081905261003891610123565b338061005d57604051631e4fbdf760e01b81525f600482015260240160405180910390fd5b610066816100b9565b5060018055600294909455600392909255600480546001600160a01b039283166001600160a01b031991821617909155600680549383169382169390931790925560058054919093169116179055610176565b5f80546001600160a01b038381166001600160a01b0319831681178455604051919092169283917f8be0079c531659141344cd1fd0a4f28419497f9722a3daafe3b4186f6b6457e09190a35050565b80516001600160a01b038116811461011e575f80fd5b919050565b5f805f805f60a08688031215610137575f80fd5b855194506020860151935061014e60408701610108565b925061015c60608701610108565b915061016a60808701610108565b90509295509295909350565b613e4c806101835f395ff3fe608060405260043610610147575f3560e01c80638da5cb5b116100b3578063d8eba8921161006d578063d8eba892146103c2578063e1ee981a146103ed578063ee99205c14610402578063f06fafb614610421578063f1a74b551461044f578063f2fde38b14610462575f80fd5b80638da5cb5b1461030257806396b372771461031e57806397f6c25d1461033d5780639dd373b91461035c578063a4b7914e1461037b578063d2c3bb3c146103a9575f80fd5b80634fa7131c116101045780634fa7131c1461025057806353cbd07e146102645780636286116a1461029b578063715018a6146102b0578063742e0109146102c457806382b3aa08146102e3575f80fd5b806303545f6a1461014b5780631516def71461016c57806318b7d5ed146101a85780631d16aeae146101cb57806322022de6146102125780633ee014a714610231575b5f80fd5b348015610156575f80fd5b5061016a610165366004610db5565b610481565b005b348015610177575f80fd5b5060055461018b906001600160a01b031681565b6040516001600160a01b0390911681526020015b60405180910390f35b3480156101b3575f80fd5b506101bd60035481565b60405190815260200161019f565b3480156101d6575f80fd5b506102026101e5366004610de7565b6001600160a01b03165f9081526009602052604090205460ff1690565b604051901515815260200161019f565b34801561021d575f80fd5b506101bd61022c366004610de7565b6104f0565b34801561023c575f80fd5b5061016a61024b366004610db5565b61052e565b34801561025b575f80fd5b5061016a61058d565b34801561026f575f80fd5b5061020261027e366004610de7565b6001600160a01b03165f908152600b602052604090205460ff1690565b3480156102a6575f80fd5b506101bd60025481565b3480156102bb575f80fd5b5061016a61063a565b3480156102cf575f80fd5b5061016a6102de366004610e07565b61064d565b3480156102ee575f80fd5b5061016a6102fd366004610e8e565b610818565b34801561030d575f80fd5b505f546001600160a01b031661018b565b348015610329575f80fd5b5061016a610338366004610ea9565b610883565b348015610348575f80fd5b5060065461018b906001600160a01b031681565b348015610367575f80fd5b5061016a610376366004610de7565b6108fb565b348015610386575f80fd5b50610202610395366004610de7565b60096020525f908152604090205460ff1681565b3480156103b4575f80fd5b506008546102029060ff1681565b3480156103cd575f80fd5b506101bd6103dc366004610de7565b600a6020525f908152604090205481565b3480156103f8575f80fd5b506101bd60075481565b34801561040d575f80fd5b5060045461018b906001600160a01b031681565b34801561042c575f80fd5b5061020261043b366004610de7565b600b6020525f908152604090205460ff1681565b61016a61045d366004610f6e565b61096e565b34801561046d575f80fd5b5061016a61047c366004610de7565b610c97565b6005546001600160a01b031633146104b45760405162461bcd60e51b81526004016104ab9061101b565b60405180910390fd5b60028190556040518181527fda22880c1f65afce17bffacb7ce44c92e858ffe3cafdde2c868d665e177e1c2a906020015b60405180910390a150565b6001600160a01b0381165f9081526009602052604081205460ff16610513575f80fd5b506001600160a01b03165f908152600a602052604090205490565b6005546001600160a01b031633146105585760405162461bcd60e51b81526004016104ab9061101b565b60038190556040518181527ffdcd0f66eaa2e719ee1658b24c03a47e554452908214404eeb08645fc5b367af906020016104e5565b6005546001600160a01b031633146105b75760405162461bcd60e51b81526004016104ab9061101b565b5f546001600160a01b031633146105cc575f80fd5b60055460405147916001600160a01b03169082156108fc029083905f818181858888f19350505050158015610603573d5f803e3d5ffd5b5060408051338152602081018390527f86c5cdb1503b10fd219532fee58c15840be7d568011c0293753e8f221191152e91016104e5565b610642610cd4565b61064b5f610d00565b565b6005546001600160a01b031633146106775760405162461bcd60e51b81526004016104ab9061101b565b5f546001600160a01b0316331461068c575f80fd5b5f5b81811015610813575f8383838181106106a9576106a9611067565b90506020020160208101906106be9190610de7565b6040516370a0823160e01b81523060048201529091505f906001600160a01b038316906370a0823190602401602060405180830381865afa158015610705573d5f803e3d5ffd5b505050506040513d601f19601f82011682018060405250810190610729919061107b565b60055460405163a9059cbb60e01b81526001600160a01b0391821660048201526024810183905291925083169063a9059cbb906044016020604051808303815f875af115801561077b573d5f803e3d5ffd5b505050506040513d601f19601f8201168201806040525081019061079f9190611092565b508484848181106107b2576107b2611067565b90506020020160208101906107c79190610de7565b6001600160a01b03167fa56a5a17349ca1a0eef2a197903cbbff0d04dd25bf2ef1a721ff10eb1b8ec73c8260405161080191815260200190565b60405180910390a2505060010161068e565b505050565b6005546001600160a01b031633146108425760405162461bcd60e51b81526004016104ab9061101b565b6008805460ff19168215159081179091556040519081527fbb66a70be412f0767b2216b1c39e5e5c3f1a49fea18ebccfeb565f352805fcc7906020016104e5565b335f908152600b602052604090205460ff1615156001146108a2575f80fd5b6001600160a01b0382165f818152600960209081526040808320805460ff19166001179055600a909152808220849055517f393014302eb5aa93ea9465c0762de1444d7f4377a0b192a5e021d92fd8d881d79190a25050565b6005546001600160a01b031633146109255760405162461bcd60e51b81526004016104ab9061101b565b600480546001600160a01b0319166001600160a01b0383169081179091556040517f1253844b0fff3da7dd2829de816c9b4f94c238cf2bf6eb72c02c7d6f2b53beac905f90a250565b610976610d4f565b60085460ff16610984575f80fd5b6003543414610991575f80fd5b5f6103e86109a08a60326110c1565b6109aa91906110de565b90505f620f42406109bc8b60326110c1565b6109c691906110de565b90505f6103e86109d78c60196110c1565b6109e191906110de565b905082861115610a4c5760405162461bcd60e51b815260206004820152603060248201527f4d61782070726573616c6520636f6e747269627574696f6e2061626f7665206160448201526f18d8d95c1d195908094d481b1a5b5a5d60821b60648201526084016104ab565b81851115610ab85760405162461bcd60e51b815260206004820152603360248201527f4d61782070726573616c6520636f6e747269627574696f6e2062656c6f77206160448201527218d8d95c1d195908094b8c0c0d481b1a5b5a5d606a1b60648201526084016104ab565b80841115610b245760405162461bcd60e51b815260206004820152603360248201527f466f756e64657220737570706c7920616c6c6f636174696f6e2061626f7665206044820152721858d8d95c1d1959080c8b8d49481b1a5b5a5d606a1b60648201526084016104ab565b6618c2e7081226c98710610b36575f80fd5b653f63971ee6c98910610b47575f80fd5b653f63971ee6c98810610b58575f80fd5b5f8d8d8d8d8d8d8d8d8d8d604051610b6f90610da8565b610b829a9998979695949392919061112b565b604051809103905ff080158015610b9b573d5f803e3d5ffd5b5060405163f2fde38b60e01b81523360048201529091506001600160a01b0382169063f2fde38b906024015f604051808303815f87803b158015610bdd575f80fd5b505af1158015610bef573d5f803e3d5ffd5b5050506001600160a01b0382165f908152600b60205260408120805460ff19166001908117909155600780549193509190610c2b908490611194565b9091555050600754604080518c8152602081018c9052338183015290516001600160a01b038416917f5494683ee1849b1bc19e83430e6ce813a9c3616e0b27e8051c945a87f87693fa919081900360600190a350505050610c8b60018055565b50505050505050505050565b610c9f610cd4565b6001600160a01b038116610cc857604051631e4fbdf760e01b81525f60048201526024016104ab565b610cd181610d00565b50565b5f546001600160a01b0316331461064b5760405163118cdaa760e01b81523360048201526024016104ab565b5f80546001600160a01b038381166001600160a01b0319831681178455604051919092169283917f8be0079c531659141344cd1fd0a4f28419497f9722a3daafe3b4186f6b6457e09190a35050565b600260015403610da15760405162461bcd60e51b815260206004820152601f60248201527f5265656e7472616e637947756172643a207265656e7472616e742063616c6c0060448201526064016104ab565b6002600155565b612c6f806111a883390190565b5f60208284031215610dc5575f80fd5b5035919050565b80356001600160a01b0381168114610de2575f80fd5b919050565b5f60208284031215610df7575f80fd5b610e0082610dcc565b9392505050565b5f8060208385031215610e18575f80fd5b823567ffffffffffffffff80821115610e2f575f80fd5b818501915085601f830112610e42575f80fd5b813581811115610e50575f80fd5b8660208260051b8501011115610e64575f80fd5b60209290920196919550909350505050565b8015158114610cd1575f80fd5b8035610de281610e76565b5f60208284031215610e9e575f80fd5b8135610e0081610e76565b5f8060408385031215610eba575f80fd5b610ec383610dcc565b946020939093013593505050565b634e487b7160e01b5f52604160045260245ffd5b5f82601f830112610ef4575f80fd5b813567ffffffffffffffff80821115610f0f57610f0f610ed1565b604051601f8301601f19908116603f01168101908282118183101715610f3757610f37610ed1565b81604052838152866020858801011115610f4f575f80fd5b836020870160208301375f602085830101528094505050505092915050565b5f805f805f805f805f806101408b8d031215610f88575f80fd5b8a3567ffffffffffffffff80821115610f9f575f80fd5b610fab8e838f01610ee5565b9b5060208d0135915080821115610fc0575f80fd5b50610fcd8d828e01610ee5565b99505060408b01359750610fe360608c01610e83565b999c989b50969960808101359860a0820135985060c0820135975060e082013596506101008201359550610120909101359350915050565b6020808252602c908201527f4f6e6c79206d756c746953696720616464726573732063616e2063616c6c207460408201526b3434b990333ab731ba34b7b760a11b606082015260800190565b634e487b7160e01b5f52603260045260245ffd5b5f6020828403121561108b575f80fd5b5051919050565b5f602082840312156110a2575f80fd5b8151610e0081610e76565b634e487b7160e01b5f52601160045260245ffd5b80820281158282048414176110d8576110d86110ad565b92915050565b5f826110f857634e487b7160e01b5f52601260045260245ffd5b500490565b5f81518084528060208401602086015e5f602082860101526020601f19601f83011685010191505092915050565b5f61014080835261113e8184018e6110fd565b90508281036020840152611152818d6110fd565b604084019b909b5250509615156060880152608087019590955260a086019390935260c085019190915260e08401526101008301526101209091015292915050565b808201808211156110d8576110d86110ad56fe6080604052600b805460456001600160a01b03199182168117909255600c805490911690911790556016805463ffffff00191690556004546103e890610046906032610376565b610050919061039f565b601b55620f424060045460326100669190610376565b610070919061039f565b601c556103e860045460196100859190610376565b61008f919061039f565b601d55626a59606025553480156100a4575f80fd5b50604051612c6f380380612c6f8339810160408190526100c39161046e565b60015f5533806100ed57604051631e4fbdf760e01b81525f60048201526024015b60405180910390fd5b6100f681610325565b50601b548311156101625760405162461bcd60e51b815260206004820152603060248201527f4d61782070726573616c6520636f6e747269627574696f6e2061626f7665206160448201526f18d8d95c1d195908094d481b1a5b5a5d60821b60648201526084016100e4565b601c548211156101da5760405162461bcd60e51b815260206004820152603360248201527f4d61782070726573616c6520636f6e747269627574696f6e2062656c6f77206160448201527f6363657074656420252e303035206c696d69740000000000000000000000000060648201526084016100e4565b601d548111156102525760405162461bcd60e51b815260206004820152603360248201527f466f756e64657220737570706c7920616c6c6f636174696f6e2061626f76652060448201527f616363657074656420322e3525206c696d69740000000000000000000000000060648201526084016100e4565b6618c2e7081226c98410610264575f80fd5b653f63971ee6c98610610275575f80fd5b653f63971ee6c98510610286575f80fd5b60026102928b826105a3565b50600488905560036102a48a826105a3565b506016805460ff191697151597909717909655601991909155601a55601891909155601791909155601e55601255505060068054336001600160a01b03199182168117909255600b54600d80546001600160a01b03928316908416179055600c54600e80549190921690831617905560078054909116909117905550610662565b600180546001600160a01b038381166001600160a01b0319831681179093556040519116919082907f8be0079c531659141344cd1fd0a4f28419497f9722a3daafe3b4186f6b6457e0905f90a35050565b808202811582820484141761039957634e487b7160e01b5f52601160045260245ffd5b92915050565b5f826103b957634e487b7160e01b5f52601260045260245ffd5b500490565b634e487b7160e01b5f52604160045260245ffd5b5f82601f8301126103e1575f80fd5b81516001600160401b03808211156103fb576103fb6103be565b604051601f8301601f19908116603f01168101908282118183101715610423576104236103be565b8160405283815286602085880101111561043b575f80fd5b8360208701602083015e5f602085830101528094505050505092915050565b80518015158114610469575f80fd5b919050565b5f805f805f805f805f806101408b8d031215610488575f80fd5b8a516001600160401b038082111561049e575f80fd5b6104aa8e838f016103d2565b9b5060208d01519150808211156104bf575f80fd5b506104cc8d828e016103d2565b99505060408b015197506104e260608c0161045a565b965060808b0151955060a08b0151945060c08b0151935060e08b015192506101008b015191506101208b015190509295989b9194979a5092959850565b600181811c9082168061053357607f821691505b60208210810361055157634e487b7160e01b5f52602260045260245ffd5b50919050565b601f82111561059e57805f5260205f20601f840160051c8101602085101561057c5750805b601f840160051c820191505b8181101561059b575f8155600101610588565b50505b505050565b81516001600160401b038111156105bc576105bc6103be565b6105d0816105ca845461051f565b84610557565b602080601f831160018114610603575f84156105ec5750858301515b5f19600386901b1c1916600185901b17855561065a565b5f85815260208120601f198616915b8281101561063157888601518255948401946001909101908401610612565b508582101561064e57878501515f19600388901b60f8161c191681555b505060018460011b0185555b505050505050565b6126008061066f5f395ff3fe6080604052600436106102f3575f3560e01c806386fe430211610189578063c7961902116100d8578063e1b83e3c11610092578063ee99205c1161006d578063ee99205c146107cc578063f2fde38b146107eb578063f7817dae1461080a578063fa095e2e1461081f575f80fd5b8063e1b83e3c14610783578063e6b75b2a146107a2578063ec79fa14146107b7575f80fd5b8063c7961902146106f7578063cba25e7914610710578063cd96f5d114610725578063d41d71a61461073a578063d72369431461074f578063dba12eb31461076e575f80fd5b8063a28a4d8611610143578063a82524b21161011e578063a82524b214610699578063c45a0155146106ae578063c4fc3a3b146106cd578063c5fa27b7146106e2575f80fd5b8063a28a4d8614610658578063a41518bf1461066c578063a49102d714610685575f80fd5b806386fe4302146105be5780638bdb2afa146105d35780638d3974b2146105f25780638da5cb5b146106075780639d76ea58146106245780639ec8e0b514610643575f80fd5b80634dce051f11610245578063715018a6116101ff57806377a21790116101da57806377a217901461056f5780637824407f146105775780637b61c3201461058c57806383a9e049146105a0575f80fd5b8063715018a61461051c578063735de9f7146105305780637757fc5d1461054f575f80fd5b80634dce051f146104885780634ebd0ee41461049d5780634edfe325146104b25780635b0d8927146104c757806361c7ab41146104e65780636c02a931146104fb575f80fd5b806336bc180c116102b05780633fc8cef31161028b5780633fc8cef3146104065780634661e71d1461042557806346bb28331461043a5780634738a88314610459575f80fd5b806336bc180c146103bd5780633969a9ce146103d25780633d42e94d146103f1575f80fd5b8063027df6d2146102f7578063162fe42b1461031f578063182ccd6f1461033557806320ca3c7f14610348578063296cab551461037f5780633655ac3c1461039e575b5f80fd5b348015610302575f80fd5b5061030c60155481565b6040519081526020015b60405180910390f35b34801561032a575f80fd5b50610333610834565b005b61033361034336600461166d565b610952565b348015610353575f80fd5b50600b54610367906001600160a01b031681565b6040516001600160a01b039091168152602001610316565b34801561038a575f80fd5b5061033361039936600461166d565b610a5a565b3480156103a9575f80fd5b50600c54610367906001600160a01b031681565b3480156103c8575f80fd5b5061030c60225481565b3480156103dd575f80fd5b506103336103ec366004611684565b610a9e565b3480156103fc575f80fd5b5061030c60135481565b348015610411575f80fd5b50600a54610367906001600160a01b031681565b348015610430575f80fd5b5061030c60205481565b348015610445575f80fd5b50600654610367906001600160a01b031681565b348015610464575f80fd5b506016546104789062010000900460ff1681565b6040519015158152602001610316565b348015610493575f80fd5b5061030c601f5481565b3480156104a8575f80fd5b5061030c60145481565b3480156104bd575f80fd5b5061030c60185481565b3480156104d2575f80fd5b506103336104e136600461166d565b610bae565b3480156104f1575f80fd5b5061030c601e5481565b348015610506575f80fd5b5061050f610be9565b60405161031691906116b3565b348015610527575f80fd5b50610333610c75565b34801561053b575f80fd5b50600d54610367906001600160a01b031681565b34801561055a575f80fd5b50601654610478906301000000900460ff1681565b610333610c86565b348015610582575f80fd5b5061030c60045481565b348015610597575f80fd5b5061050f610d68565b3480156105ab575f80fd5b5060165461047890610100900460ff1681565b3480156105c9575f80fd5b5061030c60255481565b3480156105de575f80fd5b50600e54610367906001600160a01b031681565b3480156105fd575f80fd5b5061030c60285481565b348015610612575f80fd5b506001546001600160a01b0316610367565b34801561062f575f80fd5b50600554610367906001600160a01b031681565b34801561064e575f80fd5b5061030c601d5481565b348015610663575f80fd5b50610333610d75565b348015610677575f80fd5b506023546104789060ff1681565b348015610690575f80fd5b50610333611494565b3480156106a4575f80fd5b5061030c60215481565b3480156106b9575f80fd5b50600754610367906001600160a01b031681565b3480156106d8575f80fd5b5061030c600f5481565b3480156106ed575f80fd5b5061030c60245481565b348015610702575f80fd5b506016546104789060ff1681565b34801561071b575f80fd5b5061030c60175481565b348015610730575f80fd5b5061030c60105481565b348015610745575f80fd5b5061030c601a5481565b34801561075a575f80fd5b50600954610367906001600160a01b031681565b348015610779575f80fd5b5061030c601b5481565b34801561078e575f80fd5b5061033361079d36600461166d565b61150f565b3480156107ad575f80fd5b5061030c60125481565b3480156107c2575f80fd5b5061030c601c5481565b3480156107d7575f80fd5b50600854610367906001600160a01b031681565b3480156107f6575f80fd5b506103336108053660046116fc565b61154c565b348015610815575f80fd5b5061030c60115481565b34801561082a575f80fd5b5061030c60195481565b61083c61158b565b6005546001600160a01b0316610850575f80fd5b335f908152602660205260408120549003610869575f80fd5b6018546028541015610879575f80fd5b335f908152602660205260408120546028549091906108989083611732565b600f546108a59190611751565b335f8181526027602052604090819020805460ff19166001179055600554905163a9059cbb60e01b81529293506001600160a01b03169163a9059cbb916109049185906004016001600160a01b03929092168252602082015260400190565b6020604051808303815f875af1158015610920573d5f803e3d5ffd5b505050506040513d601f19601f82011682018060405250810190610944919061176e565b50505061095060015f55565b565b61095a61158b565b803414610965575f80fd5b601954335f90815260266020526040902054610981903461178d565b111561098b575f80fd5b601a548111610998575f80fd5b6017546028546109a8908361178d565b11156109b2575f80fd5b601654610100900460ff166109c5575f80fd5b6018546028546109d5908361178d565b101580156109e6575060235460ff16155b156109fd57436022556023805460ff191660011790555b601754602854610a0d908361178d565b03610a1757436024555b8060285f828254610a28919061178d565b9091555050335f9081526026602052604081208054839290610a4b90849061178d565b909155505060015f5550565b50565b610a626115e2565b60218190556040518181527fc2bdf2b17735ddedbe2ffc657fe8487f25f54889057ae72b1d5ac6ff1634eebb906020015b60405180910390a150565b610aa66115e2565b60165460ff16610ab4575f80fd5b601654610100900460ff16158015610ad4575060165462010000900460ff165b610adc575f80fd5b601d54841115610aea575f80fd5b601d54831115610af8575f80fd5b601d54821115610b06575f80fd5b601d54811115610b14575f80fd5b601d54610b22906002611751565b8183610b2e868861178d565b610b38919061178d565b610b42919061178d565b1115610b4c575f80fd5b60128490556013839055601482905560158190556040805185815260208101859052908101839052606081018290527f1307657c8e5ac9a807597ac0994b06aadc09dd69ec21b32cabf8d6fb26e4d7459060800160405180910390a150505050565b610bb66115e2565b60208181556040518281527fb2ce785ed4ac87ad9611f20cf068cd12359bdc59a42173a02a65911ec3cf49129101610a93565b60028054610bf6906117a0565b80601f0160208091040260200160405190810160405280929190818152602001828054610c22906117a0565b8015610c6d5780601f10610c4457610100808354040283529160200191610c6d565b820191905f5260205f20905b815481529060010190602001808311610c5057829003601f168201915b505050505081565b610c7d6115e2565b6109505f61160f565b610c8e61158b565b6005546001600160a01b031615610ca3575f80fd5b335f908152602660205260408120549003610cbc575f80fd5b601654610100900460ff16158015610cd75750602854601854105b610cdf575f80fd5b601e54610cec81436117d8565b10610cf5575f80fd5b335f9081526027602052604090205460ff1615610d10575f80fd5b335f818152602660209081526040808320546027909252808320805460ff191660011790555190929183156108fc02918491818181858888f19350505050158015610d5d573d5f803e3d5ffd5b505061095060015f55565b60038054610bf6906117a0565b610d7d61158b565b6001546001600160a01b0316331480610d98575060165460ff165b610da0575f80fd5b601854602854101580610db6575060165460ff16155b610dbe575f80fd5b626ac3e960225443610dd091906117d8565b10610dd9575f80fd5b5f60045460026003604051610ded90611660565b610df99392919061188a565b604051809103905ff080158015610e12573d5f803e3d5ffd5b50600580546001600160a01b0319166001600160a01b03831690811790915560045460405192935090917f2834c1f24c5bb06ff7e8e4e35c9d7ed57e05e6e1bd415efb78db926d58f25a2191610e6d916002916003916118be565b60405180910390a260065460125460405163a9059cbb60e01b81526001600160a01b03928316600482015260248101919091529082169063a9059cbb906044016020604051808303815f875af1158015610ec9573d5f803e3d5ffd5b505050506040513d601f19601f82011682018060405250810190610eed919061176e565b505f6015546103e86004546005610f049190611751565b610f0e9190611732565b610f18919061178d565b60085460405163a9059cbb60e01b81526001600160a01b0391821660048201526024810183905291925083169063a9059cbb906044016020604051808303815f875af1158015610f6a573d5f803e3d5ffd5b505050506040513d601f19601f82011682018060405250810190610f8e919061176e565b505f6103e86004546005610fa29190611751565b610fac9190611732565b60075460405163a9059cbb60e01b81526001600160a01b0391821660048201526024810183905291925084169063a9059cbb906044016020604051808303815f875af1158015610ffe573d5f803e3d5ffd5b505050506040513d601f19601f82011682018060405250810190611022919061176e565b506016805463ff0000001916630100000017905530315f6103e8611047836005611751565b6110519190611732565b6007546040519192506001600160a01b03169082156108fc029083905f818181858888f19350505050158015611089573d5f803e3d5ffd5b50600a5460408051630d0e30db60e41b81529051303194506001600160a01b039092169163d0e30db09147916004808301925f92919082900301818588803b1580156110d3575f80fd5b505af11580156110e5573d5f803e3d5ffd5b5050600d5460405163095ea7b360e01b81526001600160a01b0391821660048201525f196024820152908916935063095ea7b3925060440190506020604051808303815f875af115801561113b573d5f803e3d5ffd5b505050506040513d601f19601f8201168201806040525081019061115f919061176e565b50600a54600d5460405163095ea7b360e01b81526001600160a01b0391821660048201525f19602482015291169063095ea7b3906044016020604051808303815f875af11580156111b2573d5f803e3d5ffd5b505050506040513d601f19601f820116820180604052508101906111d6919061176e565b50600e54600554600a5460405163e6a4390560e01b81526001600160a01b03928316600482015290821660248201525f92919091169063e6a4390590604401602060405180830381865afa158015611230573d5f803e3d5ffd5b505050506040513d601f19601f8201168201806040525081019061125491906118f3565b90506001600160a01b03811661130357600e54600a546005546040516364e329cb60e11b81526001600160a01b039283166004820152908216602482015291169063c9c65396906044016020604051808303815f875af11580156112ba573d5f803e3d5ffd5b505050506040513d601f19601f820116820180604052508101906112de91906118f3565b600980546001600160a01b0319166001600160a01b039290921691909117905561131f565b600980546001600160a01b0319166001600160a01b0383161790555b600d54600554600a546010546040516370a0823160e01b81523060048201526001600160a01b039485169463e8e337009481169316919082906370a0823190602401602060405180830381865afa15801561137c573d5f803e3d5ffd5b505050506040513d601f19601f820116820180604052508101906113a0919061190e565b6040516001600160e01b031960e087901b1681526001600160a01b0394851660048201529390921660248401526044830152606482015260456084820181905260a48201525f60c48201524260e4820152610104016060604051808303815f875af1158015611411573d5f803e3d5ffd5b505050506040513d601f19601f820116820180604052508101906114359190611925565b50506009546010546040516001600160a01b0390921692507fa1c337bb22a2d8905c88f8d68029ac3f6d5c6c3f16cf5c1fe92efab88d11d7b89161147d918791600290611950565b60405180910390a250505050505061095060015f55565b61149c6115e2565b60215443116114a9575f80fd5b6016805461ff00191661010017905543602155601954601a546017546018546040805194855260208501939093529183015260608201527fb5a26c67c6983f7a6af7ef8bd10ca38dca0ff13d20cb55ff961a0fdb3629a2149060800160405180910390a1565b6115176115e2565b601f8190556040518181527f3cddbbd2901897ab7f5d7a62f3806aabd7aaee30ad5e014303f4e3899cdcb11790602001610a93565b6115546115e2565b6001600160a01b03811661158257604051631e4fbdf760e01b81525f60048201526024015b60405180910390fd5b610a578161160f565b60025f54036115dc5760405162461bcd60e51b815260206004820152601f60248201527f5265656e7472616e637947756172643a207265656e7472616e742063616c6c006044820152606401611579565b60025f55565b6001546001600160a01b031633146109505760405163118cdaa760e01b8152336004820152602401611579565b600180546001600160a01b038381166001600160a01b0319831681179093556040519116919082907f8be0079c531659141344cd1fd0a4f28419497f9722a3daafe3b4186f6b6457e0905f90a35050565b610c538061197883390190565b5f6020828403121561167d575f80fd5b5035919050565b5f805f8060808587031215611697575f80fd5b5050823594602084013594506040840135936060013592509050565b602081525f82518060208401528060208501604085015e5f604082850101526040601f19601f83011684010191505092915050565b6001600160a01b0381168114610a57575f80fd5b5f6020828403121561170c575f80fd5b8135611717816116e8565b9392505050565b634e487b7160e01b5f52601160045260245ffd5b5f8261174c57634e487b7160e01b5f52601260045260245ffd5b500490565b80820281158282048414176117685761176861171e565b92915050565b5f6020828403121561177e575f80fd5b81518015158114611717575f80fd5b808201808211156117685761176861171e565b600181811c908216806117b457607f821691505b6020821081036117d257634e487b7160e01b5f52602260045260245ffd5b50919050565b818103818111156117685761176861171e565b80545f90600181811c908083168061180457607f831692505b6020808410820361182357634e487b7160e01b5f52602260045260245ffd5b8388526020880182801561183e57600181146118545761187d565b60ff198716825285151560051b8201975061187d565b5f898152602090205f5b878110156118775781548482015290860190840161185e565b83019850505b5050505050505092915050565b838152606060208201525f6118a260608301856117eb565b82810360408401526118b481856117eb565b9695505050505050565b606081525f6118d060608301866117eb565b82810360208401526118e281866117eb565b915050826040830152949350505050565b5f60208284031215611903575f80fd5b8151611717816116e8565b5f6020828403121561191e575f80fd5b5051919050565b5f805f60608486031215611937575f80fd5b8351925060208401519150604084015190509250925092565b838152826020820152606060408201525f61196e60608301846117eb565b9594505050505056fe608060405234801561000f575f80fd5b50604051610c53380380610c5383398101604081905261002e91610284565b8181600361003c8382610370565b5060046100498282610370565b5050506100783361005e61008060201b60201c565b61006990600a610525565b610073908661053a565b610085565b505050610564565b601290565b6001600160a01b0382166100b35760405163ec442f0560e01b81525f60048201526024015b60405180910390fd5b6100be5f83836100c2565b5050565b6001600160a01b0383166100ec578060025f8282546100e19190610551565b9091555061015c9050565b6001600160a01b0383165f908152602081905260409020548181101561013e5760405163391434e360e21b81526001600160a01b038516600482015260248101829052604481018390526064016100aa565b6001600160a01b0384165f9081526020819052604090209082900390555b6001600160a01b03821661017857600280548290039055610196565b6001600160a01b0382165f9081526020819052604090208054820190555b816001600160a01b0316836001600160a01b03167fddf252ad1be2c89b69c2b068fc378daa952ba7f163c4a11628f55a4df523b3ef836040516101db91815260200190565b60405180910390a3505050565b634e487b7160e01b5f52604160045260245ffd5b5f82601f83011261020b575f80fd5b81516001600160401b0380821115610225576102256101e8565b604051601f8301601f19908116603f0116810190828211818310171561024d5761024d6101e8565b81604052838152866020858801011115610265575f80fd5b8360208701602083015e5f602085830101528094505050505092915050565b5f805f60608486031215610296575f80fd5b835160208501519093506001600160401b03808211156102b4575f80fd5b6102c0878388016101fc565b935060408601519150808211156102d5575f80fd5b506102e2868287016101fc565b9150509250925092565b600181811c9082168061030057607f821691505b60208210810361031e57634e487b7160e01b5f52602260045260245ffd5b50919050565b601f82111561036b57805f5260205f20601f840160051c810160208510156103495750805b601f840160051c820191505b81811015610368575f8155600101610355565b50505b505050565b81516001600160401b03811115610389576103896101e8565b61039d8161039784546102ec565b84610324565b602080601f8311600181146103d0575f84156103b95750858301515b5f19600386901b1c1916600185901b178555610427565b5f85815260208120601f198616915b828110156103fe578886015182559484019460019091019084016103df565b508582101561041b57878501515f19600388901b60f8161c191681555b505060018460011b0185555b505050505050565b634e487b7160e01b5f52601160045260245ffd5b600181815b8085111561047d57815f19048211156104635761046361042f565b8085161561047057918102915b93841c9390800290610448565b509250929050565b5f826104935750600161051f565b8161049f57505f61051f565b81600181146104b557600281146104bf576104db565b600191505061051f565b60ff8411156104d0576104d061042f565b50506001821b61051f565b5060208310610133831016604e8410600b84101617156104fe575081810a61051f565b6105088383610443565b805f190482111561051b5761051b61042f565b0290505b92915050565b5f61053360ff841683610485565b9392505050565b808202811582820484141761051f5761051f61042f565b8082018082111561051f5761051f61042f565b6106e2806105715f395ff3fe608060405234801561000f575f80fd5b5060043610610090575f3560e01c8063313ce56711610063578063313ce567146100fa57806370a082311461010957806395d89b4114610131578063a9059cbb14610139578063dd62ed3e1461014c575f80fd5b806306fdde0314610094578063095ea7b3146100b257806318160ddd146100d557806323b872dd146100e7575b5f80fd5b61009c610184565b6040516100a99190610553565b60405180910390f35b6100c56100c03660046105a3565b610214565b60405190151581526020016100a9565b6002545b6040519081526020016100a9565b6100c56100f53660046105cb565b61022d565b604051601281526020016100a9565b6100d9610117366004610604565b6001600160a01b03165f9081526020819052604090205490565b61009c610250565b6100c56101473660046105a3565b61025f565b6100d961015a366004610624565b6001600160a01b039182165f90815260016020908152604080832093909416825291909152205490565b60606003805461019390610655565b80601f01602080910402602001604051908101604052809291908181526020018280546101bf90610655565b801561020a5780601f106101e15761010080835404028352916020019161020a565b820191905f5260205f20905b8154815290600101906020018083116101ed57829003601f168201915b5050505050905090565b5f3361022181858561026c565b60019150505b92915050565b5f3361023a85828561027e565b6102458585856102fe565b506001949350505050565b60606004805461019390610655565b5f336102218185856102fe565b610279838383600161035b565b505050565b6001600160a01b038381165f908152600160209081526040808320938616835292905220545f1981146102f857818110156102ea57604051637dc7a0d960e11b81526001600160a01b038416600482015260248101829052604481018390526064015b60405180910390fd5b6102f884848484035f61035b565b50505050565b6001600160a01b03831661032757604051634b637e8f60e11b81525f60048201526024016102e1565b6001600160a01b0382166103505760405163ec442f0560e01b81525f60048201526024016102e1565b61027983838361042d565b6001600160a01b0384166103845760405163e602df0560e01b81525f60048201526024016102e1565b6001600160a01b0383166103ad57604051634a1406b160e11b81525f60048201526024016102e1565b6001600160a01b038085165f90815260016020908152604080832093871683529290522082905580156102f857826001600160a01b0316846001600160a01b03167f8c5be1e5ebec7d5bd14f71427d1e84f3dd0314c0f7b2291e5b200ac8c7c3b9258460405161041f91815260200190565b60405180910390a350505050565b6001600160a01b038316610457578060025f82825461044c919061068d565b909155506104c79050565b6001600160a01b0383165f90815260208190526040902054818110156104a95760405163391434e360e21b81526001600160a01b038516600482015260248101829052604481018390526064016102e1565b6001600160a01b0384165f9081526020819052604090209082900390555b6001600160a01b0382166104e357600280548290039055610501565b6001600160a01b0382165f9081526020819052604090208054820190555b816001600160a01b0316836001600160a01b03167fddf252ad1be2c89b69c2b068fc378daa952ba7f163c4a11628f55a4df523b3ef8360405161054691815260200190565b60405180910390a3505050565b602081525f82518060208401528060208501604085015e5f604082850101526040601f19601f83011684010191505092915050565b80356001600160a01b038116811461059e575f80fd5b919050565b5f80604083850312156105b4575f80fd5b6105bd83610588565b946020939093013593505050565b5f805f606084860312156105dd575f80fd5b6105e684610588565b92506105f460208501610588565b9150604084013590509250925092565b5f60208284031215610614575f80fd5b61061d82610588565b9392505050565b5f8060408385031215610635575f80fd5b61063e83610588565b915061064c60208401610588565b90509250929050565b600181811c9082168061066957607f821691505b60208210810361068757634e487b7160e01b5f52602260045260245ffd5b50919050565b8082018082111561022757634e487b7160e01b5f52601160045260245ffdfea26469706673582212204bd5d20a6ab90558adbcc50d5d8979f92f87ffaa2c524a0d525b2842a5ca60f264736f6c63430008190033a26469706673582212200fd9d87b16b80a0aabcaf697d2bab8dffb4411c24b703bdc53188b614bf1ac7664736f6c63430008190033a264697066735822122074262dc87bdda443017431b764f1d4ff435c54c60ad8a5fe47eda5f01600ed1364736f6c63430008190033",
			"opcodes": "PUSH1 0x80 PUSH1 0x40 MSTORE PUSH1 0x8 DUP1 SLOAD PUSH1 0xFF NOT AND SWAP1 SSTORE CALLVALUE DUP1 ISZERO PUSH2 0x19 JUMPI PUSH0 DUP1 REVERT JUMPDEST POP PUSH1 0x40 MLOAD PUSH2 0x3FCF CODESIZE SUB DUP1 PUSH2 0x3FCF DUP4 CODECOPY DUP2 ADD PUSH1 0x40 DUP2 SWAP1 MSTORE PUSH2 0x38 SWAP2 PUSH2 0x123 JUMP JUMPDEST CALLER DUP1 PUSH2 0x5D JUMPI PUSH1 0x40 MLOAD PUSH4 0x1E4FBDF7 PUSH1 0xE0 SHL DUP2 MSTORE PUSH0 PUSH1 0x4 DUP3 ADD MSTORE PUSH1 0x24 ADD PUSH1 0x40 MLOAD DUP1 SWAP2 SUB SWAP1 REVERT JUMPDEST PUSH2 0x66 DUP2 PUSH2 0xB9 JUMP JUMPDEST POP PUSH1 0x1 DUP1 SSTORE PUSH1 0x2 SWAP5 SWAP1 SWAP5 SSTORE PUSH1 0x3 SWAP3 SWAP1 SWAP3 SSTORE PUSH1 0x4 DUP1 SLOAD PUSH1 0x1 PUSH1 0x1 PUSH1 0xA0 SHL SUB SWAP3 DUP4 AND PUSH1 0x1 PUSH1 0x1 PUSH1 0xA0 SHL SUB NOT SWAP2 DUP3 AND OR SWAP1 SWAP2 SSTORE PUSH1 0x6 DUP1 SLOAD SWAP4 DUP4 AND SWAP4 DUP3 AND SWAP4 SWAP1 SWAP4 OR SWAP1 SWAP3 SSTORE PUSH1 0x5 DUP1 SLOAD SWAP2 SWAP1 SWAP4 AND SWAP2 AND OR SWAP1 SSTORE PUSH2 0x176 JUMP JUMPDEST PUSH0 DUP1 SLOAD PUSH1 0x1 PUSH1 0x1 PUSH1 0xA0 SHL SUB DUP4 DUP2 AND PUSH1 0x1 PUSH1 0x1 PUSH1 0xA0 SHL SUB NOT DUP4 AND DUP2 OR DUP5 SSTORE PUSH1 0x40 MLOAD SWAP2 SWAP1 SWAP3 AND SWAP3 DUP4 SWAP2 PUSH32 0x8BE0079C531659141344CD1FD0A4F28419497F9722A3DAAFE3B4186F6B6457E0 SWAP2 SWAP1 LOG3 POP POP JUMP JUMPDEST DUP1 MLOAD PUSH1 0x1 PUSH1 0x1 PUSH1 0xA0 SHL SUB DUP2 AND DUP2 EQ PUSH2 0x11E JUMPI PUSH0 DUP1 REVERT JUMPDEST SWAP2 SWAP1 POP JUMP JUMPDEST PUSH0 DUP1 PUSH0 DUP1 PUSH0 PUSH1 0xA0 DUP7 DUP9 SUB SLT ISZERO PUSH2 0x137 JUMPI PUSH0 DUP1 REVERT JUMPDEST DUP6 MLOAD SWAP5 POP PUSH1 0x20 DUP7 ADD MLOAD SWAP4 POP PUSH2 0x14E PUSH1 0x40 DUP8 ADD PUSH2 0x108 JUMP JUMPDEST SWAP3 POP PUSH2 0x15C PUSH1 0x60 DUP8 ADD PUSH2 0x108 JUMP JUMPDEST SWAP2 POP PUSH2 0x16A PUSH1 0x80 DUP8 ADD PUSH2 0x108 JUMP JUMPDEST SWAP1 POP SWAP3 SWAP6 POP SWAP3 SWAP6 SWAP1 SWAP4 POP JUMP JUMPDEST PUSH2 0x3E4C DUP1 PUSH2 0x183 PUSH0 CODECOPY PUSH0 RETURN INVALID PUSH1 0x80 PUSH1 0x40 MSTORE PUSH1 0x4 CALLDATASIZE LT PUSH2 0x147 JUMPI PUSH0 CALLDATALOAD PUSH1 0xE0 SHR DUP1 PUSH4 0x8DA5CB5B GT PUSH2 0xB3 JUMPI DUP1 PUSH4 0xD8EBA892 GT PUSH2 0x6D JUMPI DUP1 PUSH4 0xD8EBA892 EQ PUSH2 0x3C2 JUMPI DUP1 PUSH4 0xE1EE981A EQ PUSH2 0x3ED JUMPI DUP1 PUSH4 0xEE99205C EQ PUSH2 0x402 JUMPI DUP1 PUSH4 0xF06FAFB6 EQ PUSH2 0x421 JUMPI DUP1 PUSH4 0xF1A74B55 EQ PUSH2 0x44F JUMPI DUP1 PUSH4 0xF2FDE38B EQ PUSH2 0x462 JUMPI PUSH0 DUP1 REVERT JUMPDEST DUP1 PUSH4 0x8DA5CB5B EQ PUSH2 0x302 JUMPI DUP1 PUSH4 0x96B37277 EQ PUSH2 0x31E JUMPI DUP1 PUSH4 0x97F6C25D EQ PUSH2 0x33D JUMPI DUP1 PUSH4 0x9DD373B9 EQ PUSH2 0x35C JUMPI DUP1 PUSH4 0xA4B7914E EQ PUSH2 0x37B JUMPI DUP1 PUSH4 0xD2C3BB3C EQ PUSH2 0x3A9 JUMPI PUSH0 DUP1 REVERT JUMPDEST DUP1 PUSH4 0x4FA7131C GT PUSH2 0x104 JUMPI DUP1 PUSH4 0x4FA7131C EQ PUSH2 0x250 JUMPI DUP1 PUSH4 0x53CBD07E EQ PUSH2 0x264 JUMPI DUP1 PUSH4 0x6286116A EQ PUSH2 0x29B JUMPI DUP1 PUSH4 0x715018A6 EQ PUSH2 0x2B0 JUMPI DUP1 PUSH4 0x742E0109 EQ PUSH2 0x2C4 JUMPI DUP1 PUSH4 0x82B3AA08 EQ PUSH2 0x2E3 JUMPI PUSH0 DUP1 REVERT JUMPDEST DUP1 PUSH4 0x3545F6A EQ PUSH2 0x14B JUMPI DUP1 PUSH4 0x1516DEF7 EQ PUSH2 0x16C JUMPI DUP1 PUSH4 0x18B7D5ED EQ PUSH2 0x1A8 JUMPI DUP1 PUSH4 0x1D16AEAE EQ PUSH2 0x1CB JUMPI DUP1 PUSH4 0x22022DE6 EQ PUSH2 0x212 JUMPI DUP1 PUSH4 0x3EE014A7 EQ PUSH2 0x231 JUMPI JUMPDEST PUSH0 DUP1 REVERT JUMPDEST CALLVALUE DUP1 ISZERO PUSH2 0x156 JUMPI PUSH0 DUP1 REVERT JUMPDEST POP PUSH2 0x16A PUSH2 0x165 CALLDATASIZE PUSH1 0x4 PUSH2 0xDB5 JUMP JUMPDEST PUSH2 0x481 JUMP JUMPDEST STOP JUMPDEST CALLVALUE DUP1 ISZERO PUSH2 0x177 JUMPI PUSH0 DUP1 REVERT JUMPDEST POP PUSH1 0x5 SLOAD PUSH2 0x18B SWAP1 PUSH1 0x1 PUSH1 0x1 PUSH1 0xA0 SHL SUB AND DUP2 JUMP JUMPDEST PUSH1 0x40 MLOAD PUSH1 0x1 PUSH1 0x1 PUSH1 0xA0 SHL SUB SWAP1 SWAP2 AND DUP2 MSTORE PUSH1 0x20 ADD JUMPDEST PUSH1 0x40 MLOAD DUP1 SWAP2 SUB SWAP1 RETURN JUMPDEST CALLVALUE DUP1 ISZERO PUSH2 0x1B3 JUMPI PUSH0 DUP1 REVERT JUMPDEST POP PUSH2 0x1BD PUSH1 0x3 SLOAD DUP2 JUMP JUMPDEST PUSH1 0x40 MLOAD SWAP1 DUP2 MSTORE PUSH1 0x20 ADD PUSH2 0x19F JUMP JUMPDEST CALLVALUE DUP1 ISZERO PUSH2 0x1D6 JUMPI PUSH0 DUP1 REVERT JUMPDEST POP PUSH2 0x202 PUSH2 0x1E5 CALLDATASIZE PUSH1 0x4 PUSH2 0xDE7 JUMP JUMPDEST PUSH1 0x1 PUSH1 0x1 PUSH1 0xA0 SHL SUB AND PUSH0 SWAP1 DUP2 MSTORE PUSH1 0x9 PUSH1 0x20 MSTORE PUSH1 0x40 SWAP1 KECCAK256 SLOAD PUSH1 0xFF AND SWAP1 JUMP JUMPDEST PUSH1 0x40 MLOAD SWAP1 ISZERO ISZERO DUP2 MSTORE PUSH1 0x20 ADD PUSH2 0x19F JUMP JUMPDEST CALLVALUE DUP1 ISZERO PUSH2 0x21D JUMPI PUSH0 DUP1 REVERT JUMPDEST POP PUSH2 0x1BD PUSH2 0x22C CALLDATASIZE PUSH1 0x4 PUSH2 0xDE7 JUMP JUMPDEST PUSH2 0x4F0 JUMP JUMPDEST CALLVALUE DUP1 ISZERO PUSH2 0x23C JUMPI PUSH0 DUP1 REVERT JUMPDEST POP PUSH2 0x16A PUSH2 0x24B CALLDATASIZE PUSH1 0x4 PUSH2 0xDB5 JUMP JUMPDEST PUSH2 0x52E JUMP JUMPDEST CALLVALUE DUP1 ISZERO PUSH2 0x25B JUMPI PUSH0 DUP1 REVERT JUMPDEST POP PUSH2 0x16A PUSH2 0x58D JUMP JUMPDEST CALLVALUE DUP1 ISZERO PUSH2 0x26F JUMPI PUSH0 DUP1 REVERT JUMPDEST POP PUSH2 0x202 PUSH2 0x27E CALLDATASIZE PUSH1 0x4 PUSH2 0xDE7 JUMP JUMPDEST PUSH1 0x1 PUSH1 0x1 PUSH1 0xA0 SHL SUB AND PUSH0 SWAP1 DUP2 MSTORE PUSH1 0xB PUSH1 0x20 MSTORE PUSH1 0x40 SWAP1 KECCAK256 SLOAD PUSH1 0xFF AND SWAP1 JUMP JUMPDEST CALLVALUE DUP1 ISZERO PUSH2 0x2A6 JUMPI PUSH0 DUP1 REVERT JUMPDEST POP PUSH2 0x1BD PUSH1 0x2 SLOAD DUP2 JUMP JUMPDEST CALLVALUE DUP1 ISZERO PUSH2 0x2BB JUMPI PUSH0 DUP1 REVERT JUMPDEST POP PUSH2 0x16A PUSH2 0x63A JUMP JUMPDEST CALLVALUE DUP1 ISZERO PUSH2 0x2CF JUMPI PUSH0 DUP1 REVERT JUMPDEST POP PUSH2 0x16A PUSH2 0x2DE CALLDATASIZE PUSH1 0x4 PUSH2 0xE07 JUMP JUMPDEST PUSH2 0x64D JUMP JUMPDEST CALLVALUE DUP1 ISZERO PUSH2 0x2EE JUMPI PUSH0 DUP1 REVERT JUMPDEST POP PUSH2 0x16A PUSH2 0x2FD CALLDATASIZE PUSH1 0x4 PUSH2 0xE8E JUMP JUMPDEST PUSH2 0x818 JUMP JUMPDEST CALLVALUE DUP1 ISZERO PUSH2 0x30D JUMPI PUSH0 DUP1 REVERT JUMPDEST POP PUSH0 SLOAD PUSH1 0x1 PUSH1 0x1 PUSH1 0xA0 SHL SUB AND PUSH2 0x18B JUMP JUMPDEST CALLVALUE DUP1 ISZERO PUSH2 0x329 JUMPI PUSH0 DUP1 REVERT JUMPDEST POP PUSH2 0x16A PUSH2 0x338 CALLDATASIZE PUSH1 0x4 PUSH2 0xEA9 JUMP JUMPDEST PUSH2 0x883 JUMP JUMPDEST CALLVALUE DUP1 ISZERO PUSH2 0x348 JUMPI PUSH0 DUP1 REVERT JUMPDEST POP PUSH1 0x6 SLOAD PUSH2 0x18B SWAP1 PUSH1 0x1 PUSH1 0x1 PUSH1 0xA0 SHL SUB AND DUP2 JUMP JUMPDEST CALLVALUE DUP1 ISZERO PUSH2 0x367 JUMPI PUSH0 DUP1 REVERT JUMPDEST POP PUSH2 0x16A PUSH2 0x376 CALLDATASIZE PUSH1 0x4 PUSH2 0xDE7 JUMP JUMPDEST PUSH2 0x8FB JUMP JUMPDEST CALLVALUE DUP1 ISZERO PUSH2 0x386 JUMPI PUSH0 DUP1 REVERT JUMPDEST POP PUSH2 0x202 PUSH2 0x395 CALLDATASIZE PUSH1 0x4 PUSH2 0xDE7 JUMP JUMPDEST PUSH1 0x9 PUSH1 0x20 MSTORE PUSH0 SWAP1 DUP2 MSTORE PUSH1 0x40 SWAP1 KECCAK256 SLOAD PUSH1 0xFF AND DUP2 JUMP JUMPDEST CALLVALUE DUP1 ISZERO PUSH2 0x3B4 JUMPI PUSH0 DUP1 REVERT JUMPDEST POP PUSH1 0x8 SLOAD PUSH2 0x202 SWAP1 PUSH1 0xFF AND DUP2 JUMP JUMPDEST CALLVALUE DUP1 ISZERO PUSH2 0x3CD JUMPI PUSH0 DUP1 REVERT JUMPDEST POP PUSH2 0x1BD PUSH2 0x3DC CALLDATASIZE PUSH1 0x4 PUSH2 0xDE7 JUMP JUMPDEST PUSH1 0xA PUSH1 0x20 MSTORE PUSH0 SWAP1 DUP2 MSTORE PUSH1 0x40 SWAP1 KECCAK256 SLOAD DUP2 JUMP JUMPDEST CALLVALUE DUP1 ISZERO PUSH2 0x3F8 JUMPI PUSH0 DUP1 REVERT JUMPDEST POP PUSH2 0x1BD PUSH1 0x7 SLOAD DUP2 JUMP JUMPDEST CALLVALUE DUP1 ISZERO PUSH2 0x40D JUMPI PUSH0 DUP1 REVERT JUMPDEST POP PUSH1 0x4 SLOAD PUSH2 0x18B SWAP1 PUSH1 0x1 PUSH1 0x1 PUSH1 0xA0 SHL SUB AND DUP2 JUMP JUMPDEST CALLVALUE DUP1 ISZERO PUSH2 0x42C JUMPI PUSH0 DUP1 REVERT JUMPDEST POP PUSH2 0x202 PUSH2 0x43B CALLDATASIZE PUSH1 0x4 PUSH2 0xDE7 JUMP JUMPDEST PUSH1 0xB PUSH1 0x20 MSTORE PUSH0 SWAP1 DUP2 MSTORE PUSH1 0x40 SWAP1 KECCAK256 SLOAD PUSH1 0xFF AND DUP2 JUMP JUMPDEST PUSH2 0x16A PUSH2 0x45D CALLDATASIZE PUSH1 0x4 PUSH2 0xF6E JUMP JUMPDEST PUSH2 0x96E JUMP JUMPDEST CALLVALUE DUP1 ISZERO PUSH2 0x46D JUMPI PUSH0 DUP1 REVERT JUMPDEST POP PUSH2 0x16A PUSH2 0x47C CALLDATASIZE PUSH1 0x4 PUSH2 0xDE7 JUMP JUMPDEST PUSH2 0xC97 JUMP JUMPDEST PUSH1 0x5 SLOAD PUSH1 0x1 PUSH1 0x1 PUSH1 0xA0 SHL SUB AND CALLER EQ PUSH2 0x4B4 JUMPI PUSH1 0x40 MLOAD PUSH3 0x461BCD PUSH1 0xE5 SHL DUP2 MSTORE PUSH1 0x4 ADD PUSH2 0x4AB SWAP1 PUSH2 0x101B JUMP JUMPDEST PUSH1 0x40 MLOAD DUP1 SWAP2 SUB SWAP1 REVERT JUMPDEST PUSH1 0x2 DUP2 SWAP1 SSTORE PUSH1 0x40 MLOAD DUP2 DUP2 MSTORE PUSH32 0xDA22880C1F65AFCE17BFFACB7CE44C92E858FFE3CAFDDE2C868D665E177E1C2A SWAP1 PUSH1 0x20 ADD JUMPDEST PUSH1 0x40 MLOAD DUP1 SWAP2 SUB SWAP1 LOG1 POP JUMP JUMPDEST PUSH1 0x1 PUSH1 0x1 PUSH1 0xA0 SHL SUB DUP2 AND PUSH0 SWAP1 DUP2 MSTORE PUSH1 0x9 PUSH1 0x20 MSTORE PUSH1 0x40 DUP2 KECCAK256 SLOAD PUSH1 0xFF AND PUSH2 0x513 JUMPI PUSH0 DUP1 REVERT JUMPDEST POP PUSH1 0x1 PUSH1 0x1 PUSH1 0xA0 SHL SUB AND PUSH0 SWAP1 DUP2 MSTORE PUSH1 0xA PUSH1 0x20 MSTORE PUSH1 0x40 SWAP1 KECCAK256 SLOAD SWAP1 JUMP JUMPDEST PUSH1 0x5 SLOAD PUSH1 0x1 PUSH1 0x1 PUSH1 0xA0 SHL SUB AND CALLER EQ PUSH2 0x558 JUMPI PUSH1 0x40 MLOAD PUSH3 0x461BCD PUSH1 0xE5 SHL DUP2 MSTORE PUSH1 0x4 ADD PUSH2 0x4AB SWAP1 PUSH2 0x101B JUMP JUMPDEST PUSH1 0x3 DUP2 SWAP1 SSTORE PUSH1 0x40 MLOAD DUP2 DUP2 MSTORE PUSH32 0xFDCD0F66EAA2E719EE1658B24C03A47E554452908214404EEB08645FC5B367AF SWAP1 PUSH1 0x20 ADD PUSH2 0x4E5 JUMP JUMPDEST PUSH1 0x5 SLOAD PUSH1 0x1 PUSH1 0x1 PUSH1 0xA0 SHL SUB AND CALLER EQ PUSH2 0x5B7 JUMPI PUSH1 0x40 MLOAD PUSH3 0x461BCD PUSH1 0xE5 SHL DUP2 MSTORE PUSH1 0x4 ADD PUSH2 0x4AB SWAP1 PUSH2 0x101B JUMP JUMPDEST PUSH0 SLOAD PUSH1 0x1 PUSH1 0x1 PUSH1 0xA0 SHL SUB AND CALLER EQ PUSH2 0x5CC JUMPI PUSH0 DUP1 REVERT JUMPDEST PUSH1 0x5 SLOAD PUSH1 0x40 MLOAD SELFBALANCE SWAP2 PUSH1 0x1 PUSH1 0x1 PUSH1 0xA0 SHL SUB AND SWAP1 DUP3 ISZERO PUSH2 0x8FC MUL SWAP1 DUP4 SWAP1 PUSH0 DUP2 DUP2 DUP2 DUP6 DUP9 DUP9 CALL SWAP4 POP POP POP POP ISZERO DUP1 ISZERO PUSH2 0x603 JUMPI RETURNDATASIZE PUSH0 DUP1 RETURNDATACOPY RETURNDATASIZE PUSH0 REVERT JUMPDEST POP PUSH1 0x40 DUP1 MLOAD CALLER DUP2 MSTORE PUSH1 0x20 DUP2 ADD DUP4 SWAP1 MSTORE PUSH32 0x86C5CDB1503B10FD219532FEE58C15840BE7D568011C0293753E8F221191152E SWAP2 ADD PUSH2 0x4E5 JUMP JUMPDEST PUSH2 0x642 PUSH2 0xCD4 JUMP JUMPDEST PUSH2 0x64B PUSH0 PUSH2 0xD00 JUMP JUMPDEST JUMP JUMPDEST PUSH1 0x5 SLOAD PUSH1 0x1 PUSH1 0x1 PUSH1 0xA0 SHL SUB AND CALLER EQ PUSH2 0x677 JUMPI PUSH1 0x40 MLOAD PUSH3 0x461BCD PUSH1 0xE5 SHL DUP2 MSTORE PUSH1 0x4 ADD PUSH2 0x4AB SWAP1 PUSH2 0x101B JUMP JUMPDEST PUSH0 SLOAD PUSH1 0x1 PUSH1 0x1 PUSH1 0xA0 SHL SUB AND CALLER EQ PUSH2 0x68C JUMPI PUSH0 DUP1 REVERT JUMPDEST PUSH0 JUMPDEST DUP2 DUP2 LT ISZERO PUSH2 0x813 JUMPI PUSH0 DUP4 DUP4 DUP4 DUP2 DUP2 LT PUSH2 0x6A9 JUMPI PUSH2 0x6A9 PUSH2 0x1067 JUMP JUMPDEST SWAP1 POP PUSH1 0x20 MUL ADD PUSH1 0x20 DUP2 ADD SWAP1 PUSH2 0x6BE SWAP2 SWAP1 PUSH2 0xDE7 JUMP JUMPDEST PUSH1 0x40 MLOAD PUSH4 0x70A08231 PUSH1 0xE0 SHL DUP2 MSTORE ADDRESS PUSH1 0x4 DUP3 ADD MSTORE SWAP1 SWAP2 POP PUSH0 SWAP1 PUSH1 0x1 PUSH1 0x1 PUSH1 0xA0 SHL SUB DUP4 AND SWAP1 PUSH4 0x70A08231 SWAP1 PUSH1 0x24 ADD PUSH1 0x20 PUSH1 0x40 MLOAD DUP1 DUP4 SUB DUP2 DUP7 GAS STATICCALL ISZERO DUP1 ISZERO PUSH2 0x705 JUMPI RETURNDATASIZE PUSH0 DUP1 RETURNDATACOPY RETURNDATASIZE PUSH0 REVERT JUMPDEST POP POP POP POP PUSH1 0x40 MLOAD RETURNDATASIZE PUSH1 0x1F NOT PUSH1 0x1F DUP3 ADD AND DUP3 ADD DUP1 PUSH1 0x40 MSTORE POP DUP2 ADD SWAP1 PUSH2 0x729 SWAP2 SWAP1 PUSH2 0x107B JUMP JUMPDEST PUSH1 0x5 SLOAD PUSH1 0x40 MLOAD PUSH4 0xA9059CBB PUSH1 0xE0 SHL DUP2 MSTORE PUSH1 0x1 PUSH1 0x1 PUSH1 0xA0 SHL SUB SWAP2 DUP3 AND PUSH1 0x4 DUP3 ADD MSTORE PUSH1 0x24 DUP2 ADD DUP4 SWAP1 MSTORE SWAP2 SWAP3 POP DUP4 AND SWAP1 PUSH4 0xA9059CBB SWAP1 PUSH1 0x44 ADD PUSH1 0x20 PUSH1 0x40 MLOAD DUP1 DUP4 SUB DUP2 PUSH0 DUP8 GAS CALL ISZERO DUP1 ISZERO PUSH2 0x77B JUMPI RETURNDATASIZE PUSH0 DUP1 RETURNDATACOPY RETURNDATASIZE PUSH0 REVERT JUMPDEST POP POP POP POP PUSH1 0x40 MLOAD RETURNDATASIZE PUSH1 0x1F NOT PUSH1 0x1F DUP3 ADD AND DUP3 ADD DUP1 PUSH1 0x40 MSTORE POP DUP2 ADD SWAP1 PUSH2 0x79F SWAP2 SWAP1 PUSH2 0x1092 JUMP JUMPDEST POP DUP5 DUP5 DUP5 DUP2 DUP2 LT PUSH2 0x7B2 JUMPI PUSH2 0x7B2 PUSH2 0x1067 JUMP JUMPDEST SWAP1 POP PUSH1 0x20 MUL ADD PUSH1 0x20 DUP2 ADD SWAP1 PUSH2 0x7C7 SWAP2 SWAP1 PUSH2 0xDE7 JUMP JUMPDEST PUSH1 0x1 PUSH1 0x1 PUSH1 0xA0 SHL SUB AND PUSH32 0xA56A5A17349CA1A0EEF2A197903CBBFF0D04DD25BF2EF1A721FF10EB1B8EC73C DUP3 PUSH1 0x40 MLOAD PUSH2 0x801 SWAP2 DUP2 MSTORE PUSH1 0x20 ADD SWAP1 JUMP JUMPDEST PUSH1 0x40 MLOAD DUP1 SWAP2 SUB SWAP1 LOG2 POP POP PUSH1 0x1 ADD PUSH2 0x68E JUMP JUMPDEST POP POP POP JUMP JUMPDEST PUSH1 0x5 SLOAD PUSH1 0x1 PUSH1 0x1 PUSH1 0xA0 SHL SUB AND CALLER EQ PUSH2 0x842 JUMPI PUSH1 0x40 MLOAD PUSH3 0x461BCD PUSH1 0xE5 SHL DUP2 MSTORE PUSH1 0x4 ADD PUSH2 0x4AB SWAP1 PUSH2 0x101B JUMP JUMPDEST PUSH1 0x8 DUP1 SLOAD PUSH1 0xFF NOT AND DUP3 ISZERO ISZERO SWAP1 DUP2 OR SWAP1 SWAP2 SSTORE PUSH1 0x40 MLOAD SWAP1 DUP2 MSTORE PUSH32 0xBB66A70BE412F0767B2216B1C39E5E5C3F1A49FEA18EBCCFEB565F352805FCC7 SWAP1 PUSH1 0x20 ADD PUSH2 0x4E5 JUMP JUMPDEST CALLER PUSH0 SWAP1 DUP2 MSTORE PUSH1 0xB PUSH1 0x20 MSTORE PUSH1 0x40 SWAP1 KECCAK256 SLOAD PUSH1 0xFF AND ISZERO ISZERO PUSH1 0x1 EQ PUSH2 0x8A2 JUMPI PUSH0 DUP1 REVERT JUMPDEST PUSH1 0x1 PUSH1 0x1 PUSH1 0xA0 SHL SUB DUP3 AND PUSH0 DUP2 DUP2 MSTORE PUSH1 0x9 PUSH1 0x20 SWAP1 DUP2 MSTORE PUSH1 0x40 DUP1 DUP4 KECCAK256 DUP1 SLOAD PUSH1 0xFF NOT AND PUSH1 0x1 OR SWAP1 SSTORE PUSH1 0xA SWAP1 SWAP2 MSTORE DUP1 DUP3 KECCAK256 DUP5 SWAP1 SSTORE MLOAD PUSH32 0x393014302EB5AA93EA9465C0762DE1444D7F4377A0B192A5E021D92FD8D881D7 SWAP2 SWAP1 LOG2 POP POP JUMP JUMPDEST PUSH1 0x5 SLOAD PUSH1 0x1 PUSH1 0x1 PUSH1 0xA0 SHL SUB AND CALLER EQ PUSH2 0x925 JUMPI PUSH1 0x40 MLOAD PUSH3 0x461BCD PUSH1 0xE5 SHL DUP2 MSTORE PUSH1 0x4 ADD PUSH2 0x4AB SWAP1 PUSH2 0x101B JUMP JUMPDEST PUSH1 0x4 DUP1 SLOAD PUSH1 0x1 PUSH1 0x1 PUSH1 0xA0 SHL SUB NOT AND PUSH1 0x1 PUSH1 0x1 PUSH1 0xA0 SHL SUB DUP4 AND SWAP1 DUP2 OR SWAP1 SWAP2 SSTORE PUSH1 0x40 MLOAD PUSH32 0x1253844B0FFF3DA7DD2829DE816C9B4F94C238CF2BF6EB72C02C7D6F2B53BEAC SWAP1 PUSH0 SWAP1 LOG2 POP JUMP JUMPDEST PUSH2 0x976 PUSH2 0xD4F JUMP JUMPDEST PUSH1 0x8 SLOAD PUSH1 0xFF AND PUSH2 0x984 JUMPI PUSH0 DUP1 REVERT JUMPDEST PUSH1 0x3 SLOAD CALLVALUE EQ PUSH2 0x991 JUMPI PUSH0 DUP1 REVERT JUMPDEST PUSH0 PUSH2 0x3E8 PUSH2 0x9A0 DUP11 PUSH1 0x32 PUSH2 0x10C1 JUMP JUMPDEST PUSH2 0x9AA SWAP2 SWAP1 PUSH2 0x10DE JUMP JUMPDEST SWAP1 POP PUSH0 PUSH3 0xF4240 PUSH2 0x9BC DUP12 PUSH1 0x32 PUSH2 0x10C1 JUMP JUMPDEST PUSH2 0x9C6 SWAP2 SWAP1 PUSH2 0x10DE JUMP JUMPDEST SWAP1 POP PUSH0 PUSH2 0x3E8 PUSH2 0x9D7 DUP13 PUSH1 0x19 PUSH2 0x10C1 JUMP JUMPDEST PUSH2 0x9E1 SWAP2 SWAP1 PUSH2 0x10DE JUMP JUMPDEST SWAP1 POP DUP3 DUP7 GT ISZERO PUSH2 0xA4C JUMPI PUSH1 0x40 MLOAD PUSH3 0x461BCD PUSH1 0xE5 SHL DUP2 MSTORE PUSH1 0x20 PUSH1 0x4 DUP3 ADD MSTORE PUSH1 0x30 PUSH1 0x24 DUP3 ADD MSTORE PUSH32 0x4D61782070726573616C6520636F6E747269627574696F6E2061626F76652061 PUSH1 0x44 DUP3 ADD MSTORE PUSH16 0x18D8D95C1D195908094D481B1A5B5A5D PUSH1 0x82 SHL PUSH1 0x64 DUP3 ADD MSTORE PUSH1 0x84 ADD PUSH2 0x4AB JUMP JUMPDEST DUP2 DUP6 GT ISZERO PUSH2 0xAB8 JUMPI PUSH1 0x40 MLOAD PUSH3 0x461BCD PUSH1 0xE5 SHL DUP2 MSTORE PUSH1 0x20 PUSH1 0x4 DUP3 ADD MSTORE PUSH1 0x33 PUSH1 0x24 DUP3 ADD MSTORE PUSH32 0x4D61782070726573616C6520636F6E747269627574696F6E2062656C6F772061 PUSH1 0x44 DUP3 ADD MSTORE PUSH19 0x18D8D95C1D195908094B8C0C0D481B1A5B5A5D PUSH1 0x6A SHL PUSH1 0x64 DUP3 ADD MSTORE PUSH1 0x84 ADD PUSH2 0x4AB JUMP JUMPDEST DUP1 DUP5 GT ISZERO PUSH2 0xB24 JUMPI PUSH1 0x40 MLOAD PUSH3 0x461BCD PUSH1 0xE5 SHL DUP2 MSTORE PUSH1 0x20 PUSH1 0x4 DUP3 ADD MSTORE PUSH1 0x33 PUSH1 0x24 DUP3 ADD MSTORE PUSH32 0x466F756E64657220737570706C7920616C6C6F636174696F6E2061626F766520 PUSH1 0x44 DUP3 ADD MSTORE PUSH19 0x1858D8D95C1D1959080C8B8D49481B1A5B5A5D PUSH1 0x6A SHL PUSH1 0x64 DUP3 ADD MSTORE PUSH1 0x84 ADD PUSH2 0x4AB JUMP JUMPDEST PUSH7 0x18C2E7081226C9 DUP8 LT PUSH2 0xB36 JUMPI PUSH0 DUP1 REVERT JUMPDEST PUSH6 0x3F63971EE6C9 DUP10 LT PUSH2 0xB47 JUMPI PUSH0 DUP1 REVERT JUMPDEST PUSH6 0x3F63971EE6C9 DUP9 LT PUSH2 0xB58 JUMPI PUSH0 DUP1 REVERT JUMPDEST PUSH0 DUP14 DUP14 DUP14 DUP14 DUP14 DUP14 DUP14 DUP14 DUP14 DUP14 PUSH1 0x40 MLOAD PUSH2 0xB6F SWAP1 PUSH2 0xDA8 JUMP JUMPDEST PUSH2 0xB82 SWAP11 SWAP10 SWAP9 SWAP8 SWAP7 SWAP6 SWAP5 SWAP4 SWAP3 SWAP2 SWAP1 PUSH2 0x112B JUMP JUMPDEST PUSH1 0x40 MLOAD DUP1 SWAP2 SUB SWAP1 PUSH0 CREATE DUP1 ISZERO DUP1 ISZERO PUSH2 0xB9B JUMPI RETURNDATASIZE PUSH0 DUP1 RETURNDATACOPY RETURNDATASIZE PUSH0 REVERT JUMPDEST POP PUSH1 0x40 MLOAD PUSH4 0xF2FDE38B PUSH1 0xE0 SHL DUP2 MSTORE CALLER PUSH1 0x4 DUP3 ADD MSTORE SWAP1 SWAP2 POP PUSH1 0x1 PUSH1 0x1 PUSH1 0xA0 SHL SUB DUP3 AND SWAP1 PUSH4 0xF2FDE38B SWAP1 PUSH1 0x24 ADD PUSH0 PUSH1 0x40 MLOAD DUP1 DUP4 SUB DUP2 PUSH0 DUP8 DUP1 EXTCODESIZE ISZERO DUP1 ISZERO PUSH2 0xBDD JUMPI PUSH0 DUP1 REVERT JUMPDEST POP GAS CALL ISZERO DUP1 ISZERO PUSH2 0xBEF JUMPI RETURNDATASIZE PUSH0 DUP1 RETURNDATACOPY RETURNDATASIZE PUSH0 REVERT JUMPDEST POP POP POP PUSH1 0x1 PUSH1 0x1 PUSH1 0xA0 SHL SUB DUP3 AND PUSH0 SWAP1 DUP2 MSTORE PUSH1 0xB PUSH1 0x20 MSTORE PUSH1 0x40 DUP2 KECCAK256 DUP1 SLOAD PUSH1 0xFF NOT AND PUSH1 0x1 SWAP1 DUP2 OR SWAP1 SWAP2 SSTORE PUSH1 0x7 DUP1 SLOAD SWAP2 SWAP4 POP SWAP2 SWAP1 PUSH2 0xC2B SWAP1 DUP5 SWAP1 PUSH2 0x1194 JUMP JUMPDEST SWAP1 SWAP2 SSTORE POP POP PUSH1 0x7 SLOAD PUSH1 0x40 DUP1 MLOAD DUP13 DUP2 MSTORE PUSH1 0x20 DUP2 ADD DUP13 SWAP1 MSTORE CALLER DUP2 DUP4 ADD MSTORE SWAP1 MLOAD PUSH1 0x1 PUSH1 0x1 PUSH1 0xA0 SHL SUB DUP5 AND SWAP2 PUSH32 0x5494683EE1849B1BC19E83430E6CE813A9C3616E0B27E8051C945A87F87693FA SWAP2 SWAP1 DUP2 SWAP1 SUB PUSH1 0x60 ADD SWAP1 LOG3 POP POP POP POP PUSH2 0xC8B PUSH1 0x1 DUP1 SSTORE JUMP JUMPDEST POP POP POP POP POP POP POP POP POP POP JUMP JUMPDEST PUSH2 0xC9F PUSH2 0xCD4 JUMP JUMPDEST PUSH1 0x1 PUSH1 0x1 PUSH1 0xA0 SHL SUB DUP2 AND PUSH2 0xCC8 JUMPI PUSH1 0x40 MLOAD PUSH4 0x1E4FBDF7 PUSH1 0xE0 SHL DUP2 MSTORE PUSH0 PUSH1 0x4 DUP3 ADD MSTORE PUSH1 0x24 ADD PUSH2 0x4AB JUMP JUMPDEST PUSH2 0xCD1 DUP2 PUSH2 0xD00 JUMP JUMPDEST POP JUMP JUMPDEST PUSH0 SLOAD PUSH1 0x1 PUSH1 0x1 PUSH1 0xA0 SHL SUB AND CALLER EQ PUSH2 0x64B JUMPI PUSH1 0x40 MLOAD PUSH4 0x118CDAA7 PUSH1 0xE0 SHL DUP2 MSTORE CALLER PUSH1 0x4 DUP3 ADD MSTORE PUSH1 0x24 ADD PUSH2 0x4AB JUMP JUMPDEST PUSH0 DUP1 SLOAD PUSH1 0x1 PUSH1 0x1 PUSH1 0xA0 SHL SUB DUP4 DUP2 AND PUSH1 0x1 PUSH1 0x1 PUSH1 0xA0 SHL SUB NOT DUP4 AND DUP2 OR DUP5 SSTORE PUSH1 0x40 MLOAD SWAP2 SWAP1 SWAP3 AND SWAP3 DUP4 SWAP2 PUSH32 0x8BE0079C531659141344CD1FD0A4F28419497F9722A3DAAFE3B4186F6B6457E0 SWAP2 SWAP1 LOG3 POP POP JUMP JUMPDEST PUSH1 0x2 PUSH1 0x1 SLOAD SUB PUSH2 0xDA1 JUMPI PUSH1 0x40 MLOAD PUSH3 0x461BCD PUSH1 0xE5 SHL DUP2 MSTORE PUSH1 0x20 PUSH1 0x4 DUP3 ADD MSTORE PUSH1 0x1F PUSH1 0x24 DUP3 ADD MSTORE PUSH32 0x5265656E7472616E637947756172643A207265656E7472616E742063616C6C00 PUSH1 0x44 DUP3 ADD MSTORE PUSH1 0x64 ADD PUSH2 0x4AB JUMP JUMPDEST PUSH1 0x2 PUSH1 0x1 SSTORE JUMP JUMPDEST PUSH2 0x2C6F DUP1 PUSH2 0x11A8 DUP4 CODECOPY ADD SWAP1 JUMP JUMPDEST PUSH0 PUSH1 0x20 DUP3 DUP5 SUB SLT ISZERO PUSH2 0xDC5 JUMPI PUSH0 DUP1 REVERT JUMPDEST POP CALLDATALOAD SWAP2 SWAP1 POP JUMP JUMPDEST DUP1 CALLDATALOAD PUSH1 0x1 PUSH1 0x1 PUSH1 0xA0 SHL SUB DUP2 AND DUP2 EQ PUSH2 0xDE2 JUMPI PUSH0 DUP1 REVERT JUMPDEST SWAP2 SWAP1 POP JUMP JUMPDEST PUSH0 PUSH1 0x20 DUP3 DUP5 SUB SLT ISZERO PUSH2 0xDF7 JUMPI PUSH0 DUP1 REVERT JUMPDEST PUSH2 0xE00 DUP3 PUSH2 0xDCC JUMP JUMPDEST SWAP4 SWAP3 POP POP POP JUMP JUMPDEST PUSH0 DUP1 PUSH1 0x20 DUP4 DUP6 SUB SLT ISZERO PUSH2 0xE18 JUMPI PUSH0 DUP1 REVERT JUMPDEST DUP3 CALLDATALOAD PUSH8 0xFFFFFFFFFFFFFFFF DUP1 DUP3 GT ISZERO PUSH2 0xE2F JUMPI PUSH0 DUP1 REVERT JUMPDEST DUP2 DUP6 ADD SWAP2 POP DUP6 PUSH1 0x1F DUP4 ADD SLT PUSH2 0xE42 JUMPI PUSH0 DUP1 REVERT JUMPDEST DUP2 CALLDATALOAD DUP2 DUP2 GT ISZERO PUSH2 0xE50 JUMPI PUSH0 DUP1 REVERT JUMPDEST DUP7 PUSH1 0x20 DUP3 PUSH1 0x5 SHL DUP6 ADD ADD GT ISZERO PUSH2 0xE64 JUMPI PUSH0 DUP1 REVERT JUMPDEST PUSH1 0x20 SWAP3 SWAP1 SWAP3 ADD SWAP7 SWAP2 SWAP6 POP SWAP1 SWAP4 POP POP POP POP JUMP JUMPDEST DUP1 ISZERO ISZERO DUP2 EQ PUSH2 0xCD1 JUMPI PUSH0 DUP1 REVERT JUMPDEST DUP1 CALLDATALOAD PUSH2 0xDE2 DUP2 PUSH2 0xE76 JUMP JUMPDEST PUSH0 PUSH1 0x20 DUP3 DUP5 SUB SLT ISZERO PUSH2 0xE9E JUMPI PUSH0 DUP1 REVERT JUMPDEST DUP2 CALLDATALOAD PUSH2 0xE00 DUP2 PUSH2 0xE76 JUMP JUMPDEST PUSH0 DUP1 PUSH1 0x40 DUP4 DUP6 SUB SLT ISZERO PUSH2 0xEBA JUMPI PUSH0 DUP1 REVERT JUMPDEST PUSH2 0xEC3 DUP4 PUSH2 0xDCC JUMP JUMPDEST SWAP5 PUSH1 0x20 SWAP4 SWAP1 SWAP4 ADD CALLDATALOAD SWAP4 POP POP POP JUMP JUMPDEST PUSH4 0x4E487B71 PUSH1 0xE0 SHL PUSH0 MSTORE PUSH1 0x41 PUSH1 0x4 MSTORE PUSH1 0x24 PUSH0 REVERT JUMPDEST PUSH0 DUP3 PUSH1 0x1F DUP4 ADD SLT PUSH2 0xEF4 JUMPI PUSH0 DUP1 REVERT JUMPDEST DUP2 CALLDATALOAD PUSH8 0xFFFFFFFFFFFFFFFF DUP1 DUP3 GT ISZERO PUSH2 0xF0F JUMPI PUSH2 0xF0F PUSH2 0xED1 JUMP JUMPDEST PUSH1 0x40 MLOAD PUSH1 0x1F DUP4 ADD PUSH1 0x1F NOT SWAP1 DUP2 AND PUSH1 0x3F ADD AND DUP2 ADD SWAP1 DUP3 DUP3 GT DUP2 DUP4 LT OR ISZERO PUSH2 0xF37 JUMPI PUSH2 0xF37 PUSH2 0xED1 JUMP JUMPDEST DUP2 PUSH1 0x40 MSTORE DUP4 DUP2 MSTORE DUP7 PUSH1 0x20 DUP6 DUP9 ADD ADD GT ISZERO PUSH2 0xF4F JUMPI PUSH0 DUP1 REVERT JUMPDEST DUP4 PUSH1 0x20 DUP8 ADD PUSH1 0x20 DUP4 ADD CALLDATACOPY PUSH0 PUSH1 0x20 DUP6 DUP4 ADD ADD MSTORE DUP1 SWAP5 POP POP POP POP POP SWAP3 SWAP2 POP POP JUMP JUMPDEST PUSH0 DUP1 PUSH0 DUP1 PUSH0 DUP1 PUSH0 DUP1 PUSH0 DUP1 PUSH2 0x140 DUP12 DUP14 SUB SLT ISZERO PUSH2 0xF88 JUMPI PUSH0 DUP1 REVERT JUMPDEST DUP11 CALLDATALOAD PUSH8 0xFFFFFFFFFFFFFFFF DUP1 DUP3 GT ISZERO PUSH2 0xF9F JUMPI PUSH0 DUP1 REVERT JUMPDEST PUSH2 0xFAB DUP15 DUP4 DUP16 ADD PUSH2 0xEE5 JUMP JUMPDEST SWAP12 POP PUSH1 0x20 DUP14 ADD CALLDATALOAD SWAP2 POP DUP1 DUP3 GT ISZERO PUSH2 0xFC0 JUMPI PUSH0 DUP1 REVERT JUMPDEST POP PUSH2 0xFCD DUP14 DUP3 DUP15 ADD PUSH2 0xEE5 JUMP JUMPDEST SWAP10 POP POP PUSH1 0x40 DUP12 ADD CALLDATALOAD SWAP8 POP PUSH2 0xFE3 PUSH1 0x60 DUP13 ADD PUSH2 0xE83 JUMP JUMPDEST SWAP10 SWAP13 SWAP9 SWAP12 POP SWAP7 SWAP10 PUSH1 0x80 DUP2 ADD CALLDATALOAD SWAP9 PUSH1 0xA0 DUP3 ADD CALLDATALOAD SWAP9 POP PUSH1 0xC0 DUP3 ADD CALLDATALOAD SWAP8 POP PUSH1 0xE0 DUP3 ADD CALLDATALOAD SWAP7 POP PUSH2 0x100 DUP3 ADD CALLDATALOAD SWAP6 POP PUSH2 0x120 SWAP1 SWAP2 ADD CALLDATALOAD SWAP4 POP SWAP2 POP POP JUMP JUMPDEST PUSH1 0x20 DUP1 DUP3 MSTORE PUSH1 0x2C SWAP1 DUP3 ADD MSTORE PUSH32 0x4F6E6C79206D756C746953696720616464726573732063616E2063616C6C2074 PUSH1 0x40 DUP3 ADD MSTORE PUSH12 0x3434B990333AB731BA34B7B7 PUSH1 0xA1 SHL PUSH1 0x60 DUP3 ADD MSTORE PUSH1 0x80 ADD SWAP1 JUMP JUMPDEST PUSH4 0x4E487B71 PUSH1 0xE0 SHL PUSH0 MSTORE PUSH1 0x32 PUSH1 0x4 MSTORE PUSH1 0x24 PUSH0 REVERT JUMPDEST PUSH0 PUSH1 0x20 DUP3 DUP5 SUB SLT ISZERO PUSH2 0x108B JUMPI PUSH0 DUP1 REVERT JUMPDEST POP MLOAD SWAP2 SWAP1 POP JUMP JUMPDEST PUSH0 PUSH1 0x20 DUP3 DUP5 SUB SLT ISZERO PUSH2 0x10A2 JUMPI PUSH0 DUP1 REVERT JUMPDEST DUP2 MLOAD PUSH2 0xE00 DUP2 PUSH2 0xE76 JUMP JUMPDEST PUSH4 0x4E487B71 PUSH1 0xE0 SHL PUSH0 MSTORE PUSH1 0x11 PUSH1 0x4 MSTORE PUSH1 0x24 PUSH0 REVERT JUMPDEST DUP1 DUP3 MUL DUP2 ISZERO DUP3 DUP3 DIV DUP5 EQ OR PUSH2 0x10D8 JUMPI PUSH2 0x10D8 PUSH2 0x10AD JUMP JUMPDEST SWAP3 SWAP2 POP POP JUMP JUMPDEST PUSH0 DUP3 PUSH2 0x10F8 JUMPI PUSH4 0x4E487B71 PUSH1 0xE0 SHL PUSH0 MSTORE PUSH1 0x12 PUSH1 0x4 MSTORE PUSH1 0x24 PUSH0 REVERT JUMPDEST POP DIV SWAP1 JUMP JUMPDEST PUSH0 DUP2 MLOAD DUP1 DUP5 MSTORE DUP1 PUSH1 0x20 DUP5 ADD PUSH1 0x20 DUP7 ADD MCOPY PUSH0 PUSH1 0x20 DUP3 DUP7 ADD ADD MSTORE PUSH1 0x20 PUSH1 0x1F NOT PUSH1 0x1F DUP4 ADD AND DUP6 ADD ADD SWAP2 POP POP SWAP3 SWAP2 POP POP JUMP JUMPDEST PUSH0 PUSH2 0x140 DUP1 DUP4 MSTORE PUSH2 0x113E DUP2 DUP5 ADD DUP15 PUSH2 0x10FD JUMP JUMPDEST SWAP1 POP DUP3 DUP2 SUB PUSH1 0x20 DUP5 ADD MSTORE PUSH2 0x1152 DUP2 DUP14 PUSH2 0x10FD JUMP JUMPDEST PUSH1 0x40 DUP5 ADD SWAP12 SWAP1 SWAP12 MSTORE POP POP SWAP7 ISZERO ISZERO PUSH1 0x60 DUP9 ADD MSTORE PUSH1 0x80 DUP8 ADD SWAP6 SWAP1 SWAP6 MSTORE PUSH1 0xA0 DUP7 ADD SWAP4 SWAP1 SWAP4 MSTORE PUSH1 0xC0 DUP6 ADD SWAP2 SWAP1 SWAP2 MSTORE PUSH1 0xE0 DUP5 ADD MSTORE PUSH2 0x100 DUP4 ADD MSTORE PUSH2 0x120 SWAP1 SWAP2 ADD MSTORE SWAP3 SWAP2 POP POP JUMP JUMPDEST DUP1 DUP3 ADD DUP1 DUP3 GT ISZERO PUSH2 0x10D8 JUMPI PUSH2 0x10D8 PUSH2 0x10AD JUMP INVALID PUSH1 0x80 PUSH1 0x40 MSTORE PUSH1 0xB DUP1 SLOAD PUSH1 0x45 PUSH1 0x1 PUSH1 0x1 PUSH1 0xA0 SHL SUB NOT SWAP2 DUP3 AND DUP2 OR SWAP1 SWAP3 SSTORE PUSH1 0xC DUP1 SLOAD SWAP1 SWAP2 AND SWAP1 SWAP2 OR SWAP1 SSTORE PUSH1 0x16 DUP1 SLOAD PUSH4 0xFFFFFF00 NOT AND SWAP1 SSTORE PUSH1 0x4 SLOAD PUSH2 0x3E8 SWAP1 PUSH2 0x46 SWAP1 PUSH1 0x32 PUSH2 0x376 JUMP JUMPDEST PUSH2 0x50 SWAP2 SWAP1 PUSH2 0x39F JUMP JUMPDEST PUSH1 0x1B SSTORE PUSH3 0xF4240 PUSH1 0x4 SLOAD PUSH1 0x32 PUSH2 0x66 SWAP2 SWAP1 PUSH2 0x376 JUMP JUMPDEST PUSH2 0x70 SWAP2 SWAP1 PUSH2 0x39F JUMP JUMPDEST PUSH1 0x1C SSTORE PUSH2 0x3E8 PUSH1 0x4 SLOAD PUSH1 0x19 PUSH2 0x85 SWAP2 SWAP1 PUSH2 0x376 JUMP JUMPDEST PUSH2 0x8F SWAP2 SWAP1 PUSH2 0x39F JUMP JUMPDEST PUSH1 0x1D SSTORE PUSH3 0x6A5960 PUSH1 0x25 SSTORE CALLVALUE DUP1 ISZERO PUSH2 0xA4 JUMPI PUSH0 DUP1 REVERT JUMPDEST POP PUSH1 0x40 MLOAD PUSH2 0x2C6F CODESIZE SUB DUP1 PUSH2 0x2C6F DUP4 CODECOPY DUP2 ADD PUSH1 0x40 DUP2 SWAP1 MSTORE PUSH2 0xC3 SWAP2 PUSH2 0x46E JUMP JUMPDEST PUSH1 0x1 PUSH0 SSTORE CALLER DUP1 PUSH2 0xED JUMPI PUSH1 0x40 MLOAD PUSH4 0x1E4FBDF7 PUSH1 0xE0 SHL DUP2 MSTORE PUSH0 PUSH1 0x4 DUP3 ADD MSTORE PUSH1 0x24 ADD JUMPDEST PUSH1 0x40 MLOAD DUP1 SWAP2 SUB SWAP1 REVERT JUMPDEST PUSH2 0xF6 DUP2 PUSH2 0x325 JUMP JUMPDEST POP PUSH1 0x1B SLOAD DUP4 GT ISZERO PUSH2 0x162 JUMPI PUSH1 0x40 MLOAD PUSH3 0x461BCD PUSH1 0xE5 SHL DUP2 MSTORE PUSH1 0x20 PUSH1 0x4 DUP3 ADD MSTORE PUSH1 0x30 PUSH1 0x24 DUP3 ADD MSTORE PUSH32 0x4D61782070726573616C6520636F6E747269627574696F6E2061626F76652061 PUSH1 0x44 DUP3 ADD MSTORE PUSH16 0x18D8D95C1D195908094D481B1A5B5A5D PUSH1 0x82 SHL PUSH1 0x64 DUP3 ADD MSTORE PUSH1 0x84 ADD PUSH2 0xE4 JUMP JUMPDEST PUSH1 0x1C SLOAD DUP3 GT ISZERO PUSH2 0x1DA JUMPI PUSH1 0x40 MLOAD PUSH3 0x461BCD PUSH1 0xE5 SHL DUP2 MSTORE PUSH1 0x20 PUSH1 0x4 DUP3 ADD MSTORE PUSH1 0x33 PUSH1 0x24 DUP3 ADD MSTORE PUSH32 0x4D61782070726573616C6520636F6E747269627574696F6E2062656C6F772061 PUSH1 0x44 DUP3 ADD MSTORE PUSH32 0x6363657074656420252E303035206C696D697400000000000000000000000000 PUSH1 0x64 DUP3 ADD MSTORE PUSH1 0x84 ADD PUSH2 0xE4 JUMP JUMPDEST PUSH1 0x1D SLOAD DUP2 GT ISZERO PUSH2 0x252 JUMPI PUSH1 0x40 MLOAD PUSH3 0x461BCD PUSH1 0xE5 SHL DUP2 MSTORE PUSH1 0x20 PUSH1 0x4 DUP3 ADD MSTORE PUSH1 0x33 PUSH1 0x24 DUP3 ADD MSTORE PUSH32 0x466F756E64657220737570706C7920616C6C6F636174696F6E2061626F766520 PUSH1 0x44 DUP3 ADD MSTORE PUSH32 0x616363657074656420322E3525206C696D697400000000000000000000000000 PUSH1 0x64 DUP3 ADD MSTORE PUSH1 0x84 ADD PUSH2 0xE4 JUMP JUMPDEST PUSH7 0x18C2E7081226C9 DUP5 LT PUSH2 0x264 JUMPI PUSH0 DUP1 REVERT JUMPDEST PUSH6 0x3F63971EE6C9 DUP7 LT PUSH2 0x275 JUMPI PUSH0 DUP1 REVERT JUMPDEST PUSH6 0x3F63971EE6C9 DUP6 LT PUSH2 0x286 JUMPI PUSH0 DUP1 REVERT JUMPDEST PUSH1 0x2 PUSH2 0x292 DUP12 DUP3 PUSH2 0x5A3 JUMP JUMPDEST POP PUSH1 0x4 DUP9 SWAP1 SSTORE PUSH1 0x3 PUSH2 0x2A4 DUP11 DUP3 PUSH2 0x5A3 JUMP JUMPDEST POP PUSH1 0x16 DUP1 SLOAD PUSH1 0xFF NOT AND SWAP8 ISZERO ISZERO SWAP8 SWAP1 SWAP8 OR SWAP1 SWAP7 SSTORE PUSH1 0x19 SWAP2 SWAP1 SWAP2 SSTORE PUSH1 0x1A SSTORE PUSH1 0x18 SWAP2 SWAP1 SWAP2 SSTORE PUSH1 0x17 SWAP2 SWAP1 SWAP2 SSTORE PUSH1 0x1E SSTORE PUSH1 0x12 SSTORE POP POP PUSH1 0x6 DUP1 SLOAD CALLER PUSH1 0x1 PUSH1 0x1 PUSH1 0xA0 SHL SUB NOT SWAP2 DUP3 AND DUP2 OR SWAP1 SWAP3 SSTORE PUSH1 0xB SLOAD PUSH1 0xD DUP1 SLOAD PUSH1 0x1 PUSH1 0x1 PUSH1 0xA0 SHL SUB SWAP3 DUP4 AND SWAP1 DUP5 AND OR SWAP1 SSTORE PUSH1 0xC SLOAD PUSH1 0xE DUP1 SLOAD SWAP2 SWAP1 SWAP3 AND SWAP1 DUP4 AND OR SWAP1 SSTORE PUSH1 0x7 DUP1 SLOAD SWAP1 SWAP2 AND SWAP1 SWAP2 OR SWAP1 SSTORE POP PUSH2 0x662 JUMP JUMPDEST PUSH1 0x1 DUP1 SLOAD PUSH1 0x1 PUSH1 0x1 PUSH1 0xA0 SHL SUB DUP4 DUP2 AND PUSH1 0x1 PUSH1 0x1 PUSH1 0xA0 SHL SUB NOT DUP4 AND DUP2 OR SWAP1 SWAP4 SSTORE PUSH1 0x40 MLOAD SWAP2 AND SWAP2 SWAP1 DUP3 SWAP1 PUSH32 0x8BE0079C531659141344CD1FD0A4F28419497F9722A3DAAFE3B4186F6B6457E0 SWAP1 PUSH0 SWAP1 LOG3 POP POP JUMP JUMPDEST DUP1 DUP3 MUL DUP2 ISZERO DUP3 DUP3 DIV DUP5 EQ OR PUSH2 0x399 JUMPI PUSH4 0x4E487B71 PUSH1 0xE0 SHL PUSH0 MSTORE PUSH1 0x11 PUSH1 0x4 MSTORE PUSH1 0x24 PUSH0 REVERT JUMPDEST SWAP3 SWAP2 POP POP JUMP JUMPDEST PUSH0 DUP3 PUSH2 0x3B9 JUMPI PUSH4 0x4E487B71 PUSH1 0xE0 SHL PUSH0 MSTORE PUSH1 0x12 PUSH1 0x4 MSTORE PUSH1 0x24 PUSH0 REVERT JUMPDEST POP DIV SWAP1 JUMP JUMPDEST PUSH4 0x4E487B71 PUSH1 0xE0 SHL PUSH0 MSTORE PUSH1 0x41 PUSH1 0x4 MSTORE PUSH1 0x24 PUSH0 REVERT JUMPDEST PUSH0 DUP3 PUSH1 0x1F DUP4 ADD SLT PUSH2 0x3E1 JUMPI PUSH0 DUP1 REVERT JUMPDEST DUP2 MLOAD PUSH1 0x1 PUSH1 0x1 PUSH1 0x40 SHL SUB DUP1 DUP3 GT ISZERO PUSH2 0x3FB JUMPI PUSH2 0x3FB PUSH2 0x3BE JUMP JUMPDEST PUSH1 0x40 MLOAD PUSH1 0x1F DUP4 ADD PUSH1 0x1F NOT SWAP1 DUP2 AND PUSH1 0x3F ADD AND DUP2 ADD SWAP1 DUP3 DUP3 GT DUP2 DUP4 LT OR ISZERO PUSH2 0x423 JUMPI PUSH2 0x423 PUSH2 0x3BE JUMP JUMPDEST DUP2 PUSH1 0x40 MSTORE DUP4 DUP2 MSTORE DUP7 PUSH1 0x20 DUP6 DUP9 ADD ADD GT ISZERO PUSH2 0x43B JUMPI PUSH0 DUP1 REVERT JUMPDEST DUP4 PUSH1 0x20 DUP8 ADD PUSH1 0x20 DUP4 ADD MCOPY PUSH0 PUSH1 0x20 DUP6 DUP4 ADD ADD MSTORE DUP1 SWAP5 POP POP POP POP POP SWAP3 SWAP2 POP POP JUMP JUMPDEST DUP1 MLOAD DUP1 ISZERO ISZERO DUP2 EQ PUSH2 0x469 JUMPI PUSH0 DUP1 REVERT JUMPDEST SWAP2 SWAP1 POP JUMP JUMPDEST PUSH0 DUP1 PUSH0 DUP1 PUSH0 DUP1 PUSH0 DUP1 PUSH0 DUP1 PUSH2 0x140 DUP12 DUP14 SUB SLT ISZERO PUSH2 0x488 JUMPI PUSH0 DUP1 REVERT JUMPDEST DUP11 MLOAD PUSH1 0x1 PUSH1 0x1 PUSH1 0x40 SHL SUB DUP1 DUP3 GT ISZERO PUSH2 0x49E JUMPI PUSH0 DUP1 REVERT JUMPDEST PUSH2 0x4AA DUP15 DUP4 DUP16 ADD PUSH2 0x3D2 JUMP JUMPDEST SWAP12 POP PUSH1 0x20 DUP14 ADD MLOAD SWAP2 POP DUP1 DUP3 GT ISZERO PUSH2 0x4BF JUMPI PUSH0 DUP1 REVERT JUMPDEST POP PUSH2 0x4CC DUP14 DUP3 DUP15 ADD PUSH2 0x3D2 JUMP JUMPDEST SWAP10 POP POP PUSH1 0x40 DUP12 ADD MLOAD SWAP8 POP PUSH2 0x4E2 PUSH1 0x60 DUP13 ADD PUSH2 0x45A JUMP JUMPDEST SWAP7 POP PUSH1 0x80 DUP12 ADD MLOAD SWAP6 POP PUSH1 0xA0 DUP12 ADD MLOAD SWAP5 POP PUSH1 0xC0 DUP12 ADD MLOAD SWAP4 POP PUSH1 0xE0 DUP12 ADD MLOAD SWAP3 POP PUSH2 0x100 DUP12 ADD MLOAD SWAP2 POP PUSH2 0x120 DUP12 ADD MLOAD SWAP1 POP SWAP3 SWAP6 SWAP9 SWAP12 SWAP2 SWAP5 SWAP8 SWAP11 POP SWAP3 SWAP6 SWAP9 POP JUMP JUMPDEST PUSH1 0x1 DUP2 DUP2 SHR SWAP1 DUP3 AND DUP1 PUSH2 0x533 JUMPI PUSH1 0x7F DUP3 AND SWAP2 POP JUMPDEST PUSH1 0x20 DUP3 LT DUP2 SUB PUSH2 0x551 JUMPI PUSH4 0x4E487B71 PUSH1 0xE0 SHL PUSH0 MSTORE PUSH1 0x22 PUSH1 0x4 MSTORE PUSH1 0x24 PUSH0 REVERT JUMPDEST POP SWAP2 SWAP1 POP JUMP JUMPDEST PUSH1 0x1F DUP3 GT ISZERO PUSH2 0x59E JUMPI DUP1 PUSH0 MSTORE PUSH1 0x20 PUSH0 KECCAK256 PUSH1 0x1F DUP5 ADD PUSH1 0x5 SHR DUP2 ADD PUSH1 0x20 DUP6 LT ISZERO PUSH2 0x57C JUMPI POP DUP1 JUMPDEST PUSH1 0x1F DUP5 ADD PUSH1 0x5 SHR DUP3 ADD SWAP2 POP JUMPDEST DUP2 DUP2 LT ISZERO PUSH2 0x59B JUMPI PUSH0 DUP2 SSTORE PUSH1 0x1 ADD PUSH2 0x588 JUMP JUMPDEST POP POP JUMPDEST POP POP POP JUMP JUMPDEST DUP2 MLOAD PUSH1 0x1 PUSH1 0x1 PUSH1 0x40 SHL SUB DUP2 GT ISZERO PUSH2 0x5BC JUMPI PUSH2 0x5BC PUSH2 0x3BE JUMP JUMPDEST PUSH2 0x5D0 DUP2 PUSH2 0x5CA DUP5 SLOAD PUSH2 0x51F JUMP JUMPDEST DUP5 PUSH2 0x557 JUMP JUMPDEST PUSH1 0x20 DUP1 PUSH1 0x1F DUP4 GT PUSH1 0x1 DUP2 EQ PUSH2 0x603 JUMPI PUSH0 DUP5 ISZERO PUSH2 0x5EC JUMPI POP DUP6 DUP4 ADD MLOAD JUMPDEST PUSH0 NOT PUSH1 0x3 DUP7 SWAP1 SHL SHR NOT AND PUSH1 0x1 DUP6 SWAP1 SHL OR DUP6 SSTORE PUSH2 0x65A JUMP JUMPDEST PUSH0 DUP6 DUP2 MSTORE PUSH1 0x20 DUP2 KECCAK256 PUSH1 0x1F NOT DUP7 AND SWAP2 JUMPDEST DUP3 DUP2 LT ISZERO PUSH2 0x631 JUMPI DUP9 DUP7 ADD MLOAD DUP3 SSTORE SWAP5 DUP5 ADD SWAP5 PUSH1 0x1 SWAP1 SWAP2 ADD SWAP1 DUP5 ADD PUSH2 0x612 JUMP JUMPDEST POP DUP6 DUP3 LT ISZERO PUSH2 0x64E JUMPI DUP8 DUP6 ADD MLOAD PUSH0 NOT PUSH1 0x3 DUP9 SWAP1 SHL PUSH1 0xF8 AND SHR NOT AND DUP2 SSTORE JUMPDEST POP POP PUSH1 0x1 DUP5 PUSH1 0x1 SHL ADD DUP6 SSTORE JUMPDEST POP POP POP POP POP POP JUMP JUMPDEST PUSH2 0x2600 DUP1 PUSH2 0x66F PUSH0 CODECOPY PUSH0 RETURN INVALID PUSH1 0x80 PUSH1 0x40 MSTORE PUSH1 0x4 CALLDATASIZE LT PUSH2 0x2F3 JUMPI PUSH0 CALLDATALOAD PUSH1 0xE0 SHR DUP1 PUSH4 0x86FE4302 GT PUSH2 0x189 JUMPI DUP1 PUSH4 0xC7961902 GT PUSH2 0xD8 JUMPI DUP1 PUSH4 0xE1B83E3C GT PUSH2 0x92 JUMPI DUP1 PUSH4 0xEE99205C GT PUSH2 0x6D JUMPI DUP1 PUSH4 0xEE99205C EQ PUSH2 0x7CC JUMPI DUP1 PUSH4 0xF2FDE38B EQ PUSH2 0x7EB JUMPI DUP1 PUSH4 0xF7817DAE EQ PUSH2 0x80A JUMPI DUP1 PUSH4 0xFA095E2E EQ PUSH2 0x81F JUMPI PUSH0 DUP1 REVERT JUMPDEST DUP1 PUSH4 0xE1B83E3C EQ PUSH2 0x783 JUMPI DUP1 PUSH4 0xE6B75B2A EQ PUSH2 0x7A2 JUMPI DUP1 PUSH4 0xEC79FA14 EQ PUSH2 0x7B7 JUMPI PUSH0 DUP1 REVERT JUMPDEST DUP1 PUSH4 0xC7961902 EQ PUSH2 0x6F7 JUMPI DUP1 PUSH4 0xCBA25E79 EQ PUSH2 0x710 JUMPI DUP1 PUSH4 0xCD96F5D1 EQ PUSH2 0x725 JUMPI DUP1 PUSH4 0xD41D71A6 EQ PUSH2 0x73A JUMPI DUP1 PUSH4 0xD7236943 EQ PUSH2 0x74F JUMPI DUP1 PUSH4 0xDBA12EB3 EQ PUSH2 0x76E JUMPI PUSH0 DUP1 REVERT JUMPDEST DUP1 PUSH4 0xA28A4D86 GT PUSH2 0x143 JUMPI DUP1 PUSH4 0xA82524B2 GT PUSH2 0x11E JUMPI DUP1 PUSH4 0xA82524B2 EQ PUSH2 0x699 JUMPI DUP1 PUSH4 0xC45A0155 EQ PUSH2 0x6AE JUMPI DUP1 PUSH4 0xC4FC3A3B EQ PUSH2 0x6CD JUMPI DUP1 PUSH4 0xC5FA27B7 EQ PUSH2 0x6E2 JUMPI PUSH0 DUP1 REVERT JUMPDEST DUP1 PUSH4 0xA28A4D86 EQ PUSH2 0x658 JUMPI DUP1 PUSH4 0xA41518BF EQ PUSH2 0x66C JUMPI DUP1 PUSH4 0xA49102D7 EQ PUSH2 0x685 JUMPI PUSH0 DUP1 REVERT JUMPDEST DUP1 PUSH4 0x86FE4302 EQ PUSH2 0x5BE JUMPI DUP1 PUSH4 0x8BDB2AFA EQ PUSH2 0x5D3 JUMPI DUP1 PUSH4 0x8D3974B2 EQ PUSH2 0x5F2 JUMPI DUP1 PUSH4 0x8DA5CB5B EQ PUSH2 0x607 JUMPI DUP1 PUSH4 0x9D76EA58 EQ PUSH2 0x624 JUMPI DUP1 PUSH4 0x9EC8E0B5 EQ PUSH2 0x643 JUMPI PUSH0 DUP1 REVERT JUMPDEST DUP1 PUSH4 0x4DCE051F GT PUSH2 0x245 JUMPI DUP1 PUSH4 0x715018A6 GT PUSH2 0x1FF JUMPI DUP1 PUSH4 0x77A21790 GT PUSH2 0x1DA JUMPI DUP1 PUSH4 0x77A21790 EQ PUSH2 0x56F JUMPI DUP1 PUSH4 0x7824407F EQ PUSH2 0x577 JUMPI DUP1 PUSH4 0x7B61C320 EQ PUSH2 0x58C JUMPI DUP1 PUSH4 0x83A9E049 EQ PUSH2 0x5A0 JUMPI PUSH0 DUP1 REVERT JUMPDEST DUP1 PUSH4 0x715018A6 EQ PUSH2 0x51C JUMPI DUP1 PUSH4 0x735DE9F7 EQ PUSH2 0x530 JUMPI DUP1 PUSH4 0x7757FC5D EQ PUSH2 0x54F JUMPI PUSH0 DUP1 REVERT JUMPDEST DUP1 PUSH4 0x4DCE051F EQ PUSH2 0x488 JUMPI DUP1 PUSH4 0x4EBD0EE4 EQ PUSH2 0x49D JUMPI DUP1 PUSH4 0x4EDFE325 EQ PUSH2 0x4B2 JUMPI DUP1 PUSH4 0x5B0D8927 EQ PUSH2 0x4C7 JUMPI DUP1 PUSH4 0x61C7AB41 EQ PUSH2 0x4E6 JUMPI DUP1 PUSH4 0x6C02A931 EQ PUSH2 0x4FB JUMPI PUSH0 DUP1 REVERT JUMPDEST DUP1 PUSH4 0x36BC180C GT PUSH2 0x2B0 JUMPI DUP1 PUSH4 0x3FC8CEF3 GT PUSH2 0x28B JUMPI DUP1 PUSH4 0x3FC8CEF3 EQ PUSH2 0x406 JUMPI DUP1 PUSH4 0x4661E71D EQ PUSH2 0x425 JUMPI DUP1 PUSH4 0x46BB2833 EQ PUSH2 0x43A JUMPI DUP1 PUSH4 0x4738A883 EQ PUSH2 0x459 JUMPI PUSH0 DUP1 REVERT JUMPDEST DUP1 PUSH4 0x36BC180C EQ PUSH2 0x3BD JUMPI DUP1 PUSH4 0x3969A9CE EQ PUSH2 0x3D2 JUMPI DUP1 PUSH4 0x3D42E94D EQ PUSH2 0x3F1 JUMPI PUSH0 DUP1 REVERT JUMPDEST DUP1 PUSH4 0x27DF6D2 EQ PUSH2 0x2F7 JUMPI DUP1 PUSH4 0x162FE42B EQ PUSH2 0x31F JUMPI DUP1 PUSH4 0x182CCD6F EQ PUSH2 0x335 JUMPI DUP1 PUSH4 0x20CA3C7F EQ PUSH2 0x348 JUMPI DUP1 PUSH4 0x296CAB55 EQ PUSH2 0x37F JUMPI DUP1 PUSH4 0x3655AC3C EQ PUSH2 0x39E JUMPI JUMPDEST PUSH0 DUP1 REVERT JUMPDEST CALLVALUE DUP1 ISZERO PUSH2 0x302 JUMPI PUSH0 DUP1 REVERT JUMPDEST POP PUSH2 0x30C PUSH1 0x15 SLOAD DUP2 JUMP JUMPDEST PUSH1 0x40 MLOAD SWAP1 DUP2 MSTORE PUSH1 0x20 ADD JUMPDEST PUSH1 0x40 MLOAD DUP1 SWAP2 SUB SWAP1 RETURN JUMPDEST CALLVALUE DUP1 ISZERO PUSH2 0x32A JUMPI PUSH0 DUP1 REVERT JUMPDEST POP PUSH2 0x333 PUSH2 0x834 JUMP JUMPDEST STOP JUMPDEST PUSH2 0x333 PUSH2 0x343 CALLDATASIZE PUSH1 0x4 PUSH2 0x166D JUMP JUMPDEST PUSH2 0x952 JUMP JUMPDEST CALLVALUE DUP1 ISZERO PUSH2 0x353 JUMPI PUSH0 DUP1 REVERT JUMPDEST POP PUSH1 0xB SLOAD PUSH2 0x367 SWAP1 PUSH1 0x1 PUSH1 0x1 PUSH1 0xA0 SHL SUB AND DUP2 JUMP JUMPDEST PUSH1 0x40 MLOAD PUSH1 0x1 PUSH1 0x1 PUSH1 0xA0 SHL SUB SWAP1 SWAP2 AND DUP2 MSTORE PUSH1 0x20 ADD PUSH2 0x316 JUMP JUMPDEST CALLVALUE DUP1 ISZERO PUSH2 0x38A JUMPI PUSH0 DUP1 REVERT JUMPDEST POP PUSH2 0x333 PUSH2 0x399 CALLDATASIZE PUSH1 0x4 PUSH2 0x166D JUMP JUMPDEST PUSH2 0xA5A JUMP JUMPDEST CALLVALUE DUP1 ISZERO PUSH2 0x3A9 JUMPI PUSH0 DUP1 REVERT JUMPDEST POP PUSH1 0xC SLOAD PUSH2 0x367 SWAP1 PUSH1 0x1 PUSH1 0x1 PUSH1 0xA0 SHL SUB AND DUP2 JUMP JUMPDEST CALLVALUE DUP1 ISZERO PUSH2 0x3C8 JUMPI PUSH0 DUP1 REVERT JUMPDEST POP PUSH2 0x30C PUSH1 0x22 SLOAD DUP2 JUMP JUMPDEST CALLVALUE DUP1 ISZERO PUSH2 0x3DD JUMPI PUSH0 DUP1 REVERT JUMPDEST POP PUSH2 0x333 PUSH2 0x3EC CALLDATASIZE PUSH1 0x4 PUSH2 0x1684 JUMP JUMPDEST PUSH2 0xA9E JUMP JUMPDEST CALLVALUE DUP1 ISZERO PUSH2 0x3FC JUMPI PUSH0 DUP1 REVERT JUMPDEST POP PUSH2 0x30C PUSH1 0x13 SLOAD DUP2 JUMP JUMPDEST CALLVALUE DUP1 ISZERO PUSH2 0x411 JUMPI PUSH0 DUP1 REVERT JUMPDEST POP PUSH1 0xA SLOAD PUSH2 0x367 SWAP1 PUSH1 0x1 PUSH1 0x1 PUSH1 0xA0 SHL SUB AND DUP2 JUMP JUMPDEST CALLVALUE DUP1 ISZERO PUSH2 0x430 JUMPI PUSH0 DUP1 REVERT JUMPDEST POP PUSH2 0x30C PUSH1 0x20 SLOAD DUP2 JUMP JUMPDEST CALLVALUE DUP1 ISZERO PUSH2 0x445 JUMPI PUSH0 DUP1 REVERT JUMPDEST POP PUSH1 0x6 SLOAD PUSH2 0x367 SWAP1 PUSH1 0x1 PUSH1 0x1 PUSH1 0xA0 SHL SUB AND DUP2 JUMP JUMPDEST CALLVALUE DUP1 ISZERO PUSH2 0x464 JUMPI PUSH0 DUP1 REVERT JUMPDEST POP PUSH1 0x16 SLOAD PUSH2 0x478 SWAP1 PUSH3 0x10000 SWAP1 DIV PUSH1 0xFF AND DUP2 JUMP JUMPDEST PUSH1 0x40 MLOAD SWAP1 ISZERO ISZERO DUP2 MSTORE PUSH1 0x20 ADD PUSH2 0x316 JUMP JUMPDEST CALLVALUE DUP1 ISZERO PUSH2 0x493 JUMPI PUSH0 DUP1 REVERT JUMPDEST POP PUSH2 0x30C PUSH1 0x1F SLOAD DUP2 JUMP JUMPDEST CALLVALUE DUP1 ISZERO PUSH2 0x4A8 JUMPI PUSH0 DUP1 REVERT JUMPDEST POP PUSH2 0x30C PUSH1 0x14 SLOAD DUP2 JUMP JUMPDEST CALLVALUE DUP1 ISZERO PUSH2 0x4BD JUMPI PUSH0 DUP1 REVERT JUMPDEST POP PUSH2 0x30C PUSH1 0x18 SLOAD DUP2 JUMP JUMPDEST CALLVALUE DUP1 ISZERO PUSH2 0x4D2 JUMPI PUSH0 DUP1 REVERT JUMPDEST POP PUSH2 0x333 PUSH2 0x4E1 CALLDATASIZE PUSH1 0x4 PUSH2 0x166D JUMP JUMPDEST PUSH2 0xBAE JUMP JUMPDEST CALLVALUE DUP1 ISZERO PUSH2 0x4F1 JUMPI PUSH0 DUP1 REVERT JUMPDEST POP PUSH2 0x30C PUSH1 0x1E SLOAD DUP2 JUMP JUMPDEST CALLVALUE DUP1 ISZERO PUSH2 0x506 JUMPI PUSH0 DUP1 REVERT JUMPDEST POP PUSH2 0x50F PUSH2 0xBE9 JUMP JUMPDEST PUSH1 0x40 MLOAD PUSH2 0x316 SWAP2 SWAP1 PUSH2 0x16B3 JUMP JUMPDEST CALLVALUE DUP1 ISZERO PUSH2 0x527 JUMPI PUSH0 DUP1 REVERT JUMPDEST POP PUSH2 0x333 PUSH2 0xC75 JUMP JUMPDEST CALLVALUE DUP1 ISZERO PUSH2 0x53B JUMPI PUSH0 DUP1 REVERT JUMPDEST POP PUSH1 0xD SLOAD PUSH2 0x367 SWAP1 PUSH1 0x1 PUSH1 0x1 PUSH1 0xA0 SHL SUB AND DUP2 JUMP JUMPDEST CALLVALUE DUP1 ISZERO PUSH2 0x55A JUMPI PUSH0 DUP1 REVERT JUMPDEST POP PUSH1 0x16 SLOAD PUSH2 0x478 SWAP1 PUSH4 0x1000000 SWAP1 DIV PUSH1 0xFF AND DUP2 JUMP JUMPDEST PUSH2 0x333 PUSH2 0xC86 JUMP JUMPDEST CALLVALUE DUP1 ISZERO PUSH2 0x582 JUMPI PUSH0 DUP1 REVERT JUMPDEST POP PUSH2 0x30C PUSH1 0x4 SLOAD DUP2 JUMP JUMPDEST CALLVALUE DUP1 ISZERO PUSH2 0x597 JUMPI PUSH0 DUP1 REVERT JUMPDEST POP PUSH2 0x50F PUSH2 0xD68 JUMP JUMPDEST CALLVALUE DUP1 ISZERO PUSH2 0x5AB JUMPI PUSH0 DUP1 REVERT JUMPDEST POP PUSH1 0x16 SLOAD PUSH2 0x478 SWAP1 PUSH2 0x100 SWAP1 DIV PUSH1 0xFF AND DUP2 JUMP JUMPDEST CALLVALUE DUP1 ISZERO PUSH2 0x5C9 JUMPI PUSH0 DUP1 REVERT JUMPDEST POP PUSH2 0x30C PUSH1 0x25 SLOAD DUP2 JUMP JUMPDEST CALLVALUE DUP1 ISZERO PUSH2 0x5DE JUMPI PUSH0 DUP1 REVERT JUMPDEST POP PUSH1 0xE SLOAD PUSH2 0x367 SWAP1 PUSH1 0x1 PUSH1 0x1 PUSH1 0xA0 SHL SUB AND DUP2 JUMP JUMPDEST CALLVALUE DUP1 ISZERO PUSH2 0x5FD JUMPI PUSH0 DUP1 REVERT JUMPDEST POP PUSH2 0x30C PUSH1 0x28 SLOAD DUP2 JUMP JUMPDEST CALLVALUE DUP1 ISZERO PUSH2 0x612 JUMPI PUSH0 DUP1 REVERT JUMPDEST POP PUSH1 0x1 SLOAD PUSH1 0x1 PUSH1 0x1 PUSH1 0xA0 SHL SUB AND PUSH2 0x367 JUMP JUMPDEST CALLVALUE DUP1 ISZERO PUSH2 0x62F JUMPI PUSH0 DUP1 REVERT JUMPDEST POP PUSH1 0x5 SLOAD PUSH2 0x367 SWAP1 PUSH1 0x1 PUSH1 0x1 PUSH1 0xA0 SHL SUB AND DUP2 JUMP JUMPDEST CALLVALUE DUP1 ISZERO PUSH2 0x64E JUMPI PUSH0 DUP1 REVERT JUMPDEST POP PUSH2 0x30C PUSH1 0x1D SLOAD DUP2 JUMP JUMPDEST CALLVALUE DUP1 ISZERO PUSH2 0x663 JUMPI PUSH0 DUP1 REVERT JUMPDEST POP PUSH2 0x333 PUSH2 0xD75 JUMP JUMPDEST CALLVALUE DUP1 ISZERO PUSH2 0x677 JUMPI PUSH0 DUP1 REVERT JUMPDEST POP PUSH1 0x23 SLOAD PUSH2 0x478 SWAP1 PUSH1 0xFF AND DUP2 JUMP JUMPDEST CALLVALUE DUP1 ISZERO PUSH2 0x690 JUMPI PUSH0 DUP1 REVERT JUMPDEST POP PUSH2 0x333 PUSH2 0x1494 JUMP JUMPDEST CALLVALUE DUP1 ISZERO PUSH2 0x6A4 JUMPI PUSH0 DUP1 REVERT JUMPDEST POP PUSH2 0x30C PUSH1 0x21 SLOAD DUP2 JUMP JUMPDEST CALLVALUE DUP1 ISZERO PUSH2 0x6B9 JUMPI PUSH0 DUP1 REVERT JUMPDEST POP PUSH1 0x7 SLOAD PUSH2 0x367 SWAP1 PUSH1 0x1 PUSH1 0x1 PUSH1 0xA0 SHL SUB AND DUP2 JUMP JUMPDEST CALLVALUE DUP1 ISZERO PUSH2 0x6D8 JUMPI PUSH0 DUP1 REVERT JUMPDEST POP PUSH2 0x30C PUSH1 0xF SLOAD DUP2 JUMP JUMPDEST CALLVALUE DUP1 ISZERO PUSH2 0x6ED JUMPI PUSH0 DUP1 REVERT JUMPDEST POP PUSH2 0x30C PUSH1 0x24 SLOAD DUP2 JUMP JUMPDEST CALLVALUE DUP1 ISZERO PUSH2 0x702 JUMPI PUSH0 DUP1 REVERT JUMPDEST POP PUSH1 0x16 SLOAD PUSH2 0x478 SWAP1 PUSH1 0xFF AND DUP2 JUMP JUMPDEST CALLVALUE DUP1 ISZERO PUSH2 0x71B JUMPI PUSH0 DUP1 REVERT JUMPDEST POP PUSH2 0x30C PUSH1 0x17 SLOAD DUP2 JUMP JUMPDEST CALLVALUE DUP1 ISZERO PUSH2 0x730 JUMPI PUSH0 DUP1 REVERT JUMPDEST POP PUSH2 0x30C PUSH1 0x10 SLOAD DUP2 JUMP JUMPDEST CALLVALUE DUP1 ISZERO PUSH2 0x745 JUMPI PUSH0 DUP1 REVERT JUMPDEST POP PUSH2 0x30C PUSH1 0x1A SLOAD DUP2 JUMP JUMPDEST CALLVALUE DUP1 ISZERO PUSH2 0x75A JUMPI PUSH0 DUP1 REVERT JUMPDEST POP PUSH1 0x9 SLOAD PUSH2 0x367 SWAP1 PUSH1 0x1 PUSH1 0x1 PUSH1 0xA0 SHL SUB AND DUP2 JUMP JUMPDEST CALLVALUE DUP1 ISZERO PUSH2 0x779 JUMPI PUSH0 DUP1 REVERT JUMPDEST POP PUSH2 0x30C PUSH1 0x1B SLOAD DUP2 JUMP JUMPDEST CALLVALUE DUP1 ISZERO PUSH2 0x78E JUMPI PUSH0 DUP1 REVERT JUMPDEST POP PUSH2 0x333 PUSH2 0x79D CALLDATASIZE PUSH1 0x4 PUSH2 0x166D JUMP JUMPDEST PUSH2 0x150F JUMP JUMPDEST CALLVALUE DUP1 ISZERO PUSH2 0x7AD JUMPI PUSH0 DUP1 REVERT JUMPDEST POP PUSH2 0x30C PUSH1 0x12 SLOAD DUP2 JUMP JUMPDEST CALLVALUE DUP1 ISZERO PUSH2 0x7C2 JUMPI PUSH0 DUP1 REVERT JUMPDEST POP PUSH2 0x30C PUSH1 0x1C SLOAD DUP2 JUMP JUMPDEST CALLVALUE DUP1 ISZERO PUSH2 0x7D7 JUMPI PUSH0 DUP1 REVERT JUMPDEST POP PUSH1 0x8 SLOAD PUSH2 0x367 SWAP1 PUSH1 0x1 PUSH1 0x1 PUSH1 0xA0 SHL SUB AND DUP2 JUMP JUMPDEST CALLVALUE DUP1 ISZERO PUSH2 0x7F6 JUMPI PUSH0 DUP1 REVERT JUMPDEST POP PUSH2 0x333 PUSH2 0x805 CALLDATASIZE PUSH1 0x4 PUSH2 0x16FC JUMP JUMPDEST PUSH2 0x154C JUMP JUMPDEST CALLVALUE DUP1 ISZERO PUSH2 0x815 JUMPI PUSH0 DUP1 REVERT JUMPDEST POP PUSH2 0x30C PUSH1 0x11 SLOAD DUP2 JUMP JUMPDEST CALLVALUE DUP1 ISZERO PUSH2 0x82A JUMPI PUSH0 DUP1 REVERT JUMPDEST POP PUSH2 0x30C PUSH1 0x19 SLOAD DUP2 JUMP JUMPDEST PUSH2 0x83C PUSH2 0x158B JUMP JUMPDEST PUSH1 0x5 SLOAD PUSH1 0x1 PUSH1 0x1 PUSH1 0xA0 SHL SUB AND PUSH2 0x850 JUMPI PUSH0 DUP1 REVERT JUMPDEST CALLER PUSH0 SWAP1 DUP2 MSTORE PUSH1 0x26 PUSH1 0x20 MSTORE PUSH1 0x40 DUP2 KECCAK256 SLOAD SWAP1 SUB PUSH2 0x869 JUMPI PUSH0 DUP1 REVERT JUMPDEST PUSH1 0x18 SLOAD PUSH1 0x28 SLOAD LT ISZERO PUSH2 0x879 JUMPI PUSH0 DUP1 REVERT JUMPDEST CALLER PUSH0 SWAP1 DUP2 MSTORE PUSH1 0x26 PUSH1 0x20 MSTORE PUSH1 0x40 DUP2 KECCAK256 SLOAD PUSH1 0x28 SLOAD SWAP1 SWAP2 SWAP1 PUSH2 0x898 SWAP1 DUP4 PUSH2 0x1732 JUMP JUMPDEST PUSH1 0xF SLOAD PUSH2 0x8A5 SWAP2 SWAP1 PUSH2 0x1751 JUMP JUMPDEST CALLER PUSH0 DUP2 DUP2 MSTORE PUSH1 0x27 PUSH1 0x20 MSTORE PUSH1 0x40 SWAP1 DUP2 SWAP1 KECCAK256 DUP1 SLOAD PUSH1 0xFF NOT AND PUSH1 0x1 OR SWAP1 SSTORE PUSH1 0x5 SLOAD SWAP1 MLOAD PUSH4 0xA9059CBB PUSH1 0xE0 SHL DUP2 MSTORE SWAP3 SWAP4 POP PUSH1 0x1 PUSH1 0x1 PUSH1 0xA0 SHL SUB AND SWAP2 PUSH4 0xA9059CBB SWAP2 PUSH2 0x904 SWAP2 DUP6 SWAP1 PUSH1 0x4 ADD PUSH1 0x1 PUSH1 0x1 PUSH1 0xA0 SHL SUB SWAP3 SWAP1 SWAP3 AND DUP3 MSTORE PUSH1 0x20 DUP3 ADD MSTORE PUSH1 0x40 ADD SWAP1 JUMP JUMPDEST PUSH1 0x20 PUSH1 0x40 MLOAD DUP1 DUP4 SUB DUP2 PUSH0 DUP8 GAS CALL ISZERO DUP1 ISZERO PUSH2 0x920 JUMPI RETURNDATASIZE PUSH0 DUP1 RETURNDATACOPY RETURNDATASIZE PUSH0 REVERT JUMPDEST POP POP POP POP PUSH1 0x40 MLOAD RETURNDATASIZE PUSH1 0x1F NOT PUSH1 0x1F DUP3 ADD AND DUP3 ADD DUP1 PUSH1 0x40 MSTORE POP DUP2 ADD SWAP1 PUSH2 0x944 SWAP2 SWAP1 PUSH2 0x176E JUMP JUMPDEST POP POP POP PUSH2 0x950 PUSH1 0x1 PUSH0 SSTORE JUMP JUMPDEST JUMP JUMPDEST PUSH2 0x95A PUSH2 0x158B JUMP JUMPDEST DUP1 CALLVALUE EQ PUSH2 0x965 JUMPI PUSH0 DUP1 REVERT JUMPDEST PUSH1 0x19 SLOAD CALLER PUSH0 SWAP1 DUP2 MSTORE PUSH1 0x26 PUSH1 0x20 MSTORE PUSH1 0x40 SWAP1 KECCAK256 SLOAD PUSH2 0x981 SWAP1 CALLVALUE PUSH2 0x178D JUMP JUMPDEST GT ISZERO PUSH2 0x98B JUMPI PUSH0 DUP1 REVERT JUMPDEST PUSH1 0x1A SLOAD DUP2 GT PUSH2 0x998 JUMPI PUSH0 DUP1 REVERT JUMPDEST PUSH1 0x17 SLOAD PUSH1 0x28 SLOAD PUSH2 0x9A8 SWAP1 DUP4 PUSH2 0x178D JUMP JUMPDEST GT ISZERO PUSH2 0x9B2 JUMPI PUSH0 DUP1 REVERT JUMPDEST PUSH1 0x16 SLOAD PUSH2 0x100 SWAP1 DIV PUSH1 0xFF AND PUSH2 0x9C5 JUMPI PUSH0 DUP1 REVERT JUMPDEST PUSH1 0x18 SLOAD PUSH1 0x28 SLOAD PUSH2 0x9D5 SWAP1 DUP4 PUSH2 0x178D JUMP JUMPDEST LT ISZERO DUP1 ISZERO PUSH2 0x9E6 JUMPI POP PUSH1 0x23 SLOAD PUSH1 0xFF AND ISZERO JUMPDEST ISZERO PUSH2 0x9FD JUMPI NUMBER PUSH1 0x22 SSTORE PUSH1 0x23 DUP1 SLOAD PUSH1 0xFF NOT AND PUSH1 0x1 OR SWAP1 SSTORE JUMPDEST PUSH1 0x17 SLOAD PUSH1 0x28 SLOAD PUSH2 0xA0D SWAP1 DUP4 PUSH2 0x178D JUMP JUMPDEST SUB PUSH2 0xA17 JUMPI NUMBER PUSH1 0x24 SSTORE JUMPDEST DUP1 PUSH1 0x28 PUSH0 DUP3 DUP3 SLOAD PUSH2 0xA28 SWAP2 SWAP1 PUSH2 0x178D JUMP JUMPDEST SWAP1 SWAP2 SSTORE POP POP CALLER PUSH0 SWAP1 DUP2 MSTORE PUSH1 0x26 PUSH1 0x20 MSTORE PUSH1 0x40 DUP2 KECCAK256 DUP1 SLOAD DUP4 SWAP3 SWAP1 PUSH2 0xA4B SWAP1 DUP5 SWAP1 PUSH2 0x178D JUMP JUMPDEST SWAP1 SWAP2 SSTORE POP POP PUSH1 0x1 PUSH0 SSTORE POP JUMP JUMPDEST POP JUMP JUMPDEST PUSH2 0xA62 PUSH2 0x15E2 JUMP JUMPDEST PUSH1 0x21 DUP2 SWAP1 SSTORE PUSH1 0x40 MLOAD DUP2 DUP2 MSTORE PUSH32 0xC2BDF2B17735DDEDBE2FFC657FE8487F25F54889057AE72B1D5AC6FF1634EEBB SWAP1 PUSH1 0x20 ADD JUMPDEST PUSH1 0x40 MLOAD DUP1 SWAP2 SUB SWAP1 LOG1 POP JUMP JUMPDEST PUSH2 0xAA6 PUSH2 0x15E2 JUMP JUMPDEST PUSH1 0x16 SLOAD PUSH1 0xFF AND PUSH2 0xAB4 JUMPI PUSH0 DUP1 REVERT JUMPDEST PUSH1 0x16 SLOAD PUSH2 0x100 SWAP1 DIV PUSH1 0xFF AND ISZERO DUP1 ISZERO PUSH2 0xAD4 JUMPI POP PUSH1 0x16 SLOAD PUSH3 0x10000 SWAP1 DIV PUSH1 0xFF AND JUMPDEST PUSH2 0xADC JUMPI PUSH0 DUP1 REVERT JUMPDEST PUSH1 0x1D SLOAD DUP5 GT ISZERO PUSH2 0xAEA JUMPI PUSH0 DUP1 REVERT JUMPDEST PUSH1 0x1D SLOAD DUP4 GT ISZERO PUSH2 0xAF8 JUMPI PUSH0 DUP1 REVERT JUMPDEST PUSH1 0x1D SLOAD DUP3 GT ISZERO PUSH2 0xB06 JUMPI PUSH0 DUP1 REVERT JUMPDEST PUSH1 0x1D SLOAD DUP2 GT ISZERO PUSH2 0xB14 JUMPI PUSH0 DUP1 REVERT JUMPDEST PUSH1 0x1D SLOAD PUSH2 0xB22 SWAP1 PUSH1 0x2 PUSH2 0x1751 JUMP JUMPDEST DUP2 DUP4 PUSH2 0xB2E DUP7 DUP9 PUSH2 0x178D JUMP JUMPDEST PUSH2 0xB38 SWAP2 SWAP1 PUSH2 0x178D JUMP JUMPDEST PUSH2 0xB42 SWAP2 SWAP1 PUSH2 0x178D JUMP JUMPDEST GT ISZERO PUSH2 0xB4C JUMPI PUSH0 DUP1 REVERT JUMPDEST PUSH1 0x12 DUP5 SWAP1 SSTORE PUSH1 0x13 DUP4 SWAP1 SSTORE PUSH1 0x14 DUP3 SWAP1 SSTORE PUSH1 0x15 DUP2 SWAP1 SSTORE PUSH1 0x40 DUP1 MLOAD DUP6 DUP2 MSTORE PUSH1 0x20 DUP2 ADD DUP6 SWAP1 MSTORE SWAP1 DUP2 ADD DUP4 SWAP1 MSTORE PUSH1 0x60 DUP2 ADD DUP3 SWAP1 MSTORE PUSH32 0x1307657C8E5AC9A807597AC0994B06AADC09DD69EC21B32CABF8D6FB26E4D745 SWAP1 PUSH1 0x80 ADD PUSH1 0x40 MLOAD DUP1 SWAP2 SUB SWAP1 LOG1 POP POP POP POP JUMP JUMPDEST PUSH2 0xBB6 PUSH2 0x15E2 JUMP JUMPDEST PUSH1 0x20 DUP2 DUP2 SSTORE PUSH1 0x40 MLOAD DUP3 DUP2 MSTORE PUSH32 0xB2CE785ED4AC87AD9611F20CF068CD12359BDC59A42173A02A65911EC3CF4912 SWAP2 ADD PUSH2 0xA93 JUMP JUMPDEST PUSH1 0x2 DUP1 SLOAD PUSH2 0xBF6 SWAP1 PUSH2 0x17A0 JUMP JUMPDEST DUP1 PUSH1 0x1F ADD PUSH1 0x20 DUP1 SWAP2 DIV MUL PUSH1 0x20 ADD PUSH1 0x40 MLOAD SWAP1 DUP2 ADD PUSH1 0x40 MSTORE DUP1 SWAP3 SWAP2 SWAP1 DUP2 DUP2 MSTORE PUSH1 0x20 ADD DUP3 DUP1 SLOAD PUSH2 0xC22 SWAP1 PUSH2 0x17A0 JUMP JUMPDEST DUP1 ISZERO PUSH2 0xC6D JUMPI DUP1 PUSH1 0x1F LT PUSH2 0xC44 JUMPI PUSH2 0x100 DUP1 DUP4 SLOAD DIV MUL DUP4 MSTORE SWAP2 PUSH1 0x20 ADD SWAP2 PUSH2 0xC6D JUMP JUMPDEST DUP3 ADD SWAP2 SWAP1 PUSH0 MSTORE PUSH1 0x20 PUSH0 KECCAK256 SWAP1 JUMPDEST DUP2 SLOAD DUP2 MSTORE SWAP1 PUSH1 0x1 ADD SWAP1 PUSH1 0x20 ADD DUP1 DUP4 GT PUSH2 0xC50 JUMPI DUP3 SWAP1 SUB PUSH1 0x1F AND DUP3 ADD SWAP2 JUMPDEST POP POP POP POP POP DUP2 JUMP JUMPDEST PUSH2 0xC7D PUSH2 0x15E2 JUMP JUMPDEST PUSH2 0x950 PUSH0 PUSH2 0x160F JUMP JUMPDEST PUSH2 0xC8E PUSH2 0x158B JUMP JUMPDEST PUSH1 0x5 SLOAD PUSH1 0x1 PUSH1 0x1 PUSH1 0xA0 SHL SUB AND ISZERO PUSH2 0xCA3 JUMPI PUSH0 DUP1 REVERT JUMPDEST CALLER PUSH0 SWAP1 DUP2 MSTORE PUSH1 0x26 PUSH1 0x20 MSTORE PUSH1 0x40 DUP2 KECCAK256 SLOAD SWAP1 SUB PUSH2 0xCBC JUMPI PUSH0 DUP1 REVERT JUMPDEST PUSH1 0x16 SLOAD PUSH2 0x100 SWAP1 DIV PUSH1 0xFF AND ISZERO DUP1 ISZERO PUSH2 0xCD7 JUMPI POP PUSH1 0x28 SLOAD PUSH1 0x18 SLOAD LT JUMPDEST PUSH2 0xCDF JUMPI PUSH0 DUP1 REVERT JUMPDEST PUSH1 0x1E SLOAD PUSH2 0xCEC DUP2 NUMBER PUSH2 0x17D8 JUMP JUMPDEST LT PUSH2 0xCF5 JUMPI PUSH0 DUP1 REVERT JUMPDEST CALLER PUSH0 SWAP1 DUP2 MSTORE PUSH1 0x27 PUSH1 0x20 MSTORE PUSH1 0x40 SWAP1 KECCAK256 SLOAD PUSH1 0xFF AND ISZERO PUSH2 0xD10 JUMPI PUSH0 DUP1 REVERT JUMPDEST CALLER PUSH0 DUP2 DUP2 MSTORE PUSH1 0x26 PUSH1 0x20 SWAP1 DUP2 MSTORE PUSH1 0x40 DUP1 DUP4 KECCAK256 SLOAD PUSH1 0x27 SWAP1 SWAP3 MSTORE DUP1 DUP4 KECCAK256 DUP1 SLOAD PUSH1 0xFF NOT AND PUSH1 0x1 OR SWAP1 SSTORE MLOAD SWAP1 SWAP3 SWAP2 DUP4 ISZERO PUSH2 0x8FC MUL SWAP2 DUP5 SWAP2 DUP2 DUP2 DUP2 DUP6 DUP9 DUP9 CALL SWAP4 POP POP POP POP ISZERO DUP1 ISZERO PUSH2 0xD5D JUMPI RETURNDATASIZE PUSH0 DUP1 RETURNDATACOPY RETURNDATASIZE PUSH0 REVERT JUMPDEST POP POP PUSH2 0x950 PUSH1 0x1 PUSH0 SSTORE JUMP JUMPDEST PUSH1 0x3 DUP1 SLOAD PUSH2 0xBF6 SWAP1 PUSH2 0x17A0 JUMP JUMPDEST PUSH2 0xD7D PUSH2 0x158B JUMP JUMPDEST PUSH1 0x1 SLOAD PUSH1 0x1 PUSH1 0x1 PUSH1 0xA0 SHL SUB AND CALLER EQ DUP1 PUSH2 0xD98 JUMPI POP PUSH1 0x16 SLOAD PUSH1 0xFF AND JUMPDEST PUSH2 0xDA0 JUMPI PUSH0 DUP1 REVERT JUMPDEST PUSH1 0x18 SLOAD PUSH1 0x28 SLOAD LT ISZERO DUP1 PUSH2 0xDB6 JUMPI POP PUSH1 0x16 SLOAD PUSH1 0xFF AND ISZERO JUMPDEST PUSH2 0xDBE JUMPI PUSH0 DUP1 REVERT JUMPDEST PUSH3 0x6AC3E9 PUSH1 0x22 SLOAD NUMBER PUSH2 0xDD0 SWAP2 SWAP1 PUSH2 0x17D8 JUMP JUMPDEST LT PUSH2 0xDD9 JUMPI PUSH0 DUP1 REVERT JUMPDEST PUSH0 PUSH1 0x4 SLOAD PUSH1 0x2 PUSH1 0x3 PUSH1 0x40 MLOAD PUSH2 0xDED SWAP1 PUSH2 0x1660 JUMP JUMPDEST PUSH2 0xDF9 SWAP4 SWAP3 SWAP2 SWAP1 PUSH2 0x188A JUMP JUMPDEST PUSH1 0x40 MLOAD DUP1 SWAP2 SUB SWAP1 PUSH0 CREATE DUP1 ISZERO DUP1 ISZERO PUSH2 0xE12 JUMPI RETURNDATASIZE PUSH0 DUP1 RETURNDATACOPY RETURNDATASIZE PUSH0 REVERT JUMPDEST POP PUSH1 0x5 DUP1 SLOAD PUSH1 0x1 PUSH1 0x1 PUSH1 0xA0 SHL SUB NOT AND PUSH1 0x1 PUSH1 0x1 PUSH1 0xA0 SHL SUB DUP4 AND SWAP1 DUP2 OR SWAP1 SWAP2 SSTORE PUSH1 0x4 SLOAD PUSH1 0x40 MLOAD SWAP3 SWAP4 POP SWAP1 SWAP2 PUSH32 0x2834C1F24C5BB06FF7E8E4E35C9D7ED57E05E6E1BD415EFB78DB926D58F25A21 SWAP2 PUSH2 0xE6D SWAP2 PUSH1 0x2 SWAP2 PUSH1 0x3 SWAP2 PUSH2 0x18BE JUMP JUMPDEST PUSH1 0x40 MLOAD DUP1 SWAP2 SUB SWAP1 LOG2 PUSH1 0x6 SLOAD PUSH1 0x12 SLOAD PUSH1 0x40 MLOAD PUSH4 0xA9059CBB PUSH1 0xE0 SHL DUP2 MSTORE PUSH1 0x1 PUSH1 0x1 PUSH1 0xA0 SHL SUB SWAP3 DUP4 AND PUSH1 0x4 DUP3 ADD MSTORE PUSH1 0x24 DUP2 ADD SWAP2 SWAP1 SWAP2 MSTORE SWAP1 DUP3 AND SWAP1 PUSH4 0xA9059CBB SWAP1 PUSH1 0x44 ADD PUSH1 0x20 PUSH1 0x40 MLOAD DUP1 DUP4 SUB DUP2 PUSH0 DUP8 GAS CALL ISZERO DUP1 ISZERO PUSH2 0xEC9 JUMPI RETURNDATASIZE PUSH0 DUP1 RETURNDATACOPY RETURNDATASIZE PUSH0 REVERT JUMPDEST POP POP POP POP PUSH1 0x40 MLOAD RETURNDATASIZE PUSH1 0x1F NOT PUSH1 0x1F DUP3 ADD AND DUP3 ADD DUP1 PUSH1 0x40 MSTORE POP DUP2 ADD SWAP1 PUSH2 0xEED SWAP2 SWAP1 PUSH2 0x176E JUMP JUMPDEST POP PUSH0 PUSH1 0x15 SLOAD PUSH2 0x3E8 PUSH1 0x4 SLOAD PUSH1 0x5 PUSH2 0xF04 SWAP2 SWAP1 PUSH2 0x1751 JUMP JUMPDEST PUSH2 0xF0E SWAP2 SWAP1 PUSH2 0x1732 JUMP JUMPDEST PUSH2 0xF18 SWAP2 SWAP1 PUSH2 0x178D JUMP JUMPDEST PUSH1 0x8 SLOAD PUSH1 0x40 MLOAD PUSH4 0xA9059CBB PUSH1 0xE0 SHL DUP2 MSTORE PUSH1 0x1 PUSH1 0x1 PUSH1 0xA0 SHL SUB SWAP2 DUP3 AND PUSH1 0x4 DUP3 ADD MSTORE PUSH1 0x24 DUP2 ADD DUP4 SWAP1 MSTORE SWAP2 SWAP3 POP DUP4 AND SWAP1 PUSH4 0xA9059CBB SWAP1 PUSH1 0x44 ADD PUSH1 0x20 PUSH1 0x40 MLOAD DUP1 DUP4 SUB DUP2 PUSH0 DUP8 GAS CALL ISZERO DUP1 ISZERO PUSH2 0xF6A JUMPI RETURNDATASIZE PUSH0 DUP1 RETURNDATACOPY RETURNDATASIZE PUSH0 REVERT JUMPDEST POP POP POP POP PUSH1 0x40 MLOAD RETURNDATASIZE PUSH1 0x1F NOT PUSH1 0x1F DUP3 ADD AND DUP3 ADD DUP1 PUSH1 0x40 MSTORE POP DUP2 ADD SWAP1 PUSH2 0xF8E SWAP2 SWAP1 PUSH2 0x176E JUMP JUMPDEST POP PUSH0 PUSH2 0x3E8 PUSH1 0x4 SLOAD PUSH1 0x5 PUSH2 0xFA2 SWAP2 SWAP1 PUSH2 0x1751 JUMP JUMPDEST PUSH2 0xFAC SWAP2 SWAP1 PUSH2 0x1732 JUMP JUMPDEST PUSH1 0x7 SLOAD PUSH1 0x40 MLOAD PUSH4 0xA9059CBB PUSH1 0xE0 SHL DUP2 MSTORE PUSH1 0x1 PUSH1 0x1 PUSH1 0xA0 SHL SUB SWAP2 DUP3 AND PUSH1 0x4 DUP3 ADD MSTORE PUSH1 0x24 DUP2 ADD DUP4 SWAP1 MSTORE SWAP2 SWAP3 POP DUP5 AND SWAP1 PUSH4 0xA9059CBB SWAP1 PUSH1 0x44 ADD PUSH1 0x20 PUSH1 0x40 MLOAD DUP1 DUP4 SUB DUP2 PUSH0 DUP8 GAS CALL ISZERO DUP1 ISZERO PUSH2 0xFFE JUMPI RETURNDATASIZE PUSH0 DUP1 RETURNDATACOPY RETURNDATASIZE PUSH0 REVERT JUMPDEST POP POP POP POP PUSH1 0x40 MLOAD RETURNDATASIZE PUSH1 0x1F NOT PUSH1 0x1F DUP3 ADD AND DUP3 ADD DUP1 PUSH1 0x40 MSTORE POP DUP2 ADD SWAP1 PUSH2 0x1022 SWAP2 SWAP1 PUSH2 0x176E JUMP JUMPDEST POP PUSH1 0x16 DUP1 SLOAD PUSH4 0xFF000000 NOT AND PUSH4 0x1000000 OR SWAP1 SSTORE ADDRESS BALANCE PUSH0 PUSH2 0x3E8 PUSH2 0x1047 DUP4 PUSH1 0x5 PUSH2 0x1751 JUMP JUMPDEST PUSH2 0x1051 SWAP2 SWAP1 PUSH2 0x1732 JUMP JUMPDEST PUSH1 0x7 SLOAD PUSH1 0x40 MLOAD SWAP2 SWAP3 POP PUSH1 0x1 PUSH1 0x1 PUSH1 0xA0 SHL SUB AND SWAP1 DUP3 ISZERO PUSH2 0x8FC MUL SWAP1 DUP4 SWAP1 PUSH0 DUP2 DUP2 DUP2 DUP6 DUP9 DUP9 CALL SWAP4 POP POP POP POP ISZERO DUP1 ISZERO PUSH2 0x1089 JUMPI RETURNDATASIZE PUSH0 DUP1 RETURNDATACOPY RETURNDATASIZE PUSH0 REVERT JUMPDEST POP PUSH1 0xA SLOAD PUSH1 0x40 DUP1 MLOAD PUSH4 0xD0E30DB PUSH1 0xE4 SHL DUP2 MSTORE SWAP1 MLOAD ADDRESS BALANCE SWAP5 POP PUSH1 0x1 PUSH1 0x1 PUSH1 0xA0 SHL SUB SWAP1 SWAP3 AND SWAP2 PUSH4 0xD0E30DB0 SWAP2 SELFBALANCE SWAP2 PUSH1 0x4 DUP1 DUP4 ADD SWAP3 PUSH0 SWAP3 SWAP2 SWAP1 DUP3 SWAP1 SUB ADD DUP2 DUP6 DUP9 DUP1 EXTCODESIZE ISZERO DUP1 ISZERO PUSH2 0x10D3 JUMPI PUSH0 DUP1 REVERT JUMPDEST POP GAS CALL ISZERO DUP1 ISZERO PUSH2 0x10E5 JUMPI RETURNDATASIZE PUSH0 DUP1 RETURNDATACOPY RETURNDATASIZE PUSH0 REVERT JUMPDEST POP POP PUSH1 0xD SLOAD PUSH1 0x40 MLOAD PUSH4 0x95EA7B3 PUSH1 0xE0 SHL DUP2 MSTORE PUSH1 0x1 PUSH1 0x1 PUSH1 0xA0 SHL SUB SWAP2 DUP3 AND PUSH1 0x4 DUP3 ADD MSTORE PUSH0 NOT PUSH1 0x24 DUP3 ADD MSTORE SWAP1 DUP10 AND SWAP4 POP PUSH4 0x95EA7B3 SWAP3 POP PUSH1 0x44 ADD SWAP1 POP PUSH1 0x20 PUSH1 0x40 MLOAD DUP1 DUP4 SUB DUP2 PUSH0 DUP8 GAS CALL ISZERO DUP1 ISZERO PUSH2 0x113B JUMPI RETURNDATASIZE PUSH0 DUP1 RETURNDATACOPY RETURNDATASIZE PUSH0 REVERT JUMPDEST POP POP POP POP PUSH1 0x40 MLOAD RETURNDATASIZE PUSH1 0x1F NOT PUSH1 0x1F DUP3 ADD AND DUP3 ADD DUP1 PUSH1 0x40 MSTORE POP DUP2 ADD SWAP1 PUSH2 0x115F SWAP2 SWAP1 PUSH2 0x176E JUMP JUMPDEST POP PUSH1 0xA SLOAD PUSH1 0xD SLOAD PUSH1 0x40 MLOAD PUSH4 0x95EA7B3 PUSH1 0xE0 SHL DUP2 MSTORE PUSH1 0x1 PUSH1 0x1 PUSH1 0xA0 SHL SUB SWAP2 DUP3 AND PUSH1 0x4 DUP3 ADD MSTORE PUSH0 NOT PUSH1 0x24 DUP3 ADD MSTORE SWAP2 AND SWAP1 PUSH4 0x95EA7B3 SWAP1 PUSH1 0x44 ADD PUSH1 0x20 PUSH1 0x40 MLOAD DUP1 DUP4 SUB DUP2 PUSH0 DUP8 GAS CALL ISZERO DUP1 ISZERO PUSH2 0x11B2 JUMPI RETURNDATASIZE PUSH0 DUP1 RETURNDATACOPY RETURNDATASIZE PUSH0 REVERT JUMPDEST POP POP POP POP PUSH1 0x40 MLOAD RETURNDATASIZE PUSH1 0x1F NOT PUSH1 0x1F DUP3 ADD AND DUP3 ADD DUP1 PUSH1 0x40 MSTORE POP DUP2 ADD SWAP1 PUSH2 0x11D6 SWAP2 SWAP1 PUSH2 0x176E JUMP JUMPDEST POP PUSH1 0xE SLOAD PUSH1 0x5 SLOAD PUSH1 0xA SLOAD PUSH1 0x40 MLOAD PUSH4 0xE6A43905 PUSH1 0xE0 SHL DUP2 MSTORE PUSH1 0x1 PUSH1 0x1 PUSH1 0xA0 SHL SUB SWAP3 DUP4 AND PUSH1 0x4 DUP3 ADD MSTORE SWAP1 DUP3 AND PUSH1 0x24 DUP3 ADD MSTORE PUSH0 SWAP3 SWAP2 SWAP1 SWAP2 AND SWAP1 PUSH4 0xE6A43905 SWAP1 PUSH1 0x44 ADD PUSH1 0x20 PUSH1 0x40 MLOAD DUP1 DUP4 SUB DUP2 DUP7 GAS STATICCALL ISZERO DUP1 ISZERO PUSH2 0x1230 JUMPI RETURNDATASIZE PUSH0 DUP1 RETURNDATACOPY RETURNDATASIZE PUSH0 REVERT JUMPDEST POP POP POP POP PUSH1 0x40 MLOAD RETURNDATASIZE PUSH1 0x1F NOT PUSH1 0x1F DUP3 ADD AND DUP3 ADD DUP1 PUSH1 0x40 MSTORE POP DUP2 ADD SWAP1 PUSH2 0x1254 SWAP2 SWAP1 PUSH2 0x18F3 JUMP JUMPDEST SWAP1 POP PUSH1 0x1 PUSH1 0x1 PUSH1 0xA0 SHL SUB DUP2 AND PUSH2 0x1303 JUMPI PUSH1 0xE SLOAD PUSH1 0xA SLOAD PUSH1 0x5 SLOAD PUSH1 0x40 MLOAD PUSH4 0x64E329CB PUSH1 0xE1 SHL DUP2 MSTORE PUSH1 0x1 PUSH1 0x1 PUSH1 0xA0 SHL SUB SWAP3 DUP4 AND PUSH1 0x4 DUP3 ADD MSTORE SWAP1 DUP3 AND PUSH1 0x24 DUP3 ADD MSTORE SWAP2 AND SWAP1 PUSH4 0xC9C65396 SWAP1 PUSH1 0x44 ADD PUSH1 0x20 PUSH1 0x40 MLOAD DUP1 DUP4 SUB DUP2 PUSH0 DUP8 GAS CALL ISZERO DUP1 ISZERO PUSH2 0x12BA JUMPI RETURNDATASIZE PUSH0 DUP1 RETURNDATACOPY RETURNDATASIZE PUSH0 REVERT JUMPDEST POP POP POP POP PUSH1 0x40 MLOAD RETURNDATASIZE PUSH1 0x1F NOT PUSH1 0x1F DUP3 ADD AND DUP3 ADD DUP1 PUSH1 0x40 MSTORE POP DUP2 ADD SWAP1 PUSH2 0x12DE SWAP2 SWAP1 PUSH2 0x18F3 JUMP JUMPDEST PUSH1 0x9 DUP1 SLOAD PUSH1 0x1 PUSH1 0x1 PUSH1 0xA0 SHL SUB NOT AND PUSH1 0x1 PUSH1 0x1 PUSH1 0xA0 SHL SUB SWAP3 SWAP1 SWAP3 AND SWAP2 SWAP1 SWAP2 OR SWAP1 SSTORE PUSH2 0x131F JUMP JUMPDEST PUSH1 0x9 DUP1 SLOAD PUSH1 0x1 PUSH1 0x1 PUSH1 0xA0 SHL SUB NOT AND PUSH1 0x1 PUSH1 0x1 PUSH1 0xA0 SHL SUB DUP4 AND OR SWAP1 SSTORE JUMPDEST PUSH1 0xD SLOAD PUSH1 0x5 SLOAD PUSH1 0xA SLOAD PUSH1 0x10 SLOAD PUSH1 0x40 MLOAD PUSH4 0x70A08231 PUSH1 0xE0 SHL DUP2 MSTORE ADDRESS PUSH1 0x4 DUP3 ADD MSTORE PUSH1 0x1 PUSH1 0x1 PUSH1 0xA0 SHL SUB SWAP5 DUP6 AND SWAP5 PUSH4 0xE8E33700 SWAP5 DUP2 AND SWAP4 AND SWAP2 SWAP1 DUP3 SWAP1 PUSH4 0x70A08231 SWAP1 PUSH1 0x24 ADD PUSH1 0x20 PUSH1 0x40 MLOAD DUP1 DUP4 SUB DUP2 DUP7 GAS STATICCALL ISZERO DUP1 ISZERO PUSH2 0x137C JUMPI RETURNDATASIZE PUSH0 DUP1 RETURNDATACOPY RETURNDATASIZE PUSH0 REVERT JUMPDEST POP POP POP POP PUSH1 0x40 MLOAD RETURNDATASIZE PUSH1 0x1F NOT PUSH1 0x1F DUP3 ADD AND DUP3 ADD DUP1 PUSH1 0x40 MSTORE POP DUP2 ADD SWAP1 PUSH2 0x13A0 SWAP2 SWAP1 PUSH2 0x190E JUMP JUMPDEST PUSH1 0x40 MLOAD PUSH1 0x1 PUSH1 0x1 PUSH1 0xE0 SHL SUB NOT PUSH1 0xE0 DUP8 SWAP1 SHL AND DUP2 MSTORE PUSH1 0x1 PUSH1 0x1 PUSH1 0xA0 SHL SUB SWAP5 DUP6 AND PUSH1 0x4 DUP3 ADD MSTORE SWAP4 SWAP1 SWAP3 AND PUSH1 0x24 DUP5 ADD MSTORE PUSH1 0x44 DUP4 ADD MSTORE PUSH1 0x64 DUP3 ADD MSTORE PUSH1 0x45 PUSH1 0x84 DUP3 ADD DUP2 SWAP1 MSTORE PUSH1 0xA4 DUP3 ADD MSTORE PUSH0 PUSH1 0xC4 DUP3 ADD MSTORE TIMESTAMP PUSH1 0xE4 DUP3 ADD MSTORE PUSH2 0x104 ADD PUSH1 0x60 PUSH1 0x40 MLOAD DUP1 DUP4 SUB DUP2 PUSH0 DUP8 GAS CALL ISZERO DUP1 ISZERO PUSH2 0x1411 JUMPI RETURNDATASIZE PUSH0 DUP1 RETURNDATACOPY RETURNDATASIZE PUSH0 REVERT JUMPDEST POP POP POP POP PUSH1 0x40 MLOAD RETURNDATASIZE PUSH1 0x1F NOT PUSH1 0x1F DUP3 ADD AND DUP3 ADD DUP1 PUSH1 0x40 MSTORE POP DUP2 ADD SWAP1 PUSH2 0x1435 SWAP2 SWAP1 PUSH2 0x1925 JUMP JUMPDEST POP POP PUSH1 0x9 SLOAD PUSH1 0x10 SLOAD PUSH1 0x40 MLOAD PUSH1 0x1 PUSH1 0x1 PUSH1 0xA0 SHL SUB SWAP1 SWAP3 AND SWAP3 POP PUSH32 0xA1C337BB22A2D8905C88F8D68029AC3F6D5C6C3F16CF5C1FE92EFAB88D11D7B8 SWAP2 PUSH2 0x147D SWAP2 DUP8 SWAP2 PUSH1 0x2 SWAP1 PUSH2 0x1950 JUMP JUMPDEST PUSH1 0x40 MLOAD DUP1 SWAP2 SUB SWAP1 LOG2 POP POP POP POP POP POP PUSH2 0x950 PUSH1 0x1 PUSH0 SSTORE JUMP JUMPDEST PUSH2 0x149C PUSH2 0x15E2 JUMP JUMPDEST PUSH1 0x21 SLOAD NUMBER GT PUSH2 0x14A9 JUMPI PUSH0 DUP1 REVERT JUMPDEST PUSH1 0x16 DUP1 SLOAD PUSH2 0xFF00 NOT AND PUSH2 0x100 OR SWAP1 SSTORE NUMBER PUSH1 0x21 SSTORE PUSH1 0x19 SLOAD PUSH1 0x1A SLOAD PUSH1 0x17 SLOAD PUSH1 0x18 SLOAD PUSH1 0x40 DUP1 MLOAD SWAP5 DUP6 MSTORE PUSH1 0x20 DUP6 ADD SWAP4 SWAP1 SWAP4 MSTORE SWAP2 DUP4 ADD MSTORE PUSH1 0x60 DUP3 ADD MSTORE PUSH32 0xB5A26C67C6983F7A6AF7EF8BD10CA38DCA0FF13D20CB55FF961A0FDB3629A214 SWAP1 PUSH1 0x80 ADD PUSH1 0x40 MLOAD DUP1 SWAP2 SUB SWAP1 LOG1 JUMP JUMPDEST PUSH2 0x1517 PUSH2 0x15E2 JUMP JUMPDEST PUSH1 0x1F DUP2 SWAP1 SSTORE PUSH1 0x40 MLOAD DUP2 DUP2 MSTORE PUSH32 0x3CDDBBD2901897AB7F5D7A62F3806AABD7AAEE30AD5E014303F4E3899CDCB117 SWAP1 PUSH1 0x20 ADD PUSH2 0xA93 JUMP JUMPDEST PUSH2 0x1554 PUSH2 0x15E2 JUMP JUMPDEST PUSH1 0x1 PUSH1 0x1 PUSH1 0xA0 SHL SUB DUP2 AND PUSH2 0x1582 JUMPI PUSH1 0x40 MLOAD PUSH4 0x1E4FBDF7 PUSH1 0xE0 SHL DUP2 MSTORE PUSH0 PUSH1 0x4 DUP3 ADD MSTORE PUSH1 0x24 ADD JUMPDEST PUSH1 0x40 MLOAD DUP1 SWAP2 SUB SWAP1 REVERT JUMPDEST PUSH2 0xA57 DUP2 PUSH2 0x160F JUMP JUMPDEST PUSH1 0x2 PUSH0 SLOAD SUB PUSH2 0x15DC JUMPI PUSH1 0x40 MLOAD PUSH3 0x461BCD PUSH1 0xE5 SHL DUP2 MSTORE PUSH1 0x20 PUSH1 0x4 DUP3 ADD MSTORE PUSH1 0x1F PUSH1 0x24 DUP3 ADD MSTORE PUSH32 0x5265656E7472616E637947756172643A207265656E7472616E742063616C6C00 PUSH1 0x44 DUP3 ADD MSTORE PUSH1 0x64 ADD PUSH2 0x1579 JUMP JUMPDEST PUSH1 0x2 PUSH0 SSTORE JUMP JUMPDEST PUSH1 0x1 SLOAD PUSH1 0x1 PUSH1 0x1 PUSH1 0xA0 SHL SUB AND CALLER EQ PUSH2 0x950 JUMPI PUSH1 0x40 MLOAD PUSH4 0x118CDAA7 PUSH1 0xE0 SHL DUP2 MSTORE CALLER PUSH1 0x4 DUP3 ADD MSTORE PUSH1 0x24 ADD PUSH2 0x1579 JUMP JUMPDEST PUSH1 0x1 DUP1 SLOAD PUSH1 0x1 PUSH1 0x1 PUSH1 0xA0 SHL SUB DUP4 DUP2 AND PUSH1 0x1 PUSH1 0x1 PUSH1 0xA0 SHL SUB NOT DUP4 AND DUP2 OR SWAP1 SWAP4 SSTORE PUSH1 0x40 MLOAD SWAP2 AND SWAP2 SWAP1 DUP3 SWAP1 PUSH32 0x8BE0079C531659141344CD1FD0A4F28419497F9722A3DAAFE3B4186F6B6457E0 SWAP1 PUSH0 SWAP1 LOG3 POP POP JUMP JUMPDEST PUSH2 0xC53 DUP1 PUSH2 0x1978 DUP4 CODECOPY ADD SWAP1 JUMP JUMPDEST PUSH0 PUSH1 0x20 DUP3 DUP5 SUB SLT ISZERO PUSH2 0x167D JUMPI PUSH0 DUP1 REVERT JUMPDEST POP CALLDATALOAD SWAP2 SWAP1 POP JUMP JUMPDEST PUSH0 DUP1 PUSH0 DUP1 PUSH1 0x80 DUP6 DUP8 SUB SLT ISZERO PUSH2 0x1697 JUMPI PUSH0 DUP1 REVERT JUMPDEST POP POP DUP3 CALLDATALOAD SWAP5 PUSH1 0x20 DUP5 ADD CALLDATALOAD SWAP5 POP PUSH1 0x40 DUP5 ADD CALLDATALOAD SWAP4 PUSH1 0x60 ADD CALLDATALOAD SWAP3 POP SWAP1 POP JUMP JUMPDEST PUSH1 0x20 DUP2 MSTORE PUSH0 DUP3 MLOAD DUP1 PUSH1 0x20 DUP5 ADD MSTORE DUP1 PUSH1 0x20 DUP6 ADD PUSH1 0x40 DUP6 ADD MCOPY PUSH0 PUSH1 0x40 DUP3 DUP6 ADD ADD MSTORE PUSH1 0x40 PUSH1 0x1F NOT PUSH1 0x1F DUP4 ADD AND DUP5 ADD ADD SWAP2 POP POP SWAP3 SWAP2 POP POP JUMP JUMPDEST PUSH1 0x1 PUSH1 0x1 PUSH1 0xA0 SHL SUB DUP2 AND DUP2 EQ PUSH2 0xA57 JUMPI PUSH0 DUP1 REVERT JUMPDEST PUSH0 PUSH1 0x20 DUP3 DUP5 SUB SLT ISZERO PUSH2 0x170C JUMPI PUSH0 DUP1 REVERT JUMPDEST DUP2 CALLDATALOAD PUSH2 0x1717 DUP2 PUSH2 0x16E8 JUMP JUMPDEST SWAP4 SWAP3 POP POP POP JUMP JUMPDEST PUSH4 0x4E487B71 PUSH1 0xE0 SHL PUSH0 MSTORE PUSH1 0x11 PUSH1 0x4 MSTORE PUSH1 0x24 PUSH0 REVERT JUMPDEST PUSH0 DUP3 PUSH2 0x174C JUMPI PUSH4 0x4E487B71 PUSH1 0xE0 SHL PUSH0 MSTORE PUSH1 0x12 PUSH1 0x4 MSTORE PUSH1 0x24 PUSH0 REVERT JUMPDEST POP DIV SWAP1 JUMP JUMPDEST DUP1 DUP3 MUL DUP2 ISZERO DUP3 DUP3 DIV DUP5 EQ OR PUSH2 0x1768 JUMPI PUSH2 0x1768 PUSH2 0x171E JUMP JUMPDEST SWAP3 SWAP2 POP POP JUMP JUMPDEST PUSH0 PUSH1 0x20 DUP3 DUP5 SUB SLT ISZERO PUSH2 0x177E JUMPI PUSH0 DUP1 REVERT JUMPDEST DUP2 MLOAD DUP1 ISZERO ISZERO DUP2 EQ PUSH2 0x1717 JUMPI PUSH0 DUP1 REVERT JUMPDEST DUP1 DUP3 ADD DUP1 DUP3 GT ISZERO PUSH2 0x1768 JUMPI PUSH2 0x1768 PUSH2 0x171E JUMP JUMPDEST PUSH1 0x1 DUP2 DUP2 SHR SWAP1 DUP3 AND DUP1 PUSH2 0x17B4 JUMPI PUSH1 0x7F DUP3 AND SWAP2 POP JUMPDEST PUSH1 0x20 DUP3 LT DUP2 SUB PUSH2 0x17D2 JUMPI PUSH4 0x4E487B71 PUSH1 0xE0 SHL PUSH0 MSTORE PUSH1 0x22 PUSH1 0x4 MSTORE PUSH1 0x24 PUSH0 REVERT JUMPDEST POP SWAP2 SWAP1 POP JUMP JUMPDEST DUP2 DUP2 SUB DUP2 DUP2 GT ISZERO PUSH2 0x1768 JUMPI PUSH2 0x1768 PUSH2 0x171E JUMP JUMPDEST DUP1 SLOAD PUSH0 SWAP1 PUSH1 0x1 DUP2 DUP2 SHR SWAP1 DUP1 DUP4 AND DUP1 PUSH2 0x1804 JUMPI PUSH1 0x7F DUP4 AND SWAP3 POP JUMPDEST PUSH1 0x20 DUP1 DUP5 LT DUP3 SUB PUSH2 0x1823 JUMPI PUSH4 0x4E487B71 PUSH1 0xE0 SHL PUSH0 MSTORE PUSH1 0x22 PUSH1 0x4 MSTORE PUSH1 0x24 PUSH0 REVERT JUMPDEST DUP4 DUP9 MSTORE PUSH1 0x20 DUP9 ADD DUP3 DUP1 ISZERO PUSH2 0x183E JUMPI PUSH1 0x1 DUP2 EQ PUSH2 0x1854 JUMPI PUSH2 0x187D JUMP JUMPDEST PUSH1 0xFF NOT DUP8 AND DUP3 MSTORE DUP6 ISZERO ISZERO PUSH1 0x5 SHL DUP3 ADD SWAP8 POP PUSH2 0x187D JUMP JUMPDEST PUSH0 DUP10 DUP2 MSTORE PUSH1 0x20 SWAP1 KECCAK256 PUSH0 JUMPDEST DUP8 DUP2 LT ISZERO PUSH2 0x1877 JUMPI DUP2 SLOAD DUP5 DUP3 ADD MSTORE SWAP1 DUP7 ADD SWAP1 DUP5 ADD PUSH2 0x185E JUMP JUMPDEST DUP4 ADD SWAP9 POP POP JUMPDEST POP POP POP POP POP POP POP SWAP3 SWAP2 POP POP JUMP JUMPDEST DUP4 DUP2 MSTORE PUSH1 0x60 PUSH1 0x20 DUP3 ADD MSTORE PUSH0 PUSH2 0x18A2 PUSH1 0x60 DUP4 ADD DUP6 PUSH2 0x17EB JUMP JUMPDEST DUP3 DUP2 SUB PUSH1 0x40 DUP5 ADD MSTORE PUSH2 0x18B4 DUP2 DUP6 PUSH2 0x17EB JUMP JUMPDEST SWAP7 SWAP6 POP POP POP POP POP POP JUMP JUMPDEST PUSH1 0x60 DUP2 MSTORE PUSH0 PUSH2 0x18D0 PUSH1 0x60 DUP4 ADD DUP7 PUSH2 0x17EB JUMP JUMPDEST DUP3 DUP2 SUB PUSH1 0x20 DUP5 ADD MSTORE PUSH2 0x18E2 DUP2 DUP7 PUSH2 0x17EB JUMP JUMPDEST SWAP2 POP POP DUP3 PUSH1 0x40 DUP4 ADD MSTORE SWAP5 SWAP4 POP POP POP POP JUMP JUMPDEST PUSH0 PUSH1 0x20 DUP3 DUP5 SUB SLT ISZERO PUSH2 0x1903 JUMPI PUSH0 DUP1 REVERT JUMPDEST DUP2 MLOAD PUSH2 0x1717 DUP2 PUSH2 0x16E8 JUMP JUMPDEST PUSH0 PUSH1 0x20 DUP3 DUP5 SUB SLT ISZERO PUSH2 0x191E JUMPI PUSH0 DUP1 REVERT JUMPDEST POP MLOAD SWAP2 SWAP1 POP JUMP JUMPDEST PUSH0 DUP1 PUSH0 PUSH1 0x60 DUP5 DUP7 SUB SLT ISZERO PUSH2 0x1937 JUMPI PUSH0 DUP1 REVERT JUMPDEST DUP4 MLOAD SWAP3 POP PUSH1 0x20 DUP5 ADD MLOAD SWAP2 POP PUSH1 0x40 DUP5 ADD MLOAD SWAP1 POP SWAP3 POP SWAP3 POP SWAP3 JUMP JUMPDEST DUP4 DUP2 MSTORE DUP3 PUSH1 0x20 DUP3 ADD MSTORE PUSH1 0x60 PUSH1 0x40 DUP3 ADD MSTORE PUSH0 PUSH2 0x196E PUSH1 0x60 DUP4 ADD DUP5 PUSH2 0x17EB JUMP JUMPDEST SWAP6 SWAP5 POP POP POP POP POP JUMP INVALID PUSH1 0x80 PUSH1 0x40 MSTORE CALLVALUE DUP1 ISZERO PUSH2 0xF JUMPI PUSH0 DUP1 REVERT JUMPDEST POP PUSH1 0x40 MLOAD PUSH2 0xC53 CODESIZE SUB DUP1 PUSH2 0xC53 DUP4 CODECOPY DUP2 ADD PUSH1 0x40 DUP2 SWAP1 MSTORE PUSH2 0x2E SWAP2 PUSH2 0x284 JUMP JUMPDEST DUP2 DUP2 PUSH1 0x3 PUSH2 0x3C DUP4 DUP3 PUSH2 0x370 JUMP JUMPDEST POP PUSH1 0x4 PUSH2 0x49 DUP3 DUP3 PUSH2 0x370 JUMP JUMPDEST POP POP POP PUSH2 0x78 CALLER PUSH2 0x5E PUSH2 0x80 PUSH1 0x20 SHL PUSH1 0x20 SHR JUMP JUMPDEST PUSH2 0x69 SWAP1 PUSH1 0xA PUSH2 0x525 JUMP JUMPDEST PUSH2 0x73 SWAP1 DUP7 PUSH2 0x53A JUMP JUMPDEST PUSH2 0x85 JUMP JUMPDEST POP POP POP PUSH2 0x564 JUMP JUMPDEST PUSH1 0x12 SWAP1 JUMP JUMPDEST PUSH1 0x1 PUSH1 0x1 PUSH1 0xA0 SHL SUB DUP3 AND PUSH2 0xB3 JUMPI PUSH1 0x40 MLOAD PUSH4 0xEC442F05 PUSH1 0xE0 SHL DUP2 MSTORE PUSH0 PUSH1 0x4 DUP3 ADD MSTORE PUSH1 0x24 ADD JUMPDEST PUSH1 0x40 MLOAD DUP1 SWAP2 SUB SWAP1 REVERT JUMPDEST PUSH2 0xBE PUSH0 DUP4 DUP4 PUSH2 0xC2 JUMP JUMPDEST POP POP JUMP JUMPDEST PUSH1 0x1 PUSH1 0x1 PUSH1 0xA0 SHL SUB DUP4 AND PUSH2 0xEC JUMPI DUP1 PUSH1 0x2 PUSH0 DUP3 DUP3 SLOAD PUSH2 0xE1 SWAP2 SWAP1 PUSH2 0x551 JUMP JUMPDEST SWAP1 SWAP2 SSTORE POP PUSH2 0x15C SWAP1 POP JUMP JUMPDEST PUSH1 0x1 PUSH1 0x1 PUSH1 0xA0 SHL SUB DUP4 AND PUSH0 SWAP1 DUP2 MSTORE PUSH1 0x20 DUP2 SWAP1 MSTORE PUSH1 0x40 SWAP1 KECCAK256 SLOAD DUP2 DUP2 LT ISZERO PUSH2 0x13E JUMPI PUSH1 0x40 MLOAD PUSH4 0x391434E3 PUSH1 0xE2 SHL DUP2 MSTORE PUSH1 0x1 PUSH1 0x1 PUSH1 0xA0 SHL SUB DUP6 AND PUSH1 0x4 DUP3 ADD MSTORE PUSH1 0x24 DUP2 ADD DUP3 SWAP1 MSTORE PUSH1 0x44 DUP2 ADD DUP4 SWAP1 MSTORE PUSH1 0x64 ADD PUSH2 0xAA JUMP JUMPDEST PUSH1 0x1 PUSH1 0x1 PUSH1 0xA0 SHL SUB DUP5 AND PUSH0 SWAP1 DUP2 MSTORE PUSH1 0x20 DUP2 SWAP1 MSTORE PUSH1 0x40 SWAP1 KECCAK256 SWAP1 DUP3 SWAP1 SUB SWAP1 SSTORE JUMPDEST PUSH1 0x1 PUSH1 0x1 PUSH1 0xA0 SHL SUB DUP3 AND PUSH2 0x178 JUMPI PUSH1 0x2 DUP1 SLOAD DUP3 SWAP1 SUB SWAP1 SSTORE PUSH2 0x196 JUMP JUMPDEST PUSH1 0x1 PUSH1 0x1 PUSH1 0xA0 SHL SUB DUP3 AND PUSH0 SWAP1 DUP2 MSTORE PUSH1 0x20 DUP2 SWAP1 MSTORE PUSH1 0x40 SWAP1 KECCAK256 DUP1 SLOAD DUP3 ADD SWAP1 SSTORE JUMPDEST DUP2 PUSH1 0x1 PUSH1 0x1 PUSH1 0xA0 SHL SUB AND DUP4 PUSH1 0x1 PUSH1 0x1 PUSH1 0xA0 SHL SUB AND PUSH32 0xDDF252AD1BE2C89B69C2B068FC378DAA952BA7F163C4A11628F55A4DF523B3EF DUP4 PUSH1 0x40 MLOAD PUSH2 0x1DB SWAP2 DUP2 MSTORE PUSH1 0x20 ADD SWAP1 JUMP JUMPDEST PUSH1 0x40 MLOAD DUP1 SWAP2 SUB SWAP1 LOG3 POP POP POP JUMP JUMPDEST PUSH4 0x4E487B71 PUSH1 0xE0 SHL PUSH0 MSTORE PUSH1 0x41 PUSH1 0x4 MSTORE PUSH1 0x24 PUSH0 REVERT JUMPDEST PUSH0 DUP3 PUSH1 0x1F DUP4 ADD SLT PUSH2 0x20B JUMPI PUSH0 DUP1 REVERT JUMPDEST DUP2 MLOAD PUSH1 0x1 PUSH1 0x1 PUSH1 0x40 SHL SUB DUP1 DUP3 GT ISZERO PUSH2 0x225 JUMPI PUSH2 0x225 PUSH2 0x1E8 JUMP JUMPDEST PUSH1 0x40 MLOAD PUSH1 0x1F DUP4 ADD PUSH1 0x1F NOT SWAP1 DUP2 AND PUSH1 0x3F ADD AND DUP2 ADD SWAP1 DUP3 DUP3 GT DUP2 DUP4 LT OR ISZERO PUSH2 0x24D JUMPI PUSH2 0x24D PUSH2 0x1E8 JUMP JUMPDEST DUP2 PUSH1 0x40 MSTORE DUP4 DUP2 MSTORE DUP7 PUSH1 0x20 DUP6 DUP9 ADD ADD GT ISZERO PUSH2 0x265 JUMPI PUSH0 DUP1 REVERT JUMPDEST DUP4 PUSH1 0x20 DUP8 ADD PUSH1 0x20 DUP4 ADD MCOPY PUSH0 PUSH1 0x20 DUP6 DUP4 ADD ADD MSTORE DUP1 SWAP5 POP POP POP POP POP SWAP3 SWAP2 POP POP JUMP JUMPDEST PUSH0 DUP1 PUSH0 PUSH1 0x60 DUP5 DUP7 SUB SLT ISZERO PUSH2 0x296 JUMPI PUSH0 DUP1 REVERT JUMPDEST DUP4 MLOAD PUSH1 0x20 DUP6 ADD MLOAD SWAP1 SWAP4 POP PUSH1 0x1 PUSH1 0x1 PUSH1 0x40 SHL SUB DUP1 DUP3 GT ISZERO PUSH2 0x2B4 JUMPI PUSH0 DUP1 REVERT JUMPDEST PUSH2 0x2C0 DUP8 DUP4 DUP9 ADD PUSH2 0x1FC JUMP JUMPDEST SWAP4 POP PUSH1 0x40 DUP7 ADD MLOAD SWAP2 POP DUP1 DUP3 GT ISZERO PUSH2 0x2D5 JUMPI PUSH0 DUP1 REVERT JUMPDEST POP PUSH2 0x2E2 DUP7 DUP3 DUP8 ADD PUSH2 0x1FC JUMP JUMPDEST SWAP2 POP POP SWAP3 POP SWAP3 POP SWAP3 JUMP JUMPDEST PUSH1 0x1 DUP2 DUP2 SHR SWAP1 DUP3 AND DUP1 PUSH2 0x300 JUMPI PUSH1 0x7F DUP3 AND SWAP2 POP JUMPDEST PUSH1 0x20 DUP3 LT DUP2 SUB PUSH2 0x31E JUMPI PUSH4 0x4E487B71 PUSH1 0xE0 SHL PUSH0 MSTORE PUSH1 0x22 PUSH1 0x4 MSTORE PUSH1 0x24 PUSH0 REVERT JUMPDEST POP SWAP2 SWAP1 POP JUMP JUMPDEST PUSH1 0x1F DUP3 GT ISZERO PUSH2 0x36B JUMPI DUP1 PUSH0 MSTORE PUSH1 0x20 PUSH0 KECCAK256 PUSH1 0x1F DUP5 ADD PUSH1 0x5 SHR DUP2 ADD PUSH1 0x20 DUP6 LT ISZERO PUSH2 0x349 JUMPI POP DUP1 JUMPDEST PUSH1 0x1F DUP5 ADD PUSH1 0x5 SHR DUP3 ADD SWAP2 POP JUMPDEST DUP2 DUP2 LT ISZERO PUSH2 0x368 JUMPI PUSH0 DUP2 SSTORE PUSH1 0x1 ADD PUSH2 0x355 JUMP JUMPDEST POP POP JUMPDEST POP POP POP JUMP JUMPDEST DUP2 MLOAD PUSH1 0x1 PUSH1 0x1 PUSH1 0x40 SHL SUB DUP2 GT ISZERO PUSH2 0x389 JUMPI PUSH2 0x389 PUSH2 0x1E8 JUMP JUMPDEST PUSH2 0x39D DUP2 PUSH2 0x397 DUP5 SLOAD PUSH2 0x2EC JUMP JUMPDEST DUP5 PUSH2 0x324 JUMP JUMPDEST PUSH1 0x20 DUP1 PUSH1 0x1F DUP4 GT PUSH1 0x1 DUP2 EQ PUSH2 0x3D0 JUMPI PUSH0 DUP5 ISZERO PUSH2 0x3B9 JUMPI POP DUP6 DUP4 ADD MLOAD JUMPDEST PUSH0 NOT PUSH1 0x3 DUP7 SWAP1 SHL SHR NOT AND PUSH1 0x1 DUP6 SWAP1 SHL OR DUP6 SSTORE PUSH2 0x427 JUMP JUMPDEST PUSH0 DUP6 DUP2 MSTORE PUSH1 0x20 DUP2 KECCAK256 PUSH1 0x1F NOT DUP7 AND SWAP2 JUMPDEST DUP3 DUP2 LT ISZERO PUSH2 0x3FE JUMPI DUP9 DUP7 ADD MLOAD DUP3 SSTORE SWAP5 DUP5 ADD SWAP5 PUSH1 0x1 SWAP1 SWAP2 ADD SWAP1 DUP5 ADD PUSH2 0x3DF JUMP JUMPDEST POP DUP6 DUP3 LT ISZERO PUSH2 0x41B JUMPI DUP8 DUP6 ADD MLOAD PUSH0 NOT PUSH1 0x3 DUP9 SWAP1 SHL PUSH1 0xF8 AND SHR NOT AND DUP2 SSTORE JUMPDEST POP POP PUSH1 0x1 DUP5 PUSH1 0x1 SHL ADD DUP6 SSTORE JUMPDEST POP POP POP POP POP POP JUMP JUMPDEST PUSH4 0x4E487B71 PUSH1 0xE0 SHL PUSH0 MSTORE PUSH1 0x11 PUSH1 0x4 MSTORE PUSH1 0x24 PUSH0 REVERT JUMPDEST PUSH1 0x1 DUP2 DUP2 JUMPDEST DUP1 DUP6 GT ISZERO PUSH2 0x47D JUMPI DUP2 PUSH0 NOT DIV DUP3 GT ISZERO PUSH2 0x463 JUMPI PUSH2 0x463 PUSH2 0x42F JUMP JUMPDEST DUP1 DUP6 AND ISZERO PUSH2 0x470 JUMPI SWAP2 DUP2 MUL SWAP2 JUMPDEST SWAP4 DUP5 SHR SWAP4 SWAP1 DUP1 MUL SWAP1 PUSH2 0x448 JUMP JUMPDEST POP SWAP3 POP SWAP3 SWAP1 POP JUMP JUMPDEST PUSH0 DUP3 PUSH2 0x493 JUMPI POP PUSH1 0x1 PUSH2 0x51F JUMP JUMPDEST DUP2 PUSH2 0x49F JUMPI POP PUSH0 PUSH2 0x51F JUMP JUMPDEST DUP2 PUSH1 0x1 DUP2 EQ PUSH2 0x4B5 JUMPI PUSH1 0x2 DUP2 EQ PUSH2 0x4BF JUMPI PUSH2 0x4DB JUMP JUMPDEST PUSH1 0x1 SWAP2 POP POP PUSH2 0x51F JUMP JUMPDEST PUSH1 0xFF DUP5 GT ISZERO PUSH2 0x4D0 JUMPI PUSH2 0x4D0 PUSH2 0x42F JUMP JUMPDEST POP POP PUSH1 0x1 DUP3 SHL PUSH2 0x51F JUMP JUMPDEST POP PUSH1 0x20 DUP4 LT PUSH2 0x133 DUP4 LT AND PUSH1 0x4E DUP5 LT PUSH1 0xB DUP5 LT AND OR ISZERO PUSH2 0x4FE JUMPI POP DUP2 DUP2 EXP PUSH2 0x51F JUMP JUMPDEST PUSH2 0x508 DUP4 DUP4 PUSH2 0x443 JUMP JUMPDEST DUP1 PUSH0 NOT DIV DUP3 GT ISZERO PUSH2 0x51B JUMPI PUSH2 0x51B PUSH2 0x42F JUMP JUMPDEST MUL SWAP1 POP JUMPDEST SWAP3 SWAP2 POP POP JUMP JUMPDEST PUSH0 PUSH2 0x533 PUSH1 0xFF DUP5 AND DUP4 PUSH2 0x485 JUMP JUMPDEST SWAP4 SWAP3 POP POP POP JUMP JUMPDEST DUP1 DUP3 MUL DUP2 ISZERO DUP3 DUP3 DIV DUP5 EQ OR PUSH2 0x51F JUMPI PUSH2 0x51F PUSH2 0x42F JUMP JUMPDEST DUP1 DUP3 ADD DUP1 DUP3 GT ISZERO PUSH2 0x51F JUMPI PUSH2 0x51F PUSH2 0x42F JUMP JUMPDEST PUSH2 0x6E2 DUP1 PUSH2 0x571 PUSH0 CODECOPY PUSH0 RETURN INVALID PUSH1 0x80 PUSH1 0x40 MSTORE CALLVALUE DUP1 ISZERO PUSH2 0xF JUMPI PUSH0 DUP1 REVERT JUMPDEST POP PUSH1 0x4 CALLDATASIZE LT PUSH2 0x90 JUMPI PUSH0 CALLDATALOAD PUSH1 0xE0 SHR DUP1 PUSH4 0x313CE567 GT PUSH2 0x63 JUMPI DUP1 PUSH4 0x313CE567 EQ PUSH2 0xFA JUMPI DUP1 PUSH4 0x70A08231 EQ PUSH2 0x109 JUMPI DUP1 PUSH4 0x95D89B41 EQ PUSH2 0x131 JUMPI DUP1 PUSH4 0xA9059CBB EQ PUSH2 0x139 JUMPI DUP1 PUSH4 0xDD62ED3E EQ PUSH2 0x14C JUMPI PUSH0 DUP1 REVERT JUMPDEST DUP1 PUSH4 0x6FDDE03 EQ PUSH2 0x94 JUMPI DUP1 PUSH4 0x95EA7B3 EQ PUSH2 0xB2 JUMPI DUP1 PUSH4 0x18160DDD EQ PUSH2 0xD5 JUMPI DUP1 PUSH4 0x23B872DD EQ PUSH2 0xE7 JUMPI JUMPDEST PUSH0 DUP1 REVERT JUMPDEST PUSH2 0x9C PUSH2 0x184 JUMP JUMPDEST PUSH1 0x40 MLOAD PUSH2 0xA9 SWAP2 SWAP1 PUSH2 0x553 JUMP JUMPDEST PUSH1 0x40 MLOAD DUP1 SWAP2 SUB SWAP1 RETURN JUMPDEST PUSH2 0xC5 PUSH2 0xC0 CALLDATASIZE PUSH1 0x4 PUSH2 0x5A3 JUMP JUMPDEST PUSH2 0x214 JUMP JUMPDEST PUSH1 0x40 MLOAD SWAP1 ISZERO ISZERO DUP2 MSTORE PUSH1 0x20 ADD PUSH2 0xA9 JUMP JUMPDEST PUSH1 0x2 SLOAD JUMPDEST PUSH1 0x40 MLOAD SWAP1 DUP2 MSTORE PUSH1 0x20 ADD PUSH2 0xA9 JUMP JUMPDEST PUSH2 0xC5 PUSH2 0xF5 CALLDATASIZE PUSH1 0x4 PUSH2 0x5CB JUMP JUMPDEST PUSH2 0x22D JUMP JUMPDEST PUSH1 0x40 MLOAD PUSH1 0x12 DUP2 MSTORE PUSH1 0x20 ADD PUSH2 0xA9 JUMP JUMPDEST PUSH2 0xD9 PUSH2 0x117 CALLDATASIZE PUSH1 0x4 PUSH2 0x604 JUMP JUMPDEST PUSH1 0x1 PUSH1 0x1 PUSH1 0xA0 SHL SUB AND PUSH0 SWAP1 DUP2 MSTORE PUSH1 0x20 DUP2 SWAP1 MSTORE PUSH1 0x40 SWAP1 KECCAK256 SLOAD SWAP1 JUMP JUMPDEST PUSH2 0x9C PUSH2 0x250 JUMP JUMPDEST PUSH2 0xC5 PUSH2 0x147 CALLDATASIZE PUSH1 0x4 PUSH2 0x5A3 JUMP JUMPDEST PUSH2 0x25F JUMP JUMPDEST PUSH2 0xD9 PUSH2 0x15A CALLDATASIZE PUSH1 0x4 PUSH2 0x624 JUMP JUMPDEST PUSH1 0x1 PUSH1 0x1 PUSH1 0xA0 SHL SUB SWAP2 DUP3 AND PUSH0 SWAP1 DUP2 MSTORE PUSH1 0x1 PUSH1 0x20 SWAP1 DUP2 MSTORE PUSH1 0x40 DUP1 DUP4 KECCAK256 SWAP4 SWAP1 SWAP5 AND DUP3 MSTORE SWAP2 SWAP1 SWAP2 MSTORE KECCAK256 SLOAD SWAP1 JUMP JUMPDEST PUSH1 0x60 PUSH1 0x3 DUP1 SLOAD PUSH2 0x193 SWAP1 PUSH2 0x655 JUMP JUMPDEST DUP1 PUSH1 0x1F ADD PUSH1 0x20 DUP1 SWAP2 DIV MUL PUSH1 0x20 ADD PUSH1 0x40 MLOAD SWAP1 DUP2 ADD PUSH1 0x40 MSTORE DUP1 SWAP3 SWAP2 SWAP1 DUP2 DUP2 MSTORE PUSH1 0x20 ADD DUP3 DUP1 SLOAD PUSH2 0x1BF SWAP1 PUSH2 0x655 JUMP JUMPDEST DUP1 ISZERO PUSH2 0x20A JUMPI DUP1 PUSH1 0x1F LT PUSH2 0x1E1 JUMPI PUSH2 0x100 DUP1 DUP4 SLOAD DIV MUL DUP4 MSTORE SWAP2 PUSH1 0x20 ADD SWAP2 PUSH2 0x20A JUMP JUMPDEST DUP3 ADD SWAP2 SWAP1 PUSH0 MSTORE PUSH1 0x20 PUSH0 KECCAK256 SWAP1 JUMPDEST DUP2 SLOAD DUP2 MSTORE SWAP1 PUSH1 0x1 ADD SWAP1 PUSH1 0x20 ADD DUP1 DUP4 GT PUSH2 0x1ED JUMPI DUP3 SWAP1 SUB PUSH1 0x1F AND DUP3 ADD SWAP2 JUMPDEST POP POP POP POP POP SWAP1 POP SWAP1 JUMP JUMPDEST PUSH0 CALLER PUSH2 0x221 DUP2 DUP6 DUP6 PUSH2 0x26C JUMP JUMPDEST PUSH1 0x1 SWAP2 POP POP JUMPDEST SWAP3 SWAP2 POP POP JUMP JUMPDEST PUSH0 CALLER PUSH2 0x23A DUP6 DUP3 DUP6 PUSH2 0x27E JUMP JUMPDEST PUSH2 0x245 DUP6 DUP6 DUP6 PUSH2 0x2FE JUMP JUMPDEST POP PUSH1 0x1 SWAP5 SWAP4 POP POP POP POP JUMP JUMPDEST PUSH1 0x60 PUSH1 0x4 DUP1 SLOAD PUSH2 0x193 SWAP1 PUSH2 0x655 JUMP JUMPDEST PUSH0 CALLER PUSH2 0x221 DUP2 DUP6 DUP6 PUSH2 0x2FE JUMP JUMPDEST PUSH2 0x279 DUP4 DUP4 DUP4 PUSH1 0x1 PUSH2 0x35B JUMP JUMPDEST POP POP POP JUMP JUMPDEST PUSH1 0x1 PUSH1 0x1 PUSH1 0xA0 SHL SUB DUP4 DUP2 AND PUSH0 SWAP1 DUP2 MSTORE PUSH1 0x1 PUSH1 0x20 SWAP1 DUP2 MSTORE PUSH1 0x40 DUP1 DUP4 KECCAK256 SWAP4 DUP7 AND DUP4 MSTORE SWAP3 SWAP1 MSTORE KECCAK256 SLOAD PUSH0 NOT DUP2 EQ PUSH2 0x2F8 JUMPI DUP2 DUP2 LT ISZERO PUSH2 0x2EA JUMPI PUSH1 0x40 MLOAD PUSH4 0x7DC7A0D9 PUSH1 0xE1 SHL DUP2 MSTORE PUSH1 0x1 PUSH1 0x1 PUSH1 0xA0 SHL SUB DUP5 AND PUSH1 0x4 DUP3 ADD MSTORE PUSH1 0x24 DUP2 ADD DUP3 SWAP1 MSTORE PUSH1 0x44 DUP2 ADD DUP4 SWAP1 MSTORE PUSH1 0x64 ADD JUMPDEST PUSH1 0x40 MLOAD DUP1 SWAP2 SUB SWAP1 REVERT JUMPDEST PUSH2 0x2F8 DUP5 DUP5 DUP5 DUP5 SUB PUSH0 PUSH2 0x35B JUMP JUMPDEST POP POP POP POP JUMP JUMPDEST PUSH1 0x1 PUSH1 0x1 PUSH1 0xA0 SHL SUB DUP4 AND PUSH2 0x327 JUMPI PUSH1 0x40 MLOAD PUSH4 0x4B637E8F PUSH1 0xE1 SHL DUP2 MSTORE PUSH0 PUSH1 0x4 DUP3 ADD MSTORE PUSH1 0x24 ADD PUSH2 0x2E1 JUMP JUMPDEST PUSH1 0x1 PUSH1 0x1 PUSH1 0xA0 SHL SUB DUP3 AND PUSH2 0x350 JUMPI PUSH1 0x40 MLOAD PUSH4 0xEC442F05 PUSH1 0xE0 SHL DUP2 MSTORE PUSH0 PUSH1 0x4 DUP3 ADD MSTORE PUSH1 0x24 ADD PUSH2 0x2E1 JUMP JUMPDEST PUSH2 0x279 DUP4 DUP4 DUP4 PUSH2 0x42D JUMP JUMPDEST PUSH1 0x1 PUSH1 0x1 PUSH1 0xA0 SHL SUB DUP5 AND PUSH2 0x384 JUMPI PUSH1 0x40 MLOAD PUSH4 0xE602DF05 PUSH1 0xE0 SHL DUP2 MSTORE PUSH0 PUSH1 0x4 DUP3 ADD MSTORE PUSH1 0x24 ADD PUSH2 0x2E1 JUMP JUMPDEST PUSH1 0x1 PUSH1 0x1 PUSH1 0xA0 SHL SUB DUP4 AND PUSH2 0x3AD JUMPI PUSH1 0x40 MLOAD PUSH4 0x4A1406B1 PUSH1 0xE1 SHL DUP2 MSTORE PUSH0 PUSH1 0x4 DUP3 ADD MSTORE PUSH1 0x24 ADD PUSH2 0x2E1 JUMP JUMPDEST PUSH1 0x1 PUSH1 0x1 PUSH1 0xA0 SHL SUB DUP1 DUP6 AND PUSH0 SWAP1 DUP2 MSTORE PUSH1 0x1 PUSH1 0x20 SWAP1 DUP2 MSTORE PUSH1 0x40 DUP1 DUP4 KECCAK256 SWAP4 DUP8 AND DUP4 MSTORE SWAP3 SWAP1 MSTORE KECCAK256 DUP3 SWAP1 SSTORE DUP1 ISZERO PUSH2 0x2F8 JUMPI DUP3 PUSH1 0x1 PUSH1 0x1 PUSH1 0xA0 SHL SUB AND DUP5 PUSH1 0x1 PUSH1 0x1 PUSH1 0xA0 SHL SUB AND PUSH32 0x8C5BE1E5EBEC7D5BD14F71427D1E84F3DD0314C0F7B2291E5B200AC8C7C3B925 DUP5 PUSH1 0x40 MLOAD PUSH2 0x41F SWAP2 DUP2 MSTORE PUSH1 0x20 ADD SWAP1 JUMP JUMPDEST PUSH1 0x40 MLOAD DUP1 SWAP2 SUB SWAP1 LOG3 POP POP POP POP JUMP JUMPDEST PUSH1 0x1 PUSH1 0x1 PUSH1 0xA0 SHL SUB DUP4 AND PUSH2 0x457 JUMPI DUP1 PUSH1 0x2 PUSH0 DUP3 DUP3 SLOAD PUSH2 0x44C SWAP2 SWAP1 PUSH2 0x68D JUMP JUMPDEST SWAP1 SWAP2 SSTORE POP PUSH2 0x4C7 SWAP1 POP JUMP JUMPDEST PUSH1 0x1 PUSH1 0x1 PUSH1 0xA0 SHL SUB DUP4 AND PUSH0 SWAP1 DUP2 MSTORE PUSH1 0x20 DUP2 SWAP1 MSTORE PUSH1 0x40 SWAP1 KECCAK256 SLOAD DUP2 DUP2 LT ISZERO PUSH2 0x4A9 JUMPI PUSH1 0x40 MLOAD PUSH4 0x391434E3 PUSH1 0xE2 SHL DUP2 MSTORE PUSH1 0x1 PUSH1 0x1 PUSH1 0xA0 SHL SUB DUP6 AND PUSH1 0x4 DUP3 ADD MSTORE PUSH1 0x24 DUP2 ADD DUP3 SWAP1 MSTORE PUSH1 0x44 DUP2 ADD DUP4 SWAP1 MSTORE PUSH1 0x64 ADD PUSH2 0x2E1 JUMP JUMPDEST PUSH1 0x1 PUSH1 0x1 PUSH1 0xA0 SHL SUB DUP5 AND PUSH0 SWAP1 DUP2 MSTORE PUSH1 0x20 DUP2 SWAP1 MSTORE PUSH1 0x40 SWAP1 KECCAK256 SWAP1 DUP3 SWAP1 SUB SWAP1 SSTORE JUMPDEST PUSH1 0x1 PUSH1 0x1 PUSH1 0xA0 SHL SUB DUP3 AND PUSH2 0x4E3 JUMPI PUSH1 0x2 DUP1 SLOAD DUP3 SWAP1 SUB SWAP1 SSTORE PUSH2 0x501 JUMP JUMPDEST PUSH1 0x1 PUSH1 0x1 PUSH1 0xA0 SHL SUB DUP3 AND PUSH0 SWAP1 DUP2 MSTORE PUSH1 0x20 DUP2 SWAP1 MSTORE PUSH1 0x40 SWAP1 KECCAK256 DUP1 SLOAD DUP3 ADD SWAP1 SSTORE JUMPDEST DUP2 PUSH1 0x1 PUSH1 0x1 PUSH1 0xA0 SHL SUB AND DUP4 PUSH1 0x1 PUSH1 0x1 PUSH1 0xA0 SHL SUB AND PUSH32 0xDDF252AD1BE2C89B69C2B068FC378DAA952BA7F163C4A11628F55A4DF523B3EF DUP4 PUSH1 0x40 MLOAD PUSH2 0x546 SWAP2 DUP2 MSTORE PUSH1 0x20 ADD SWAP1 JUMP JUMPDEST PUSH1 0x40 MLOAD DUP1 SWAP2 SUB SWAP1 LOG3 POP POP POP JUMP JUMPDEST PUSH1 0x20 DUP2 MSTORE PUSH0 DUP3 MLOAD DUP1 PUSH1 0x20 DUP5 ADD MSTORE DUP1 PUSH1 0x20 DUP6 ADD PUSH1 0x40 DUP6 ADD MCOPY PUSH0 PUSH1 0x40 DUP3 DUP6 ADD ADD MSTORE PUSH1 0x40 PUSH1 0x1F NOT PUSH1 0x1F DUP4 ADD AND DUP5 ADD ADD SWAP2 POP POP SWAP3 SWAP2 POP POP JUMP JUMPDEST DUP1 CALLDATALOAD PUSH1 0x1 PUSH1 0x1 PUSH1 0xA0 SHL SUB DUP2 AND DUP2 EQ PUSH2 0x59E JUMPI PUSH0 DUP1 REVERT JUMPDEST SWAP2 SWAP1 POP JUMP JUMPDEST PUSH0 DUP1 PUSH1 0x40 DUP4 DUP6 SUB SLT ISZERO PUSH2 0x5B4 JUMPI PUSH0 DUP1 REVERT JUMPDEST PUSH2 0x5BD DUP4 PUSH2 0x588 JUMP JUMPDEST SWAP5 PUSH1 0x20 SWAP4 SWAP1 SWAP4 ADD CALLDATALOAD SWAP4 POP POP POP JUMP JUMPDEST PUSH0 DUP1 PUSH0 PUSH1 0x60 DUP5 DUP7 SUB SLT ISZERO PUSH2 0x5DD JUMPI PUSH0 DUP1 REVERT JUMPDEST PUSH2 0x5E6 DUP5 PUSH2 0x588 JUMP JUMPDEST SWAP3 POP PUSH2 0x5F4 PUSH1 0x20 DUP6 ADD PUSH2 0x588 JUMP JUMPDEST SWAP2 POP PUSH1 0x40 DUP5 ADD CALLDATALOAD SWAP1 POP SWAP3 POP SWAP3 POP SWAP3 JUMP JUMPDEST PUSH0 PUSH1 0x20 DUP3 DUP5 SUB SLT ISZERO PUSH2 0x614 JUMPI PUSH0 DUP1 REVERT JUMPDEST PUSH2 0x61D DUP3 PUSH2 0x588 JUMP JUMPDEST SWAP4 SWAP3 POP POP POP JUMP JUMPDEST PUSH0 DUP1 PUSH1 0x40 DUP4 DUP6 SUB SLT ISZERO PUSH2 0x635 JUMPI PUSH0 DUP1 REVERT JUMPDEST PUSH2 0x63E DUP4 PUSH2 0x588 JUMP JUMPDEST SWAP2 POP PUSH2 0x64C PUSH1 0x20 DUP5 ADD PUSH2 0x588 JUMP JUMPDEST SWAP1 POP SWAP3 POP SWAP3 SWAP1 POP JUMP JUMPDEST PUSH1 0x1 DUP2 DUP2 SHR SWAP1 DUP3 AND DUP1 PUSH2 0x669 JUMPI PUSH1 0x7F DUP3 AND SWAP2 POP JUMPDEST PUSH1 0x20 DUP3 LT DUP2 SUB PUSH2 0x687 JUMPI PUSH4 0x4E487B71 PUSH1 0xE0 SHL PUSH0 MSTORE PUSH1 0x22 PUSH1 0x4 MSTORE PUSH1 0x24 PUSH0 REVERT JUMPDEST POP SWAP2 SWAP1 POP JUMP JUMPDEST DUP1 DUP3 ADD DUP1 DUP3 GT ISZERO PUSH2 0x227 JUMPI PUSH4 0x4E487B71 PUSH1 0xE0 SHL PUSH0 MSTORE PUSH1 0x11 PUSH1 0x4 MSTORE PUSH1 0x24 PUSH0 REVERT INVALID LOG2 PUSH5 0x6970667358 0x22 SLT KECCAK256 0x4B 0xD5 0xD2 EXP PUSH11 0xB90558ADBCC50D5D8979F9 0x2F DUP8 SELFDESTRUCT 0xAA 0x2C MSTORE BLOBBASEFEE 0xD MSTORE JUMPDEST 0x28 TIMESTAMP 0xA5 0xCA PUSH1 0xF2 PUSH5 0x736F6C6343 STOP ADDMOD NOT STOP CALLER LOG2 PUSH5 0x6970667358 0x22 SLT KECCAK256 0xF 0xD9 0xD8 PUSH28 0x16B80A0AABCAF697D2BAB8DFFB4411C24B703BDC53188B614BF1AC76 PUSH5 0x736F6C6343 STOP ADDMOD NOT STOP CALLER LOG2 PUSH5 0x6970667358 0x22 SLT KECCAK256 PUSH21 0x262DC87BDDA443017431B764F1D4FF435C54C60AD8 0xA5 INVALID SELFBALANCE 0xED 0xA5 CREATE AND STOP 0xED SGT PUSH5 0x736F6C6343 STOP ADDMOD NOT STOP CALLER "
		},
		"gasEstimates": {
			"creation": {
				"codeDepositCost": "3189600",
				"executionCost": "infinite",
				"totalCost": "infinite"
			},
			"external": {
				"addressIsLaunchpad(address)": "2616",
				"closeFactory(bool)": "27865",
				"createFairLaunchpad(string,string,uint256,bool,uint256,uint256,uint256,uint256,uint256,uint256)": "infinite",
				"factoryBaseFee()": "2362",
				"factoryFee()": "2361",
				"factoryOpen()": "2442",
				"factoryToken()": "2392",
				"getTokenStakingContractAllocation(address)": "4869",
				"isAddressFactoryToken(address)": "2636",
				"isAddressLaunchpad(address)": "2591",
				"isFactoryToken(address)": "2639",
				"launchpadsGenerated()": "2338",
				"multiSigAddress()": "2371",
				"owner()": "2341",
				"registerFactoryToken(address,uint256)": "50194",
				"renounceOwnership()": "infinite",
				"setFactoryBaseFee(uint256)": "25673",
				"setFactoryFee(uint256)": "25552",
				"setStakingContract(address)": "27936",
				"stakingContract()": "2391",
				"stakingContractFactoryTokenAllocations(address)": "2538",
				"transferOwnership(address)": "28461",
				"withdrawETHToMultiSig()": "infinite",
				"withdrawTokensToMultiSig(address[])": "infinite"
			}
		},
		"methodIdentifiers": {
			"addressIsLaunchpad(address)": "f06fafb6",
			"closeFactory(bool)": "82b3aa08",
			"createFairLaunchpad(string,string,uint256,bool,uint256,uint256,uint256,uint256,uint256,uint256)": "f1a74b55",
			"factoryBaseFee()": "18b7d5ed",
			"factoryFee()": "6286116a",
			"factoryOpen()": "d2c3bb3c",
			"factoryToken()": "97f6c25d",
			"getTokenStakingContractAllocation(address)": "22022de6",
			"isAddressFactoryToken(address)": "1d16aeae",
			"isAddressLaunchpad(address)": "53cbd07e",
			"isFactoryToken(address)": "a4b7914e",
			"launchpadsGenerated()": "e1ee981a",
			"multiSigAddress()": "1516def7",
			"owner()": "8da5cb5b",
			"registerFactoryToken(address,uint256)": "96b37277",
			"renounceOwnership()": "715018a6",
			"setFactoryBaseFee(uint256)": "3ee014a7",
			"setFactoryFee(uint256)": "03545f6a",
			"setStakingContract(address)": "9dd373b9",
			"stakingContract()": "ee99205c",
			"stakingContractFactoryTokenAllocations(address)": "d8eba892",
			"transferOwnership(address)": "f2fde38b",
			"withdrawETHToMultiSig()": "4fa7131c",
			"withdrawTokensToMultiSig(address[])": "742e0109"
		}
	},
	"abi": [
		{
			"inputs": [
				{
					"internalType": "uint256",
					"name": "_factoryFee",
					"type": "uint256"
				},
				{
					"internalType": "uint256",
					"name": "_factoryBaseFee",
					"type": "uint256"
				},
				{
					"internalType": "address",
					"name": "_stakingContract",
					"type": "address"
				},
				{
					"internalType": "address",
					"name": "_factoryToken",
					"type": "address"
				},
				{
					"internalType": "address",
					"name": "_multiSigAddress",
					"type": "address"
				}
			],
			"stateMutability": "nonpayable",
			"type": "constructor"
		},
		{
			"inputs": [
				{
					"internalType": "address",
					"name": "owner",
					"type": "address"
				}
			],
			"name": "OwnableInvalidOwner",
			"type": "error"
		},
		{
			"inputs": [
				{
					"internalType": "address",
					"name": "account",
					"type": "address"
				}
			],
			"name": "OwnableUnauthorizedAccount",
			"type": "error"
		},
		{
			"anonymous": false,
			"inputs": [
				{
					"indexed": false,
					"internalType": "uint256",
					"name": "newBaseFee",
					"type": "uint256"
				}
			],
			"name": "FactoryBaseFeeSet",
			"type": "event"
		},
		{
			"anonymous": false,
			"inputs": [
				{
					"indexed": false,
					"internalType": "bool",
					"name": "factoryOpen",
					"type": "bool"
				}
			],
			"name": "FactoryClosed",
			"type": "event"
		},
		{
			"anonymous": false,
			"inputs": [
				{
					"indexed": false,
					"internalType": "uint256",
					"name": "newFee",
					"type": "uint256"
				}
			],
			"name": "FactoryFeeSet",
			"type": "event"
		},
		{
			"anonymous": false,
			"inputs": [
				{
					"indexed": true,
					"internalType": "address",
					"name": "tokenAddress",
					"type": "address"
				}
			],
			"name": "FactoryTokenRegistered",
			"type": "event"
		},
		{
			"anonymous": false,
			"inputs": [
				{
					"indexed": true,
					"internalType": "address",
					"name": "LaunchpaddAddress",
					"type": "address"
				},
				{
					"indexed": true,
					"internalType": "uint256",
					"name": "launchpadNumber",
					"type": "uint256"
				},
				{
					"indexed": false,
					"internalType": "uint256",
					"name": "hardcap",
					"type": "uint256"
				},
				{
					"indexed": false,
					"internalType": "uint256",
					"name": "softcap",
					"type": "uint256"
				},
				{
					"indexed": false,
					"internalType": "address",
					"name": "founderAddres",
					"type": "address"
				}
			],
			"name": "LaunchPadGenerated",
			"type": "event"
		},
		{
			"anonymous": false,
			"inputs": [
				{
					"indexed": true,
					"internalType": "address",
					"name": "previousOwner",
					"type": "address"
				},
				{
					"indexed": true,
					"internalType": "address",
					"name": "newOwner",
					"type": "address"
				}
			],
			"name": "OwnershipTransferred",
			"type": "event"
		},
		{
			"anonymous": false,
			"inputs": [
				{
					"indexed": true,
					"internalType": "address",
					"name": "newStakingContract",
					"type": "address"
				}
			],
			"name": "StakingContractSet",
			"type": "event"
		},
		{
			"anonymous": false,
			"inputs": [
				{
					"indexed": false,
					"internalType": "address",
					"name": "withdrawSender",
					"type": "address"
				},
				{
					"indexed": false,
					"internalType": "uint256",
					"name": "withdrawalAmount",
					"type": "uint256"
				}
			],
			"name": "multiSigEthWithdrawal",
			"type": "event"
		},
		{
			"anonymous": false,
			"inputs": [
				{
					"indexed": true,
					"internalType": "address",
					"name": "tokenAddress",
					"type": "address"
				},
				{
					"indexed": false,
					"internalType": "uint256",
					"name": "withdrawalAmount",
					"type": "uint256"
				}
			],
			"name": "multiSigTokenWithdrawal",
			"type": "event"
		},
		{
			"inputs": [
				{
					"internalType": "address",
					"name": "",
					"type": "address"
				}
			],
			"name": "addressIsLaunchpad",
			"outputs": [
				{
					"internalType": "bool",
					"name": "",
					"type": "bool"
				}
			],
			"stateMutability": "view",
			"type": "function"
		},
		{
			"inputs": [
				{
					"internalType": "bool",
					"name": "_factoryOpen",
					"type": "bool"
				}
			],
			"name": "closeFactory",
			"outputs": [],
			"stateMutability": "nonpayable",
			"type": "function"
		},
		{
			"inputs": [
				{
					"internalType": "string",
					"name": "_name",
					"type": "string"
				},
				{
					"internalType": "string",
					"name": "_symbol",
					"type": "string"
				},
				{
					"internalType": "uint256",
					"name": "_totalSupply",
					"type": "uint256"
				},
				{
					"internalType": "bool",
					"name": "_presaleLaunchpad",
					"type": "bool"
				},
				{
					"internalType": "uint256",
					"name": "_presaleHardcap",
					"type": "uint256"
				},
				{
					"internalType": "uint256",
					"name": "_presaleSoftcap",
					"type": "uint256"
				},
				{
					"internalType": "uint256",
					"name": "_presaleLengthBlocks",
					"type": "uint256"
				},
				{
					"internalType": "uint256",
					"name": "_presaleMaxContribution",
					"type": "uint256"
				},
				{
					"internalType": "uint256",
					"name": "_presaleMinContribution",
					"type": "uint256"
				},
				{
					"internalType": "uint256",
					"name": "_founderSupplyAllocation",
					"type": "uint256"
				}
			],
			"name": "createFairLaunchpad",
			"outputs": [],
			"stateMutability": "payable",
			"type": "function"
		},
		{
			"inputs": [],
			"name": "factoryBaseFee",
			"outputs": [
				{
					"internalType": "uint256",
					"name": "",
					"type": "uint256"
				}
			],
			"stateMutability": "view",
			"type": "function"
		},
		{
			"inputs": [],
			"name": "factoryFee",
			"outputs": [
				{
					"internalType": "uint256",
					"name": "",
					"type": "uint256"
				}
			],
			"stateMutability": "view",
			"type": "function"
		},
		{
			"inputs": [],
			"name": "factoryOpen",
			"outputs": [
				{
					"internalType": "bool",
					"name": "",
					"type": "bool"
				}
			],
			"stateMutability": "view",
			"type": "function"
		},
		{
			"inputs": [],
			"name": "factoryToken",
			"outputs": [
				{
					"internalType": "address",
					"name": "",
					"type": "address"
				}
			],
			"stateMutability": "view",
			"type": "function"
		},
		{
			"inputs": [
				{
					"internalType": "address",
					"name": "_address",
					"type": "address"
				}
			],
			"name": "getTokenStakingContractAllocation",
			"outputs": [
				{
					"internalType": "uint256",
					"name": "",
					"type": "uint256"
				}
			],
			"stateMutability": "view",
			"type": "function"
		},
		{
			"inputs": [
				{
					"internalType": "address",
					"name": "_address",
					"type": "address"
				}
			],
			"name": "isAddressFactoryToken",
			"outputs": [
				{
					"internalType": "bool",
					"name": "",
					"type": "bool"
				}
			],
			"stateMutability": "view",
			"type": "function"
		},
		{
			"inputs": [
				{
					"internalType": "address",
					"name": "_address",
					"type": "address"
				}
			],
			"name": "isAddressLaunchpad",
			"outputs": [
				{
					"internalType": "bool",
					"name": "",
					"type": "bool"
				}
			],
			"stateMutability": "view",
			"type": "function"
		},
		{
			"inputs": [
				{
					"internalType": "address",
					"name": "",
					"type": "address"
				}
			],
			"name": "isFactoryToken",
			"outputs": [
				{
					"internalType": "bool",
					"name": "",
					"type": "bool"
				}
			],
			"stateMutability": "view",
			"type": "function"
		},
		{
			"inputs": [],
			"name": "launchpadsGenerated",
			"outputs": [
				{
					"internalType": "uint256",
					"name": "",
					"type": "uint256"
				}
			],
			"stateMutability": "view",
			"type": "function"
		},
		{
			"inputs": [],
			"name": "multiSigAddress",
			"outputs": [
				{
					"internalType": "address",
					"name": "",
					"type": "address"
				}
			],
			"stateMutability": "view",
			"type": "function"
		},
		{
			"inputs": [],
			"name": "owner",
			"outputs": [
				{
					"internalType": "address",
					"name": "",
					"type": "address"
				}
			],
			"stateMutability": "view",
			"type": "function"
		},
		{
			"inputs": [
				{
					"internalType": "address",
					"name": "_address",
					"type": "address"
				},
				{
					"internalType": "uint256",
					"name": "_stakingContractAllocation",
					"type": "uint256"
				}
			],
			"name": "registerFactoryToken",
			"outputs": [],
			"stateMutability": "nonpayable",
			"type": "function"
		},
		{
			"inputs": [],
			"name": "renounceOwnership",
			"outputs": [],
			"stateMutability": "nonpayable",
			"type": "function"
		},
		{
			"inputs": [
				{
					"internalType": "uint256",
					"name": "_newFee",
					"type": "uint256"
				}
			],
			"name": "setFactoryBaseFee",
			"outputs": [],
			"stateMutability": "nonpayable",
			"type": "function"
		},
		{
			"inputs": [
				{
					"internalType": "uint256",
					"name": "_newFee",
					"type": "uint256"
				}
			],
			"name": "setFactoryFee",
			"outputs": [],
			"stateMutability": "nonpayable",
			"type": "function"
		},
		{
			"inputs": [
				{
					"internalType": "address",
					"name": "_newStakingContract",
					"type": "address"
				}
			],
			"name": "setStakingContract",
			"outputs": [],
			"stateMutability": "nonpayable",
			"type": "function"
		},
		{
			"inputs": [],
			"name": "stakingContract",
			"outputs": [
				{
					"internalType": "address",
					"name": "",
					"type": "address"
				}
			],
			"stateMutability": "view",
			"type": "function"
		},
		{
			"inputs": [
				{
					"internalType": "address",
					"name": "",
					"type": "address"
				}
			],
			"name": "stakingContractFactoryTokenAllocations",
			"outputs": [
				{
					"internalType": "uint256",
					"name": "",
					"type": "uint256"
				}
			],
			"stateMutability": "view",
			"type": "function"
		},
		{
			"inputs": [
				{
					"internalType": "address",
					"name": "newOwner",
					"type": "address"
				}
			],
			"name": "transferOwnership",
			"outputs": [],
			"stateMutability": "nonpayable",
			"type": "function"
		},
		{
			"inputs": [],
			"name": "withdrawETHToMultiSig",
			"outputs": [],
			"stateMutability": "nonpayable",
			"type": "function"
		},
		{
			"inputs": [
				{
					"internalType": "address[]",
					"name": "_tokenAddresses",
					"type": "address[]"
				}
			],
			"name": "withdrawTokensToMultiSig",
			"outputs": [],
			"stateMutability": "nonpayable",
			"type": "function"
		}
	]
}